:020000040800F2
:1000000048300020518C0008798A00087B8A00085B
:100010007D8A00087F8A0008818A000800000000AD
:10002000000000000000000000000000838A0008BB
:10003000858A000800000000878A0008898A000875
:10004000998C00089D8C0008A18C0008A58C0008E4
:10005000A98C0008AD8C0008B18C0008B58C000894
:10006000B98C0008BD8C0008C18C0008C58C000844
:10007000C98C0008CD8C0008D18C0008D58C0008F4
:10008000D98C0008DD8C0008E18C0008E58C0008A4
:10009000E98C0008ED8C0008F18C0008F58C000854
:1000A000F98C00088B8A0008FD8C0008018D00087F
:1000B000058D0008098D00080D8D0008118D0008C0
:1000C000158D0008918A0008198D00081D8D000803
:1000D000218D0008978A0008258D0008298D0008C9
:1000E0002D8D0008318D0008358D0008398D0008F0
:1000F0003D8D0008418D0008458D0008498D0008A0
:100100004D8D0008518D0008558D0008598D00084F
:100110005D8D0008618D0008658D0008698D0008FF
:100120006D8D0008718D0008758D0008798D0008AF
:1001300038B500F041F900F01DF84900224641F0C1
:10014000010101F036FC040005D022460FF20C013B
:1001500061A002F0F7FD204632BD00006D78745FAB
:10016000626F6F746C6F616465725F726561645F0A
:10017000693263004FF47A7100912B46DFF8B40ABC
:1001800090F83510DFF8800B704700002DE9FC4136
:100190000D460646AF1C9046B8B202F0E7FD0400DB
:1001A00008BFFF2021D000F009F926702A46360A40
:1001B00066704146A01C02F077FE4FF47A71009100
:1001C000BBB2DFF8700A90F83410DFF83C0B22461F
:1001D000490001F040FB050003D02A4604A100F0CD
:1001E0000FF8204602F06CFE2846BDE8F6810000BC
:1001F00077726974655F6D656D5F693263000000D9
:1002000001A002F09FBD00002573206932632077B2
:1002100072697465204572726F72212125640D0A1E
:100220000000000070B50D46412D044616460CD363
:1002300032464021A0B2FFF7A9FF01000BD1403D9B
:1002400040364034A8B24128F2D23246A0B2BDE8CE
:10025000704040219AE770BD2DE9FC4106460C46EE
:10026000154600F0ABF86421DFF8C889DFF8987A0A
:1002700000918DF80460360A98F834108DF8056006
:10028000022301AA4900384601F0E5FA0EA618B18A
:1002900002463146FFF7B4FF4FF47A7098F83410F5
:1002A0000090490023462A4641F00101384601F0FA
:1002B00080FB040005D022464FEA060106A002F0AA
:1002C00041FD2046BDE8F681726561645F6D656D34
:1002D0005F69326300000000257320693263207279
:1002E00065616464204572726F72212125640D0A74
:1002F00000000000B0E7F8B504460D46164600F0D1
:10030000A9F908B9FF20F2BD40882818324601211A
:1003100080B2FFF7EFFF070005D03378DFF8FC0A63
:100320002A46214601E00020F2BD02F00BFD3846CE
:10033000F2BD41EA022181EA4001C80144BF81F4D3
:10034000000181F01B0121F07F4070470000000098
:10035000F8B500F033F80027DFF8AC59DFF8C06AD1
:100360000324F15D642301224900284601F044FD85
:1003700010B1641EF5D10AE0DFF8B808F15D80F82D
:100380003410490004A002F0DDFC0020F2BD7F1C07
:100390000C2FE5D30120F2BD466F756E64206932E3
:1003A000632061646472657373203D20307825306A
:1003B00032580D0A0000000004460D46002002F0ED
:1003C00085BD00001CB503216846FFF7B1FE04009F
:1003D00005D000BF10A002F0B5FC204616BD9DF868
:1003E000004004F0C000402804BF0FF24C0002F0AF
:1003F000A9FCA10616A007D59DF8011002F0A2FCE9
:100400009DF8021018A003E09DF8001001F01F01F4
:1004100002F098FC002016BD426F6F746C6F61642F
:1004200065722072656164207374617475732066EF
:1004300061696C65640D0A004150505F4352435F2F
:100440004641494C206F636375727265640D0A0002
:10045000426F6F746C6F61646572204944203D2067
:10046000253032780D0A0000426F6F746C6F616442
:1004700065722056657273696F6E203D202530329B
:10048000780D0A002DE9F041DFF8A837D3F808808D
:100490000026B446002211E008EBC6042578B4F823
:1004A00002E02779854208D165798D424FF0010C31
:1004B00003D372467F1C01FB0722761C9C79A6425F
:1004C00002DABCF1000FE7D090B2BDE8F081F0B5E0
:1004D00000F027F809E016F832708F4204D106EBDD
:1004E000C20001240079401C521C9D79AA4201DA05
:1004F0002500F0D0C0B2F0BDF0B500F012F809E070
:1005000016F832708F4204D106EBC2000124407904
:10051000401C521C9D79AA4201DA2500F0D0C0B2DD
:10052000F0BDDFF810379E6801460022002400204D
:1005300070472DE9F0418046DFF8F80600F13605F6
:1005400000242E7800F1380700E0641CA0B2B0EB64
:10055000460F0BDA3A686978B888FFF7CBFE0100DE
:1005600005D13B681A784245EFD100E0FF20BDE895
:10057000F081F0B5DFF8BC36DE68012401E0641CD0
:10058000E4B293F83650A5420BDB16F8147087429C
:1005900002BF06EB44056F789742F0D10C70002043
:1005A000F0BDFF20F0BD70B5DFF88846E368FF2698
:1005B000067094F836508D4208D313F81160067017
:1005C00003EB410148781070002070BDFF2070BD22
:1005D0002DE9FC41552104468DF80110FF20FFF75D
:1005E000A8FFDFF8505600F091FBE88FDFF838786D
:1005F00000F02AF8804601200026B870012002F0A1
:100600009BFC0A2002F028FD761C30B99DF8000002
:10061000FFF78FFF5FEA000808D0B978012910D1F1
:10062000B1B240F6B8308142E8DB0AE0AA6B9078BC
:10063000D178127940EA012040EA0240206000208F
:1006400000E04046BDE8F681401C0DF101020121A9
:1006500080B2E7E538B50024DFF8182C014600E049
:10066000641C93799C4206DA906800EBC40005781C
:100670008D42F5D132BD00BF02A002F063FB002025
:1006800032BD0000496E76616C6964206F626A65F4
:1006900063742074797065205425750A0000000089
:1006A00010B5DFF89005DFF8D44BC16A0C60162254
:1006B0004A6041F22E03DFF8C82B8B60CA6010221B
:1006C000DFF8C03B0B610A75AA21C06A417510BDF5
:1006D0002DE9FE4F00208DF80000FFF7E1FFDFF865
:1006E0005465F16A886810B9DFF89C0B3BE0317CF7
:1006F000B078814208D0DFF8940B02F023FBB27887
:1007000096F810105AA058E0717CF078DFF880ABB2
:10071000814206D05EA002F015FBF278717C504653
:100720004BE0306A10B900BF60A01CE000243464C4
:1007300000220192029201A8FFF74AFF40B902A8E5
:10074000FFF746FF002802BF02990198814204D0BA
:10075000641CE1B20A29EBDB00E03064E4B20A2C4D
:1007600004D10FF6803002F0EDFA64E0316C0FF640
:10077000943002F0E7FA316A54A002F0E3FA306CE8
:10078000316A884205D120B10AF1240002F0DAFA78
:100790006AE00FF68C300FF2541802F0D3FA0025FD
:1007A00003E03978404602F0CDFAB26995425BD257
:1007B000E91C914204D30AF1500002F0C3FA3AE076
:1007C000716A4F19B8784519ED1CADB23878AA4254
:1007D00006D2034629460AF1840002F0B3FA2AE061
:1007E0007978FFF74FFE04463878FFF770FE8146B0
:1007F0003878FFF781FE002C8346D2D0B878814547
:1008000006DA39780FF6283002F09CFA87F8029061
:100810007878584503D339780AF1C400C3E7B9782A
:10082000FA1C2046FFF7FEFC38B10FF6A4210FF6A4
:10083000203002F087FA012017E0B9784945B4DA90
:100840003A78A9EB01010AF1E80002F07BFABF78DF
:100850007F1CF8B24845A8DA00196A46FFF7F7FE90
:100860000028F5D00B2000E00020BDE8FE8F00003E
:1008700066772066696C65207665725B25645D2C01
:1008800020446576207665725B25645D0D0A000064
:100890005761726E696E673A204275696C64206DAB
:1008A00069736D61746368210D0A0000436F6E66A1
:1008B000696775726174696F6E2066696C65206323
:1008C0006F727275707465640A000000546172671B
:1008D000657420636F6E66696720435243203D2034
:1008E0003078253036580D0A000000005425642069
:1008F000697320496E76616C6964206F626A656312
:100900007420747970650D0A00000000F0B585B0A0
:1009100044788578C1780079C64E45EA012545EAD4
:10092000004596F8480084422CD080A260074CBF56
:100930000FF65C20104621074CBF0FF64C211146E4
:10094000E3064CBF0FF638271746A3064CBF0FF639
:10095000282C944663064CBF0FF6142E96462306A9
:100960004CBF0FF60423134604B9B1A204900391BF
:10097000CDF804C0CDF800E002972146DFF8140955
:1009800002F0E0F9DFF8107944B929460FF60C209F
:1009900002F0D8F900223A70BA707A70200712D5A6
:1009A0000FF6142002F0CEF9387870B929460FF608
:1009B000202002F0C7F9316A0FF6342002F0C2F9A4
:1009C0000120387001E086F8484005B0F0BD80B5E0
:1009D0000920FFF73FFE08B9FF2002BD4088123012
:1009E0006A46042180B2FFF785FC010010D19DF812
:1009F00000209DF80110DFF8A40802EB012202801C
:100A00009DF803109DF8022002EB01224280002095
:100A100002BD2DE9F04F0346DFF8804820888BB0F7
:100A200019785A7840F2FF3500B92580608800B9FE
:100A3000658018799D78060946EA051BDD782688C9
:100A400000F00F0040EA0510B6F5806FB8BF4FEA1E
:100A50009B0B6488B4F5806FB8BF80085C799D7982
:100A6000DE79D3074CBF55272E2793074CBF4FF095
:100A7000530C4FF02E0C53074CBF4FF0410E4FF06C
:100A80002E0E13074CBF4FF056084FF02E08D3061A
:100A90004CBF4FF04D094FF02E0993064CBF4FF05D
:100AA000520A4FF02E0A53064CBF50232E23120633
:100AB0004CBF44222E220790CDF810C0CDF80CE098
:100AC0000A9609950894CDF818B00597CDF80880D6
:100AD000CDF80490CDF800A0DFF8C40702F032F999
:100AE0000BB0BDE8F08F10B5DFF8884704F14E0277
:100AF00002216420FFF7FFFB010015D14F3422468D
:100B000003216420FFF7F7FB01000DD122780620B6
:100B1000D10744BFE0700720910744BF6070401CBC
:100B2000510748BFA070002010BD00000000000069
:100B30002DE9FF47DFF86C570278697F521AD2B26D
:100B40004FF00008012AC146C2466EDDC4788378A2
:100B5000067903EB0423447906EB042E911E4278B8
:100B60001406C9B25AD52C7E95F800C006260AE0B4
:100B7000A70606D504F0DF0403E0E706F8D504F085
:100B8000EF04761CF6B2664517DAE70748BF04F0B3
:100B9000FE04F6D4A70748BF04F0FD04F1D46707AC
:100BA00048BF04F0FB04ECD42707E6D5771C674563
:100BB000B8BF3E4604F0F704E3E7C2F30214621E36
:100BC000052A24D8DFE802F0031D23030331AA7E9F
:100BD0000AB110F802806A7E0AB110F80290EA7E2B
:100BE0000AB110F802A0CDF800E0CDF80CA0CDF8C5
:100BF0000890CDF804802246DFF8AC0602F0A2F897
:100C000013E06A7E002AEED010F80290EBE704B001
:100C1000BDE8F0470FF2F47002F094B804B0BDE8FC
:100C2000F0470FF6000002F08DB8BDE8FF87000026
:100C3000204F4B00DC2900201FB5DFF870462078DC
:100C4000012800D11FBDDFF82C0690F83710808FE7
:100C500001AAFFF74FFBC8B99DF804100DF101027E
:100C60006846FFF7A0FCE8B99DF80000062809D007
:100C7000092810D0642812D0762804BF9DF80500FA
:100C800060700FE001A8FFF741FE0BE00FF2A470C7
:100C900002F058F81FBD01A8FFF7BBFE02E001A853
:100CA000FFF746FF0A2002F0D7F90028CBD01FBD7E
:100CB0007CB555205C4C8DF801000121A170FF200E
:100CC000FFF737FC00F022F8DFF8A805C08FFFF728
:100CD000BBFC00260546012002F02EF90A2002F096
:100CE000BBF9761C08B9FFF7A7FFA278012AB1B2B9
:100CF00003D140F6B8308142EDDB0FF2507002F0C4
:100D000021F8284676BD00003C2A002000226946D2
:100D10000620FFF72EBC2DE9F846044603208DF887
:100D200000008DF801400020ADF80200002176207F
:100D3000FFF7A8FB6A460421FFF774FA98B9DFF8B9
:100D40006C757870FFF778FF002640F6B835012003
:100D500002F0F2F87978761C11B9B0B2A842F6DB4D
:100D6000B6B2AE4201D1FF2055E00846A04252D1B2
:100D70000FF2EC6001F0E6FF012000253C1D387009
:100D80000026F1B27520FFF77DFB3A1DA9B20A4497
:100D9000F321FFF7AFFA761CF335F0B21828F0DB39
:100DA00014250FF2800A0FF2CC664FF00009797813
:100DB0001129A9F1030007D121786278A41C8828A1
:100DC00041EA02210DD209E010290AD12278617886
:100DD000A41C882841EA022103D209B2304601F05E
:100DE000B1FF09F10109B9F18E0FE0DB504601F0C6
:100DF000A9FF6D1ED9D10020ADF800006A46DFF8CA
:100E00007404B0F858000421FFF70CFA0020387081
:100E1000FFF712FF0020BDE8F2860000FC8A000800
:100E2000140200200A000000402C00202DE9F84F99
:100E300084B0DFF84054FFF78BFA05F13406C0B1F7
:100E40000FF2486001F07EFF0B2714B1204602F03C
:100E500037F8706808B102F033F8A86808B102F0FA
:100E60002FF8E86808B102F02BF8384605B0BDE865
:100E7000F08F3078DFF838842438122805D24046C5
:100E800001F060FFFFF79EFADEE76A4601210620C7
:100E9000FFF730FA10B99DF8000010B908F12400EE
:100EA000D0E70621484300F1070949460FF2F85000
:100EB00001F048FF484601F059FF040005D108F150
:100EC000480001F03FFF0B27C3E72246072100201F
:100ED000FFF710FA28B10FF2E85001F033FF0B27AB
:100EE000B4E7072701E0BF1DBFB24F4509DAE21999
:100EF00006213846FFF7FEF90028F4D00FF2DC5047
:100F0000EBE701AA03214846FFF7F4F910B108F115
:100F10007000E2E701AF9DF804007A78B97840EA02
:100F2000022040EA014030610020824608E0621C55
:100F300012F80A20FFF7FDF90AF102011FFA81FAFF
:100F4000A9F1010214F80A109245F0DB0022FFF724
:100F5000F0F920F07F4931694A4608F1A00001F01C
:100F6000F1FE306908B1484502D008F1D800B4E775
:100F70002178297060786870A278AA70E078E870AB
:100F800022792A7160796871A2790FF26C50AA7186
:100F900001F0D8FE69780FF2785001F0D3FEA978FD
:100FA0000FF2845001F00F02090901F0CBFEE9783D
:100FB0000FF2885001F0C6FE29790FF2945001F02B
:100FC000C1FE69790FF2A05001F0BCFEA9790FF2C1
:100FD000B05001F0B7FEA8A001F0B4FEA87910B996
:100FE00008F1FC0079E7C00001F0C0FEA86010B96C
:100FF00008F5907071E705F154090021B17089F886
:101000000010F1778B460FF2905103914FF0070AD1
:1010100069E01FFA8AF02118062201A801F044FFB6
:10102000A8689DF8041000F83B100AF1060AA868A9
:101030007978BA78831C01EB022123F83B10001D5C
:10104000F97800F83B10AA683879511D01F83B0087
:10105000AA687879911D01F83B00A968039800F00F
:1010600029F9A868811C0FF2445031F83B1001F0B7
:1010700069FEA868011D0FF2485000F01BF9A8682E
:10108000411D0FF2545000F015F9A968881D10F8A1
:101090003B100FF2605001F055FE77A001F052FEB8
:1010A000A968881D10F83B0070B1B278531C8DF808
:1010B000023001F1050E1EF83B305B1C03FB0020E3
:1010C000B070B0788DF8010011F83B00642806D1AB
:1010D0009DF802109DF8010089F80010F0770BF1DF
:1010E00001001FFA80FBA879834592DBB1780FF2EB
:1010F0001C5001F027FE00210620FFF7C3F9708184
:1011000000210520FFF7BEF930810520FFF7DFF948
:10111000401EF07000217520FFF7B4F9A9F8020015
:1011200000217620FFF7AEF9A9F8040071890FF2CB
:10113000F44001F007FEF278318908F5A47001F05F
:1011400001FEB9F802100FF2F44001F0FBFDB9F80E
:1011500004100FF2005001F0F5FD2878802805D129
:10116000A878202802DAF078401CF070F07801F0BE
:10117000FDFD706010B90FF2F440AEE6F1780FF2A9
:10118000085001F0DFFDB0784000401C01F0EEFD9A
:10119000E86040B90FF2105001F0D4FDE86801F0AA
:1011A0008FFE0C2062E6002141700020E968087083
:1011B0000121002201E0521C92B2A879824224DA75
:1011C000AB689B1D13F832000028F4D0002013E018
:1011D000EF687B1C03F81100AF68EB6817F83270FA
:1011E00003F81170491C89B2AF68BF1D17F832307F
:1011F00063449942ECDB401CAB685F1DC3B217F837
:1012000032709F42D7D38C46EEE7FFF761FA18B1F0
:101210000FF2B04001F096FDFFF74AFD38B100BF74
:1012200096A10FF2C04001F08DFD0B201EE60021BB
:101230000920FFF727F950B1FFF7C9FB98B108F56E
:10124000BE7001F07FFD0020F08230830BE00021B2
:101250006420FFF717F930B1FFF745FC18B10FF222
:10126000984001F06FFD08F5D07001F06BFD00278C
:10127000ECE50000DC2900200D0A00001A2B3C4D93
:101280001CE60200CA04A600748900088C890008C4
:10129000308700086C8B0008402C0020262A002094
:1012A000F4880008132A00203C890008A4020020CA
:1012B0006885000811F83B1001F044BD80B5FFF7C8
:1012C000B5FD18B9BDE80240112024E501BD0000BC
:1012D00077726974655F636F6E6669677572617452
:1012E000696F6E00436F6E66696775726174696FCE
:1012F0006E206372632072656164206661696C654B
:10130000640D0A005265616420636F6E6669672030
:10131000435243203D203078253036580D0A0000D6
:10132000436F6E666967207570646174650D0A00AD
:10133000542564204F626A656374206C656E67741F
:1013400068206578636565646564210D0A000000A6
:101350005772697465206D656D206661696C65649E
:101360002025730A00000000205245534554000018
:10137000204F464C00000000205349474552520080
:101380002043414C00000000204346474552520094
:1013900020434F4D53455252000000005436204325
:1013A0006F6E66696720436865636B73756D3A207D
:1013B0003078253036580A00434647455252206F50
:1013C0006363757272656420212121200A00000088
:1013D00044657669636520636F6E66696720435272
:1013E00043203D20203078253036580A0000000088
:1013F000436F6E6669672066696C652043524320BF
:101400003D20203078253036580A0000556E65782A
:101410007065637465642054313030207479706570
:10142000200A00005B25755D2072656C656173653F
:1014300020200A005435206D657373616765207242
:10144000656164206661696C200A00006261636BFB
:1014500075705F646C79203D202564200A000000CF
:10146000444154415245414459203D20307825782B
:101470000A00000025642C20000000006D78745FD5
:101480006472697665725F696E69740049324320DF
:101490006164647265737320636865636B20666161
:1014A000696C65640A000000696E666F5F626C6F4C
:1014B000636B5F73697A65203D2025640D0A000027
:1014C00064657669636520696E666F207265616424
:1014D000206661696C640D0A000000006F626A6535
:1014E0006374207461626C6520726561642066615A
:1014F000696C640D0A00000046616C696C792049D2
:1015000044203D203078253032580D0A000000007C
:1015100056617269616E74204944203D20307825FF
:101520003032580D0A00000056657273696F6E20E4
:101530003D2025642E25640D0A0000004275696C6B
:1015400064203D203078253032580D0A000000001C
:101550004D617472697820582053697A65203D2066
:1015600025640D0A000000004D61747269782059ED
:101570002053697A65203D2025640D0A0000000093
:101580004E756D206F66204F626A65637473203DEF
:101590002025640D0A0000006F626A6563745F7441
:1015A000797065203D2025640D0A00006932635F73
:1015B00061646472657373203D2025640D0A000028
:1015C00073697A655F6D696E75735F6F6E65203DD7
:1015D0002025640D0A000000696E7374616E6365F6
:1015E000735F6D696E75735F6F6E65203D20256456
:1015F0000D0A00006E756D5F7265706F72745F69C1
:101600006473203D2025640D0A0000006D61785F41
:101610007265706F72745F6964203D2025640D0AE5
:10162000000000006D78742E54365F61646472654A
:101630007373203D2025580D0A0000006D78742E2C
:10164000543131375F61646472657373203D2025C6
:10165000580D0A006D78742E543131385F6164641E
:1016600072657373203D2025580D0A006D73672045
:101670006D656D20616C6C6F636174696F6E20665F
:1016800061696C65640D0A006D78742E6D61785F18
:101690006D6573736167655F6C656E677468203D27
:1016A0002025640D0A000000726964206D656D20BC
:1016B000616C6C6F636174696F6E206661696C65E3
:1016C000640A0000436F6E66696775726169746FC2
:1016D0006E2077726974696E67206661696C6564F3
:1016E0000A0000004261636B7570204661696C6599
:1016F00064202025730A00004661696C65642074CB
:101700006F2072656164205431303020636F6E66E3
:1017100069670A00F8B5040022D004F13C05697835
:1017200021B900202870204601F05DFE2421697057
:10173000DFF87C7500F054FB2068016841F400413B
:1017400001602168086820F40040086002F072F926
:101750006268BA42014605D2DFF85805814205D2D7
:101760000120F2BDDFF850058142F9D32368DFF88C
:101770004C255868B1FBF2F2800942EA80105860AB
:1017800023681E6A6068B84206D34FF496704243DD
:101790004FF47A70B2FBF0F2521CB60942EA86129C
:1017A0001A62491E2268D3696668BE4206D2760074
:1017B00000F044F8042913D2042111E0A06820B9F4
:1017C00006EB460600F03AF805E01920464300F023
:1017D00035F841F4804108050CBF012141F4004176
:1017E000DFF8DC0403400B43D36123681A68E06927
:1017F000216A22F0C00202430A431A602368DFF81C
:10180000C4049A6821690240E0680A4302439A606E
:101810002268D368A06961691B0A40EA03230B436D
:10182000D36020212068026842F00102026000209B
:101830006860697020630021A970F2BDB1FBF6F108
:10184000491CC1F30B017047006841690A0644BF97
:101850000021016170472DE9F84304460F46904688
:10186000994602F039F900F0E1F902D100F07EFA70
:10187000002840F08A803078012800F0868001221C
:10188000327000F054FB212070701021B1700020E4
:101890007060C4F82480A4F82A9000F0EDF9E06AA2
:1018A00008281CBF0128884205D0206B122804D1CB
:1018B00000F07EFA01E000F04BFB00950022DDF81D
:1018C000208043464FF0011100F055FA38B12268EC
:1018D0001068C1054FD54FF4007070604BE020696F
:1018E000B0F5804F04D1216807F0FE070F6111E0C9
:1018F000F809216800F0060040F0F00008612B466E
:101900004246DFF8C41300F0ACF9002833D1206858
:10191000FFB207612B464246DFF8B01300F0A1F991
:10192000002828D100F03EF80099208D002824D00E
:101930002A464146204601F026F9B8B9626A206875
:101940001178016100F024F821684B695A0706D527
:1019500080B220B1626A1078086100F019F82A4656
:101960004146204601F03EF90028DED07068042888
:1019700001D100F06DF9012008E000F0DEF920212E
:1019800071700020B070307000E00220BDE8F2837A
:10199000616A481C6062618D481E6085218D481E09
:1019A000208570470090206841690091826900920B
:1019B00070472DE9F84F04460020009088461746EE
:1019C000994602F089F800F031F902D100F0CEF921
:1019D000002840F022813078012800F01E81012289
:1019E000327000F04FF9102200F055F97170B270AA
:1019F000002070606762A4F82A90608D2085DFF86F
:101A0000D002E062E36A21680A6842F480620A60F8
:101A1000082B18BF012B04D083421CBF206B112858
:101A200001D100F0C5F9009500220A9F3B464FF016
:101A3000011100F0A0F94FF4007938B12268116863
:101A4000C80548BFC6F804900120E7E02069DFF828
:101A50007CB2B0F5804F07D148F001005FFA80F802
:101A60002068C0F810802FE04FEAD810226800F0FC
:101A7000060A4AF0F00111612B463A46DFF8481297
:101A800000F0EFF80028DFD120685FFA88F8C0F88E
:101A9000108000F0E3F80028D6D100F09AF9009AFF
:101AA00023681968184641F48071016000953B462F
:101AB00000224FF0011100F05EF90028BED120682D
:101AC0004AF0F10AC0F810A000F0C8F80028BBD115
:101AD000208D10B900F037F928E0012802D100F07C
:101AE00051F90BE00228206801680BD141F4006134
:101AF000016072B600F0B8F800F0F2F8104601602C
:101B000062B613E041F48061016000F0ADF8009925
:101B10000CE000F026F9002896D100F093F8511C53
:101B20006162208D411E218500F0E3F8208D0028A0
:101B30006DD0042857D20128EBD00228DFF84012DC
:101B400000953B4614D1002200F015F90028E3D19E
:101B500072B600F07DF800F075F8208D511C6162BE
:101B6000411E218500F0C5F862B600F0DAFDD8E725
:101B7000002200F000F9002829D100F093F872B695
:101B800000F05AF8208D4A1C411E626221851922FC
:101B9000608D411EDFF8140261854FF47A7103688D
:101BA000B3FBF2F200F096F800F008F920B12168DA
:101BB00048694107F8D50BE02063202171700022AD
:101BC000B270706840F02000706062B632703BE71F
:101BD00022681168104600F097F8616A208D4A1C4F
:101BE000411E6262BDE700F0BCF80028EFD100F0B2
:101BF00093F89BD580B2032801D100F07EF800F065
:101C00001BF84A1C218D626200F00AF88EE7202141
:101C10007170B0700021317000E00220BDE8F28FD9
:101C2000481E2085618D481E6085704704F13C0682
:101C3000054670782028704722681169606A017033
:101C4000616A704720680169606A0170626A704762
:101C50002068016841F40071016070472B463A46E4
:101C60005946204600F03ABF0020009020684169A4
:101C70000091826900927047608DDFF854102085D2
:101C8000E162704720680168CA0703D4016841F027
:101C90000101016070472168086820F40060086055
:101CA000222170472168086820F48060086070472E
:101CB000A186010080841E0000093D0040420F0003
:101CC0000030FFFF007CFFFF080001000200010060
:101CD0000000FFFFB2FBF1F1232041430091704768
:101CE000009B2268116821F480617047616A4A1C78
:101CF0006262608D411E61857047226811681046DE
:101D000021F480610160704741F400710160226834
:101D10001169606A0170704720680169606A01702A
:101D2000616A208D4A1C401E62622085638D5A1EA6
:101D3000628521684A69510770472168086840F444
:101D400000700860704700902168486900908969B8
:101D50000091009B22681168104641F400710160F7
:101D600070472A463946204600F05EBF0095192389
:101D70000122DFF8D811204600F078BE00000000F4
:101D8000040001002068016821F48061016072B6DE
:101D90000020009020684169009182690092009BB8
:101DA0002268116841F400717047000010020020A1
:101DB0002068016841F48071016070470098401EFE
:101DC0000090009870472068016821F480610160EC
:101DD00070470090216848690090896900917047B8
:101DE00021680868400840000860704700200090A3
:101DF00021684869009070472DE9F84F04468B46EA
:101E0000924600F091F804F13C05064668780027F8
:101E1000202808D1DFF83491009619230122494681
:101E2000FFF7A9FF00287AD12878012877D001226E
:101E30002A7000F07CF82420687000216960DFF8C7
:101E40001C01E062FFF7B4FF0096434600224FF00A
:101E50000111FFF790FF38B920680BF0FE01016116
:101E600001F03AFE064612E020680268D10544BF40
:101E70004FF400706860032052E001F02DFE801BDB
:101E8000804502D3B8F1000F01D1A020687021680D
:101E9000486949696A784008890AA02A00F0010067
:101EA00001F0010101D00843E7D0202068702168CB
:101EB0004869810714D4236818681A4640F40070F2
:101EC00010606FF48061206841610096192301223F
:101ED0004946FFF750FF00BB7F1C5745B2D319E0BE
:101EE00020680168024641F40071116000200090F2
:101EF0001923FFF758FD0122009900964946FFF784
:101F00003AFF010003D12020687000222A700800E7
:101F100006D002E0202169702870012000E0022034
:101F2000BDE8F28F89461546984601F0D5BD206878
:101F30000168CA0703D4016841F00101016020680B
:101F4000016821F400610160704700000200100088
:101F50002168086840F48070086070470000FFFF47
:101F60002DE9FC41044604F13C052268DFF8286AAB
:101F70005168E06A95F802C06F780023BCF1100F39
:101F800018BFBCF1400F40F072829369D2F814E0A0
:101F90005FEACE7805D4B0F52A0F18BFB0F12A4F0A
:101FA00039D05FEACE7047D5880545D5E16AB1F5ED
:101FB0002A0F08BF012004D0E16AB1F12A4F01D1F4
:101FC0000820E062A878402809D168690028A8683C
:101FD0001ABF40F00100C0B200F0FE002AE0206904
:101FE000B0F5804F18D168782128A8680EBF00F09E
:101FF000FE0040F00100C0B21061606B00281CBF01
:10200000806A002805D1A06B00281CBF806A0028C8
:1020100001D000F0ACFB35E3686920B900F03BFB70
:1020200040F0F00006E06869012804D100F033FBBD
:1020300040F0F100106125E35FEA0E7015D58805C8
:1020400013D5A968C9B21161606B00281CBF806AF2
:10205000002805D1A06B00281CBF806A0028EAD0A8
:102060002068416841F4006135E15FEA8E7000D577
:10207000880540F1AE80AF78E16A236B687822284A
:1020800040F0A4806869002808BF402F00F09E80BF
:102090006869002804BF2069B0F5404F0FD10021C6
:1020A00000915369009391690091009B2268106828
:1020B000114640F4807008606869401C84E0608DBF
:1020C00010B900F004FB2BE0608D01283AD1B14239
:1020D00013D11168104621F48061016021684A68BB
:1020E000100505D50B461A6822F480620A6068E084
:1020F000002000904A6900920FE0082918BF2029AB
:1021000003D0122B0FD1012912D0104601460268CC
:1021100022F480620A60FFF769FE89690091009BE2
:1021200000F0EEFA4FE004291CBF0229102903D069
:10213000106820F4806002E0106840F4806011466E
:1021400008603EE0608D022827D104291CBF0229C7
:1021500010290CD01346186840F4006000F0D7FA3C
:10216000236818681A4620F48060106005E0134662
:10217000186840F4806000F0CAFA206842681305CD
:1021800021D5B14218BF012904D008291CBF10294C
:10219000202918D100F091FA15E01346186840F490
:1021A00080601060206843681A050AD5B14218BFE4
:1021B000012904D008291CBF1029202901D100F0D1
:1021C0007CFA00F0E0FA002068615BE200F07FFA40
:1021D00058E25B070EF0040061D553681B05F7D485
:1021E0005FEA0E632CD54B052AD5002828D16F78DD
:1021F000A978E36A208D002808BF212F13D1082B6E
:102200001CBF202BB34204D000F050FA0022AA7069
:1022100031E000F08EFA34D10020A8702046BDE8ED
:10222000F64101F05FBC212F03D0402908BF222FC7
:10223000CED1608D002852D0A87840282BD00BE05A
:102240000028C5D08805C3D5212F21D1E16A68783F
:102250002128BDD1608D28B1616A08781061616A5A
:10226000481CA6E008291CBF2029B14206D000F076
:102270001DFA0020A8702021697004E000F059FACE
:10228000CAD00020A8702046BDE8F64101F02BBC62
:10229000BCF1400F20D12046BDE8F6417CE25668F3
:1022A000330519D45FEA4E6677D54B0575D50028FE
:1022B00073D1687822280FD1E66A608D04280CD388
:1022C00000F0E3F9FFF714FD608D032804D12068C6
:1022D000416821F480614160D4E1E16A022959D06A
:1022E000012818BF002855D10020DFF87C77009026
:1022F00019213B68B3FBF1F14FF47A70B1FBF0F0B8
:1023000000EB800000902146FFF758FD20B10C68DB
:1023100023689805F8D41AE06B6843F020036B60DB
:10232000506820F4E06050600B681A69486A0270D7
:102330004A6A531C4B6220224C8D601E48856A708D
:102340000020A8700846BDE8F64101F0CDBB0C4660
:10235000FFF7D3FC2068416821F4E061416000F0A0
:10236000E0F92022618D481E60856A70A9784029B5
:1023700008D10020A870002121632046BDE8F64165
:1023800001F0B3BB0020A870082E18BF202E63D028
:10239000122062E000F085F974E10028FCD0880585
:1023A000FAD5E06A618D042908D100F07AF900F0CD
:1023B000D6F96062618D481E608563E1618D0329F5
:1023C0000BD1516821F480615160042818BF0228A4
:1023D00001D0FFF7F8FC22684FE1618D022942D15C
:1023E000012818BF10280DD0042818BF022804D0D7
:1023F00013461A6842F4007208E013461A6842F461
:10240000806203E013461A6822F4806219460A606B
:1024100023681A69616A0A70636A5A1C6262638D72
:102420005A1E628521680A69616A0A70626A531CD1
:102430006362628D511E618521684A6822F4407290
:102440004A6020216970AA78402A92D00021A970A0
:10245000082818BF20289BD1002020632046BDE813
:10246000F64101F043BB116900F02CF907E16868FF
:1024700000B99369D2F814C05FEA8C7020D5880542
:102480001ED5686800B193696878002100F02800C3
:10249000282811D100F005F9580758BF0121180666
:1024A00054BFE268A2690020287002B02046BDE84F
:1024B000F04192B201F01BBB00F009F92B70E1E092
:1024C0005FEACC6300D5880540F17F806F78516862
:1024D00021F4E0615160FFF789FC22681168104621
:1024E00041F001010160009AFFF76DFC21684A6824
:1024F00010052ED50FF2A548222F18BF2A2F13D072
:10250000626B10684368638500F0EFF8606B01F060
:102510009BFB01281DD0606BC0F83480606B01F01C
:102520000BFBB0B1606B12E0A06B03685A68628568
:1025300000F0DBF8A06B01F087FB012809D0A06B4D
:10254000C0F83480A06B01F0F7FA10B1A06B416BBA
:102550008847608DB8B1206841694A0704D5016990
:10256000606A0170FFF7C2FB20684269510604D51A
:102570000269606A0270FFF7B9FB608D18B1686884
:1025800040F004006860686818B12046BDE8F64174
:102590005FE12A2F06D100212163282068702046A0
:1025A00001F055FB6878282807D1E66200F0E5F8CD
:1025B0002046BDE8F64101F04BBB206B222818BF36
:1025C000222F5FD100F0D9F84DE00CF00400212F4C
:1025D00018BF292F2DD15FEA0C661CD54B051AD5E3
:1025E000C8B96978608D00284CD0606A037813619F
:1025F000606A421C626200F072F808BF292941D16A
:1026000000F0A7F821212163282068702046BDE84A
:10261000F64101F01EBB002834D0890532D5608D0B
:1026200000282FD0606A01781161606A411C6162E4
:1026300026E05FEA4C661BD54B0519D5C0B9697811
:10264000608DF8B11069626A1070606A431C636241
:1026500000F045F808BF2A2914D100F07AF82221A9
:102660002163282068702046BDE8F64101F0EFBAEA
:1026700040B1890506D5608D20B100F006F8626290
:10268000FFF737FBBDE8F38100001069616A08704D
:10269000606A421C7047A8680004C00D00F0060084
:1026A0007047506820F4806050607047506820F494
:1026B000E0605060112121637047416841F480510E
:1026C00041607047606A0170616A4A1C704700236C
:1026D0000093516900919269009200997047608D52
:1026E000421E6285608D00287047608D18B1686851
:1026F00040F004006860486820F40060486070475B
:1027000022681068114640F400700860704710603D
:102710000023009320684269009283690093009A25
:10272000704720680169606A0170616A4A1C6262D0
:102730007047506820F4E060506000222068016813
:1027400041F400710160226320206870A97840295B
:1027500070472168486820F48060486070472168AD
:102760000869616A0870626A501C70474860216895
:10277000486840F4006048607047002020632021D2
:102780006970A87070470020009021684869009027
:1027900089690091009A704710B500F13D0200F17F
:1027A00048041378A16881B9006862682168012A29
:1027B00004D1C9B20161A068801C04E00904090EBB
:1027C0000161A068401CA06010BDA168012904D16E
:1027D00022680068D2B202610AE0A168022933D1FE
:1027E000222B09D102681168104641F48071016002
:1027F000A168491CA16010BD418D61B1212B0AD196
:10280000436A01681A780A61426A511C4162428D2A
:10281000511E418510BD418D002908BF212B17D1C4
:102820000368596821F4E06159600024036819685D
:1028300041F400711960046320231370002151706A
:10284000BDE8104001F04EB9BDE81040FEF7FCBFF6
:1028500010BD38B5044604F13D0528786978102983
:1028600014BF4029222804D121680A6822F400629A
:102870000A6000F02801282904D1002222632820C0
:1028800028700BE021684A68110505D4602803D040
:102890002020287000216970002020632068416892
:1028A0000A052BD5416821F400614160626B0FF28B
:1028B000ED0092F8211001290BD05063606B01F0FC
:1028C0003BF900282DD000F059F820202870606BCB
:1028D00011E0A26B5063A06B01F02EF908B32068E1
:1028E00041694A0602D5016900F038F8FFF778FA25
:1028F00020212970A06B416B884712E02A78602A5A
:102900000AD1202129700022226400F02DF800F065
:102910003BF801F09FF904E000F026F8204601F0B2
:10292000E3F8206C10F00F0F04D02168486820F401
:10293000E06048602878226C51070ED528280CD119
:102940001548E062002121632020287000226A706F
:102950002046BDE8324001F07BB931BD606A0170AC
:10296000626A511C6162704741694A0605D5016976
:10297000606A0170616A4A1C62627047206801687F
:102980004908490001607047216808684008400014
:1029900008602046704700000000FFFF7CB5002162
:1029A00000911925416A304801F13D024FF47A74D3
:1029B00013780668B6FBF5F5B5FBF4F42320444321
:1029C0000094009838B10098401E00900C68206870
:1029D0008505F6D403E0086C40F020000864486BDD
:1029E00008B100248462886B08B1002484620C68FA
:1029F000206820F48060206000244C85486B00B182
:102A00004463886B00B14463086804686408640028
:102A10000460107860280AD12023137000245470B9
:102A200000220A640846BDE8764001F013B903F0BD
:102A30002803282B0ED10868036843F001030360C4
:102A40000868046844F48064046000200863282453
:102A5000147003E020201070002353700846BDE876
:102A6000764001F041B80000100200202DE9F84343
:102A70000E46089F054691469846340C2968E0B2F8
:102A800001280CBF4969896900F078F80CBF012062
:102A90000020484520D118F1010FEFD001F01CF8BB
:102AA000C01B804502D3B8F1000FE7D12968E0B21E
:102AB00001280CBF4969896900F060F80CBF01204A
:102AC00000204845DAD100F0DBF842F020024260F5
:102AD00001700120BDE8F2830020FBE72DE9F04101
:102AE0000E46054614469846370CF8B2012821D107
:102AF00029684869304080B2B1B288421FD0286846
:102B0000416948051DD529680B680A4643F40073DE
:102B100013606FF4806128684161002205F13C0078
:102B20002A63202141708270416841F004014160B4
:102B300002701BE02868816900F020F8DFD10020D6
:102B400015E014F1010FD0D000F0C6FFA0EB080093
:102B5000844201D3002CC8D1F8B22968012808D1D9
:102B6000496900F00BF8C3D000F02FF80120BDE850
:102B7000F081896900F002F8DCD0F5E7314089B2D4
:102B8000B0B28142704770B505460C4616462868BB
:102B90004169080617D4284600F07CF818B914F1EA
:102BA000010FF4D001E0012070BD00F095FF801B03
:102BB000844201D3002CEAD1286841690806E6D492
:102BC00000F003F8EFE7002070BD002105F13C00A4
:102BD0002963202242708170426842F020024260E4
:102BE0000170704770B505460C4616462868416965
:102BF000480717D4284600F04DF818B914F1010F12
:102C0000F4D001E0012070BD00F066FF801B84421B
:102C100001D3002CEAD1286841694807E6D4FFF7C0
:102C2000D4FFEFE7002070BD70B505460C46164690
:102C300028684269510621D44269D10608D56FF04F
:102C40001002426100F01CF842600170012070BD6A
:102C500000F042FF801B844201D3002CE8D1286899
:102C600041694806E4D4002105F13C002963202293
:102C700042708170426842F02002E5E7002070BD9A
:102C800000202863202205F13C0000214270817061
:102C90004268704710B501684A6954050DD56FF454
:102CA00080634B61002101633C30202343708170BD
:102CB000436843F004034360017012F4806018BF5E
:102CC0000120C0B210BDF0B4024610689568131818
:102CD000506803EB5004C00748BF4D44A3422DD0B9
:102CE00013F8016B16F0030004BF13F8010BC01CAE
:102CF00031090F2907D113F8011B0F3103E013F835
:102D0000017B05F8017B401EF9D10029E6D013F8BC
:102D1000010BC6F38107032F08BF13F8017B00EBFB
:102D20000720404228440026B71E8F421EBF10F8DD
:102D3000017B05F8017B761CF6D1CFE7F0BC02F1F0
:102D40000C0070470EB41EB5024605A80190002481
:102D5000009401AB0121044878440C3000F07FFF5F
:102D600003B010BC5DF810FBBD5E000010B504465A
:102D7000AFF30080204600F005F80446AFF3008072
:102D8000204610BDF8B500F10F04E408E400A042AD
:102D90002BD2082C04D2082402E0083000F047F8B7
:102DA000DFF800211568290005D1002507E0036838
:102DB000A3420DD2011D08680028F8D12D68111D0D
:102DC00000E0191D0B68AB420BD01868A042F8D385
:102DD00059B10B6818680838A04208D258680860D2
:102DE0000FE001F09FFE0028D7D10020F2BD181996
:102DF00008601E1D5F6837511D6808682D1B05603F
:102E00001C60086800281DBF41680029001D0020C3
:102E1000106003F10800F2BD10B5040006D0AFF356
:102E20000080204600F003F8AFF3008010BD0028BA
:102E300000D1704770B4A0F108021468072C2ED995
:102E400014F0070F2BD1DFF85C30596809B18A42C2
:102E500003D251605A6015E00146486808B19042BB
:102E6000FAD30E688819824219D3904203D1A4196B
:102E70000C600A4606E0486810B11444A0420ED324
:102E800050604A60506850B114681619864206D1E5
:102E900000251D6001680C1914604068506070BC0A
:102EA000704700002C2C00204AB1000011F8013BB3
:102EB000521E00F8013B1CBF11F8013BF8E77047B8
:102EC000FFF7AABF0121002000F04AB80E4B1A7884
:102ED000904200D17047E0B51870012303FA00F06A
:102EE00000F00F008DF8040001AA64200090E0219A
:102EF0000648FEF7B0FC020005D000BF0FF210013B
:102F000009A0FFF71FFF07BDA00200203C2A0020F8
:102F100054434139353436415057525F4368616EEE
:102F20006E656C5F53656C002573204572726F721D
:102F3000212125640D0A000038B5054600F0CCFDBE
:102F400015F1010F044602D004490878451900F034
:102F5000C3FD001BA842FAD331BD00BF040200200C
:102F600038B50B28DFF8A033DFF8A043DFF8A05313
:102F700070D8DFE800F0060D161F283039424B5498
:102F80005B6411B10122022123E00022022120E032
:102F900019B101224FF400711BE000224FF40071BF
:102FA00017E019B101224FF4806112E000224FF4C2
:102FB00080610EE019B101224FF4006109E00022A6
:102FC0004FF4006105E009B1012200E000224FF456
:102FD000805118463AE019B101224FF4806123E094
:102FE00000224FF480611FE019B101224FF40071FB
:102FF0001AE000224FF4007116E019B101224FF4DB
:10300000807111E000224FF480710DE019B10122AE
:103010004FF4004108E000224FF4004104E009B100
:10302000012200E00022082120460FE0002907BF0E
:1030300000224FF4006101224FF4006105E00029F5
:1030400014BF012200224FF480612846BDE83840B9
:1030500001F05EBE31BD000010B50A28DFF8B432C1
:10306000DFF8AC42DFF8A42226D8DFE800F006083B
:103070000A0D101316181A1C1E0020210BE0012146
:1030800000E00221184613E04FF480510FE04FF4A6
:1030900000510CE0802120460AE0802107E0102149
:1030A00005E0022103E0012101E04FF480411046D8
:1030B000BDE8104001F026BE10BD80B50FF2BC2265
:1030C0000FF2AC21DFF85002FFF73CFEDFF84C12A4
:1030D0000FF2B4200968FFF735FE01F063FEBDE88A
:1030E0000140FFF7EFBE80B5012811D10021FFF7A5
:1030F00037FF00F0AEF800F0A9F800F0A4F800F0F7
:103100009FF81420FFF718FF00F097F864208FE075
:10311000002100F093F80A20FFF70EFF002100F0D5
:1031200090F8002100F090F80A20FFF705FF002139
:1031300000F08DF8002100F08DF8BDE80440012179
:1031400001200DE780B50420FFF786FF78B96420E1
:10315000FFF7F2FE0420FFF77FFF40B90FF2402097
:10316000FFF7F0FDBDE80240092001F099BF01BD65
:1031700010B500F026F8DFF8A841012804BF207838
:1031800000280AD10520FFF7D7FE00F01AF8012821
:1031900003D1FFF7A8FF0120207000F012F80028EB
:1031A00004BF2078012809D10520FFF7C5FE00F0F3
:1031B00008F818B9FFF797FF00202070BDE810400D
:1031C000C0E7062048E75748C16AB1F5FA7F00D248
:1031D000704738B5002254494C4CC262087800B39D
:1031E000524D2878C30758BF01224FF48061204612
:1031F00001F08EFD2978880754BF012200224FF488
:103200000071204601F084FD287810F00C0F0CBFEF
:10321000012200222046BDE838404FF4807101F0C1
:1032200077BD2046BDE834404FF4806101F074BDA5
:10323000FFF782FEBDE8014044E001210B208FE64C
:10324000012108208CE60121092089E601210320C3
:1032500086E60121022083E6000000002DE9F0430C
:1032600052A5334995E8C0018FB0E946044689E884
:10327000C00103A83022FFF717FE0DF1090001F08D
:10328000EFFF064600208DF8060001A801F0E8FFD8
:10329000074600208DF80300804603A850F8281048
:1032A000684601F0E5FF28B108F10108B8F10C0FFC
:1032B000F3DB01E008F1010526706570A7700FB01F
:1032C000BDE8F08370B502220221442000F000F92D
:1032D00008220F21442000F0FBF80221442000F0D6
:1032E00019F906460321442000F014F90446114D53
:1032F000324602212846FFF725FD22462846BDE832
:1033000070400321FFF71EBD00180140001401406A
:1033100000100140000C0140188A00081002002033
:10332000462C0020C02B0020442C0020432C0020E1
:10333000488A0008908B000838B504466079A57962
:10334000E17945EA0025207A40EA0120024604F1AD
:103350000901684301F062FD00F001F831BD8DF80C
:103360000050A178607801236A4601F0CEBF0000CA
:1033700053657020323120323032350031333A34E7
:10338000393A33370000000053797374656D436F29
:103390007265436C6F636B203D2025640D0A00004D
:1033A00074657374206B6579200D0A005365702075
:1033B000323120323032350080B568486849694A78
:1033C000416082600021C16000224FF480410261AF
:1033D00041618261C26102624262001DFEF79AF998
:1033E00000B135E001BD30B585B001AD002100224E
:1033F0000023002485E81E0001685948814225D138
:10340000594C216841F0080121601221206800F028
:10341000080000904FF44060009A0190029103224E
:10342000049201A9514801F093FB606840F48000C8
:1034300060600022606800F4800000900021009825
:10344000212002F05AF8212002F076F805B030BDB4
:10345000BDE8014002F03CB90000000070B54448EE
:103460004AA43E4DFFF76EFC0220FFF72FFD012618
:1034700071006423012289B2281DFEF7BDFC28B922
:10348000702E03D071002046FFF75CFC761C802E66
:10349000EEDBBDE870400520FFF74EBD10B52F4CA8
:1034A000002121700220FFF711FD64230122A421D5
:1034B000201DFEF7A1FC18B900F004F801202070CF
:1034C00010BD00005FF0A40130A0FFF73BBC00007E
:1034D0007CB51546044601AA002010800E46032044
:1034E000FFF7F4FC642100918DF804608DF805501D
:1034F000022300F009F830B14FEA00020FF2BC01DC
:103500002AA0FFF71FFC73BD01AA21461948FEF748
:10351000A2B90000F2B5074682B00320FFF7D6FC3F
:103520006420009001230D4E00F026F8020000BF39
:103530000FF2780425A501D000F023F86420009054
:10354000012301AA47F00101301DFEF732FA10B144
:10355000024600F016F89DF80400FEBD382A00204F
:1035600000580040A086010018100240000C0140E5
:10357000D48A00083C2A002002AA3946301DFEF7F2
:103580006AB929462046FFF7DDBB00004469737025
:103590006C61792064657465637420616464722071
:1035A0003D2030782558200D0A0000002573204565
:1035B00072726F72212125640D0A00004C45445F30
:1035C0006932635F77726974650000004C45445F3F
:1035D0006932635F72656164000000002DE9F843A1
:1035E000040016D02078DFF8A874C10713D57868D6
:1035F00000F00C00042807D0786800F00C000828C0
:1036000040D17968C8033DD53A68910303D5606815
:10361000002800F05B812078DFF88464810719D5E9
:10362000786810F00C0F07D0786800F00C000828BC
:103630005FD17868C1035CD43868810703D52069FD
:10364000012840F043813968606921F0F80141EABE
:10365000C00139602178080778D5A069DFF84414E3
:10366000002800F09E8001220A6000F035FA05462D
:10367000796A88075BD400F02FFA401B0228F7D93B
:10368000032026E16068B0F5803F03D1386840F43C
:10369000803013E058B1B0F5A02F08D1386840F45D
:1036A000802038603A6842F480323A6007E0396836
:1036B00021F480313960386820F4802038606068F7
:1036C00058B100F009FA054639688803A3D400F020
:1036D00003FA401B6528F7D3D2E700F0FDF9054651
:1036E0003968880397D500F0F7F9401B6528F7D3B0
:1036F000C6E7206968B10121316000F0EDF90546A7
:10370000386881079FD400F0E7F9401B0228F7D9F9
:10371000B6E70022326000F0DFF905463968880715
:1037200098D500F0D9F9401B0228F7D9A8E7DFF8AF
:1037300064231168C9084FF47A70B1FBF0F000906F
:1037400000BF0098411E00280091F9D12078410760
:103750006ED5F9690025C80009D4F96941F0805196
:10376000F9610125F86900F0805000900098DFF8B9
:103770003883D8F80000C10520D4D8F8000040F400
:103780008070C8F8000000F0A7F98146D8F8001052
:10379000C80513D400F0A0F9A0EB09006528F5D303
:1037A0006EE7086000F098F90546796A8807CDD57C
:1037B00000F092F9401B0228F7D961E7E068012880
:1037C00008D008B9386A09E00528386A06D140F0FF
:1037D00004003862386A40F0010005E0400840000B
:1037E0003862386A20F00400386241F28938E068B3
:1037F00060B100F071F98146396A880713D400F08E
:103800006BF9A0EB09004045F6D339E700F064F905
:103810008146396A880706D500F05EF9A0EB0900F9
:103820004045F6D32CE71DB1F86920F08050F861CF
:10383000E06900284CD0796801F00C01082938D0E3
:1038400002282AD100F047F805463968880105D5D5
:1038500000F042F9401B0228F7D911E7206AB0F5C1
:10386000803F05D17968A06821F400310143796077
:103870007A68206A616A22F4741202430A437A6009
:10388000012000F029F804463868810120D400F0B6
:1038900023F9001B0228F7D9F2E600F01CF80446D1
:1038A0003868810114D500F017F9001B0228F7D9F8
:1038B000E6E601280AD07868226A00F48031914255
:1038C00002BF00F47010616A884201D0012000E05C
:1038D0000020BDE8F2830020306600F0FDB82DE93D
:1038E000F041040088465FD0704E306800F0070059
:1038F000404509D23168C90848EAC10131603068E1
:1039000000F0070040454FD12168614D880712D56E
:10391000490703D5686840F4E060686020780107D3
:1039200003D5686840F4605068606968A06821F059
:10393000F001014369602178C80726D56068012835
:1039400002D129688A0303E0022803D129688A0189
:1039500003D429E02B68990726D56A68920840EAC3
:103960008200686000F0B8F807466868616800F097
:103970000C00B0EB810F08D000F0AEF8C01B41F294
:1039800089318842F1D3032032E0316801F0070128
:1039900088450BD23068C00848EAC0003060316802
:1039A00001F00701414501D0012021E021784807BD
:1039B00005D56968E06821F4E06101436960217818
:1039C0000A0706D56868216920F4605040EAC10002
:1039D000686000F00FF86A683549C2F303128B5C27
:1039E0002C49D84008602D48006801F073FE002083
:1039F000BDE8F0812F4930480A6802F00C03042B1F
:103A000000D1704710B5082B12D100BF2DA4C2F30E
:103A10008343D203E35C08D5096858432DA3C1F35F
:103A20004041595CB0FBF1F010BD2448584310BD33
:103A3000194810BD17481F4B00681A682049C2F387
:103A4000022206E013481B4B00681A681C49C2F3A7
:103A5000C222895CC840704710B50F220260154A27
:103A6000136803F003034360146804F0F0048460F7
:103A7000136803F4E063C3601268D20802F4E062E2
:103A800002610A4A106800F00700086010BD0000DB
:103A9000001002401002002000127A000C020020E8
:103AA0000000424280044242007000400020024078
:103AB000408C0008041002400024F40000093D007E
:103AC000608C000802030405060708090A0B0C0DA8
:103AD0000E0F101001022E0001484068704700BF11
:103AE0000402002070477047704770477047704766
:103AF00090F82130022B00F1380206D00421116029
:103B0000002280F820200120704701680B6823F014
:103B10000E030B6003681968490849001960012306
:103B2000916852688B4053600021012380F8213056
:103B300080F8201000207047F8B590F8212000246C
:103B4000022A00F1340103D00420486001245FE020
:103B50000268136823F00E0313604FF48035036886
:103B60001A68520852001A604FF480560268DFF853
:103B7000A8309A424FF4807719D9DFF898309A42EA
:103B800008BF012510D0DFF894309A4208BF1025F5
:103B90000AD0DFF88C309A4208BF3D4604D0DFF8E7
:103BA0008470BA4208BF3546DFF87C2027E0DFF892
:103BB0007CC062451CD0DFF878E072451AD0DFF88F
:103BC00074C0624518D0DFF87070BA420EBF354637
:103BD000DFF86860B24210D0DFF86460B24208BF1C
:103BE0004FF4801509D09A4207D14FF0807504E058
:103BF000012502E0102500E03D46DFF84820156071
:103C0000012380F8213080F82040096801B18847FD
:103C10002046F2BD08040240800002401C0402401D
:103C20003004024044040240040402400800024000
:103C30001C00024030000240440002405800024094
:103C40006C0002400400024090F821007047704769
:103C5000704770477047430040F0200070472DE9DF
:103C6000F14FB0B0924604910DF142013A9A2B9176
:103C700099464A7000200AE01AF8011B0498309A0D
:103C800090470028049000F043860D98401C0D904A
:103C90009AF8000050B12528EED1002200210792A9
:103CA000089109920A910B920C9104E00D9800F092
:103CB00031BE41F001011AF8010F2028F9D0232864
:103CC0000CD02B2804D02D2805D0302809D00BE0AB
:103CD00041F00201EFE741F00401ECE741F0080197
:103CE000E9E741F01001E6E72A280FD1D9F80020D2
:103CF00052F8040BC9F8002000280F9003D5404269
:103D00000F9041F004010AF1010A14E00F92DFF86C
:103D10000C0C0AE00F9C844205DA04EB840302EBEE
:103D20004302303A0F920AF1010A9AF80020A2F1F8
:103D300030030A2BEED39AF800202E2A03D04FF03E
:103D4000FF300E9029E01AF8010F2A2809D1D9F87E
:103D5000002052F8040BC9F800200E900AF1010A65
:103D60001BE02D280CBF0AF1010A002000220E9250
:103D7000DFF8A85B0BE040B90E9BAB4205DA03EB22
:103D8000830402EB4402303A0E920AF1010A9AF8D7
:103D90000020A2F130030A2BEDD3ADF840100FF64E
:103DA00080309AF8001001F0DDFC08B11AF8010B20
:103DB0008DF842009DF84200682805D19AF800105D
:103DC00068290CD1622006E06C2804BF9AF8001024
:103DD0006C2904D171208DF842000AF1010A12AA5F
:103DE00006921AF801BBBBF125002CD01C3800F05C
:103DF0009781001F022840F29381133800F0BA84A3
:103E0000093800F08D81801E00F04F85401E00F0C3
:103E1000FC84401E022840F28381001F00F0F584DC
:103E2000401F00F0F280401E00F0A484401E00F00D
:103E3000DA80C01E0ED0801E00F09C84C01E00F0F0
:103E4000998400F03DBD0122252107928DF848108C
:103E500000F042BDD9F8000050F8044BC9F800004A
:103E6000002C059440F0AB802B994878002800F096
:103E7000A1804FF0FF340FF6B02001F07FFC241A30
:103E800040F0468500F028BD01236A4602A930466D
:103E900000F00CFE002840F03B85641EF4D1309603
:103EA000079C12AE74B1309F16F8011B0498B847F6
:103EB0000028049000F02C850D98401C641E0D9085
:103EC000F2D130970A9C3021002C8DF800100CDDC7
:103ED000309E01236A4602A9304600F0E7FD002823
:103EE00040F01685641EF4D13096059E089C74B18E
:103EF000309F16F8011B0498B8470028049000F082
:103F000007850D98401C641E0D90F2D130970B9CD4
:103F10003021002C8DF800100CDD309E01236A4604
:103F200002A9304600F0C2FD002840F0F184641E72
:103F3000F4D1309605980899099C461874B1309FC1
:103F400016F8011B0498B8470028049000F0E0849C
:103F50000D98401C641E0D90F2D130970C9C3021BE
:103F6000002C8DF800100CDD309E01236A4602A95A
:103F7000304600F09BFD002840F0CA84641EF4D156
:103F800030969DF8400041077FF582AE2020002D3D
:103F90008DF800007FF77CAE309C01236A4602A9B1
:103FA000204600F083FD002840F0B2846D1EF4D15D
:103FB00030946DE60FF65430059000F08DBC0E9DE8
:103FC000002D04D5204601F0F9FB044608E02A46FE
:103FD0000021204601F00EFC002814BF041B2C46D3
:103FE000089400F079BCD9F8001051F8040BC9F816
:103FF000001020F00002002121F0FF33CDE9022360
:1040000012AC0594782100F04CBC2B99487820B173
:104010004FF0FF340FF6C4202FE79DF842006228CE
:1040200060D0682817D06A283FD06C2806D0712845
:1040300047D074282CD07A281DD062E0D9F800101F
:1040400051F8040BC9F80010002866D14FF0FF3476
:104050000FF6A02011E7D9F8001051F8040BC9F8A9
:10406000001020B94FF0FF340FF6882005E70D99B6
:10407000018000F031BCD9F8001051F8040BC9F8E8
:104080000010002849D14FF0FF340FF66820F4E605
:10409000D9F8001051F8040BC9F8001000283CD1E1
:1040A0004FF0FF340FF64C20E7E6D9F8001051F836
:1040B000040BC9F8001080B94FF0FF340FF634201C
:1040C000DBE6D9F8001051F8040BC9F8001020B94C
:1040D0004FF0FF340FF61C20CFE60D9AD317C0E93E
:1040E0000023F9E3D9F8001051F8040BC9F80010C7
:1040F00020B94FF0FF340FF6FC10BEE60D990170A9
:10410000EAE3D9F8001051F8040BC9F8001020B9FF
:104110004FF0FF340FF6DC10AFE60D990160DBE3E2
:104120009DF842004C2807BFD9F80010CA1DD9F8E5
:104130000000C21D22F00702C9F80020D2E90001E8
:104140000832C9F80020CDE90201C80F02D0079853
:104150002D210AE0BDF84010880702D507982B21D1
:1041600003E0C80705D50798202112AA1154401C66
:10417000079012A807994BF0200300EB010CDDE932
:104180000201CDE92C01612BCDF814C021AC0BD07C
:104190000E98002848BF062105D404BF4BF020002C
:1041A000672801D101210E91DDE902677B0043EA16
:1041B000D6735A15DB174FF0FF30834208BF824297
:1041C00010D13F0347EA16573603002F08BF002ED1
:1041D00008D0ABF1610503211A2D089118D30FF611
:1041E000341110E0DDE902014A00521512F1010F0D
:1041F00011D108030FD1ABF1610503211A2D0891EC
:104200001FD30FF6181103226046FEF74DFE63E33D
:104210000FF6FC01F7E7DDE902016A4601F016FB43
:10422000CDE902014BF02000612811D10598302220
:104230000270811C0591BBF1610F0CBF78215821E0
:1042400002E00FF6D401DEE741700798801C07906A
:10425000DDE9020120F0000231F0004308BF002A2E
:1042600002D10026002542E14BF02008B8F1610F91
:1042700040F093800E98002847BF21210191401CF7
:104280000190019EDDE92C01761C00220023DDE96E
:10429000024501F013FB38BF85F0004500988DF80A
:1042A0008420001F002E00900DF1850732DD20468E
:1042B00029460022002301F01BFB2BD21C2201F017
:1042C00031FB04460D4601F0CBFBF61F002E804665
:1042D00009DD01F0E1FB02460B462046294601F0CC
:1042E000A3FC04460D46F81D0721B8F1000F0CDDB4
:1042F000491E5EBF08F00F0200F8012D4FEA281892
:10430000F3D502E0002200F8012D491EFAD5C71DA1
:10431000002ECCDC0DF185003F1A01980DF18504CB
:104320003E468742C8BF0646002E2FD4BE4206DA5C
:104330000DF18500815D0829A8BF0F2000DA00205B
:10434000324621A98D1800E0761E15F80139521E5B
:104350008342F9D00F2804D10DF18501885C401CFF
:104360008854002A04D50098001D21AC761C0090CA
:10437000701E0BD421180B783033DAB23A2AA4BF5E
:104380005B443A3B401E01F80139F4D50E990029EF
:1043900040F1AC80701E0E90A8E00099DFF8FC267A
:1043A00047F29750414391FBF2F20092DDE92C4530
:1043B000C2F10702002A25F0004504DD2046294607
:1043C00000F049FB0BE052420020DFF8D41600F069
:1043D00042FB02460B462046294601F097FC044664
:1043E0000D46B8F1660F06BF009E0A3606260E98E7
:1043F0003618142EC8BF142630208DF884000DF115
:104400008507002E34DD2046294601F0A3FD014634
:104410000A4607F1080C04200A27B2FBF7FE0EEB50
:104420008E03A2EB430230320CF8012C0A22BEFBB1
:10443000F2F202EB8203AEEB43033033401E0CF882
:10444000023DE9D1083E002E0CF10807D9DD0846EF
:1044500001F092FD02460B462046294601F0E4FB9E
:104460000022DFF8403601F095FD04460D46CAE70C
:104470000DF185003F1A0DF1850404E00098401EFF
:104480007F1E0090641C20783028F7D0B8F1660FAA
:1044900002D1009E761C04E0B8F1650F0CBF012626
:1044A00000260E983618B742B8BF7E1E002E1DD4C7
:1044B000BE4204DAA05D3428C8BF392000DC3020B9
:1044C0003246611E8D1800E0761E15F80179521EE5
:1044D0008742F9D0392802D1A05C401CA054002AA0
:1044E00004D50098401C0C46761C0090009D01F0FD
:1044F0003FFE406A0778DDF8388030B2002802DCE1
:1045000001260FF21C644BF02000662808BF6D1CCA
:1045100016D0672845D128B210F1040F47DB40457B
:1045200045DA9DF840106D1C080703D430B24045B1
:10453000D8BF804628B2B8EB000848BF4FF000084B
:104540000FFA85FBBBF1000F00F3B3800898411C04
:104550000891302205990A54B8F1000F03DC9DF848
:104560004010080704D50898411C089105990F547C
:1045700018EB0B0FB8BFC8F100052DB268424544D7
:1045800032B20B909542B8BF2E46059B089836B2C2
:104590000996324621461844FEF786FCAD1B0C9561
:1045A000D1E0BBF1610F17D14FF0700B19E030B2C1
:1045B000404504DA9DF840100A0758BF8046B8F11C
:1045C000010848BF4FF00008BBF1670F14BF4FF060
:1045D000450B4FF0650B04E0BBF1410F08BF4FF0F6
:1045E000500B0898411C0891B8F1000F059914F878
:1045F000012B0A5403DC9DF8401008071AD50898CF
:10460000411C0891B8F1000F05990F5412DD761E78
:1046100030B28045B8BF46460598089B32B2214665
:104620001844FEF741FC089836B230180890A8EB01
:1046300006000B9005980899014428B2002881F8DB
:1046400000B003D42B204870891C04E02D224A704E
:104650000546891C6D4200202CAA0AE02B460A253B
:1046600093FBF5F505EB8504A3EB440302F8013B4E
:10467000401C2DB2002DF1DC012806DC4BF020029D
:10468000652A04BF302201F8012B00282CAB08D189
:10469000302001F8010B06E0401E1A5C303201F8B0
:1046A000012B0028F8DC059A08981044091A099192
:1046B00049E031B228B281421CDA059B089832B237
:1046C00021461844FEF7F0FB089936B2711808919C
:1046D000ABEB0600B8F1000F0B9003DC9DF8400037
:1046E000020704D5059847540999491C0991CDF84A
:1046F000308028E0059B08982AB221461844FEF72E
:10470000D3FB0898761B5844B8F1000F089003DCDF
:104710009DF840100A0703D5411C089105990F54D4
:1047200030B28045B8BF46460598089B32B204EBCC
:104730000B011844FEF7B8FB089836B23018089001
:10474000A8EB06000B909DF8400000F01400102824
:1047500040F0C280079A08980B99821809988A1825
:1047600082180C980F998018884280F2B580081A38
:104770000A90B1E09DF84200622808D068280ED067
:104780006A2814D06C281FD0712810D01CE0D9F8EA
:10479000001051F8040BC9F80010C0B21AE0D9F8A3
:1047A000001051F8040BC9F8001080B212E0D9F8DB
:1047B0000000C21D22F00702C9F80020D2E9000162
:1047C0000832C9F8002006E0D9F8001051F8040BAF
:1047D000C9F800100021CDE902019DF84000020750
:1047E0005AD5DDE90201002908BF002854D04BF05A
:1047F0002002782A50D1079912A830234354491C2B
:104800004A1C079200F801B046E09DF84200622879
:1048100008D068280ED06A2814D06C281FD07128C0
:1048200010D01CE0D9F8001051F8040BC9F80010A2
:1048300040B21AE0D9F8001051F8040BC9F8001082
:1048400000B212E0D9F80000C21D22F00702C9F838
:104850000020D2E900010832C9F8002006E0D9F8AA
:10486000001051F8040BC9F80010C117CDE902017E
:10487000002902D507982D220AE0BDF840008107E3
:1048800002D507982B2203E0C00705D50798202200
:1048900012A90A54401C079012A8079901440591D7
:1048A000594602A800F04EF816E001200790D9F80A
:1048B000001051F8040BC9F800108DF848000BE007
:1048C00001222521BBF1000F07928DF8481003D07B
:1048D000022007908DF849B00F9D07980A992D1A6C
:1048E00008986D1A0B992D1A09986D1A0C992D1AA2
:1048F0009DF840006D1A41073FF5D2AA2020002DF7
:104900008DF800007FF7CCAA309E2C46FFF7BCBA8A
:104910004FF0FF3031B0BDE8F08F0000CBCCCC0CB5
:10492000686A6C747A4C00007072696E74665F73AA
:104930003A2062616420257320617267756D656E2F
:10494000740000002DE9FE4C06468B463769584638
:104950006F2808BF082205D0FFF77EF9782814BF1A
:104960000A221022D6E900013C2504468A46BBF102
:10497000640F18BFBBF1690F04D1002902D564424E
:104980006AEB4A0ABAF1000F08BF002C0CD1306B59
:1049900050B9082A3BD196F83810080737D530218E
:1049A0003B2587F83B1032E08DF800B09346204657
:1049B00051465A46002301F0E1FB3032D0B26D1E61
:1049C0003A2801950DDA7A55204651465A46002379
:1049D00001F0D4FB04465FEA010A08BF002C05D1B0
:1049E00008E09DF800001218513AECE7F1687819D8
:1049F0008142DCD3BBF1080F09D196F838000107DA
:104A000005D5785D302802D06D1E30207855C5F16F
:104A10003C02306BB26179198242F16007DA318F62
:104A2000821A4FF6EF7001403262318710E00028A1
:104A30000ED596F8380000F01400102808D1736BDA
:104A40007069316A1B1A5B1A9B1A002BC8BF33624C
:104A500003B0BDE8F08C2DE9D04306460F4614465E
:104A60004FF00008DFF8409012E0E00707D542461B
:104A70004B463046394601F08DFA06460F46404611
:104A8000494642464B4601F085FA64108046894605
:104A9000002CEAD130463946BDE8D083A08601001B
:104AA0000000F03F84D7974100002440F8B5054648
:104AB0000E4617461C4600205CB117F8011BB06873
:104AC000A847B06030B1F06A401CF0620020641E5C
:104AD000F3D1F2BD4FF0FF30F2BD00007072696E8D
:104AE00074665F733A20256E20646973616C6C6F25
:104AF000776564007072696E74663A206261642042
:104B0000256E20617267756D656E7400000000008F
:104B10006E616E004E414E00696E6600494E460061
:104B2000300000000749086808B1002070470648B7
:104B3000C008C00008600549C908C900091A016019
:104B4000704700BF3C2C00204F300020483400202C
:104B50002DE9F84700270024734BDFF8D081744D0E
:104B60004FF00F09024610E0D3F800E000EA0E0013
:104B7000186009E0C3F804C04E68F603F4D518685D
:104B80004EEA000EC3F800E07F1C0E6836FA07F00C
:104B900000F0B680012000FA07FC0CEA060EE6459C
:104BA000F2D14E683EB3012E1AD0022E1DD0032E34
:104BB0002ED0112E16D0122E1AD05E4886421CBF5F
:104BC0005D48864217D05D4886421CBF5C488642DD
:104BD00011D05C4886421CBF5B4886420BD018E06F
:104BE000CC6816E0CC68241D13E0CC68083410E0D3
:104BF000CC680C340DE0886808B9042409E0012869
:104C000019BF0824C2F814C00824C2F810C000E07C
:104C10000024BEF5807F03D210464FEA870C04E0E3
:104C2000A7F10806101D4FEA860CD0F800A009FA7B
:104C30000CF62AEA060604FA0CFC4CEA060CC0F84C
:104C400000C04868C0009FD52E6846F001062E605F
:104C5000BE00286800F00100009006F00C0C0098DF
:104C6000B80858F820A009FA0CF62AEA060A374EC6
:104C7000B24208BF002618D0354EB24208BF012606
:104C800013D0344EB24208BF02260ED0324EB2428A
:104C900008BF032609D0314EB24208BF042604D013
:104CA0002F4EB2420CBF0526062606FA0CF646EA3F
:104CB0000A0C48F820C06FEA0E004E68F60204D5D0
:104CC0009E684EEA06069E6005E0D3F808C000EA3A
:104CD0000C0CC3F808C04E68D3F80CC0B6024CBF29
:104CE0004EEA0C0C00EA0C0CC3F80CC04E68D3F86A
:104CF00004C0B6034CBF4EEA0C0C00EA0C0C39E7BA
:104D0000BDE8F1878068084018BF0120C0B2704735
:104D100002B9090401617047C36801EA03029943BB
:104D200041EA02410161704700040140080001406E
:104D30001810024000001110000012100000211095
:104D40000000221000003110000032100008014065
:104D5000000C014000100140001401400018014007
:104D6000001C014080B500F017F801F078FB01004D
:104D70001CBF0FF2A020FDF7E5FF012002BD80B5AA
:104D800000F00AF801F007FC01001CBF0FF2A020A0
:104D9000FDF7D8FF012002BD8AB201464FF4FA7335
:104DA0009148704710B5914C01224FF40071204694
:104DB000FFF7AEFF01224FF480712046FFF7A8FFF6
:104DC000BDE81040012001F092BE80B5062100F040
:104DD00020F800F08CF800F090F815E080B505227E
:104DE00000218DF8012000F014F800F080F8012176
:104DF0000DF10100FFF7B6FF01216846FFF7BFFF85
:104E00009DF80010C807F2D400F071F800F072F8B5
:104E100001BD8DF80010002001F069BEF8B5044610
:104E2000B4F5801F0D46174639D23819401EB0F52B
:104E3000801F31D3F1BDFFF7C8FFC4F30800C0F5F0
:104E40000070BEB2BBB28642C8BF06464FEA04023B
:104E50007DA16748FDF776FF02208DF80000220C47
:104E6000210A8DF801208DF802108DF803400020F2
:104E700001F03DFE00F03BF8042100F03FF8314620
:104E80002846FFF76FFF00F032F800F033F8FFF725
:104E9000A5FF34193544BF1BB8B20028CBD1F1BDF2
:104EA00038B50C461546B0F5801F3EBF2918491E7F
:104EB000B1F5801F1AD20321030C020A8DF80300FA
:104EC0008DF800108DF801308DF80220002001F0DF
:104ED0000EFE00F00CF8042100F010F829462046E0
:104EE000FFF74DFF00F003F800F004F831BD0A2091
:104EF000FEF722B8012001F0FABD0121684631E732
:104F00002DE9F0473C4C4FF40071204601F0FCFDC8
:104F100000F07BF853A6374D0FF240193046FDF7ED
:104F200011FF00F06DF800270FF2B8084FF0000AEB
:104F30000AEB07100AF1010A295C4846FDF702FF57
:104F4000BAF10F0FF4D94046FDF7FCFE7F1C202F6D
:104F5000ECD3FF2000216154491CB1F5807FFAD3C6
:104F60004FF480716054491C401EB1F5007FF9D3A5
:104F700000F04BF8C820FDF7DFFF3046FDF7E2FEFA
:104F800000F03EF80026002707EB06107F1C295C86
:104F90004846FDF7D7FE0F2FF6D94046FDF7D2FE63
:104FA000761C202EEFD3002732A6EA5DE15D914208
:104FB0001CBF3046FDF7C6FE7F1C0F2FF5D3002027
:104FC0000023E25CE95C8A4218BF401C5B1CB3F51D
:104FD000007FF6D320B10949087840F0040008703A
:104FE000BDE8F0870D0A0000902A00200010014063
:104FF000488B0008DC27002000000020432C002004
:105000004FF40072294600204AE74FF4007221460F
:10501000002003E773706931205472616E736D690B
:10502000742065727220282558290D0A000000009E
:1050300073706931205265636569766520657272A7
:1050400020282558290D0A004D39355078785F57AA
:105050007269746544617461000000002530325843
:10506000200000004D393550787820526561642069
:105070003A0D0A006757724275665B253032585DFB
:1050800020213D206752644275665B253032585DB1
:10509000200D0A00BDE80140FFF732BF000000000C
:1050A000092800D9704780B5DFE800F005090D3404
:1050B000111224282C30BDE80140FEF7CFB9BDE81D
:1050C0000140FEF7EBB9BDE8014001F0DBBDE1E7CF
:1050D00001210420FDF744FF00210120FDF740FFDE
:1050E00001210220FDF73CFFBDE80440012103201F
:1050F000FDF736BFBDE8014001F0A8BFBDE80140A3
:1051000001F06EBDBDE8014001F084BDBDE8014085
:10511000FCF7D4B801BD00002DE9F84F84B00D466E
:1051200016460BB100221A608346D84601E008F10A
:10513000010898F8000002F0D9F80028F7D198F893
:1051400000002D2816BF2B2818F8014B2B24002E09
:10515000019503D4012E01D0252E04DB002D58D05B
:10516000C5F800B055E0002E0CDD102E04BF98F8F5
:105170000000302802BF98F8010040F02000782895
:1051800011D10CE098F80000302818BF0A260AD187
:1051900098F8010040F02000782803D1102608F18B
:1051A000020800E00826CDF80C8001E008F10108B3
:1051B00098F800003028F9D0064D7D4416354FF0A0
:1051C000000905F12800CDF80880CA468DF80000D6
:1051D0000CE000BFD036000007469DF800003F1AE3
:1051E000CA46FFB206FB097908F1010898F80000E9
:1051F00002F086F80146324605F1280000F0FAFA7E
:105200000028E9D10399414505D1019808B1C0F8BA
:1052100000B0002020E00299A85DA8EB0101091A66
:10522000002910D406DCB9EB070703D3B7FBF6F06F
:10523000504508D0AFF30080049808B10121016007
:105240004FF0FF3903E02D2C08BFC9F10009019888
:1052500008B1C0F80080484605B0BDE8F08F04E012
:1052600000E000000A220021F9E7002354E70000D3
:1052700010F8012B11F8013B0AB19A42F8D0D01A6C
:105280007047000030B502460020012402E0535D63
:105290001818641CA5B28B1E9D42F8DBC0B230BD4D
:1052A00030B5002201248B1E02E0455DAA18641C63
:1052B000A5B29D42F9DB0844032100F8022D41709C
:1052C00030BD38B505460C46FFF7DCFF291911F84B
:1052D000021C814201D1012032BD002032BD70B5D7
:1052E00014463D4E1D46022232707070B1701B0A8A
:1052F000F37035712A462146701DFDF7D5FDED1D71
:10530000A9B23046BDE87040CAE7F8B51C46FFF7C1
:10531000E6FF0027314D304EB8B231184FF6FF731B
:105320000122284602F032F87F1CBAB2E11D8A42FF
:10533000F2DBF1BD01F58060427981790270417044
:10534000C279017A41EA02214180704738B5244C84
:10535000204602F033FB00283DD0204602F043FBFC
:105360001D4CB4F8041804F204456854B4F8041849
:10537000491C88B2B0F5806FA8BF00212878A4F836
:105380000418022824D1B4F80418052923DBEA788C
:105390002879CB1F40EA022083421CD12846FFF720
:1053A00090FF012807D121460020FFF7C3FF2846C0
:1053B00000F038F80CE0B4F804182846FFF762FF54
:1053C0008DF8000001236A460A216020FFF79DFF47
:1053D0000020A4F8040831BD70190020302B0020F3
:1053E000782100201CB500BF30A10A6801AB04463B
:1053F0001A606846FDF732FF9DF800009DF8011025
:105400008DF80400042301A801AA41709DF8021040
:10541000817001208DF80700A1786078FFF775FF93
:1054200013BD000018B599B004466421684602F027
:10543000E7FAA27894F801101DA0FDF783FC6078CC
:10544000022830D1A07809280DD00A2813D0E228EC
:1054500015D0E3281ED0F32809D0FF2804BF20462A
:10546000FFF7C0FF1FE0204602F0CEFA1BE0204607
:1054700001F0FEFD17E02046FDF75EFF13E06079C6
:105480008DF800000323A2798DF80120E1798DF8D1
:10549000021003E001208DF800000123A17860785C
:1054A0006A46FFF732FF1AB010BD0000180711015D
:1054B0001B5B33326D4D435B307825785D53435B26
:1054C000307825785D0D0A1B5B306D000A01010004
:1054D00002D41F4B5A5470471E4801F00F0101447B
:1054E00001F8042C70471C490A6860F30A2240F254
:1054F000FA5060F31F420A60704770B5164C23687B
:10550000C3F302230124C3F10705052D2FBF0F2686
:10551000C3F1070604FA06F6761E1D1D072D34BFDB
:105520000023DB1E3140994004FA03F3BDE87040CC
:105530005B1E1A401143C9E7010007D4012200F0A5
:105540001F01064B8A40400943F8202070470000A5
:1055500000E400E018ED00E00CED00E000E100E008
:105560007CB506460A2E564C564D0BD129680D299E
:1055700004D00D208DF8000000F00BF80A228DF801
:10558000002001E08DF8000000F003F82E603046A6
:1055900076BD0A2301226946204601F0F7BE4A483B
:1055A0000268521C02604168491C41608168491CC4
:1055B0008160C168491CC1600169491C0161416980
:1055C000491C41618169491C8161C169491CC161F2
:1055D000016A491C0162816A491C8162C16A491CD5
:1055E000C162016B491C0163416B491C4163816BC2
:1055F000491C8163704780B502F060FA00F015F82D
:1056000002F06EFAFDF7D8FE01F01CFA02F03CFB46
:1056100002F056FB02F0EEFBFDF74FFDFDF7A8FD93
:10562000FDF7D1FDFFF792FEF8E700B595B0282110
:1056300005A802F0E5F91421684602F0E1F9182105
:105640000FA802F0DDF9012105914FF400334FF46A
:105650008031069107930D91012202234FF4E0114E
:1056600009920C930E9105A8FDF7B8FF08B100F060
:105670002FF80F200090022100234FF48062019147
:105680000293039204936846FEF729F908B100F0EB
:105690001FF802224FF400410F9211910FA802F05F
:1056A00001FC08B100F014F815B000BD80B5016828
:1056B0000648814208BF02F069FCBDE801406EE780
:1056C000782B0020342C0020C02B0020002C01401F
:1056D00072B6FEE778B504461D481E4D87B00168D6
:1056E00041F40061016001A9006800F400600090CD
:1056F00002A8009AFEF7B0F9FEF7A4F91649174B75
:105700002B60B0FBF1F1002040F2E732491E286126
:10571000A860A861EA606960284602F03FFC0600C4
:1057200012D1284602F047FC06000DD11920FFF7E0
:1057300003FF102C07D2002221461920FFF7DDFEBF
:105740000748046000E00126304608B070BD000044
:1057500018100240E82A002040420F00002C0140AF
:105760000C020020C9B202788A421AB11CBF10F89C
:10577000012FF9E718BF00207047000080B500B97D
:1057800006A005490B681BB122220021984701E0C1
:1057900002F050FD222002BD382C0020636F6E7392
:1057A000747261696E742068616E646C65723A200F
:1057B000626164206D6573736167650000F10103C8
:1057C000810704D010F8011B820781B1FAD1026869
:1057D000A2F10131914311F0803104BF50F8042F40
:1057E000F6E709BAB1FA81F100EBD100401CC01A0A
:1057F00070470000C9B2830706D0521E22D310F8AA
:10580000013B9942F7D11FE0083A13D302F1040299
:1058100041EA012141EA014150F8043B121F21BF36
:105820004B40A3F1013C2CEA030C1CF0803FF3D069
:10583000C9B2001F0832521E24BF10F8013B91EA82
:10584000030FF8D818BF0120401E704710B514464A
:1058500000F002F8226010BDC1F30A5343B14A00C0
:1058600012F5001F28D2A3F2FE32A1EB02517047BD
:1058700050EA410C20D001F0004C31EA0C01B1FAA1
:1058800081F204BFB0FA80F3D2180B3AB2F12003D0
:105890002CBF00FA03F1914041EA0C013EBFC2F176
:1058A000200C20FA0CF319439040524240F2FD3391
:1058B000D21A01EB035170470022704741EA030CF2
:1058C00050EA4C0C52EA0C0C4FF4001C09D307D0E0
:1058D0001CEB410F9CBF1CEB430F8B4208BF824265
:1058E00070471CEB430FFBD8994208BF90427047AA
:1058F00041EA030C50EA4C0C52EA0C0C4FF4001C29
:1059000009D307D01CEB410F9CBF1CEB430F9942FE
:1059100008BF904270471CEB410FFBD88B4208BF79
:1059200082427047124254D440F2FF7C1CEA115369
:105930000FD0634531D09B1863453CBF01EB02514A
:10594000704701F0004141EA0C510020AFF30080A4
:10595000704750EA410320D001F0004C91EA0C015D
:105960001CD0B1FA81F30B3B9A420DD9D21A99405F
:1059700051EA0C01C3F1200C20FA0CFC6144984060
:10598000531C40F2FF7CD7E7914041EA0C01C2F181
:10599000200C20FA0CF3194390407047B0FA80F3C2
:1059A0001533202BE0D3202AEED3203A203B9A4215
:1059B00009D9D21A00FA03F141EA0C010020531C64
:1059C00040F2FF7CB8E700FA02F141EA0C01002046
:1059D0007047524240F2FF7C1CEA11530DD06345E0
:1059E000DBD0B2EB030C3CBFA1EB025170470CF1D2
:1059F000010221EA035141F4801150EA410CCCD05C
:105A000001F0004C352A27DC30B481EA0C01B2F1F8
:105A1000200309DAC2F12003044601FA03F5D0405D
:105A20002843D1409C400CE0C3F12002450020FAFD
:105A300003F418BF44F0010421FA03F091400C4331
:105A4000002174F1004550F1000051EB0C0124429B
:105A500030BC7FF47BAF70476146002076E70000E2
:105A6000C1F30A5340F21E42D31A0CDDCA0283F37B
:105A7000070342EA505242F00042DA4002EBE17280
:105A800082EAE17070476FEAE17203F2E13008B137
:105A900082F000407047000010F0004160B148BF44
:105AA0004042B0FA80F29040D21CC2F5846241EAD2
:105AB000025202EBD021400570470000841A71EBBE
:105AC000030604D26E40001BB141121973414FF41A
:105AD000001C1CEB410F34BF7CEB430683E00C0D34
