:020000040800F2
:100000000019002051700008ED6E0008EF6E000826
:10001000F16E0008F36E0008F56E000800000000A5
:10002000000000000000000000000000F76E000863
:10003000F96E000800000000FB6E0008FD6E00086D
:10004000997000089D700008A1700008A570000854
:10005000A9700008AD700008B1700008B570000804
:10006000B9700008BD700008C1700008C5700008B4
:10007000C9700008CD700008D1700008D570000864
:10008000D9700008DD700008E1700008E570000814
:10009000E9700008ED700008F1700008F5700008C4
:1000A000F9700008FF6E0008FD700008017100087B
:1000B00005710008097100080D7100081171000830
:1000C00015710008056F0008197100081D710008FE
:1000D000217100080B6F00082571000829710008C4
:1000E0002D71000831710008357100083971000860
:1000F0003D71000841710008457100084971000810
:100100004D710008517100085571000859710008BF
:100110005D7100086171000865710008697100086F
:100120006D7100087171000875710008797100081F
:10013000F8B5040022D004F13C05697821B900200B
:100140002870204601F026FB24216970DFF87C75B9
:1001500000F054FB2068016841F40041016021680F
:10016000086820F40040086001F04EFE6268BA4260
:10017000014605D2DFF85805814205D20120F2BDC3
:10018000DFF850058142F9D32368DFF84C25586821
:10019000B1FBF2F2800942EA8010586023681E6ABF
:1001A0006068B84206D34FF4967042434FF47A70B9
:1001B000B2FBF0F2521CB60942EA86121A62491EDC
:1001C0002268D3696668BE4206D2760000F044F821
:1001D000042913D2042111E0A06820B906EB4606D9
:1001E00000F03AF805E01920464300F035F841F4F4
:1001F000804108050CBF012141F40041DFF8DC0417
:1002000003400B43D36123681A68E069216A22F036
:10021000C00202430A431A602368DFF8C4049A68E4
:1002200021690240E0680A4302439A602268D36869
:10023000A06961691B0A40EA03230B43D3602021B4
:100240002068026842F00102026000206860697064
:1002500020630021A970F2BDB1FBF6F1491CC1F386
:100260000B017047006841690A0644BF0021016123
:1002700070472DE9F84304460F469046994601F031
:1002800015FE00F0E1F902D100F07EFA002840F0FE
:100290008A803078012800F086800122327000F0D8
:1002A00054FB212070701021B17000207060C4F8E0
:1002B0002480A4F82A9000F0EDF9E06A08281CBF19
:1002C0000128884205D0206B122804D100F07EFA64
:1002D00001E000F04BFB00950022DDF82080434652
:1002E0004FF0011100F055FA38B122681068C105CD
:1002F0004FD54FF4007070604BE02069B0F5804F2F
:1003000004D1216807F0FE070F6111E0F8092168A8
:1003100000F0060040F0F00008612B464246DFF88E
:10032000C41300F0ACF9002833D12068FFB2076194
:100330002B464246DFF8B01300F0A1F9002828D17F
:1003400000F03EF80099208D002824D02A4641462E
:10035000204601F026F9B8B9626A20681178016177
:1003600000F024F821684B695A0706D580B220B105
:10037000626A1078086100F019F82A464146204662
:1003800001F03EF90028DED07068042801D100F0A9
:100390006DF9012008E000F0DEF9202171700020E5
:1003A000B070307000E00220BDE8F283616A481C42
:1003B0006062618D481E6085218D481E20857047D2
:1003C00000902068416900918269009270472DE990
:1003D000F84F04460020009088461746994601F0E1
:1003E00065FD00F031F902D100F0CEF9002840F0AF
:1003F00022813078012800F01E810122327000F045
:100400004FF9102200F055F97170B2700020706041
:100410006762A4F82A90608D2085DFF8D002E06240
:10042000E36A21680A6842F480620A60082B18BFF8
:10043000012B04D083421CBF206B112801D100F096
:10044000C5F9009500220A9F3B464FF0011100F0CC
:10045000A0F94FF4007938B122681168C80548BF87
:10046000C6F804900120E7E02069DFF87CB2B0F51F
:10047000804F07D148F001005FFA80F82068C0F88B
:1004800010802FE04FEAD810226800F0060A4AF0E8
:10049000F00111612B463A46DFF8481200F0EFF800
:1004A0000028DFD120685FFA88F8C0F8108000F0DB
:1004B000E3F80028D6D100F09AF9009A2368196869
:1004C000184641F48071016000953B4600224FF0D0
:1004D000011100F05EF90028BED120684AF0F10A4F
:1004E000C0F810A000F0C8F80028BBD1208D10B9CA
:1004F00000F037F928E0012802D100F051F90BE0B3
:100500000228206801680BD141F40061016072B6D5
:1005100000F0B8F800F0F2F81046016062B613E09F
:1005200041F48061016000F0ADF800990CE000F04A
:1005300026F9002896D100F093F8511C6162208DB5
:10054000411E218500F0E3F8208D00286DD004289D
:1005500057D20128EBD00228DFF8401200953B4625
:1005600014D1002200F015F90028E3D172B600F092
:100570007DF800F075F8208D511C6162411E2185C7
:1005800000F0C5F862B600F0DAFDD8E7002200F00E
:1005900000F9002829D100F093F872B600F05AF85B
:1005A000208D4A1C411E626221851922608D411EE8
:1005B000DFF8140261854FF47A710368B3FBF2F23D
:1005C00000F096F800F008F920B121684869410769
:1005D000F8D50BE02063202171700022B2707068A2
:1005E00040F02000706062B632703BE7226811680C
:1005F000104600F097F8616A208D4A1C411E626225
:10060000BDE700F0BCF80028EFD100F093F89BD5CF
:1006100080B2032801D100F07EF800F01BF84A1CDC
:10062000218D626200F00AF88EE720217170B070AF
:100630000021317000E00220BDE8F28F481E2085C5
:10064000618D481E6085704704F13C060546707850
:100650002028704722681169606A0170616A7047DA
:1006600020680169606A0170626A704720680168E9
:1006700041F40071016070472B463A4659462046C6
:1006800000F03ABF00200090206841690091826923
:1006900000927047608DDFF854102085E16270474A
:1006A00020680168CA0703D4016841F001010160B4
:1006B00070472168086820F40060086022217047B4
:1006C0002168086820F4806008607047A1860100F6
:1006D00080841E0000093D0040420F000030FFFFF3
:1006E000007CFFFF08000100020001000000FFFF86
:1006F000B2FBF1F12320414300917047009B226837
:10070000116821F480617047616A4A1C6262608DE1
:10071000411E6185704722681168104621F480618E
:100720000160704741F40071016022681169606ADC
:100730000170704720680169606A0170616A208DEC
:100740004A1C401E62622085638D5A1E62852168A4
:100750004A69510770472168086840F400700860D2
:100760007047009021684869009089690091009B5A
:1007700022681168104641F40071016070472A46F2
:100780003946204600F05EBF009519230122DFF8AC
:10079000D811204600F078BE0000000004000100DF
:1007A0002068016821F48061016072B60020009029
:1007B00020684169009182690092009B226811685B
:1007C00041F40071704700001002002020680168A9
:1007D00041F48071016070470098401E00900098BD
:1007E00070472068016821F48061016070470090C3
:1007F00021684869009089690091704721680868FC
:100800004008400008607047002000902168486957
:10081000009070472DE9F84F04468B46924600F051
:1008200091F804F13C05064668780027202808D195
:10083000DFF834910096192301224946FFF7A9FFFA
:1008400000287AD12878012877D001222A7000F078
:100850007CF82420687000216960DFF81C01E062E8
:10086000FFF7B4FF0096434600224FF00111FFF757
:1008700090FF38B920680BF0FE01016101F016FB12
:10088000064612E020680268D10544BF4FF40070AC
:100890006860032052E001F009FB801B804502D311
:1008A000B8F1000F01D1A02068702168486949693A
:1008B0006A784008890AA02A00F0010001F00101CD
:1008C00001D00843E7D0202068702168486981077B
:1008D00014D4236818681A4640F4007010606FF44E
:1008E0008061206841610096192301224946FFF783
:1008F00050FF00BB7F1C5745B2D319E02068016848
:10090000024641F400711160002000901923FFF7A6
:1009100058FD0122009900964946FFF73AFF010071
:1009200003D12020687000222A70080006D002E05F
:10093000202169702870012000E00220BDE8F28FBC
:1009400089461546984601F0B1BA20680168CA0781
:1009500003D4016841F0010101602068016821F4BD
:100960000061016070470000020010002168086803
:1009700040F48070086070470000FFFF2DE9FC41E3
:10098000044604F13C052268DFF8286A5168E06AF1
:1009900095F802C06F780023BCF1100F18BFBCF1AE
:1009A000400F40F072829369D2F814E05FEACE788B
:1009B00005D4B0F52A0F18BFB0F12A4F39D05FEA3D
:1009C000CE7047D5880545D5E16AB1F52A0F08BF35
:1009D000012004D0E16AB1F12A4F01D10820E06280
:1009E000A878402809D168690028A8681ABF40F093
:1009F0000100C0B200F0FE002AE02069B0F5804F8F
:100A000018D168782128A8680EBF00F0FE0040F0D9
:100A10000100C0B21061606B00281CBF806A002812
:100A200005D1A06B00281CBF806A002801D000F00F
:100A3000ACFB35E3686920B900F03BFB40F0F00007
:100A400006E06869012804D100F033FB40F0F100B2
:100A5000106125E35FEA0E7015D5880513D5A968E6
:100A6000C9B21161606B00281CBF806A002805D1E3
:100A7000A06B00281CBF806A0028EAD0206841686B
:100A800041F4006135E15FEA8E7000D5880540F1E0
:100A9000AE80AF78E16A236B6878222840F0A480AA
:100AA0006869002808BF402F00F09E806869002810
:100AB00004BF2069B0F5404F0FD100210091536968
:100AC000009391690091009B22681068114640F4E0
:100AD000807008606869401C84E0608D10B900F087
:100AE00004FB2BE0608D01283AD1B14213D111688B
:100AF000104621F48061016021684A68100505D51F
:100B00000B461A6822F480620A6068E000200090B8
:100B10004A6900920FE0082918BF202903D0122B40
:100B20000FD1012912D010460146026822F48062DA
:100B30000A60FFF769FE89690091009B00F0EEFAF8
:100B40004FE004291CBF0229102903D0106820F4AB
:100B5000806002E0106840F48060114608603EE06A
:100B6000608D022827D104291CBF022910290CD02E
:100B70001346186840F4006000F0D7FA236818683C
:100B80001A4620F48060106005E01346186840F4AF
:100B9000806000F0CAFA20684268130521D5B1428E
:100BA00018BF012904D008291CBF1029202918D1F9
:100BB00000F091FA15E01346186840F48060106068
:100BC000206843681A050AD5B14218BF012904D02C
:100BD00008291CBF1029202901D100F07CFA00F05F
:100BE000E0FA002068615BE200F07FFA58E25B0700
:100BF0000EF0040061D553681B05F7D45FEA0E635D
:100C00002CD54B052AD5002828D16F78A978E36A1E
:100C1000208D002808BF212F13D1082B1CBF202BAB
:100C2000B34204D000F050FA0022AA7031E000F084
:100C30008EFA34D10020A8702046BDE8F64101F0BC
:100C40003BB9212F03D0402908BF222FCED1608D80
:100C5000002852D0A87840282BD00BE00028C5D01F
:100C60008805C3D5212F21D1E16A68782128BDD11B
:100C7000608D28B1616A08781061616A481CA6E03D
:100C800008291CBF2029B14206D000F01DFA00201F
:100C9000A8702021697004E000F059FACAD0002041
:100CA000A8702046BDE8F64101F007B9BCF1400F3D
:100CB00020D12046BDE8F6417CE25668330519D4C0
:100CC0005FEA4E6677D54B0575D5002873D16878F5
:100CD00022280FD1E66A608D04280CD300F0E3F9D6
:100CE000FFF714FD608D032804D12068416821F4CA
:100CF00080614160D4E1E16A022959D0012818BF1E
:100D0000002855D10020DFF87C77009019213B683E
:100D1000B3FBF1F14FF47A70B1FBF0F000EB80001F
:100D200000902146FFF758FD20B10C682368980514
:100D3000F8D41AE06B6843F020036B60506820F42D
:100D4000E06050600B681A69486A02704A6A531C76
:100D50004B6220224C8D601E48856A700020A8706E
:100D60000846BDE8F64101F0A9B80C46FFF7D3FCF0
:100D70002068416821F4E061416000F0E0F9202240
:100D8000618D481E60856A70A978402908D10020CD
:100D9000A870002121632046BDE8F64101F08FB81C
:100DA0000020A870082E18BF202E63D0122062E009
:100DB00000F085F974E10028FCD08805FAD5E06AD6
:100DC000618D042908D100F07AF900F0D6F960624B
:100DD000618D481E608563E1618D03290BD15168E7
:100DE00021F480615160042818BF022801D0FFF768
:100DF000F8FC22684FE1618D022942D1012818BF19
:100E000010280DD0042818BF022804D013461A68F1
:100E100042F4007208E013461A6842F4806203E06C
:100E200013461A6822F4806219460A6023681A6918
:100E3000616A0A70636A5A1C6262638D5A1E628517
:100E400021680A69616A0A70626A531C6362628D72
:100E5000511E618521684A6822F440724A6020214F
:100E60006970AA78402A92D00021A970082818BF7A
:100E700020289BD1002020632046BDE8F64101F0E8
:100E80001FB8116900F02CF907E1686800B993698F
:100E9000D2F814C05FEA8C7020D588051ED568682A
:100EA00000B193696878002100F02800282811D14A
:100EB00000F005F9580758BF0121180654BFE26831
:100EC000A2690020287002B02046BDE8F04192B22D
:100ED00000F0F7BF00F009F92B70E1E05FEACC63A6
:100EE00000D5880540F17F806F78516821F4E0617A
:100EF0005160FFF789FC22681168104641F001013A
:100F00000160009AFFF76DFC21684A6810052ED534
:100F10000FF2A548222F18BF2A2F13D0626B10683A
:100F20004368638500F0EFF8606B01F077F8012803
:100F30001DD0606BC0F83480606B00F0E7FFB0B18B
:100F4000606B12E0A06B03685A68628500F0DBF802
:100F5000A06B01F063F8012809D0A06BC0F83480C1
:100F6000A06B00F0D3FF10B1A06B416B8847608D80
:100F7000B8B1206841694A0704D50169606A017007
:100F8000FFF7C2FB20684269510604D50269606A16
:100F90000270FFF7B9FB608D18B1686840F004007B
:100FA0006860686818B12046BDE8F6415FE12A2F05
:100FB00006D10021216328206870204601F031F815
:100FC0006878282807D1E66200F0E5F82046BDE8F9
:100FD000F64101F027B8206B222818BF222F5FD1DD
:100FE00000F0D9F84DE00CF00400212F18BF292F94
:100FF0002DD15FEA0C661CD54B051AD5C8B96978A6
:10100000608D00284CD0606A03781361606A421CCE
:10101000626200F072F808BF292941D100F0A7F8F8
:1010200021212163282068702046BDE8F64100F0A8
:10103000FABF002834D0890532D5608D00282FD022
:10104000606A01781161606A411C616226E05FEAB2
:101050004C661BD54B0519D5C0B96978608DF8B1C0
:101060001069626A1070606A431C636200F045F8A0
:1010700008BF2A2914D100F07AF822212163282000
:1010800068702046BDE8F64100F0CBBF40B189054D
:1010900006D5608D20B100F006F86262FFF737FBDD
:1010A000BDE8F38100001069616A0870606A421C43
:1010B0007047A8680004C00D00F006007047506833
:1010C00020F4806050607047506820F4E060506009
:1010D000112121637047416841F48051416070479C
:1010E000606A0170616A4A1C70470023009351696D
:1010F00000919269009200997047608D421E62854E
:10110000608D00287047608D18B1686840F0040059
:101110006860486820F40060486070472268106882
:10112000114640F40070086070471060002300937F
:1011300020684269009283690093009A7047206892
:101140000169606A0170616A4A1C62627047506896
:1011500020F4E060506000222068016841F40071D2
:101160000160226320206870A978402970472168B7
:10117000486820F480604860704721680869616AA7
:101180000870626A501C704748602168486840F4E3
:101190000060486070470020206320216970A870BB
:1011A000704700200090216848690090896900918B
:1011B000009A704710B500F13D0200F14804137821
:1011C000A16881B9006862682168012A04D1C9B2A6
:1011D0000161A068801C04E00904090E0161A06897
:1011E000401CA06010BDA168012904D122680068DC
:1011F000D2B202610AE0A168022933D1222B09D1BF
:1012000002681168104641F480710160A168491CB0
:10121000A16010BD418D61B1212B0AD1436A0168E3
:101220001A780A61426A511C4162428D511E418501
:1012300010BD418D002908BF212B17D103685968C3
:1012400021F4E061596000240368196841F40071D9
:10125000196004632023137000215170BDE8104011
:1012600000F02ABEBDE81040FEF7FCBF10BD38B547
:10127000044604F13D0528786978102914BF4029F7
:10128000222804D121680A6822F400620A6000F072
:101290002801282904D100222263282028700BE08D
:1012A00021684A68110505D4602803D020202870E1
:1012B0000021697000202063206841680A052BD551
:1012C000416821F400614160626B0FF2ED0092F819
:1012D000211001290BD05063606B00F017FE00282D
:1012E0002DD000F059F820202870606B11E0A26B1F
:1012F0005063A06B00F00AFE08B3206841694A06FB
:1013000002D5016900F038F8FFF778FA202129703A
:10131000A06B416B884712E02A78602A0AD120210D
:1013200029700022226400F02DF800F03BF800F054
:101330007BFE04E000F026F8204600F0BFFD206CA4
:1013400010F00F0F04D02168486820F4E060486076
:101350002878226C51070ED528280CD11548E06258
:10136000002121632020287000226A702046BDE8F9
:10137000324000F057BE31BD606A0170626A511C94
:101380006162704741694A0605D50169606A01706A
:10139000616A4A1C62627047206801684908490016
:1013A00001607047216808684008400008602046D6
:1013B000704700000000FFFF7CB500210091192557
:1013C000416A304801F13D024FF47A74137806689F
:1013D000B6FBF5F5B5FBF4F42320444300940098E4
:1013E00038B10098401E00900C6820688505F6D43E
:1013F00003E0086C40F020000864486B08B100244A
:101400008462886B08B1002484620C68206820F430
:101410008060206000244C85486B00B14463886B79
:1014200000B14463086804686408640004601078CC
:1014300060280AD1202313700024547000220A640B
:101440000846BDE8764000F0EFBD03F02803282BE6
:101450000ED10868036843F001030360086804685C
:1014600044F480640460002008632824147003E0BE
:1014700020201070002353700846BDE8764000F02D
:101480001DBD0000100200202DE9F8430E46089F04
:10149000054691469846340C2968E0B201280CBFF5
:1014A0004969896900F078F80CBF0120002048459F
:1014B00020D118F1010FEFD000F0F8FCC01B8045DF
:1014C00002D3B8F1000FE7D12968E0B201280CBFC0
:1014D0004969896900F060F80CBF01200020484587
:1014E000DAD100F0DBF842F0200242600170012006
:1014F000BDE8F2830020FBE72DE9F0410E460546EA
:1015000014469846370CF8B2012821D12968486959
:10151000304080B2B1B288421FD028684169480586
:101520001DD529680B680A4643F4007313606FF4F5
:10153000806128684161002205F13C002A63202176
:1015400041708270416841F00401416002701BE00B
:101550002868816900F020F8DFD1002015E014F13F
:10156000010FD0D000F0A2FCA0EB0800844201D310
:10157000002CC8D1F8B22968012808D1496900F0C7
:101580000BF8C3D000F02FF80120BDE8F081896985
:1015900000F002F8DCD0F5E7314089B2B0B2814208
:1015A000704770B505460C4616462868416908061E
:1015B00017D4284600F07CF818B914F1010FF4D0C4
:1015C00001E0012070BD00F071FC801B844201D35A
:1015D000002CEAD1286841690806E6D400F003F837
:1015E000EFE7002070BD002105F13C0029632022B7
:1015F00042708170426842F0200242600170704780
:1016000070B505460C46164628684169480717D448
:10161000284600F04DF818B914F1010FF4D001E09C
:10162000012070BD00F042FC801B844201D3002CDD
:10163000EAD1286841694807E6D4FFF7D4FFEFE70D
:10164000002070BD70B505460C46164628684269F4
:10165000510621D44269D10608D56FF010024261CB
:1016600000F01CF842600170012070BD00F01EFC0B
:10167000801B844201D3002CE8D1286841694806C8
:10168000E4D4002105F13C002963202242708170DE
:10169000426842F02002E5E7002070BD0020286388
:1016A000202205F13C0000214270817042687047A1
:1016B00010B501684A6954050DD56FF480634B611C
:1016C000002101633C30202343708170436843F064
:1016D00004034360017012F4806018BF0120C0B29F
:1016E00010BDF0B40246106895681318506803EBFB
:1016F0005004C00748BF4D44A3422DD013F8016BDE
:1017000016F0030004BF13F8010BC01C31090F29A8
:1017100007D113F8011B0F3103E013F8017B05F823
:10172000017B401EF9D10029E6D013F8010BC6F366
:101730008107032F08BF13F8017B00EB072040420D
:1017400028440026B71E8F421EBF10F8017B05F803
:10175000017B761CF6D1CFE7F0BC02F10C0070479C
:1017600080B5DFF8AC01DFF8AC11DFF8AC214160E7
:1017700082600021C16000224FF48041026141611A
:101780008261C26102624262001DFEF7D1FC00B1BB
:1017900038E001BD30B585B001AD00210022002345
:1017A000002485E81E000168DFF86801814227D126
:1017B000DFF86841216841F00801216012212068AA
:1017C00000F0080000904FF44060009A01900291F0
:1017D0000322049201A9DFF8480100F027FC6068A9
:1017E00040F4800060600022606800F48000009097
:1017F00000210098212000F03AFD212000F056FD44
:1018000005B030BDBDE8014000F004BE000000009E
:1018100070B5444E3E4D444C06F1700000F0FCFDA6
:10182000002000F011FE642301229421281DFEF700
:10183000F1FF28B9942106F1280000F0EDFD03E046
:10184000207840F001002070022000F0FDFD6423AC
:101850000122A421281DFEF7DDFF10B900F00CF8CD
:1018600003E0207840F00200207021783DA0BDE820
:10187000704000F0D1BD00005FF0A40131A000F085
:10188000CBBD00007CB51546044601AA002010809F
:101890000E46032000F0D8FD642100918DF804600D
:1018A0008DF80550022300F009F830B14FEA00022C
:1018B0000FF2DC0132A000F0AFFD73BD01AA21469A
:1018C0001A48FEF7D6BC0000F2B5074682B00320E6
:1018D00000F0BAFD6420009001230D4E00F02CF8BA
:1018E000020000BF0FF298042DA501D000F020F8EF
:1018F00064200090012301AA47F00101301DFEF78A
:1019000066FD10B1024600F013F89DF80400FEBD1C
:101910000413002000580040A08601001810024067
:10192000000C0140C86C0008FC14002008130020C3
:101930002946204600F070BD02AA3946301DFEF748
:1019400098BC0000446973706C61792064657465AB
:1019500063742061646472203D2030782558200D26
:101960000A000000675F77696E675F746573745F74
:10197000657272203D2030782558200D0A00000045
:101980002573204572726F72212125640D0A0000B3
:101990004C45445F6932635F77726974650000008B
:1019A0004C45445F6932635F72656164000000000A
:1019B0002DE9F843040016D02078DFF8A874C10799
:1019C00013D5786800F00C00042807D0786800F080
:1019D0000C00082840D17968C8033DD53A689103C6
:1019E00003D56068002800F05B812078DFF884640C
:1019F000810719D5786810F00C0F07D0786800F0CF
:101A00000C0008285FD17868C1035CD4386881076E
:101A100003D52069012840F043813968606921F0CD
:101A2000F80141EAC00139602178080778D5A0693A
:101A3000DFF84414002800F09E8001220A6000F0C4
:101A400035FA0546796A88075BD400F02FFA401B07
:101A50000228F7D9032026E16068B0F5803F03D162
:101A6000386840F4803013E058B1B0F5A02F08D1A9
:101A7000386840F4802038603A6842F480323A6036
:101A800007E0396821F480313960386820F480201B
:101A90003860606858B100F009FA05463968880373
:101AA000A3D400F003FA401B6528F7D3D2E700F077
:101AB000FDF905463968880397D500F0F7F9401B12
:101AC0006528F7D3C6E7206968B10121316000F0CD
:101AD000EDF90546386881079FD400F0E7F9401B0F
:101AE0000228F7D9B6E70022326000F0DFF9054698
:101AF0003968880798D500F0D9F9401B0228F7D932
:101B0000A8E7DFF864231168C9084FF47A70B1FBC5
:101B1000F0F0009000BF0098411E00280091F9D11C
:101B2000207841076ED5F9690025C80009D4F96904
:101B300041F08051F9610125F86900F08050009072
:101B40000098DFF83883D8F80000C10520D4D8F811
:101B5000000040F48070C8F8000000F0A7F981464A
:101B6000D8F80010C80513D400F0A0F9A0EB0900C4
:101B70006528F5D36EE7086000F098F90546796AA4
:101B80008807CDD500F092F9401B0228F7D961E70C
:101B9000E068012808D008B9386A09E00528386AE1
:101BA00006D140F004003862386A40F0010005E0D8
:101BB000400840003862386A20F00400386241F280
:101BC0008938E06860B100F071F98146396A8807A8
:101BD00013D400F06BF9A0EB09004045F6D339E7C8
:101BE00000F064F98146396A880706D500F05EF98D
:101BF000A0EB09004045F6D32CE71DB1F86920F0B1
:101C00008050F861E06900284CD0796801F00C013F
:101C1000082938D002282AD100F047F8054639684B
:101C2000880105D500F042F9401B0228F7D911E7D9
:101C3000206AB0F5803F05D17968A06821F40031B1
:101C4000014379607A68206A616A22F4741202435F
:101C50000A437A60012000F029F8044638688101BF
:101C600020D400F023F9001B0228F7D9F2E600F097
:101C70001CF804463868810114D500F017F9001BE0
:101C80000228F7D9E6E601280AD07868226A00F42B
:101C90008031914202BF00F47010616A884201D025
:101CA000012000E00020BDE8F2830020306600F053
:101CB000FDB82DE9F041040088465FD0704E3068D1
:101CC00000F00700404509D23168C90848EAC1015F
:101CD0003160306800F0070040454FD12168614D08
:101CE000880712D5490703D5686840F4E06068604A
:101CF0002078010703D5686840F46050686069681F
:101D0000A06821F0F001014369602178C80726D559
:101D10006068012802D129688A0303E0022803D100
:101D200029688A0103D429E02B68990726D56A68B7
:101D3000920840EA8200686000F0B8F807466868D8
:101D4000616800F00C00B0EB810F08D000F0AEF835
:101D5000C01B41F289318842F1D3032032E031685F
:101D600001F0070188450BD23068C00848EAC0007E
:101D70003060316801F00701414501D0012021E0C8
:101D80002178480705D56968E06821F4E0610143DE
:101D9000696021780A0706D56868216920F46050D7
:101DA00040EAC100686000F00FF86A683549C2F384
:101DB00003128B5C2C49D84008602D48006800F065
:101DC00079FB0020BDE8F0812F4930480A6802F015
:101DD0000C03042B00D1704710B5082B12D100BFA3
:101DE0002DA4C2F38343D203E35C08D509685843AA
:101DF0002DA3C1F34041595CB0FBF1F010BD244864
:101E0000584310BD194810BD17481F4B00681A6889
:101E10002049C2F3022206E013481B4B00681A68EF
:101E20001C49C2F3C222895CC840704710B50F221A
:101E30000260154A136803F003034360146804F05A
:101E4000F0048460136803F4E063C3601268D2088E
:101E500002F4E06202610A4A106800F007000860BC
:101E600010BD0000001002401002002000127A0095
:101E70000C020020000042428004424200700040F8
:101E80000020024040700008041002400024F400CA
:101E900000093D00607000080203040506070809F8
:101EA0000A0B0C0D0E0F101001022E0001484068A5
:101EB000704700BF040200207047704770477047AA
:101EC0007047704790F82130022B00F1380206D09D
:101ED00004211160002280F8202001207047016851
:101EE0000B6823F00E030B6003681968490849006A
:101EF00019600123916852688B40536000210123CF
:101F000080F8213080F8201000207047F8B590F854
:101F100021200024022A00F1340103D0042048606B
:101F200001245FE00268136823F00E0313604FF48E
:101F3000803503681A68520852001A604FF48056C0
:101F40000268DFF8A8309A424FF4807719D9DFF899
:101F500098309A4208BF012510D0DFF894309A4299
:101F600008BF10250AD0DFF88C309A4208BF3D46E2
:101F700004D0DFF88470BA4208BF3546DFF87C2011
:101F800027E0DFF87CC062451CD0DFF878E07245BE
:101F90001AD0DFF874C0624518D0DFF87070BA420A
:101FA0000EBF3546DFF86860B24210D0DFF86460DB
:101FB000B24208BF4FF4801509D09A4207D14FF0C2
:101FC000807504E0012502E0102500E03D46DFF8C1
:101FD00048201560012380F8213080F820400968EE
:101FE00001B188472046F2BD08040240800002404B
:101FF0001C04024030040240440402400404024035
:10200000080002401C000240300002404400024030
:10201000580002406C0002400400024090F8210089
:102020007047704770477047704743002DE9F84785
:1020300000270024734BDFF8D081744D4FF00F0957
:10204000024610E0D3F800E000EA0E00186009E054
:10205000C3F804C04E68F603F4D518684EEA000EC3
:10206000C3F800E07F1C0E6836FA07F000F0B68077
:10207000012000FA07FC0CEA060EE645F2D14E6894
:102080003EB3012E1AD0022E1DD0032E2ED0112EBB
:1020900016D0122E1AD05E4886421CBF5D4886427A
:1020A00017D05D4886421CBF5C48864211D05C4810
:1020B00086421CBF5B4886420BD018E0CC6816E015
:1020C000CC68241D13E0CC68083410E0CC680C34D4
:1020D0000DE0886808B9042409E0012819BF082424
:1020E000C2F814C00824C2F810C000E00024BEF5F5
:1020F000807F03D210464FEA870C04E0A7F1080660
:10210000101D4FEA860CD0F800A009FA0CF62AEA56
:10211000060604FA0CFC4CEA060CC0F800C048683D
:10212000C0009FD52E6846F001062E60BE002868CC
:1021300000F00100009006F00C0C0098B80858F868
:1021400020A009FA0CF62AEA060A374EB24208BF66
:10215000002618D0354EB24208BF012613D0344EA7
:10216000B24208BF02260ED0324EB24208BF03264A
:1021700009D0314EB24208BF042604D02F4EB242DD
:102180000CBF0526062606FA0CF646EA0A0C48F8A5
:1021900020C06FEA0E004E68F60204D59E684EEA33
:1021A00006069E6005E0D3F808C000EA0C0CC3F8F0
:1021B00008C04E68D3F80CC0B6024CBF4EEA0C0CF7
:1021C00000EA0C0CC3F80CC04E68D3F804C0B60388
:1021D0004CBF4EEA0C0C00EA0C0C39E7BDE8F18765
:1021E0008068084018BF0120C0B2704702B90904D6
:1021F00001617047C36801EA0302994341EA024161
:1022000001617047000401400800014018100240BD
:102210000000111000001210000021100000221018
:10222000000031100000321000080140000C014095
:10223000001001400014014000180140001C014042
:102240000A01010002D41F4B5A5470471E4801F086
:102250000F01014401F8042C70471C490A6860F31F
:102260000A2240F2FA5060F31F420A60704770B5CC
:10227000164C2368C3F302230124C3F10705052D7F
:102280002FBF0F26C3F1070604FA06F6761E1D1DA2
:10229000072D34BF0023DB1E3140994004FA03F3BD
:1022A000BDE870405B1E1A401143C9E7010007D426
:1022B000012200F01F01064B8A40400943F820200C
:1022C0007047000000E400E018ED00E00CED00E0D5
:1022D00000E100E001B50A23012269464A4800F006
:1022E0006DF9009802BD49480268521C02604168BD
:1022F000491C41608168491C8160C168491CC160FA
:102300000169491C01614169491C41618169491C9C
:102310008161C169491CC161016A491C0162816A0C
:10232000491C8162C16A491CC162016B491C01637D
:10233000416B491C4163816B491C8163704780B5C7
:1023400000F03AFC00F015F800F048FCFFF708FA3E
:1023500000F00CFD00F06CFD00F086FD00F01EFEAC
:1023600000F01DFF00F08EFF00F0B6FF01F0E0F876
:10237000F8E700B595B0282105A801F077F91421F8
:10238000684601F073F918210FA801F06FF90121D7
:1023900005914FF400334FF48031069107930D916E
:1023A000012202234FF4E01109920C930E9105A82B
:1023B000FFF7FEFA08B100F02DF80F20009002217F
:1023C00000234FF4806201910293039204936846C4
:1023D000FFF76FFC08B100F01DF802224FF4004136
:1023E0000F9211910FA801F045F908B100F012F811
:1023F00015B000BD80B501680548814208BF01F0F5
:10240000ADF9BDE801406EE7441400208C140020B3
:10241000002C014072B6FEE70EB41EB5024605A8B8
:1024200001900024009401AB0121044878440C3051
:1024300001F09FF903B010BC5DF810FBE94B000000
:102440000121002000F002BE0E4B1A78904200D10C
:102450007047E0B51870012303FA00F000F00F0098
:102460008DF8040001AA64200090E0210648FDF7E1
:1024700000FF020005D000BF0FF2100109A0FFF716
:10248000CBFF07BD940200200813002054434139BC
:10249000353436415057525F4368616E6E656C5FEC
:1024A00053656C002573204572726F72212125647B
:1024B0000D0A000078B504461D481E4D87B001681E
:1024C00041F40061016001A9006800F4006000901F
:1024D00002A8009AFFF7AAFCFFF79EFC1649174BCB
:1024E0002B60B0FBF1F1002040F2E732491E286179
:1024F000A860A861EA606960284602F09DF80600BD
:1025000012D1284602F0A5F806000DD11920FFF7D8
:10251000CDFE102C07D2002221461920FFF7A7FE7E
:102520000748046000E00126304608B070BD000096
:1025300018100240B413002040420F00002C01404C
:102540000C02002038B5040001D1012032BD04F195
:102550004005687808B900F009F800F00CF800F0C0
:1025600022F8FFE7486100F010F832BD0021297021
:10257000204600F090BC242068702168C86820F4D0
:102580000050C860204600F0D4BA2168C86840F402
:102590000050C8606A60202169702020A870002166
:1025A0006163002070472168086920F49040086149
:1025B00000222168486920F02A0070472DE9FC417B
:1025C00006460D4696F84100202814461F4641D184
:1025D0000DB1200001D101203DE0002171642120D6
:1025E00086F84100FFF762FCB4848046F484B0684A
:1025F000B0F5805F04BF306900281ABF2C46002563
:10260000002412E000228021304600F09EF9E0B95B
:102610003068002C12BF14F8011B35F8021BC1F3FF
:1026200008014160F18C481EF0844346F08C00970D
:102630000028E7D100224021304600F086F920B979
:10264000202086F84100002005E0202086F8410087
:10265000032000E00220BDE8F68110B500F1300350
:102660009C7C202C0AD109B1140001D1012010BD9D
:1026700000241C60BDE8104000F0A4B9022010BD89
:1026800043E8002100297047226802F1140151E853
:10269000001F143221F0400142E800100028F3D15D
:1026A000E06B7047F8B50446226813681146084687
:1026B000CD68466913F00F0F03F0200105F02000EC
:1026C00007D1002918BF00285BD02046BDE8F240A2
:1026D000C8E1F70702D415F4907F52D0DA0705D588
:1026E000ED0503D5626C42F0010262645A0705D51C
:1026F000F50703D5626C42F0020262649A0705D5C1
:10270000F50703D5626C42F0040262641A0706D52D
:1027100008B9F30703D5626C42F008026264626C88
:10272000002A2DD000291EBF0028204600F09AF96B
:1027300020684069626C110701D440061BD5204611
:1027400000F05BF92068416948060FD5FFF79CFF50
:1027500060B10FF201314163E06BFFF7D7FB002856
:102760000ED0E06B416BBDE8F44008472046BDE861
:10277000F24002F0ADB8204602F0AAF800206064F2
:10278000F1BD206B012804F1410140F08B80D80697
:1027900000D5EE0640F18680002300931268009277
:1027A00023685A680092009B2068426950063FD512
:1027B000E26B1068406880B20028E1D0A38D984297
:1027C000DEDAE085906920282AD0226802F10C0523
:1027D00055E8002F206800F10C0322F4807243E8D2
:1027E00000200028F1D100F09CF8520800F11403F9
:1027F000520043E800200028F5D100F092F800F1E3
:10280000140322F0400243E800200028F5D12020E4
:1028100048700021216300F08BF8E06BFFF752FB5A
:1028200002206063A18DE08D091A89B2204635E04F
:10283000A38DE28DE08D9B1A00281CBF98B2002862
:102840006ED02246156805F10C0454E8004F0C3593
:1028500024F4907445E800400028F3D1156805F190
:10286000140454E8004F64081435640045E800403F
:102870000028F3D12020487000211163146804F16E
:102880000C0151E8001F0C3421F0100144E8001045
:102890000028F3D10220506399B21046BDE8F440FD
:1028A00002F017B818062BD52A0629D50878212852
:1028B00036D1A068B0F5805F04BF2069002809D137
:1028C000226A21681088C0F308004860206A811CD1
:1028D000216205E0206A421C22622168007848607B
:1028E000E08C401EE08480B2D0B92168C86820F036
:1028F0008000C8602168C86840F04000C860F1BD31
:1029000058060DD56A060BD52068C26822F0400231
:10291000C260204620220A70BDE8F24001F0DABF12
:10292000F1BD226802F1140555E8002F20687047B8
:10293000226802F10C0151E8001F0C3221F0100155
:1029400042E800100028F3D170472DE9FC41089CB3
:1029500005460E4690461F46296808683040B0423A
:102960000CBF0121002141452AD114F1010FF3D000
:10297000FFF79CFAC01B844200D314B90320BDE8C2
:10298000F6812968CA685007E6D5802E18BF402E08
:10299000E2D00B461A681007DED5002300932C689E
:1029A00022680092496800910098284600F025F8B6
:1029B00005F1400008224260002101700120DEE79D
:1029C0000020DCE781628285C285002141642222E9
:1029D00080F84220016921B10268D16841F4807118
:1029E000D1600268516941F0010151610168C86814
:1029F00040F02000C86000207047036803F10C021B
:102A000052E8002F0C3322F4907243E80021002991
:102A1000F3D1036803F1140252E8002F5208143373
:102A2000520043E800210029F3D1016B01290BD1A9
:102A3000036803F10C0252E8002F0C3322F010025D
:102A400043E800210029F3D1202280F84220002110
:102A500001637047406A0022C2850021C18401F0F1
:102A600037BF00001CB590F84210222958D1816868
:102A7000826AB1F5805F0AD1016969B90368596852
:102A8000C1F308011180826A911C81620FE0002964
:102A900004BF0169002902D10368596803E0016895
:102AA000496801F07F011170816A4A1C8262C18D00
:102AB000491EC18589B289BB0268D16821F0200115
:102AC000D16000230168CA6822F48072CA6002687B
:102AD0005169490849005161202280F8422043632E
:102AE000016B012918D10022026300F01BF822F0CB
:102AF0001002FFF7C5FDF8D101680A68D30607D5B3
:102B0000002200920B680093046862680092009BA8
:102B1000818D01F0DEFE01E001F0DEFE002016BD39
:102B2000022016BD036803F10C0252E8002F0C339B
:102B3000704710B5044622681169E06821F44051DD
:102B400001431161D3681A48A168034020690B430F
:102B5000616903430B43D36016495369A06923F4A9
:102B6000407303438A42536102D1FFF755F901E0F4
:102B7000FFF74AF96268192148439200B0FBF2F26C
:102B80006421B2FBF1F16FF0630000FB012212013E
:102B900032326423B2FBF3F000F0F00202EB0112D8
:102BA000216800F00F008018886010BD0000000050
:102BB000F3E9FFFF0038014080B50748016841F0A4
:102BC000100101600320FFF748FB0F20FFF772FCA4
:102BD00001F0BEFE002002BD002002402DE9F847B2
:102BE00085B06846002400210022002380E81E00F2
:102BF0005548DFF858A10268554D564EDFF8588108
:102C0000DFF8589142F00402026041F60364016863
:102C100001F00401049148F20877049B026842F035
:102C200010020260016801F010010491049B026827
:102C300042F008020260016801F008010491049B5F
:102C4000026842F040020260016801F04001049114
:102C5000049A016841F0200101600022006800F040
:102C6000200004901021049B5046FFF7BFFA002279
:102C700021462846FFF7BAFA00224FF4E6413046D3
:102C8000FFF7B4FA002239464046FFF7AFFA0022B8
:102C90004FF4E0614846FFF7A9FA102002210090A6
:102CA0000123002203910193029269465046FFF7E7
:102CB000BDF94FF4C55000900022019200F050F889
:102CC00048F20300002100900191029130466946CC
:102CD000FFF7ACF901210191002202210391029238
:102CE000009469462846FFF7A1F94FF4E6400090AA
:102CF0000121022001910022039002926946304690
:102D0000FFF794F90122019200210291022203921D
:102D1000009769464046FFF789F943F29300009017
:102D200000220192029269464046FFF77FF9012195
:102D30004FF4E0620191009202210022039100F021
:102D40000FF806B0BDE8F0871810024000080140F7
:102D500000180140000C0140001401400010014027
:102D6000029269464846FFF761B900004FF482714C
:102D7000002280B52A4841608260C26002614261DF
:102D800030214FF400728261C1610022254B036043
:102D90000A21026242628262C16201F0F9FD18B149
:102DA000BDE80140FFF736BB01BD30B585B06D46CB
:102DB000002100220023002485E81E000168194834
:102DC000814226D11848194C026842F480520260B0
:102DD000016801F480510491049A016841F00401F2
:102DE00001600222006800F004000490A020049911
:102DF000009003210391019269462046FFF716F9DE
:102E00004023002200930192029269462046FFF778
:102E10000DF905B030BD024610210448FFF7E6B9B0
:102E20005C130020003001401810024000080140EF
:102E300010B54FF4E130504C504A606000210C2036
:102E400060612260A160E1602161A161E1612046D1
:102E5000FFF778FB08B1FFF7DDFA2046BDE8104028
:102E600001224749FFF7F9BB4FF4E13180B54548EE
:102E7000454B416000220C2103608260C260026108
:102E800041618261C261FFF75DFB18B1BDE801409D
:102E9000FFF7C0BA01BD30B585B06D4600210022F4
:102EA0000023002485E81E0000F060F82CD10368A0
:102EB000364C43F480430360016801F4804104917F
:102EC000049A016841F0040101600222006800F0E8
:102ED000040004904FF400700499009003210391C2
:102EE000019200F03FF800214FF4806201910291BD
:102EF000009200F037F8002200212520FFF7B7F9F3
:102F00002520FFF7D3F92BE01F4A914228D14168D1
:102F10001F4C41F400314160416801F400310491DB
:102F20000499026842F0200202600221006800F069
:102F3000200004902020049A009001910322039223
:102F400000F010F84020009000220192029200F060
:102F500009F81049086840F0E06040F00800086097
:102F600005B030BD69462046FFF760B80168034AE6
:102F70000948914270470000FC13002000380140CE
:102F8000FE140020441400200044004000080140CA
:102F90000014014004000140181002401FB56B46A8
:102FA00000200021002283E80700244C244A2073DB
:102FB000A160217561604FF46020E0610121226011
:102FC0002161204602F030F808B1FFF723FA002013
:102FD00000900122029001926946204602F0ACF86E
:102FE00008B1FFF717FA1FBD30B585B001AD00215C
:102FF00000220023002485E81E0001681048814259
:103000001AD11048026842F400720260016801F4AB
:1030100000710091009A016841F0040101600F21E4
:10302000006800F0040000900322009B0648019114
:10303000029201A9FEF7FAFF05B030BDC8140020C6
:1030400000240140181002400008014038B50B2848
:10305000DFF89C33DFF89C43DFF89C5370D8DFE83F
:1030600000F0060D161F283039424B545B6411B135
:103070000122022123E00022022120E019B10122D5
:103080004FF400711BE000224FF4007117E019B1FA
:1030900001224FF4806112E000224FF480610EE0C3
:1030A00019B101224FF4006109E000224FF40061E0
:1030B00005E009B1012200E000224FF480511846DA
:1030C0003AE019B101224FF4806123E000224FF46D
:1030D00080611FE019B101224FF400711AE0002253
:1030E0004FF4007116E019B101224FF4807111E024
:1030F00000224FF480710DE019B101224FF400411C
:1031000008E000224FF4004104E009B1012200E090
:103110000022082120460FE0002907BF00224FF4BB
:10312000006101224FF4006105E0002914BF012273
:1031300000224FF480612846BDE83840FFF756B8BA
:1031400031BD000010B50928DFF8B032DFF8A84221
:10315000DFF8A02222D8DFE800F00507090C0F12E3
:103160001517191B20210BE0012100E00221184650
:1031700010E04FF480510CE04FF4005109E0802141
:10318000204607E0802104E0102102E0022100E057
:1031900001211046BDE81040FFF722B810BD80B5F0
:1031A0000FF288220FF27821DFF85402FFF734F98A
:1031B000DFF850120FF280200968FFF72DF902F0B6
:1031C0008FF8BDE80140FFF73BB9012108203DE73A
:1031D000012109203AE701210B2037E701210320D3
:1031E00034E70121022031E7002101202EE780B5DC
:1031F000012818D1042002F0EBF9FFF7F5FFFFF7E3
:10320000F0FFFFF7EBFFFFF7E3FFFFF7DEFF142010
:1032100002F0DEF9FFF7DFFF642002F0D9F900F0D9
:10322000C5F8012115E00021FFF7D6FF0A2002F0C2
:10323000CFF90121FFF7D9FF0021FFF7D3FF0021CC
:10324000FFF7CDFF0021FFF7C4FF0021FFF7BEFF0E
:103250000021BDE804400420F8E680B50420FFF713
:1032600071FF70B9642002F0B3F90420FFF76AFF20
:1032700038B90FF2DC10FFF7CFF8BDE8014002F0DB
:10328000BBB901BD10B500F025F85F4C012804BFA3
:10329000207800280AD1052002F09AF900F01AF8E7
:1032A000012803D1FFF7A3FF0120207000F012F8DE
:1032B000002804BF2078012809D1052002F088F9F0
:1032C00000F008F818B9FFF792FF00202070BDE861
:1032D0001040C2E7062035E74C48C16AB1F5FA7FD5
:1032E00000D2704738B500224949424CC262087882
:1032F00000B3484D2878C30758BF01224FF48061BE
:103300002046FEF773FF2978880754BF0122002268
:103310004FF400712046FEF769FF287810F00C0F7B
:103320000CBF012200222046BDE838404FF48071D6
:10333000FEF75CBF2046BDE834404FF48061FEF7E5
:1033400059BF00002DE9F04344A5334995E8C00179
:103350008FB0E946044689E8C00103A8302202F094
:1033600083F90DF1090002F02FFA064600208DF8CE
:10337000060001A802F028FA074600208DF8030095
:10338000804603A850F82810684602F025FA28B1B4
:1033900008F10108B8F10C0FF3DB01E008F10105B9
:1033A00026706570A7700FB0BDE8F08370B502227B
:1033B00002214420FEF766FA08220F214420FEF77E
:1033C00061FA02214420FEF77FFA064603214420D9
:1033D000FEF77AFA0446114D324602212846FFF7DD
:1033E0001BF822462846BDE870400321FFF714B8B9
:1033F000001801400014014000100140000C014081
:103400008C6E000810020020FF1400208C14002095
:10341000FD140020FC140020BC6E0008906F000812
:1034200053657020313520323032350030393A342E
:10343000353A35370000000053797374656D436F7A
:103440007265436C6F636B203D2025640D0A00009C
:1034500074657374206B6579200D0A0053657020C4
:10346000313520323032350030B50246002001249B
:1034700002E0535D1818641CA5B28B1E9D42F8DB58
:10348000C0B230BD30B5002201248B1E02E0455D84
:10349000AA18641CA5B29D42F9DB0844032100F878
:1034A000022D417030BD38B505460C46FFF7DCFFF4
:1034B000291911F8021C814201D1012032BD0020DE
:1034C00032BD70B514463D4E1D46022232707070FA
:1034D000B1701B0AF37035712A462146701D02F047
:1034E000C3F8ED1DA9B23046BDE87040CAE7F8B593
:1034F0001C46FFF7E6FF0027314D304EB8B23118B9
:103500004FF6FF7301222846FFF758F87F1CBAB226
:10351000E11D8A42F2DBF1BD01F5806042798179DB
:1035200002704170C279017A41EA022141807047FC
:1035300038B5244C204601F0E9F900283DD020465A
:1035400001F0F9F91D4CB4F8041804F2044568546C
:10355000B4F80418491C88B2B0F5806FA8BF0021E8
:103560002878A4F80418022824D1B4F804180529EE
:1035700023DBEA782879CB1F40EA022083421CD162
:103580002846FFF790FF012807D121460020FFF7CA
:10359000C3FF284600F038F80CE0B4F804182846B9
:1035A000FFF762FF8DF8000001236A460A216020C0
:1035B000FFF79DFF0020A4F8040831BD9802002009
:1035C000FC130020A00A00201CB500BF1FA10A6840
:1035D00001AB04461A606846FFF7B4FE9DF8000090
:1035E0009DF801108DF80400042301A801AA417080
:1035F0009DF80210817001208DF80700A178607895
:10360000FFF775FF13BD000010B50446A27861787E
:103610000FA0FEF701FF6078022815D1A0780928D5
:1036200004D0F32807D0FF280AD010BD2046BDE8FB
:10363000104002F0DBB82046BDE8104002F08ABA24
:103640002046BDE81040BFE710BD0000180711017B
:103650001B5B33326D4D435B307825785D53435BA4
:10366000307825785D0D0A1B5B306D00002202F07A
:10367000ADBB00002DE9FC410646354D3178C80749
:1036800050D5A9690024C80009D4A96941F0805126
:10369000A9610124A86900F08050009000982D4F86
:1036A0003868C10511D4386840F480703860FEF77E
:1036B000FDFB80463868C10507D4FEF7F7FBA0EB99
:1036C00008006528F6D303203FE0E86910F4407055
:1036D0001EBF716801F44071884218D01E49E86924
:1036E00001220A60002320F440700B60E861C007EB
:1036F0000DD5FEF7DBFB0746E969880707D4FEF71F
:10370000D5FBC01B41F289318842F5D3DBE7EA697A
:10371000706822F440720243EA611CB1A86920F08B
:103720008050A8613178880705D52968B06821F4F0
:103730004041014329603178C80605D52968706980
:1037400021F48001014329600020BDE8F6810000DA
:10375000041002400070004040044242024A516896
:1037600010784118516070470402002040F020009A
:1037700070472DE9F14FB0B0924604910DF142012E
:103780003A9A2B9199464A7000200AE01AF8011BD8
:103790000498309A90470028049000F043860D98D2
:1037A000401C0D909AF8000050B12528EED100225F
:1037B00000210792089109920A910B920C9104E062
:1037C0000D9800F031BE41F001011AF8010F2028D8
:1037D000F9D023280CD02B2804D02D2805D0302850
:1037E00009D00BE041F00201EFE741F00401ECE702
:1037F00041F00801E9E741F01001E6E72A280FD17E
:10380000D9F8002052F8040BC9F8002000280F90C6
:1038100003D540420F9041F004010AF1010A14E07F
:103820000F92DFF80C0C0AE00F9C844205DA04EBDF
:10383000840302EB4302303A0F920AF1010A9AF82C
:103840000020A2F130030A2BEED39AF800202E2A92
:1038500003D04FF0FF300E9029E01AF8010F2A280C
:1038600009D1D9F8002052F8040BC9F800200E90B5
:103870000AF1010A1BE02D280CBF0AF1010A002001
:1038800000220E92DFF8A85B0BE040B90E9BAB4222
:1038900005DA03EB830402EB4402303A0E920AF19C
:1038A000010A9AF80020A2F130030A2BEDD3ADF8FB
:1038B00040100FF680309AF8001002F0A1FA08B11B
:1038C0001AF8010B8DF842009DF84200682805D1D6
:1038D0009AF8001068290CD1622006E06C2804BF19
:1038E0009AF800106C2904D171208DF842000AF179
:1038F000010A12AA06921AF801BBBBF125002CD0CE
:103900001C3800F09781001F022840F29381133881
:1039100000F0BA84093800F08D81801E00F04F85D8
:10392000401E00F0FC84401E022840F28381001FEC
:1039300000F0F584401F00F0F280401E00F0A484E7
:10394000401E00F0DA80C01E0ED0801E00F09C8465
:10395000C01E00F0998400F03DBD01222521079290
:103960008DF8481000F042BDD9F8000050F8044B23
:10397000C9F80000002C059440F0AB802B994878E2
:10398000002800F0A1804FF0FF340FF6B02002F0C5
:1039900043FA241A40F0468500F028BD01236A4608
:1039A00002A9304600F00CFE002840F03B85641E62
:1039B000F4D13096079C12AE74B1309F16F8011BFB
:1039C0000498B8470028049000F02C850D98401CFE
:1039D000641E0D90F2D130970A9C3021002C8DF896
:1039E00000100CDD309E01236A4602A9304600F02B
:1039F000E7FD002840F01685641EF4D13096059E40
:103A0000089C74B1309F16F8011B0498B847002831
:103A1000049000F007850D98401C641E0D90F2D1B3
:103A200030970B9C3021002C8DF800100CDD309E5F
:103A300001236A4602A9304600F0C2FD002840F08A
:103A4000F184641EF4D1309605980899099C4618B3
:103A500074B1309F16F8011B0498B84700280490F1
:103A600000F0E0840D98401C641E0D90F2D1309758
:103A70000C9C3021002C8DF800100CDD309E0123B1
:103A80006A4602A9304600F09BFD002840F0CA8437
:103A9000641EF4D130969DF8400041077FF582AE58
:103AA0002020002D8DF800007FF77CAE309C012394
:103AB0006A4602A9204600F083FD002840F0B28447
:103AC0006D1EF4D130946DE60FF65430059000F081
:103AD0008DBC0E9D002D04D5204602F0BDF9044694
:103AE00008E02A460021204602F0D2F9002814BF3F
:103AF000041B2C46089400F079BCD9F8001051F84A
:103B0000040BC9F8001020F00002002121F0FF335F
:103B1000CDE9022312AC0594782100F04CBC2B991E
:103B2000487820B14FF0FF340FF6C4202FE79DF8FE
:103B30004200622860D0682817D06A283FD06C28DD
:103B400006D0712847D074282CD07A281DD062E086
:103B5000D9F8001051F8040BC9F80010002866D1FC
:103B60004FF0FF340FF6A02011E7D9F8001051F8FC
:103B7000040BC9F8001020B94FF0FF340FF688206D
:103B800005E70D99018000F031BCD9F8001051F81B
:103B9000040BC9F80010002849D14FF0FF340FF68C
:103BA0006820F4E6D9F8001051F8040BC9F80010A9
:103BB00000283CD14FF0FF340FF64C20E7E6D9F84F
:103BC000001051F8040BC9F8001080B94FF0FF3411
:103BD0000FF63420DBE6D9F8001051F8040BC9F8D1
:103BE000001020B94FF0FF340FF61C20CFE60D9ADD
:103BF000D317C0E90023F9E3D9F8001051F8040BFA
:103C0000C9F8001020B94FF0FF340FF6FC10BEE6E3
:103C10000D990170EAE3D9F8001051F8040BC9F8C6
:103C2000001020B94FF0FF340FF6DC10AFE60D990D
:103C30000160DBE39DF842004C2807BFD9F8001073
:103C4000CA1DD9F80000C21D22F00702C9F80020E1
:103C5000D2E900010832C9F80020CDE90201C80FFD
:103C600002D007982D210AE0BDF84010880702D540
:103C700007982B2103E0C80705D50798202112AA31
:103C80001154401C079012A807994BF0200300EB39
:103C9000010CDDE90201CDE92C01612BCDF814C046
:103CA00021AC0BD00E98002848BF062105D404BFD4
:103CB0004BF02000672801D101210E91DDE9026758
:103CC0007B0043EAD6735A15DB174FF0FF3083426F
:103CD00008BF824210D13F0347EA16573603002F30
:103CE00008BF002E08D0ABF1610503211A2D089101
:103CF00018D30FF6341110E0DDE902014A00521525
:103D000012F1010F11D108030FD1ABF161050321AD
:103D10001A2D08911FD30FF618110322604601F0E7
:103D2000A3FC63E30FF6FC01F7E7DDE902016A4655
:103D300002F0DAF8CDE902014BF02000612811D140
:103D4000059830220270811C0591BBF1610F0CBFF8
:103D50007821582102E00FF6D401DEE74170079880
:103D6000801C0790DDE9020120F0000231F00043E1
:103D700008BF002A02D10026002542E14BF02008AE
:103D8000B8F1610F40F093800E98002847BF2121C1
:103D90000191401C0190019EDDE92C01761C00225E
:103DA0000023DDE9024502F0D7F838BF85F0004571
:103DB00000988DF88420001F002E00900DF18507DB
:103DC00032DD204629460022002302F0DFF82BD204
:103DD0001C2202F0F5F804460D4602F08FF9F61F9A
:103DE000002E804609DD02F0A5F902460B4620466A
:103DF000294602F067FA04460D46F81D0721B8F17E
:103E0000000F0CDD491E5EBF08F00F0200F8012D07
:103E10004FEA2818F3D502E0002200F8012D491ED0
:103E2000FAD5C71D002ECCDC0DF185003F1A019894
:103E30000DF185043E468742C8BF0646002E2FD4AA
:103E4000BE4206DA0DF18500815D0829A8BF0F206A
:103E500000DA0020324621A98D1800E0761E15F800
:103E60000139521E8342F9D00F2804D10DF185018A
:103E7000885C401C8854002A04D50098001D21ACA1
:103E8000761C0090701E0BD421180B783033DAB2F8
:103E90003A2AA4BF5B443A3B401E01F80139F4D5ED
:103EA0000E99002940F1AC80701E0E90A8E0009998
:103EB000DFF8FC2647F29750414391FBF2F2009263
:103EC000DDE92C45C2F10702002A25F0004504DD9A
:103ED0002046294600F049FB0BE052420020DFF863
:103EE000D41600F042FB02460B462046294602F05B
:103EF0005BFA04460D46B8F1660F06BF009E0A360F
:103F000006260E983618142EC8BF142630208DF8B9
:103F100084000DF18507002E34DD2046294602F08D
:103F200067FB01460A4607F1080C04200A27B2FB8A
:103F3000F7FE0EEB8E03A2EB430230320CF8012C9D
:103F40000A22BEFBF2F202EB8203AEEB43033033F4
:103F5000401E0CF8023DE9D1083E002E0CF1080786
:103F6000D9DD084602F056FB02460B46204629469C
:103F700002F0A8F90022DFF8403602F059FB0446AF
:103F80000D46CAE70DF185003F1A0DF1850404E0E6
:103F90000098401E7F1E0090641C20783028F7D0C7
:103FA000B8F1660F02D1009E761C04E0B8F1650FEF
:103FB0000CBF012600260E983618B742B8BF7E1EE9
:103FC000002E1DD4BE4204DAA05D3428C8BF3920BB
:103FD00000DC30203246611E8D1800E0761E15F898
:103FE0000179521E8742F9D0392802D1A05C401CC9
:103FF000A054002A04D50098401C0C46761C009062
:10400000009D02F003FC406A0778DDF8388030B28A
:10401000002802DC01260FF21C644BF02000662809
:1040200008BF6D1C16D0672845D128B210F1040FC7
:1040300047DB404545DA9DF840106D1C080703D466
:1040400030B24045D8BF804628B2B8EB000848BF20
:104050004FF000080FFA85FBBBF1000F00F3B380AF
:104060000898411C0891302205990A54B8F1000FB4
:1040700003DC9DF84010080704D50898411C0891FE
:1040800005990F5418EB0B0FB8BFC8F100052DB2FE
:104090006842454432B20B909542B8BF2E46059B0C
:1040A000089836B2099632462146184401F0DCFAE7
:1040B000AD1B0C95D1E0BBF1610F17D14FF0700B28
:1040C00019E030B2404504DA9DF840100A0758BFA5
:1040D0008046B8F1010848BF4FF00008BBF1670FF8
:1040E00014BF4FF0450B4FF0650B04E0BBF1410FDF
:1040F00008BF4FF0500B0898411C0891B8F1000F11
:10410000059914F8012B0A5403DC9DF840100807A8
:104110001AD50898411C0891B8F1000F05990F5461
:1041200012DD761E30B28045B8BF46460598089B22
:1041300032B22146184401F097FA089836B2301886
:104140000890A8EB06000B9005980899014428B246
:10415000002881F800B003D42B204870891C04E0AB
:104160002D224A700546891C6D4200202CAA0AE0C7
:104170002B460A2593FBF5F505EB8504A3EB4403D9
:1041800002F8013B401C2DB2002DF1DC012806DCB9
:104190004BF02002652A04BF302201F8012B0028D1
:1041A0002CAB08D1302001F8010B06E0401E1A5C50
:1041B000303201F8012B0028F8DC059A08981044E9
:1041C000091A099149E031B228B281421CDA059BF3
:1041D000089832B22146184401F046FA089936B2DE
:1041E00071180891ABEB0600B8F1000F0B9003DCDF
:1041F0009DF84000020704D5059847540999491CC9
:104200000991CDF8308028E0059B08982AB2214614
:10421000184401F029FA0898761B5844B8F1000FA9
:10422000089003DC9DF840100A0703D5411C089153
:1042300005990F5430B28045B8BF46460598089B93
:1042400032B204EB0B01184401F00EFA089836B2B2
:1042500030180890A8EB06000B909DF8400000F085
:104260001400102840F0C280079A08980B99821811
:1042700009988A1882180C980F998018884280F241
:10428000B580081A0A90B1E09DF84200622808D073
:1042900068280ED06A2814D06C281FD0712810D03E
:1042A0001CE0D9F8001051F8040BC9F80010C0B296
:1042B0001AE0D9F8001051F8040BC9F8001080B2C8
:1042C00012E0D9F80000C21D22F00702C9F8002050
:1042D000D2E900010832C9F8002006E0D9F8001040
:1042E00051F8040BC9F800100021CDE902019DF836
:1042F000400002075AD5DDE90201002908BF002865
:1043000054D04BF02002782A50D1079912A83023BC
:104310004354491C4A1C079200F801B046E09DF83E
:104320004200622808D068280ED06A2814D06C2871
:104330001FD0712810D01CE0D9F8001051F8040BE0
:10434000C9F8001040B21AE0D9F8001051F8040B77
:10435000C9F8001000B212E0D9F80000C21D22F026
:104360000702C9F80020D2E900010832C9F800208C
:1043700006E0D9F8001051F8040BC9F80010C11775
:10438000CDE90201002902D507982D220AE0BDF8E7
:104390004000810702D507982B2203E0C00705D50E
:1043A0000798202212A90A54401C079012A80799C6
:1043B00001440591594602A800F04EF816E001208C
:1043C0000790D9F8001051F8040BC9F800108DF8C7
:1043D00048000BE001222521BBF1000F07928DF868
:1043E000481003D0022007908DF849B00F9D079820
:1043F0000A992D1A08986D1A0B992D1A09986D1A99
:104400000C992D1A9DF840006D1A41073FF5D2AA6C
:104410002020002D8DF800007FF7CCAA309E2C467E
:10442000FFF7BCBA4FF0FF3031B0BDE8F08F0000AD
:10443000CBCCCC0C686A6C747A4C00007072696EDC
:1044400074665F733A20626164202573206172672D
:10445000756D656E740000002DE9FE4C06468B46B6
:10446000376958466F2808BF082205D0FFF77EF944
:10447000782814BF0A221022D6E900013C25044600
:104480008A46BBF1640F18BFBBF1690F04D1002944
:1044900002D564426AEB4A0ABAF1000F08BF002C49
:1044A0000CD1306B50B9082A3BD196F83810080768
:1044B00037D530213B2587F83B1032E08DF800B02E
:1044C0009346204651465A46002302F0A5F9303261
:1044D000D0B26D1E3A2801950DDA7A552046514624
:1044E0005A46002302F098F904465FEA010A08BF21
:1044F000002C05D108E09DF800001218513AECE7B5
:10450000F16878198142DCD3BBF1080F09D196F824
:104510003800010705D5785D302802D06D1E3020A7
:104520007855C5F13C02306BB26179198242F16075
:1045300007DA318F821A4FF6EF700140326231870D
:1045400010E000280ED596F8380000F0140010286E
:1045500008D1736B7069316A1B1A5B1A9B1A002BA6
:10456000C8BF336203B0BDE8F08C2DE9D0430646E6
:104570000F4614464FF00008DFF8409012E0E007C5
:1045800007D542464B463046394602F051F80646BA
:104590000F464046494642464B4602F049F86410F1
:1045A00080468946002CEAD130463946BDE8D083A2
:1045B000A08601000000F03F84D79741000024400E
:1045C000F8B505460E4617461C4600205CB117F8A4
:1045D000011BB068A847B06030B1F06A401CF062BF
:1045E0000020641EF3D1F2BD4FF0FF30F2BD000099
:1045F0007072696E74665F733A20256E2064697309
:10460000616C6C6F776564007072696E74663A20D5
:1046100062616420256E20617267756D656E74003D
:10462000000000006E616E004E414E00696E660033
:10463000494E46003000000038B5040001D1012089
:1046400032BD00F053F818B900F04CF802F0FCF954
:1046500034E090F83D10012901D00120704702217B
:1046600080F83D100268DFF88C30D16841F001011C
:10467000D160016899421CBFDFF87C2091420ED0C6
:10468000B1F1804F1CBFDFF87420914207D0DFF8F2
:10469000703099421CBFDFF86C20914206D18968C6
:1046A00001F00701062907D0026800E00A461168F8
:1046B000104641F00101016000207047022068703F
:1046C000211D206800F0B8F80121A9720120A8700E
:1046D000E97028716971A871E9712872697268704E
:1046E000002032BD002129702046704704F13C05AE
:1046F00068787047002C01400034014000040040FD
:1047000000080040000C004070B504462068C568F1
:104710000669B20714D5A90712D56FF0020202612B
:1047200001212177806910F0030F204602D002F0AA
:104730008CF903E002F08AF900F07BF80020207782
:10474000710715D5680713D520686FF00401016162
:1047500002222277806910F4407F204602D002F0C6
:1047600074F903E002F072F900F063F8002020779A
:10477000310715D5280713D520686FF008010161AE
:1047800004222277C06910F0030F204602D002F005
:104790005CF903E002F05AF900F04BF800202077B2
:1047A000F00615D5E90613D520686FF010020261F6
:1047B00008212177C06910F4407F204602D002F022
:1047C00044F903E002F042F900F033F800202077CA
:1047D00006F0010205F001010A4206D021686FF0DF
:1047E00001020A612046FDF705FE300608D52A06BB
:1047F00006D520686FF080010161204602F027F99C
:10480000700608D56A0606D521686FF04000086179
:10481000204602F01DF9B0060AD5AA0608D521687F
:104820006FF0200008612046BDE8704002F011B929
:1048300070BD204602F00EB9F0B503681F4DDFF8D9
:1048400080C0204A204E214CA84218BFA04208D068
:10485000B0F1804F18BFB04203D0904218BF6045FE
:104860000DD123F070074B683B43A84218BFA0420C
:1048700007D0B0F1804F1CBFB042904201D06045DC
:1048800003D123F44072CB6813434A6923F08003B9
:1048900013430360A8428B68C3620A68826212BF36
:1048A000A04209690163012242610169CA0703D577
:1048B0000169490849000161F0BD0000002C014078
:1048C000000C00400008004000040040003401409B
:1048D000704770477047000038B5044608482168A3
:1048E00081420BD1074D0848297800F017F8294676
:1048F0002046BDE838400122FDF7AFBE31BD0000C3
:1049000000380140FE140020A00A002001884088E1
:10491000814201D001207047002070474288024444
:1049200011714188491C418089B2B1F5806FA4BFE3
:1049300000214180704701460A888818521C00797E
:104940000A8092B2B2F5806FA4BF00220A8070473D
:104950000D4881B0026842F001020260016801F076
:1049600001010091009A416841F080514160406826
:10497000064900F0805000900098086820F0E06040
:10498000086001B0704700BF1810024004000140E9
:1049900038B5040001D1012032BD606A28B900F0A9
:1049A00097FA05D00021E16102E0002020616061FA
:1049B0000020A06204F15005687820B90021297018
:1049C0002046FEF7F2F9022068702068016821F0A5
:1049D000400101606068A268E16800F4827002F43E
:1049E00004421043227C01F400610843217D02F05F
:1049F00002021043A26901F001010843217F02F481
:104A00000072104394F8202001F038010843A16A95
:104A100002F080021043226801F400510843106044
:104A2000A1692068090C01F0040141602168C8698E
:104A300020F40060C86100216960012068700020D6
:104A400032BD2DE9FC4106460C4615469846FDF759
:104A50002DFA06F150077978012907D1002C14BFEF
:104A6000002D012003D03978012901D102207DE0F9
:104A700001233B704FF0030C87F801C000217960DF
:104A80003463B586F586B163B187F18771643164AB
:104A9000B368B3F5004F09D131680B6823F04003C8
:104AA0000B603368196841F48041196031680B6804
:104AB0005C0600F0D5F94446F168B1F5006F716805
:104AC00021D1002918BF012D00F0ECF906E0326B6E
:104AD0001188C160306B821C00F04AF8F08E00280B
:104AE00030D0306882689107F1D4FDF7DFF900F02B
:104AF000E0F805D314F1010FF0D000F0B7F935E07C
:104B0000002CEBD1F9E7002918BF012D00F0BDF909
:104B100006E0326B11780173306B421C00F028F80C
:104B2000F08E78B1306881688A07F2D4FDF7BEF95B
:104B300000F0BFF803D314F1010FF1D0DDE7002C32
:104B4000EED1DAE742462146304600F04EFA08B18F
:104B500020207860B06838B9002100913068C168C1
:104B6000009182680092009900F086F9BDE8F68114
:104B70003263F18E481EF08670472DE9F8430746F0
:104B800007F1500689467078012815461C461DD14C
:104B90007868B0F5827F04BFB86800280AD14FF06A
:104BA000040C86F801C000942B464A46384600F0B3
:104BB00084F87CE0FDF77AF98046B9F1000F14BF64
:104BC000002D012073D03078012801D102206EE041
:104BD000012232700420707000217160C7F8389093
:104BE000BD87FD873963B986F98639647964B86809
:104BF000B0F5004F09D13868026822F04002026027
:104C00003868016821F480410160386800F058F983
:104C1000F86848BB08E0017BB86B0170B96B4A1CAF
:104C2000BA63F98F481EF887F88F78B338688268BE
:104C3000D107F0D4FDF73AF900F03BF808D314F1AE
:104C4000010FF1D0012070700021317003202EE09F
:104C5000002CE9D1F6E7C168B86B0180B96B8A1CFA
:104C6000BA63F98F481EF887F88F78B13868826880
:104C7000D107F0D4FDF71AF900F01BF803D314F1B3
:104C8000010FF1D0DEE7002CEED1DBE742462146F2
:104C9000384600F084F908B120207060012171705D
:104CA000002030707168080018BF0120C0B2BDE854
:104CB000F283A0EB0800A04270472DE9F8430646B6
:104CC000894690461C46FDF7F1F806F1500701258C
:104CD0007B78012B07D07168B1F5827F02BFB16884
:104CE0000029042B0CD1B9F1000F18BFB8F1000F47
:104CF00000F0A6800CB900F0A3B83978012901D1E1
:104D00000220ABE03D7097F801C0BCF1040F1CBF5E
:104D100005237B7000217960C6F83880F487B4875A
:104D2000C6F83090F486B4863164716431680B68DB
:104D30005A0600F095F8F168DDF82090B1F5006FA3
:104D4000716838D1002918BF012C00F0ABF8F08E43
:104D5000002804BFF08F002868D031688868820777
:104D60000DD5F08E002818BF002D08D0306B0288BA
:104D7000CA600025316B881C3063FFF7FAFE31688A
:104D80008868C2070BD5F08F48B1C968B06B018045
:104D90000125B26B911CB163F08F411EF187FDF7C5
:104DA00085F8A0EB08004845D1D319F1010FCED00A
:104DB00000F05CF852E0002918BF012C00F065F803
:104DC000F08E002804BFF08F00282FD0316888684B
:104DD00082070DD5F08E002818BF002D08D0326B49
:104DE000107808730025316B481C3063FFF7C1FE53
:104DF00031688868C2070BD5F08F48B1C968B06BBD
:104E000001700125B16B4A1CB263F08F411EF1871E
:104E1000FDF74CF8A0EB0800484503D319F1010F4A
:104E2000CED0C5E7B9F1000FCAD1C1E74246494625
:104E3000304600F0DAF828B120207860002139707F
:104E400001200BE0B06838B9002100913168C868D2
:104E5000009089680091009A00F00EF8BDE8F28396
:104E600003D40B6843F040030B6070470120787057
:104E700000213970032070470120787000213970BB
:104E8000786800B10120C0B2704709D1336B316836
:104E90001A780A73326B511C3163F28E511EF186FF
:104EA0008046704709D1336B31681A88CA60326B0B
:104EB000911C3163F28E511EF18680467047206846
:104EC00001684A0603D4016841F04001016070475F
:104ED0006068B0F5827F70472168086820F0400064
:104EE000086070472DE9F843089C07460E46914636
:104EF0009846FCF7DBFFA8EB00002418FCF7D6FF70
:104F0000484A11684901090D61430091054605E0D1
:104F1000009800B900240098401E00903968886805
:104F20003040B0420CBF01210021494534D018F176
:104F3000010FF3D0FCF7BAFF401BA04201D2002CB6
:104F4000E6D13968486820F0E00048607868B0F53C
:104F5000827F0BD1B868B0F5004F18BFB0F5806FF5
:104F600004D13968086820F040000860B86AB0F5DC
:104F7000005F09D13868016821F400510160396887
:104F8000086840F40050086007F1500001224270A8
:104F900000210170032000E00020BDE8F2831CB571
:104FA00004460B46FFF794FF08D1A068B0F5004F08
:104FB00018BFB0F5806F04D1FFF78EFFFFF788FFB1
:104FC00006D1A068B0F5806F02D10092012101E006
:104FD0000092802100222046FFF784FF18B100F0E4
:104FE0001BF8032016BD002016BD7CB50E461546E5
:104FF00004460095334601220221FFF773FF38B9BA
:1050000000953346002280212046FFF76BFF10B148
:1050100000F002F8032076BD606D40F0200060656E
:105020007047000010020020F8B504460027002653
:10503000002C7AD004F12405686828B90021A96001
:1050400028702046FDF7D0FF204600F001F96A687D
:10505000D1066BD4010069D1696821F4885141F00F
:10506000020169602368DFF8CC11E2698B4204BF5A
:10507000B2F5402F4FF40022D4F804C0217B42EA5D
:105080000C02D4F808C042EA4102BCF5807F14BF8C
:10509000BCF1010F4FF4807794F814C0BCF1010FFC
:1050A0000FD131B9A169491E47EA413747F400677A
:1050B00007E0696841F020016960A96841F00101D9
:1050C000A960596821F469410F435F60DFF86811F6
:1050D0002768BB680B401343BB60A168B1F5807FB4
:1050E00018BF012902D12669761E36052368D96AC0
:1050F00021F470010E43DE622468DFF84011A368DA
:105100000B40934207D10022AA600122696862F332
:1051100001016960F2BD686820F0020040F01000F3
:105120006860A86840F00100A86003E0686840F08B
:10513000100068600120F2BDF8B5002300930A4614
:1051400000F1240300211C78012C01D10220F2BDC2
:1051500001241C701F26576814680568072F08D2A1
:105160007F1E07EB8707D5F834C000F05CF86C634E
:1051700016E00D2F08D2FF1F07EB8707D5F830C0C8
:1051800000F051F82C630BE00D3F07EB870CEF6A42
:1051900006FA0CF627EA060604FA0CF43443EC622D
:1051A00007261768946805680A2F08D30A3F07EB9B
:1051B0004707D5F80CC000F036F8EC6006E007EBC6
:1051C0004707D5F810C000F02EF82C611468102C99
:1051D00018BF112C23D100681A4DA8421AD11A48C1
:1051E000046825021BD4046844F4000404601068B9
:1051F000102814D1124D154A2C68B4FBF2F20A2083
:1052000042430092009800281EBF0098401E009064
:10521000F8D104E00121586840F0200058600020D7
:1052200018700846F2BDBE402CEA0606BC40344366
:1052300070470000003C0140FDF7E1FFFE0E1FFF3C
:1052400010020020002401400824014040420F00C9
:1052500038B5044620688168CA071BD581684908AB
:1052600049008160FCF722FE054600F015F811D5D3
:10527000FCF71CFE401B0328F7D300F00DF8F4D513
:10528000A16A41F01001A162E06A40F00100E06211
:10529000012032BD002032BD20688168C8077047F8
:1052A00080B500F017F8FFF7CCFB01001CBF0FF230
:1052B000A020FDF7B1F8012002BD80B500F00AF88A
:1052C000FFF75BFC01001CBF0FF2A020FDF7A4F864
:1052D000012002BD8AB201464FF4FA73914870472B
:1052E00010B5914C01224FF400712046FCF77EFF6F
:1052F00001224FF480712046FCF778FFBDE8104092
:105300000120FDF788BD80B5062100F020F800F0EF
:105310008CF800F090F815E080B5052200218DF89A
:10532000012000F014F800F080F801210DF10100D7
:10533000FFF7B6FF01216846FFF7BFFF9DF8001099
:10534000C807F2D400F071F800F072F801BD8DF8D2
:1053500000100020FDF75FBDF8B50446B4F5801FCE
:105360000D46174639D23819401EB0F5801F31D38B
:10537000F1BDFFF7C8FFC4F30800C0F50070BEB26E
:10538000BBB28642C8BF06464FEA04027DA1674809
:10539000FDF742F802208DF80000220C210A8DF85A
:1053A00001208DF802108DF803400020FDF733FD39
:1053B00000F03BF8042100F03FF831462846FFF7A3
:1053C0006FFF00F032F800F033F8FFF7A5FF341953
:1053D0003544BF1BB8B20028CBD1F1BD38B50C465F
:1053E0001546B0F5801F3EBF2918491EB1F5801F34
:1053F0001AD20321030C020A8DF803008DF8001065
:105400008DF801308DF802200020FDF704FD00F03A
:105410000CF8042100F010F829462046FFF74DFF54
:1054200000F003F800F004F831BD0A2000F0D0B815
:105430000120FDF7F0BC0121684631E72DE9F04776
:105440003C4C4FF40071204601F006FB00F07BF865
:1054500053A6374D0FF240193046FCF7DDFF00F040
:105460006DF800270FF2B8084FF0000A0AEB07109A
:105470000AF1010A295C4846FCF7CEFFBAF10F0F8A
:10548000F4D94046FCF7C8FF7F1C202FECD3FF2047
:1054900000216154491CB1F5807FFAD34FF480712B
:1054A0006054491C401EB1F5007FF9D300F04BF861
:1054B000C82000F08DF83046FCF7AEFF00F03EF853
:1054C0000026002707EB06107F1C295C4846FCF7E6
:1054D000A3FF0F2FF6D94046FCF79EFF761C202E27
:1054E000EFD3002732A6EA5DE15D91421CBF304652
:1054F000FCF792FF7F1C0F2FF5D300200023E25C06
:10550000E95C8A4218BF401C5B1CB3F5007FF6D3F0
:1055100020B10949087840F004000870BDE8F08720
:105520000D0A00005C130020001001406C6F0008A1
:105530000411002000000020FC1400204FF4007231
:10554000294600204AE74FF400722146002003E775
:1055500073706931205472616E736D697420657265
:105560007220282558290D0A000000007370693147
:10557000205265636569766520657272202825581A
:10558000290D0A004D39355078785F577269746576
:105590004461746100000000253032582000000092
:1055A0004D39355078782052656164203A0D0A00F3
:1055B0006757724275665B253032585D20213D2069
:1055C0006752644275665B253032585D200D0A00D3
:1055D00038B50546FCF76AFC15F1010F044602D008
:1055E000044908784519FCF761FC001BA842FAD36E
:1055F00031BD00BF040200201CB5134C00202070F8
:10560000FCF706F9FFF71AFF05216846FEF72EF8AA
:1056100001F074FA01226946002000F0EEF901F071
:105620007AFA9DF80000952804BF9DF801105029D2
:1056300003D0207840F008002070217803A0FCF708
:10564000EBFE0120607013BDFC140020675F7769DA
:105650006E675F746573745F657272203D20307889
:10566000253032580D0A00004AB1000011F8013B04
:10567000521E00F8013B1CBF11F8013BF8E77047D0
:105680002DE9F84F84B00D4616460BB100221A6082
:105690008346D84601E008F1010898F8000001F0BF
:1056A000E5FA0028F7D198F800002D2816BF2B281E
:1056B00018F8014B2B24002E019503D4012E01D0A4
:1056C000252E04DB002D58D0C5F800B055E0002E83
:1056D0000CDD102E04BF98F80000302802BF98F8A7
:1056E000010040F02000782811D10CE098F800006B
:1056F000302818BF0A260AD198F8010040F020008F
:10570000782803D1102608F1020800E00826CDF819
:105710000C8001E008F1010898F800003028F9D069
:10572000064D7D4416354FF0000905F12800CDF8EF
:105730000880CA468DF800000CE000BF94160000F7
:1057400007469DF800003F1ACA46FFB206FB0979DA
:1057500008F1010898F8000001F092FA014632467B
:1057600005F1280000F094FB0028E9D10399414598
:1057700005D1019808B1C0F800B0002020E00299DE
:10578000A85DA8EB0101091A002910D406DCB9EBC9
:10579000070703D3B7FBF6F0504508D0AFF30080FE
:1057A000049808B1012101604FF0FF3903E02D2C6E
:1057B00008BFC9F10009019808B1C0F80080484647
:1057C00005B0BDE8F08F04E000E000000A220021EF
:1057D000F9E7002354E7000010F8012B11F8013B12
:1057E0000AB19A42F8D0D01A70470000F8B50446C2
:1057F0000023677920A1A079E67900934FEA070298
:1058000046EA00261FA0FCF707FE3806C6F3080686
:105810000DF102050FD5F90707D4304600F000FA64
:10582000300A8DF802006E701EE0684600F038FA0B
:10583000BDF8000012E015220021A42001F010F9AB
:1058400066220221A42001F00BF9F8075CBF304664
:1058500001F08AF901F0A0F9ADF80000000A8DF816
:105860000200BDF800006870A178607802230DF195
:105870000202FDF73CFEF1BD7076636F6D5F7475DB
:105880006E6500002573203A20727766203D202542
:105890003032580D0A00000081B0002002E000BF45
:1058A0000098401C009000985028F8DB01B0704729
:1058B000012200E000224FF48051DFF82804FCF7B9
:1058C00095BC01224FF40051F7E700224FF400513C
:1058D000F3E7020018BF0122D2B24FF48041ECE797
:1058E00080B54FF40041DFF8FC03FCF779FC012898
:1058F00018BF002002BD80B5010018BF0121084675
:10590000FFF7E7FFFFF7DDFFFFF7C6FFFFF7DDFF5C
:1059100043E010B5FFF7D5FFFFF7BEFFFFF7E0FF4D
:105920000446FFF7D2FFFFF7B7FFE0B210BD38B56E
:1059300004464D1E06E024FA05F000F00100FFF7D2
:10594000DAFF6D1E68B20028F5D531BD80B5FFF7CE
:10595000BCFF00F04BF81EE080B5FFF7A9FFFFF792
:105960009BFF00F041F800F01BF802210320FFF735
:10597000DEFF08210BE080B5FFF79AFFFFF78CFFF1
:1059800000F032F800F00CF800F00AF8092140F2BB
:10599000FF10FFF7CCFFFFF78DFFBDE801407BE76D
:1059A00002210020C3E738B5FFF784FFFFF774FF3B
:1059B000FFF77EFFFFF770FFFFF76EFF00F016F8AE
:1059C00041F288352846451E68B1FFF77AFFFFF798
:1059D00063FFFFF785FF0446FFF777FFFFF75CFFE4
:1059E000002CEFD0012032BD012084E7002070E7B9
:1059F000092120469BE700207DE72DE9F843044676
:105A00000E00914614BFB9F1000F002046D0FFF7F9
:105A10009DFF22460FF2F02100F096F8FFF755FFA8
:105A2000FFF7E4FFFFF746FFFFF736FFFFF74DFFF5
:105A3000FFF7DCFFFFF73EFFFFF72EFFFFF738FF12
:105A4000FFF72AFFFFF7D0FF02210220FFF76FFFC9
:105A5000FFF7D1FFFFF7CCFF002700251024FFF749
:105A600058FF641E40EA4505F9D12804000EF055A0
:105A7000F01945704046F15DFCF7CEFCF019BF1CF3
:105A800000F00EF8B9F10109BFB2E6D194A0FCF71D
:105A9000C3FCFFF70FFFFFF7FFFE0120BDE8F28315
:105AA00041784046FCF7B8BC2DE9F04107460D00AF
:105AB000144618BF002C3DD0FFF748FFFFF74CFFFE
:105AC0004FEA07029DA100F03FF80026A95DFFF70D
:105AD000E8FFA819FFF7E4FFFFF7F7FEFFF786FFDF
