:020000040800F2
:100000000015002021640008E1620008E362000896
:10001000E5620008E7620008E962000800000000ED
:10002000000000000000000000000000EB6200087B
:10003000ED62000800000000EF620008F1620008B5
:10004000696400086D640008716400087564000844
:10005000796400087D6400088164000885640008F4
:10006000896400088D6400089164000895640008A4
:10007000996400089D640008A1640008A564000854
:10008000A9640008AD640008B1640008B564000804
:10009000B9640008BD640008C1640008C5640008B4
:1000A000C9640008F3620008CD640008D164000848
:1000B000D5640008D9640008DD640008E164000824
:1000C000E5640008F9620008E9640008ED640008CE
:1000D000F1640008FF620008F5640008F964000894
:1000E000FD64000801650008056500080965000851
:1000F0000D65000811650008156500081965000800
:100100001D650008216500082565000829650008AF
:100110002D6500083165000835650008396500085F
:100120003D6500084165000845650008496500080F
:10013000F8B5040022D004F13C05697821B900200B
:100140002870204601F085FA24216970DFF87C755B
:1001500000F054FB2068016841F40041016021680F
:10016000086820F40040086001F04EFD6268BA4261
:10017000014605D2DFF85805814205D20120F2BDC3
:10018000DFF850058142F9D32368DFF84C25586821
:10019000B1FBF2F2800942EA8010586023681E6ABF
:1001A0006068B84206D34FF4967042434FF47A70B9
:1001B000B2FBF0F2521CB60942EA86121A62491EDC
:1001C0002268D3696668BE4206D2760000F044F821
:1001D000042913D2042111E0A06820B906EB4606D9
:1001E00000F03AF805E01920464300F035F841F4F4
:1001F000804108050CBF012141F40041DFF8DC0417
:1002000003400B43D36123681A68E069216A22F036
:10021000C00202430A431A602368DFF8C4049A68E4
:1002200021690240E0680A4302439A602268D36869
:10023000A06961691B0A40EA03230B43D3602021B4
:100240002068026842F00102026000206860697064
:1002500020630021A970F2BDB1FBF6F1491CC1F386
:100260000B017047006841690A0644BF0021016123
:1002700070472DE9F84304460F469046994601F031
:1002800015FD00F0E1F902D100F07EFA002840F0FF
:100290008A803078012800F086800122327000F0D8
:1002A000B9FA212070701021B17000207060C4F87C
:1002B0002480A4F82A9000F0EDF9E06A08281CBF19
:1002C0000128884205D0206B122804D100F07EFA64
:1002D00001E000F0AFFA00950022DDF820804346EF
:1002E0004FF0011100F055FA38B122681068C105CD
:1002F0004FD54FF4007070604BE02069B0F5804F2F
:1003000004D1216807F0FE070F6111E0F8092168A8
:1003100000F0060040F0F00008612B464246DFF88E
:10032000C41300F0ACF9002833D12068FFB2076194
:100330002B464246DFF8B01300F0A1F9002828D17F
:1003400000F03EF80099208D002824D02A4641462E
:10035000204601F088F8B8B9626A20681178016116
:1003600000F024F821684B695A0706D580B220B105
:10037000626A1078086100F019F82A464146204662
:1003800001F0A0F80028DED07068042801D100F048
:100390006DF9012008E000F0DEF9202171700020E5
:1003A000B070307000E00220BDE8F283616A481C42
:1003B0006062618D481E6085218D481E20857047D2
:1003C00000902068416900918269009270472DE990
:1003D000F84F04460020009088461746994601F0E1
:1003E00065FC00F031F902D100F0CEF9002840F0B0
:1003F00022813078012800F01E810122327000F045
:100400004FF9102200F055F97170B2700020706041
:100410006762A4F82A90608D2085DFF8D002E06240
:10042000E36A21680A6842F480620A60082B18BFF8
:10043000012B04D083421CBF206B112801D100F096
:10044000C5F9009500220A9F3B464FF0011100F0CC
:10045000A0F94FF4007938B122681168C80548BF87
:10046000C6F804900120E7E02069DFF87CB2B0F51F
:10047000804F07D148F001005FFA80F82068C0F88B
:1004800010802FE04FEAD810226800F0060A4AF0E8
:10049000F00111612B463A46DFF8481200F0EFF800
:1004A0000028DFD120685FFA88F8C0F8108000F0DB
:1004B000E3F80028D6D100F09AF9009A2368196869
:1004C000184641F48071016000953B4600224FF0D0
:1004D000011100F05EF90028BED120684AF0F10A4F
:1004E000C0F810A000F0C8F80028BBD1208D10B9CA
:1004F00000F037F928E0012802D100F051F90BE0B3
:100500000228206801680BD141F40061016072B6D5
:1005100000F0B8F800F0F2F81046016062B613E09F
:1005200041F48061016000F0ADF800990CE000F04A
:1005300026F9002896D100F093F8511C6162208DB5
:10054000411E218500F0E3F8208D00286DD004289D
:1005500057D20128EBD00228DFF8401200953B4625
:1005600014D1002200F015F90028E3D172B600F092
:100570007DF800F075F8208D511C6162411E2185C7
:1005800000F0C5F862B600F03CFDD8E7002200F0AC
:1005900000F9002829D100F093F872B600F05AF85B
:1005A000208D4A1C411E626221851922608D411EE8
:1005B000DFF8140261854FF47A710368B3FBF2F23D
:1005C00000F096F800F008F920B121684869410769
:1005D000F8D50BE02063202171700022B2707068A2
:1005E00040F02000706062B632703BE7226811680C
:1005F000104600F097F8616A208D4A1C411E626225
:10060000BDE700F0BCF80028EFD100F093F89BD5CF
:1006100080B2032801D100F07EF800F01BF84A1CDC
:10062000218D626200F00AF88EE720217170B070AF
:100630000021317000E00220BDE8F28F481E2085C5
:10064000618D481E6085704704F13C060546707850
:100650002028704722681169606A0170616A7047DA
:1006600020680169606A0170626A704720680168E9
:1006700041F40071016070472B463A4659462046C6
:1006800000F09CBE002000902068416900918269C2
:1006900000927047608DDFF854102085E16270474A
:1006A00020680168CA0703D4016841F001010160B4
:1006B00070472168086820F40060086022217047B4
:1006C0002168086820F4806008607047A1860100F6
:1006D00080841E0000093D0040420F000030FFFFF3
:1006E000007CFFFF08000100020001000000FFFF86
:1006F000B2FBF1F12320414300917047009B226837
:10070000116821F480617047616A4A1C6262608DE1
:10071000411E6185704722681168104621F480618E
:100720000160704741F40071016022681169606ADC
:100730000170704720680169606A0170616A208DEC
:100740004A1C401E62622085638D5A1E62852168A4
:100750004A69510770472168086840F400700860D2
:100760007047009021684869009089690091009B5A
:1007700022681168104641F40071016070472A46F2
:100780003946204600F0C0BE009519230122DFF84B
:10079000A010204600F0DABD0000000004000100B7
:1007A0002068016821F48061016072B60020009029
:1007B00020684169009182690092009B226811685B
:1007C00041F40071704700001000002020680168AB
:1007D00041F48071016070470098401E00900098BD
:1007E00070472068016821F48061016070470090C3
:1007F00021684869009089690091704721680868FC
:100800004008400008607047002000902168486957
:100810000090704720680168CA0703D4016841F05E
:10082000010101602068016821F4006101607047E6
:10083000020010002168086840F48070086070476A
:100840002DE9FC41044604F13C052268DFF8286AE2
:100850005168E06A95F802C06F780023BCF1100F70
:1008600018BFBCF1400F40F072829369D2F814E0D7
:100870005FEACE7805D4B0F52A0F18BFB0F12A4F41
:1008800039D05FEACE7047D5880545D5E16AB1F524
:100890002A0F08BF012004D0E16AB1F12A4F01D12B
:1008A0000820E062A878402809D168690028A86873
:1008B0001ABF40F00100C0B200F0FE002AE020693B
:1008C000B0F5804F18D168782128A8680EBF00F0D5
:1008D000FE0040F00100C0B21061606B00281CBF38
:1008E000806A002805D1A06B00281CBF806A002800
:1008F00001D000F0ACFB35E3686920B900F03BFBA8
:1009000040F0F00006E06869012804D100F033FBF4
:1009100040F0F100106125E35FEA0E7015D58805FF
:1009200013D5A968C9B21161606B00281CBF806A29
:10093000002805D1A06B00281CBF806A0028EAD0DF
:100940002068416841F4006135E15FEA8E7000D5AE
:10095000880540F1AE80AF78E16A236B6878222881
:1009600040F0A4806869002808BF402F00F09E80F6
:100970006869002804BF2069B0F5404F0FD10021FD
:1009800000915369009391690091009B226810685F
:10099000114640F4807008606869401C84E0608DF6
:1009A00010B900F004FB2BE0608D01283AD1B14270
:1009B00013D11168104621F48061016021684A68F2
:1009C000100505D50B461A6822F480620A6068E0BB
:1009D000002000904A6900920FE0082918BF2029E2
:1009E00003D0122B0FD1012912D010460146026804
:1009F00022F480620A60FFF707FF89690091009B7B
:100A000000F0EEFA4FE004291CBF0229102903D0A0
:100A1000106820F4806002E0106840F480601146A5
:100A200008603EE0608D022827D104291CBF0229FE
:100A300010290CD01346186840F4006000F0D7FA73
:100A4000236818681A4620F48060106005E0134699
:100A5000186840F4806000F0CAFA20684268130504
:100A600021D5B14218BF012904D008291CBF102983
:100A7000202918D100F091FA15E01346186840F4C7
:100A800080601060206843681A050AD5B14218BF1B
:100A9000012904D008291CBF1029202901D100F008
:100AA0007CFA00F0E0FA002068615BE200F07FFA77
:100AB00058E25B070EF0040061D553681B05F7D4BC
:100AC0005FEA0E632CD54B052AD5002828D16F7814
:100AD000A978E36A208D002808BF212F13D1082BA5
:100AE0001CBF202BB34204D000F050FA0022AA70A1
:100AF00031E000F08EFA34D10020A8702046BDE825
:100B0000F64101F0D9B8212F03D0402908BF222F88
:100B1000CED1608D002852D0A87840282BD00BE091
:100B20000028C5D08805C3D5212F21D1E16A687876
:100B30002128BDD1608D28B1616A08781061616A91
:100B4000481CA6E008291CBF2029B14206D000F0AD
:100B50001DFA0020A8702021697004E000F059FA05
:100B6000CAD00020A8702046BDE8F64101F0A5B823
:100B7000BCF1400F20D12046BDE8F6417CE256682A
:100B8000330519D45FEA4E6677D54B0575D5002835
:100B900073D1687822280FD1E66A608D04280CD3BF
:100BA00000F0E3F9FFF7B2FD608D032804D120685F
:100BB000416821F480614160D4E1E16A022959D0A1
:100BC000012818BF002855D10020DFF87C7700905D
:100BD00019213B68B3FBF1F14FF47A70B1FBF0F0EF
:100BE00000EB800000902146FFF7F6FD20B10C6875
:100BF00023689805F8D41AE06B6843F020036B6013
:100C0000506820F4E06050600B681A69486A02700E
:100C10004A6A531C4B6220224C8D601E48856A70C4
:100C20000020A8700846BDE8F64101F047B80C4620
:100C3000FFF771FD2068416821F4E061416000F038
:100C4000E0F92022618D481E60856A70A9784029EC
:100C500008D10020A870002121632046BDE8F6419C
:100C600001F02DB80020A870082E18BF202E63D0E8
:100C7000122062E000F085F974E10028FCD08805BC
:100C8000FAD5E06A618D042908D100F07AF900F004
:100C9000D6F96062618D481E608563E1618D03292C
:100CA0000BD1516821F480615160042818BF0228DB
:100CB00001D0FFF796FD22684FE1618D022942D1F4
:100CC000012818BF10280DD0042818BF022804D00E
:100CD00013461A6842F4007208E013461A6842F498
:100CE000806203E013461A6822F4806219460A60A3
:100CF00023681A69616A0A70636A5A1C6262638DAA
:100D00005A1E628521680A69616A0A70626A531C08
:100D10006362628D511E618521684A6822F44072C7
:100D20004A6020216970AA78402A92D00021A970D7
:100D3000082818BF20289BD1002020632046BDE84A
:100D4000F64100F0BDBF116900F02CF907E16868B9
:100D500000B99369D2F814C05FEA8C7020D5880579
:100D60001ED5686800B193696878002100F02800FA
:100D7000282811D100F005F9580758BF012118069D
:100D800054BFE268A2690020287002B02046BDE886
:100D9000F04192B200F095BF00F009F92B70E1E04C
:100DA0005FEACC6300D5880540F17F806F78516899
:100DB00021F4E0615160FFF727FD226811681046B9
:100DC00041F001010160009AFFF70BFD21684A68BC
:100DD00010052ED50FF2A548222F18BF2A2F13D0A9
:100DE000626B10684368638500F0EFF8606B01F098
:100DF00015F801281DD0606BC0F83480606B00F0DE
:100E000085FFB0B1606B12E0A06B03685A68628521
:100E100000F0DBF8A06B01F001F8012809D0A06B0D
:100E2000C0F83480A06B00F071FF10B1A06B416B73
:100E30008847608DB8B1206841694A0704D50169C7
:100E4000606A0170FFF760FC20684269510604D5B2
:100E50000269606A0270FFF757FC608D18B168681C
:100E600040F004006860686818B12046BDE8F641AB
:100E70005FE12A2F06D100212163282068702046D7
:100E800000F0CFFF6878282807D1E66200F0E5F887
:100E90002046BDE8F64100F0C5BF206B222818BFF0
:100EA000222F5FD100F0D9F84DE00CF00400212F83
:100EB00018BF292F2DD15FEA0C661CD54B051AD51A
:100EC000C8B96978608D00284CD0606A03781361D6
:100ED000606A421C626200F072F808BF292941D1A1
:100EE00000F0A7F821212163282068702046BDE882
:100EF000F64100F098BF002834D0890532D5608DC6
:100F000000282FD0606A01781161606A411C61621B
:100F100026E05FEA4C661BD54B0519D5C0B9697848
:100F2000608DF8B11069626A1070606A431C636278
:100F300000F045F808BF2A2914D100F07AF82221E0
:100F40002163282068702046BDE8F64100F069BFA3
:100F500040B1890506D5608D20B100F006F86262C7
:100F6000FFF7D5FBBDE8F38100001069616A0870E6
:100F7000606A421C7047A8680004C00D00F00600BB
:100F80007047506820F4806050607047506820F4CB
:100F9000E0605060112121637047416841F4805145
:100FA00041607047606A0170616A4A1C70470023A3
:100FB0000093516900919269009200997047608D89
:100FC000421E6285608D00287047608D18B1686888
:100FD00040F004006860486820F400604860704792
:100FE00022681068114640F4007008607047106075
:100FF0000023009320684269009283690093009A5D
:10100000704720680169606A0170616A4A1C626207
:101010007047506820F4E06050600022206801684A
:1010200041F400710160226320206870A978402992
:1010300070472168486820F48060486070472168E4
:101040000869616A0870626A501C704748602168CC
:10105000486840F400604860704700202063202109
:101060006970A8707047002000902168486900905E
:1010700089690091009A704710B500F13D0200F1B6
:1010800048041378A16881B9006862682168012A60
:1010900004D1C9B20161A068801C04E00904090EF2
:1010A0000161A068401CA06010BDA168012904D1A5
:1010B00022680068D2B202610AE0A168022933D135
:1010C000222B09D102681168104641F48071016039
:1010D000A168491CA16010BD418D61B1212B0AD1CD
:1010E000436A01681A780A61426A511C4162428D62
:1010F000511E418510BD418D002908BF212B17D1FC
:101100000368596821F4E061596000240368196894
:1011100041F40071196004632023137000215170A1
:10112000BDE8104000F0C8BDBDE81040FFF79AB818
:1011300010BD38B5044604F13D05287869781029BA
:1011400014BF4029222804D121680A6822F40062D1
:101150000A6000F02801282904D1002222632820F7
:1011600028700BE021684A68110505D4602803D077
:1011700020202870002169700020206320684168C9
:101180000A052BD5416821F400614160626B0FF2C2
:10119000ED0092F8211001290BD05063606B00F034
:1011A000B5FD00282DD000F059F820202870606B84
:1011B00011E0A26B5063A06B00F0A8FD08B320689B
:1011C00041694A0602D5016900F038F8FFF716FBBD
:1011D00020212970A06B416B884712E02A78602A91
:1011E0000AD1202129700022226400F02DF800F09D
:1011F0003BF800F019FE04E000F026F8204600F06D
:101200005DFD206C10F00F0F04D02168486820F4B9
:10121000E06048602878226C51070ED528280CD150
:101220001548E062002121632020287000226A70A6
:101230002046BDE8324000F0F5BD31BD606A017066
:10124000626A511C6162704741694A0605D50169AD
:10125000606A0170616A4A1C6262704720680168B6
:10126000490849000160704721680868400840004B
:1012700008602046704700000000FFFF7CB5002199
:1012800000911925416A304801F13D024FF47A740A
:1012900013780668B6FBF5F5B5FBF4F42320444358
:1012A0000094009838B10098401E00900C682068A7
:1012B0008505F6D403E0086C40F020000864486B14
:1012C00008B100248462886B08B1002484620C6831
:1012D000206820F48060206000244C85486B00B1B9
:1012E0004463886B00B14463086804686408640060
:1012F0000460107860280AD12023137000245470F1
:1013000000220A640846BDE8764000F08DBD03F077
:101310002803282B0ED10868036843F001030360FB
:101320000868046844F4806404600020086328248A
:10133000147003E020201070002353700846BDE8AD
:10134000764000F0BBBC0000100000202DE9F843FF
:101350000E46089F054691469846340C2968E0B22F
:1013600001280CBF4969896900F078F80CBF012099
:101370000020484520D118F1010FEFD000F096FC75
:10138000C01B804502D3B8F1000FE7D12968E0B255
:1013900001280CBF4969896900F060F80CBF012081
:1013A00000204845DAD100F0DBF842F0200242602C
:1013B00001700120BDE8F2830020FBE72DE9F04138
:1013C0000E46054614469846370CF8B2012821D13E
:1013D00029684869304080B2B1B288421FD028687D
:1013E000416948051DD529680B680A4643F4007316
:1013F00013606FF4806128684161002205F13C00B0
:101400002A63202141708270416841F004014160EB
:1014100002701BE02868816900F020F8DFD100200D
:1014200015E014F1010FD0D000F040FCA0EB080053
:10143000844201D3002CC8D1F8B22968012808D110
:10144000496900F00BF8C3D000F02FF80120BDE887
:10145000F081896900F002F8DCD0F5E7314089B20B
:10146000B0B28142704770B505460C4616462868F2
:101470004169080617D4284600F07CF818B914F121
:10148000010FF4D001E0012070BD00F00FFC801BC3
:10149000844201D3002CEAD1286841690806E6D4C9
:1014A00000F003F8EFE7002070BD002105F13C00DB
:1014B0002963202242708170426842F0200242601B
:1014C0000170704770B505460C461646286841699C
:1014D000480717D4284600F04DF818B914F1010F49
:1014E000F4D001E0012070BD00F0E0FB801B8442DD
:1014F00001D3002CEAD1286841694807E6D4FFF7F8
:10150000D4FFEFE7002070BD70B505460C461646C7
:1015100028684269510621D44269D10608D56FF086
:101520001002426100F01CF842600170012070BDA1
:1015300000F0BCFB801B844201D3002CE8D128685A
:1015400041694806E4D4002105F13C0029632022CA
:1015500042708170426842F02002E5E7002070BDD1
:1015600000202863202205F13C0000214270817098
:101570004268704710B501684A6954050DD56FF48B
:1015800080634B61002101633C30202343708170F4
:10159000436843F004034360017012F4806018BF95
:1015A0000120C0B210BDF0B402461068956813184F
:1015B000506803EB5004C00748BF4D44A3422DD0F0
:1015C00013F8016B16F0030004BF13F8010BC01CE5
:1015D00031090F2907D113F8011B0F3103E013F86C
:1015E000017B05F8017B401EF9D10029E6D013F8F4
:1015F000010BC6F38107032F08BF13F8017B00EB33
:101600000720404228440026B71E8F421EBF10F814
:10161000017B05F8017B761CF6D1CFE7F0BC02F127
:101620000C00704780B54B484B494C4A4160826082
:101630000021C16000224FF480410261416182615A
:10164000C26102624262001DFEF772FD00B135E028
:1016500001BD30B585B001AD00210022002300247A
:1016600085E81E0001683C48814225D13C4C216838
:1016700041F0080121601221206800F0080000906C
:101680004FF44060009A019002910322049201A954
:10169000344800F0CBFB606840F4800060600022BA
:1016A000606800F48000009000210098212000F084
:1016B000DEFC212000F0FAFC05B030BDBDE80140A1
:1016C00000F0A8BD000000007CB51546044601AA44
:1016D000002010800E46032000F0A2FD642100913E
:1016E0008DF804608DF80550022300F009F830B140
:1016F0004FEA00020FF2980121A000F0C7FD73BD70
:1017000001AA21461848FEF7B4BD0000F2B507460D
:1017100082B0032000F084FD6420009001230D4E70
:1017200000F024F8020000BF0FF254041CA501D001
:1017300000F021F864200090012301AA47F0010184
:10174000301DFEF744FE10B1024600F014F89DF87B
:101750000400FEBD040F002000580040A0860100D8
:1017600018100240000C0140080F002002AA394660
:10177000301DFEF77EBD2946204600F087BD0000E3
:101780002573204572726F72212125640D0A0000B5
:101790004C45445F6932635F77726974650000008D
:1017A0004C45445F6932635F72656164000000000C
:1017B0002DE9F843040016D02078DFF8A874C1079B
:1017C00013D5786800F00C00042807D0786800F082
:1017D0000C00082840D17968C8033DD53A689103C8
:1017E00003D56068002800F05B812078DFF884640E
:1017F000810719D5786810F00C0F07D0786800F0D1
:101800000C0008285FD17868C1035CD43868810770
:1018100003D52069012840F043813968606921F0CF
:10182000F80141EAC00139602178080778D5A0693C
:10183000DFF84414002800F09E8001220A6000F0C6
:1018400035FA0546796A88075BD400F02FFA401B09
:101850000228F7D9032026E16068B0F5803F03D164
:10186000386840F4803013E058B1B0F5A02F08D1AB
:10187000386840F4802038603A6842F480323A6038
:1018800007E0396821F480313960386820F480201D
:101890003860606858B100F009FA05463968880375
:1018A000A3D400F003FA401B6528F7D3D2E700F079
:1018B000FDF905463968880397D500F0F7F9401B14
:1018C0006528F7D3C6E7206968B10121316000F0CF
:1018D000EDF90546386881079FD400F0E7F9401B11
:1018E0000228F7D9B6E70022326000F0DFF905469A
:1018F0003968880798D500F0D9F9401B0228F7D934
:10190000A8E7DFF864231168C9084FF47A70B1FBC7
:10191000F0F0009000BF0098411E00280091F9D11E
:10192000207841076ED5F9690025C80009D4F96906
:1019300041F08051F9610125F86900F08050009074
:101940000098DFF83883D8F80000C10520D4D8F813
:10195000000040F48070C8F8000000F0A7F981464C
:10196000D8F80010C80513D400F0A0F9A0EB0900C6
:101970006528F5D36EE7086000F098F90546796AA6
:101980008807CDD500F092F9401B0228F7D961E70E
:10199000E068012808D008B9386A09E00528386AE3
:1019A00006D140F004003862386A40F0010005E0DA
:1019B000400840003862386A20F00400386241F282
:1019C0008938E06860B100F071F98146396A8807AA
:1019D00013D400F06BF9A0EB09004045F6D339E7CA
:1019E00000F064F98146396A880706D500F05EF98F
:1019F000A0EB09004045F6D32CE71DB1F86920F0B3
:101A00008050F861E06900284CD0796801F00C0141
:101A1000082938D002282AD100F047F8054639684D
:101A2000880105D500F042F9401B0228F7D911E7DB
:101A3000206AB0F5803F05D17968A06821F40031B3
:101A4000014379607A68206A616A22F47412024361
:101A50000A437A60012000F029F8044638688101C1
:101A600020D400F023F9001B0228F7D9F2E600F099
:101A70001CF804463868810114D500F017F9001BE2
:101A80000228F7D9E6E601280AD07868226A00F42D
:101A90008031914202BF00F47010616A884201D027
:101AA000012000E00020BDE8F2830020306600F055
:101AB000FDB82DE9F041040088465FD0704E3068D3
:101AC00000F00700404509D23168C90848EAC10161
:101AD0003160306800F0070040454FD12168614D0A
:101AE000880712D5490703D5686840F4E06068604C
:101AF0002078010703D5686840F460506860696821
:101B0000A06821F0F001014369602178C80726D55B
:101B10006068012802D129688A0303E0022803D102
:101B200029688A0103D429E02B68990726D56A68B9
:101B3000920840EA8200686000F0B8F807466868DA
:101B4000616800F00C00B0EB810F08D000F0AEF837
:101B5000C01B41F289318842F1D3032032E0316861
:101B600001F0070188450BD23068C00848EAC00080
:101B70003060316801F00701414501D0012021E0CA
:101B80002178480705D56968E06821F4E0610143E0
:101B9000696021780A0706D56868216920F46050D9
:101BA00040EAC100686000F00FF86A683549C2F386
:101BB00003128B5C2C49D84008602D48006800F067
:101BC00079FB0020BDE8F0812F4930480A6802F017
:101BD0000C03042B00D1704710B5082B12D100BFA5
:101BE0002DA4C2F38343D203E35C08D509685843AC
:101BF0002DA3C1F34041595CB0FBF1F010BD244866
:101C0000584310BD194810BD17481F4B00681A688B
:101C10002049C2F3022206E013481B4B00681A68F1
:101C20001C49C2F3C222895CC840704710B50F221C
:101C30000260154A136803F003034360146804F05C
:101C4000F0048460136803F4E063C3601268D20890
:101C500002F4E06202610A4A106800F007000860BE
:101C600010BD0000001002401000002000127A0099
:101C70000C000020000042428004424200700040FC
:101C80000020024010640008041002400024F40008
:101C900000093D0030640008020304050607080936
:101CA0000A0B0C0D0E0F101001022E0001484068A7
:101CB000704700BF040000207047704770477047AE
:101CC0007047704790F82130022B00F1380206D09F
:101CD00004211160002280F8202001207047016853
:101CE0000B6823F00E030B6003681968490849006C
:101CF00019600123916852688B40536000210123D1
:101D000080F8213080F8201000207047F8B590F856
:101D100021200024022A00F1340103D0042048606D
:101D200001245FE00268136823F00E0313604FF490
:101D3000803503681A68520852001A604FF48056C2
:101D40000268DFF8A8309A424FF4807719D9DFF89B
:101D500098309A4208BF012510D0DFF894309A429B
:101D600008BF10250AD0DFF88C309A4208BF3D46E4
:101D700004D0DFF88470BA4208BF3546DFF87C2013
:101D800027E0DFF87CC062451CD0DFF878E07245C0
:101D90001AD0DFF874C0624518D0DFF87070BA420C
:101DA0000EBF3546DFF86860B24210D0DFF86460DD
:101DB000B24208BF4FF4801509D09A4207D14FF0C4
:101DC000807504E0012502E0102500E03D46DFF8C3
:101DD00048201560012380F8213080F820400968F0
:101DE00001B188472046F2BD08040240800002404D
:101DF0001C04024030040240440402400404024037
:101E0000080002401C000240300002404400024032
:101E1000580002406C0002400400024090F821008B
:101E20007047704770477047704743002DE9F84787
:101E300000270024734BDFF8D081744D4FF00F0959
:101E4000024610E0D3F800E000EA0E00186009E056
:101E5000C3F804C04E68F603F4D518684EEA000EC5
:101E6000C3F800E07F1C0E6836FA07F000F0B68079
:101E7000012000FA07FC0CEA060EE645F2D14E6896
:101E80003EB3012E1AD0022E1DD0032E2ED0112EBD
:101E900016D0122E1AD05E4886421CBF5D4886427C
:101EA00017D05D4886421CBF5C48864211D05C4812
:101EB00086421CBF5B4886420BD018E0CC6816E017
:101EC000CC68241D13E0CC68083410E0CC680C34D6
:101ED0000DE0886808B9042409E0012819BF082426
:101EE000C2F814C00824C2F810C000E00024BEF5F7
:101EF000807F03D210464FEA870C04E0A7F1080662
:101F0000101D4FEA860CD0F800A009FA0CF62AEA58
:101F1000060604FA0CFC4CEA060CC0F800C048683F
:101F2000C0009FD52E6846F001062E60BE002868CE
:101F300000F00100009006F00C0C0098B80858F86A
:101F400020A009FA0CF62AEA060A374EB24208BF68
:101F5000002618D0354EB24208BF012613D0344EA9
:101F6000B24208BF02260ED0324EB24208BF03264C
:101F700009D0314EB24208BF042604D02F4EB242DF
:101F80000CBF0526062606FA0CF646EA0A0C48F8A7
:101F900020C06FEA0E004E68F60204D59E684EEA35
:101FA00006069E6005E0D3F808C000EA0C0CC3F8F2
:101FB00008C04E68D3F80CC0B6024CBF4EEA0C0CF9
:101FC00000EA0C0CC3F80CC04E68D3F804C0B6038A
:101FD0004CBF4EEA0C0C00EA0C0C39E7BDE8F18767
:101FE0008068084018BF0120C0B2704702B90904D8
:101FF00001617047C36801EA0302994341EA024163
:1020000001617047000401400800014018100240BF
:10201000000011100000121000002110000022101A
:10202000000031100000321000080140000C014097
:10203000001001400014014000180140001C014044
:102040000A01010002D41F4B5A5470471E4801F088
:102050000F01014401F8042C70471C490A6860F321
:102060000A2240F2FA5060F31F420A60704770B5CE
:10207000164C2368C3F302230124C3F10705052D81
:102080002FBF0F26C3F1070604FA06F6761E1D1DA4
:10209000072D34BF0023DB1E3140994004FA03F3BF
:1020A000BDE870405B1E1A401143C9E7010007D428
:1020B000012200F01F01064B8A40400943F820200E
:1020C0007047000000E400E018ED00E00CED00E0D7
:1020D00000E100E001B50A23012269464A4800F008
:1020E0006DF9009802BD49480268521C02604168BF
:1020F000491C41608168491C8160C168491CC160FC
:102100000169491C01614169491C41618169491C9E
:102110008161C169491CC161016A491C0162816A0E
:10212000491C8162C16A491CC162016B491C01637F
:10213000416B491C4163816B491C8163704780B5C9
:1021400000F03AFC00F015F800F048FCFFF76AFADE
:1021500000F00CFD00F06CFD00F086FD00F01EFEAE
:1021600000F01DFF00F088FF00F0B0FF01F0DAF88A
:10217000F8E700B595B0282105A801F071F9142100
:10218000684601F06DF918210FA801F069F90121E5
:1021900005914FF400334FF48031069107930D9170
:1021A000012202234FF4E01109920C930E9105A82D
:1021B000FFF7FEFA08B100F02DF80F200090022181
:1021C00000234FF4806201910293039204936846C6
:1021D000FFF76FFC08B100F01DF802224FF4004138
:1021E0000F9211910FA801F03FF908B100F012F819
:1021F00015B000BD80B501680548814208BF01F0F7
:10220000A7F9BDE801406EE7441000208C100020C3
:10221000002C014072B6FEE70121002000F016BE3E
:102220000E4B1A78904200D17047E0B51870012328
:1022300003FA00F000F00F008DF8040001AA6420FA
:102240000090E0210648FEF714F8020005D000BF18
:102250000FF2100109A000F019F807BD940000204A
:10226000080F002054434139353436415057525FEE
:102270004368616E6E656C5F53656C002573204525
:1022800072726F72212125640D0A00000EB41EB512
:10229000024605A801900024009401AB01210448E6
:1022A00078440C3001F05FF903B010BC5DF810FB0E
:1022B0004541000078B504461D481E4D87B00168B1
:1022C00041F40061016001A9006800F40060009021
:1022D00002A8009AFFF7AAFCFFF79EFC1649174BCD
:1022E0002B60B0FBF1F1002040F2E732491E28617B
:1022F000A860A861EA606960284602F097F80600C5
:1023000012D1284602F09FF806000DD11920FFF7E0
:10231000CDFE102C07D2002221461920FFF7A7FE80
:102320000748046000E00126304608B070BD000098
:1023300018100240B40F002040420F00002C014052
:102340000C00002038B5040001D1012032BD04F199
:102350004005687808B900F009F800F00CF800F0C2
:1023600022F8FFE7486100F010F832BD0021297023
:10237000204600F090BC242068702168C86820F4D2
:102380000050C860204600F0D4BA2168C86840F404
:102390000050C8606A60202169702020A870002168
:1023A0006163002070472168086920F4904008614B
:1023B00000222168486920F02A0070472DE9FC417D
:1023C00006460D4696F84100202814461F4641D186
:1023D0000DB1200001D101203DE0002171642120D8
:1023E00086F84100FFF762FCB4848046F484B0684C
:1023F000B0F5805F04BF306900281ABF2C46002565
:10240000002412E000228021304600F09EF9E0B95D
:102410003068002C12BF14F8011B35F8021BC1F301
:1024200008014160F18C481EF0844346F08C00970F
:102430000028E7D100224021304600F086F920B97B
:10244000202086F84100002005E0202086F8410089
:10245000032000E00220BDE8F68110B500F1300352
:102460009C7C202C0AD109B1140001D1012010BD9F
:1024700000241C60BDE8104000F0A4B9022010BD8B
:1024800043E8002100297047226802F1140151E855
:10249000001F143221F0400142E800100028F3D15F
:1024A000E06B7047F8B50446226813681146084689
:1024B000CD68466913F00F0F03F0200105F02000EE
:1024C00007D1002918BF00285BD02046BDE8F240A4
:1024D000C8E1F70702D415F4907F52D0DA0705D58A
:1024E000ED0503D5626C42F0010262645A0705D51E
:1024F000F50703D5626C42F0020262649A0705D5C3
:10250000F50703D5626C42F0040262641A0706D52F
:1025100008B9F30703D5626C42F008026264626C8A
:10252000002A2DD000291EBF0028204600F09AF96D
:1025300020684069626C110701D440061BD5204613
:1025400000F05BF92068416948060FD5FFF79CFF52
:1025500060B10FF201314163E06BFFF7D7FB002858
:102560000ED0E06B416BBDE8F44008472046BDE863
:10257000F24002F0A7B8204602F0A4F80020606400
:10258000F1BD206B012804F1410140F08B80D80699
:1025900000D5EE0640F18680002300931268009279
:1025A00023685A680092009B2068426950063FD514
:1025B000E26B1068406880B20028E1D0A38D984299
:1025C000DEDAE085906920282AD0226802F10C0525
:1025D00055E8002F206800F10C0322F4807243E8D4
:1025E00000200028F1D100F09CF8520800F11403FB
:1025F000520043E800200028F5D100F092F800F1E5
:10260000140322F0400243E800200028F5D12020E6
:1026100048700021216300F08BF8E06BFFF752FB5C
:1026200002206063A18DE08D091A89B2204635E051
:10263000A38DE28DE08D9B1A00281CBF98B2002864
:102640006ED02246156805F10C0454E8004F0C3595
:1026500024F4907445E800400028F3D1156805F192
:10266000140454E8004F64081435640045E8004041
:102670000028F3D12020487000211163146804F170
:102680000C0151E8001F0C3421F0100144E8001047
:102690000028F3D10220506399B21046BDE8F440FF
:1026A00002F011B818062BD52A0629D5087821285A
:1026B00036D1A068B0F5805F04BF2069002809D139
:1026C000226A21681088C0F308004860206A811CD3
:1026D000216205E0206A421C22622168007848607D
:1026E000E08C401EE08480B2D0B92168C86820F038
:1026F0008000C8602168C86840F04000C860F1BD33
:1027000058060DD56A060BD52068C26822F0400233
:10271000C260204620220A70BDE8F24001F0D4BF1A
:10272000F1BD226802F1140555E8002F20687047BA
:10273000226802F10C0151E8001F0C3221F0100157
:1027400042E800100028F3D170472DE9FC41089CB5
:1027500005460E4690461F46296808683040B0423C
:102760000CBF0121002141452AD114F1010FF3D002
:10277000FFF79CFAC01B844200D314B90320BDE8C4
:10278000F6812968CA685007E6D5802E18BF402E0A
:10279000E2D00B461A681007DED5002300932C68A0
:1027A00022680092496800910098284600F025F8B8
:1027B00005F1400008224260002101700120DEE79F
:1027C0000020DCE781628285C285002141642222EB
:1027D00080F84220016921B10268D16841F480711A
:1027E000D1600268516941F0010151610168C86816
:1027F00040F02000C86000207047036803F10C021D
:1028000052E8002F0C3322F4907243E80021002993
:10281000F3D1036803F1140252E8002F5208143375
:10282000520043E800210029F3D1016B01290BD1AB
:10283000036803F10C0252E8002F0C3322F010025F
:1028400043E800210029F3D1202280F84220002112
:1028500001637047406A0022C2850021C18401F0F3
:1028600031BF00001CB590F84210222958D1816870
:10287000826AB1F5805F0AD1016969B90368596854
:10288000C1F308011180826A911C81620FE0002966
:1028900004BF0169002902D10368596803E0016897
:1028A000496801F07F011170816A4A1C8262C18D02
:1028B000491EC18589B289BB0268D16821F0200117
:1028C000D16000230168CA6822F48072CA6002687D
:1028D0005169490849005161202280F84220436330
:1028E000016B012918D10022026300F01BF822F0CD
:1028F0001002FFF7C5FDF8D101680A68D30607D5B5
:10290000002200920B680093046862680092009BAA
:10291000818D01F0D8FE01E001F0D8FE002016BD47
:10292000022016BD036803F10C0252E8002F0C339D
:10293000704710B5044622681169E06821F44051DF
:1029400001431161D3681A48A168034020690B4311
:10295000616903430B43D36016495369A06923F4AB
:10296000407303438A42536102D1FFF755F901E0F6
:10297000FFF74AF96268192148439200B0FBF2F26E
:102980006421B2FBF1F16FF0630000FB0122120140
:1029900032326423B2FBF3F000F0F00202EB0112DA
:1029A000216800F00F008018886010BD0000000052
:1029B000F3E9FFFF0038014080B50748016841F0A6
:1029C000100101600320FFF748FB0F20FFF772FCA6
:1029D00001F0B8FE002002BD002002402DE9F847BA
:1029E00085B06846002400210022002380E81E00F4
:1029F0005548DFF858A10268554D564EDFF858810A
:102A0000DFF8589142F00402026041F60364016865
:102A100001F00401049148F20877049B026842F037
:102A200010020260016801F010010491049B026829
:102A300042F008020260016801F008010491049B61
:102A4000026842F040020260016801F04001049116
:102A5000049A016841F0200101600022006800F042
:102A6000200004901021049B5046FFF7BFFA00227B
:102A700021462846FFF7BAFA00224FF4E6413046D5
:102A8000FFF7B4FA002239464046FFF7AFFA0022BA
:102A90004FF4E0614846FFF7A9FA102002210090A8
:102AA0000123002203910193029269465046FFF7E9
:102AB000BDF94FF4C55000900022019200F050F88B
:102AC00048F20300002100900191029130466946CE
:102AD000FFF7ACF90121019100220221039102923A
:102AE000009469462846FFF7A1F94FF4E6400090AC
:102AF0000121022001910022039002926946304692
:102B0000FFF794F90122019200210291022203921F
:102B1000009769464046FFF789F943F29300009019
:102B200000220192029269464046FFF77FF9012197
:102B30004FF4E0620191009202210022039100F023
:102B40000FF806B0BDE8F0871810024000080140F9
:102B500000180140000C0140001401400010014029
:102B6000029269464846FFF761B900004FF482714E
:102B7000002280B52A4841608260C26002614261E1
:102B800030214FF400728261C1610022254B036045
:102B90000A21026242628262C16201F0F3FD18B151
:102BA000BDE80140FFF736BB01BD30B585B06D46CD
:102BB000002100220023002485E81E000168194836
:102BC000814226D11848194C026842F480520260B2
:102BD000016801F480510491049A016841F00401F4
:102BE00001600222006800F004000490A020049913
:102BF000009003210391019269462046FFF716F9E0
:102C00004023002200930192029269462046FFF77A
:102C10000DF905B030BD024610210448FFF7E6B9B2
:102C20005C0F0020003001401810024000080140F5
:102C300010B54FF4E130504C504A606000210C2038
:102C400060612260A160E1602161A161E1612046D3
:102C5000FFF778FB08B1FFF7DDFA2046BDE810402A
:102C600001224749FFF7F9BB4FF4E13180B54548F0
:102C7000454B416000220C2103608260C26002610A
:102C800041618261C261FFF75DFB18B1BDE801409F
:102C9000FFF7C0BA01BD30B585B06D4600210022F6
:102CA0000023002485E81E0000F060F82CD10368A2
:102CB000364C43F480430360016801F48041049181
:102CC000049A016841F0040101600222006800F0EA
:102CD000040004904FF400700499009003210391C4
:102CE000019200F03FF800214FF4806201910291BF
:102CF000009200F037F8002200212520FFF7B7F9F5
:102D00002520FFF7D3F92BE01F4A914228D14168D3
:102D10001F4C41F400314160416801F400310491DD
:102D20000499026842F0200202600221006800F06B
:102D3000200004902020049A009001910322039225
:102D400000F010F84020009000220192029200F062
:102D500009F81049086840F0E06040F00800086099
:102D600005B030BD69462046FFF760B80168034AE8
:102D70000948914270470000FC0F002000380140D4
:102D8000FE100020441000200044004000080140D4
:102D90000014014004000140181002401FB56B46AA
:102DA00000200021002283E80700244C244A2073DD
:102DB000A160217561604FF46020E0610121226013
:102DC0002161204601F03CFD08B1FFF723FA002005
:102DD00000900122029001926946204601F0B8FD60
:102DE00008B1FFF717FA1FBD30B585B001AD00215E
:102DF00000220023002485E81E000168104881425B
:102E00001AD11048026842F400720260016801F4AD
:102E100000710091009A016841F0040101600F21E6
:102E2000006800F0040000900322009B0648019116
:102E3000029201A9FEF7FAFF05B030BDC8100020CC
:102E400000240140181002400008014038B50B284A
:102E5000DFF89033DFF89043DFF8905370D8DFE865
:102E600000F0060D161F283039424B545B6411B137
:102E70000122022123E00022022120E019B10122D7
:102E80004FF400711BE000224FF4007117E019B1FC
:102E900001224FF4806112E000224FF480610EE0C5
:102EA00019B101224FF4006109E000224FF40061E2
:102EB00005E009B1012200E000224FF480511846DC
:102EC0003AE019B101224FF4806123E000224FF46F
:102ED00080611FE019B101224FF400711AE0002255
:102EE0004FF4007116E019B101224FF4807111E026
:102EF00000224FF480710DE019B101224FF400411E
:102F000008E000224FF4004104E009B1012200E092
:102F10000022082120460FE0002907BF00224FF4BD
:102F2000006101224FF4006105E0002914BF012275
:102F300000224FF480612846BDE83840FFF756B8BC
:102F400031BD000010B50928DFF8A432DFF89C423B
:102F5000DFF8942222D8DFE800F00507090C0F12F1
:102F60001517191B20210BE0012100E00221184652
:102F700010E04FF480510CE04FF4005109E0802143
:102F8000204607E0802104E0102102E0022100E059
:102F900001211046BDE81040FFF722B810BD80B5F2
:102FA0000FF27C220FF26C21DFF84802FFF76EF976
:102FB000DFF844120FF274200968FFF767F901F097
:102FC0007BFDBDE80140FFF727B901F08BFDBDE8AF
:102FD0000140E5E00121092038E701210B2035E718
:102FE0000121032032E7012102202FE700210120E7
:102FF0002CE780B5012815D1042001F073FDFFF7FF
:10300000F5FFFFF7F0FFFFF7EBFFFFF7E3FF01210D
:103010000820FFF71BFF142001F064FDFFF7DDFF20
:103020006420D2E70021FFF7D9FF0A2001F05AFD02
:103030000121FFF7DCFF0021FFF7D6FF0021FFF79A
:10304000D0FF0021FFF7C7FFBDE8044000210820A2
:10305000FCE680B50420FFF775FF60B9642001F03D
:1030600041FD0420FFF76EFF28B9BDE802400FF2D2
:10307000D410FFF70BB901BD10B500F025F85F4C77
:10308000012804BF207800280AD1052001F02AFD7C
:1030900000F01AF8012803D1FFF7ABFF01202070E0
:1030A00000F012F8002804BF2078012809D105207B
:1030B00001F018FD00F008F818B9FFF79AFF00209A
:1030C0002070BDE81040C4E706203BE74C48C16AC9
:1030D000B1F5FA7F00D2704738B500224949424C19
:1030E000C262087800B3484D2878C30758BF012250
:1030F0004FF480612046FEF779FF2978880754BF96
:10310000012200224FF400712046FEF76FFF28785D
:1031100010F00C0F0CBF012200222046BDE8384001
:103120004FF48071FEF762BF2046BDE834404FF493
:103130008061FEF75FBF00002DE9F04344A53349ED
:1031400095E8C0018FB0E946044689E8C00103A8AC
:10315000302201F0DBFC0DF1090001F087FD06468D
:1031600000208DF8060001A801F080FD0746002030
:103170008DF80300804603A850F82810684601F037
:103180007DFD28B108F10108B8F10C0FF3DB01E077
:1031900008F1010526706570A7700FB0BDE8F083D7
:1031A00070B5022202214420FEF78EFA08220F2178
:1031B0004420FEF789FA02214420FEF7A7FA0646CA
:1031C00003214420FEF7A2FA0446114D32460221A3
:1031D0002846FFF75BF822462846BDE870400321E9
:1031E000FFF754B8001801400014014000100140DE
:1031F000000C01408062000810000020FF10002039
:103200008C100020FD100020FC100020B06200088F
:10321000606300085365702031372032303235004A
:1032200031383A30393A3431000000005379737440
:10323000656D436F7265436C6F636B203D20256441
:103240000D0A000074657374206B6579200D0A0007
:1032500053657020313720323032350030B50246A8
:103260000020012402E0535D1818641CA5B28B1ED7
:103270009D42F8DBC0B230BD30B5002201248B1E68
:1032800002E0455DAA18641CA5B29D42F9DB084422
:10329000032100F8022D417030BD38B505460C46BB
:1032A000FFF7DCFF291911F8021C814201D101202E
:1032B00032BD002032BD70B514463D4E1D4602227F
:1032C00032707070B1701B0AF37035712A46214656
:1032D000701D01F01BFCED1DA9B23046BDE8704029
:1032E000CAE7F8B51C46FFF7E6FF0027314D304E20
:1032F000B8B231184FF6FF7301222846FFF75EF887
:103300007F1CBAB2E11D8A42F2DBF1BD01F580609B
:103310004279817902704170C279017A41EA0221D1
:103320004180704738B5244C204601F0E9F9002867
:103330003DD0204601F0F9F91D4CB4F8041804F210
:1033400004456854B4F80418491C88B2B0F5806F7D
:10335000A8BF00212878A4F80418022824D1B4F8C2
:103360000418052923DBEA782879CB1F40EA0220DC
:1033700083421CD12846FFF790FF012807D1214640
:103380000020FFF7C3FF284600F038F80CE0B4F83F
:1033900004182846FFF762FF8DF8000001236A46F3
:1033A0000A216020FFF79DFF0020A4F8040831BD2A
:1033B00098000020FC0F0020A00800201CB500BFD2
:1033C0001FA10A6801AB04461A606846FFF7B4FE05
:1033D0009DF800009DF801108DF80400042301A859
:1033E00001AA41709DF80210817001208DF807003C
:1033F000A1786078FFF775FF13BD000010B5044693
:10340000A27861780FA0FEF741FF6078022815D1FD
:10341000A078092804D0F32807D0FF280AD010BDCF
:103420002046BDE8104001F033BC2046BDE8104006
:1034300001F0E6BD2046BDE81040BFE710BD00002A
:10344000180711011B5B33326D4D435B30782578D3
:103450005D53435B307825785D0D0A1B5B306D0052
:10346000002201F00BBF00002DE9FC410646354D5E
:103470003178C80750D5A9690024C80009D4A969C2
:1034800041F08051A9610124A86900F080500090AA
:1034900000982D4F3868C10511D4386840F4807009
:1034A0003860FEF703FC80463868C10507D4FEF794
:1034B000FDFBA0EB08006528F6D303203FE0E86998
:1034C00010F440701EBF716801F44071884218D03A
:1034D0001E49E86901220A60002320F440700B6055
:1034E000E861C0070DD5FEF7E1FB0746E9698807EB
:1034F00007D4FEF7DBFBC01B41F289318842F5D3CC
:10350000DBE7EA69706822F440720243EA611CB1A9
:10351000A86920F08050A8613178880705D529680E
:10352000B06821F44041014329603178C80605D5CF
:103530002968706921F48001014329600020BDE8F9
:10354000F681000004100240007000404004424236
:10355000024A5168107841185160704704000020F9
:1035600040F0200070472DE9F14FB0B09246049131
:103570000DF142013A9A2B9199464A7000200AE0D7
:103580001AF8011B0498309A90470028049000F024
:1035900043860D98401C0D909AF8000050B12528E4
:1035A000EED1002200210792089109920A910B9214
:1035B0000C9104E00D9800F031BE41F001011AF8C1
:1035C000010F2028F9D023280CD02B2804D02D2837
:1035D00005D0302809D00BE041F00201EFE741F0BF
:1035E0000401ECE741F00801E9E741F01001E6E7EA
:1035F0002A280FD1D9F8002052F8040BC9F800206E
:1036000000280F9003D540420F9041F004010AF1C9
:10361000010A14E00F92DFF80C0C0AE00F9C8442C0
:1036200005DA04EB840302EB4302303A0F920AF10D
:10363000010A9AF80020A2F130030A2BEED39AF87F
:1036400000202E2A03D04FF0FF300E9029E01AF808
:10365000010F2A2809D1D9F8002052F8040BC9F823
:1036600000200E900AF1010A1BE02D280CBF0AF180
:10367000010A002000220E92DFF8A85B0BE040B99F
:103680000E9BAB4205DA03EB830402EB4402303AB3
:103690000E920AF1010A9AF80020A2F130030A2BD7
:1036A000EDD3ADF840100FF680309AF8001001F01D
:1036B000FFFD08B11AF8010B8DF842009DF8420099
:1036C000682805D19AF8001068290CD1622006E01C
:1036D0006C2804BF9AF800106C2904D171208DF871
:1036E00042000AF1010A12AA06921AF801BBBBF1C4
:1036F00025002CD01C3800F09781001F022840F2D2
:103700009381133800F0BA84093800F08D81801E4F
:1037100000F04F85401E00F0FC84401E022840F25D
:103720008381001F00F0F584401F00F0F280401EEE
:1037300000F0A484401E00F0DA80C01E0ED0801E6F
:1037400000F09C84C01E00F0998400F03DBD012271
:10375000252107928DF8481000F042BDD9F80000ED
:1037600050F8044BC9F80000002C059440F0AB80E1
:103770002B994878002800F0A1804FF0FF340FF615
:10378000B02001F0A1FD241A40F0468500F028BDCC
:1037900001236A4602A9304600F00CFE002840F0E2
:1037A0003B85641EF4D13096079C12AE74B1309FF5
:1037B00016F8011B0498B8470028049000F02C85E7
:1037C0000D98401C641E0D90F2D130970A9C302158
:1037D000002C8DF800100CDD309E01236A4602A9F2
:1037E000304600F0E7FD002840F01685641EF4D155
:1037F0003096059E089C74B1309F16F8011B049802
:10380000B8470028049000F007850D98401C641EFE
:103810000D90F2D130970B9C3021002C8DF80010C8
:103820000CDD309E01236A4602A9304600F0C2FD3D
:10383000002840F0F184641EF4D130960598089970
:10384000099C461874B1309F16F8011B0498B847BC
:103850000028049000F0E0840D98401C641E0D9038
:10386000F2D130970C9C3021002C8DF800100CDD2B
:10387000309E01236A4602A9304600F09BFD0028D5
:1038800040F0CA84641EF4D130969DF84000410790
:103890007FF582AE2020002D8DF800007FF77CAEF2
:1038A000309C01236A4602A9204600F083FD0028CF
:1038B00040F0B2846D1EF4D130946DE60FF65430B2
:1038C000059000F08DBC0E9D002D04D5204601F022
:1038D0001BFD044608E02A460021204601F030FD89
:1038E000002814BF041B2C46089400F079BCD9F8BA
:1038F000001051F8040BC9F8001020F0000200215C
:1039000021F0FF33CDE9022312AC0594782100F0B9
:103910004CBC2B99487820B14FF0FF340FF6C420EF
:103920002FE79DF84200622860D0682817D06A28E7
:103930003FD06C2806D0712847D074282CD07A2824
:103940001DD062E0D9F8001051F8040BC9F800103E
:10395000002866D14FF0FF340FF6A02011E7D9F808
:10396000001051F8040BC9F8001020B94FF0FF34D3
:103970000FF6882005E70D99018000F031BCD9F8D9
:10398000001051F8040BC9F80010002849D14FF07D
:10399000FF340FF66820F4E6D9F8001051F8040B54
:1039A000C9F8001000283CD14FF0FF340FF64C202E
:1039B000E7E6D9F8001051F8040BC9F8001080B9F7
:1039C0004FF0FF340FF63420DBE6D9F8001051F841
:1039D000040BC9F8001020B94FF0FF340FF61C207B
:1039E000CFE60D9AD317C0E90023F9E3D9F8001008
:1039F00051F8040BC9F8001020B94FF0FF340FF64E
:103A0000FC10BEE60D990170EAE3D9F8001051F8F8
:103A1000040BC9F8001020B94FF0FF340FF6DC108A
:103A2000AFE60D990160DBE39DF842004C2807BF2B
:103A3000D9F80010CA1DD9F80000C21D22F00702F3
:103A4000C9F80020D2E900010832C9F80020CDE908
:103A50000201C80F02D007982D210AE0BDF84010DE
:103A6000880702D507982B2103E0C80705D50798DA
:103A7000202112AA1154401C079012A807994BF05C
:103A8000200300EB010CDDE90201CDE92C01612BE3
:103A9000CDF814C021AC0BD00E98002848BF0621E9
:103AA00005D404BF4BF02000672801D101210E91FD
:103AB000DDE902677B0043EAD6735A15DB174FF046
:103AC000FF30834208BF824210D13F0347EA1657B6
:103AD0003603002F08BF002E08D0ABF1610503218B
:103AE0001A2D089118D30FF6341110E0DDE9020108
:103AF0004A00521512F1010F11D108030FD1ABF199
:103B0000610503211A2D08911FD30FF61811032206
:103B1000604600F0FBFF63E30FF6FC01F7E7DDE929
:103B200002016A4601F038FCCDE902014BF02000A9
:103B3000612811D1059830220270811C0591BBF1DA
:103B4000610F0CBF7821582102E00FF6D401DEE7A7
:103B500041700798801C0790DDE9020120F0000207
:103B600031F0004308BF002A02D10026002542E1BF
:103B70004BF02008B8F1610F40F093800E980028B8
:103B800047BF21210191401C0190019EDDE92C01DC
:103B9000761C00220023DDE9024501F035FC38BF28
:103BA00085F0004500988DF88420001F002E0090BD
:103BB0000DF1850732DD204629460022002301F061
:103BC0003DFC2BD21C2201F053FC04460D4601F0B3
:103BD000EDFCF61F002E804609DD01F003FD0246D4
:103BE0000B462046294601F0C5FD04460D46F81D4A
:103BF0000721B8F1000F0CDD491E5EBF08F00F026F
:103C000000F8012D4FEA2818F3D502E0002200F851
:103C1000012D491EFAD5C71D002ECCDC0DF1850003
:103C20003F1A01980DF185043E468742C8BF0646FB
:103C3000002E2FD4BE4206DA0DF18500815D0829E1
:103C4000A8BF0F2000DA0020324621A98D1800E01D
:103C5000761E15F80139521E8342F9D00F2804D17F
:103C60000DF18501885C401C8854002A04D5009819
:103C7000001D21AC761C0090701E0BD421180B780F
:103C80003033DAB23A2AA4BF5B443A3B401E01F813
:103C90000139F4D50E99002940F1AC80701E0E90C8
:103CA000A8E00099DFF8FC2647F29750414391FBCA
:103CB000F2F20092DDE92C45C2F10702002A25F05C
:103CC000004504DD2046294600F049FB0BE0524246
:103CD0000020DFF8D41600F042FB02460B462046D7
:103CE000294601F0B9FD04460D46B8F1660F06BF3E
:103CF000009E0A3606260E983618142EC8BF1426C3
:103D000030208DF884000DF18507002E34DD20462B
:103D1000294601F0C5FE01460A4607F1080C0420B9
:103D20000A27B2FBF7FE0EEB8E03A2EB4302303202
:103D30000CF8012C0A22BEFBF2F202EB8203AEEB7E
:103D400043033033401E0CF8023DE9D1083E002EFB
:103D50000CF10807D9DD084601F0B4FE02460B4617
:103D60002046294601F006FD0022DFF8403601F02A
:103D7000B7FE04460D46CAE70DF185003F1A0DF166
:103D8000850404E00098401E7F1E0090641C20788B
:103D90003028F7D0B8F1660F02D1009E761C04E0FF
:103DA000B8F1650F0CBF012600260E983618B742F1
:103DB000B8BF7E1E002E1DD4BE4204DAA05D34289A
:103DC000C8BF392000DC30203246611E8D1800E06B
:103DD000761E15F80179521E8742F9D0392802D192
:103DE000A05C401CA054002A04D50098401C0C463E
:103DF000761C0090009D01F061FF406A0778DDF8B5
:103E0000388030B2002802DC01260FF21C644BF02F
:103E10002000662808BF6D1C16D0672845D128B23F
:103E200010F1040F47DB404545DA9DF840106D1C4A
:103E3000080703D430B24045D8BF804628B2B8EB5B
:103E4000000848BF4FF000080FFA85FBBBF1000FD8
:103E500000F3B3800898411C0891302205990A5458
:103E6000B8F1000F03DC9DF84010080704D508984E
:103E7000411C089105990F5418EB0B0FB8BFC8F1FE
:103E800000052DB26842454432B20B909542B8BF4E
:103E90002E46059B089836B20996324621461844AC
:103EA00000F034FEAD1B0C95D1E0BBF1610F17D1D2
:103EB0004FF0700B19E030B2404504DA9DF8401025
:103EC0000A0758BF8046B8F1010848BF4FF0000804
:103ED000BBF1670F14BF4FF0450B4FF0650B04E0CB
:103EE000BBF1410F08BF4FF0500B0898411C0891DF
:103EF000B8F1000F059914F8012B0A5403DC9DF862
:103F0000401008071AD50898411C0891B8F1000F15
:103F100005990F5412DD761E30B28045B8BF464673
:103F20000598089B32B22146184400F0EFFD08982E
:103F300036B230180890A8EB06000B900598089947
:103F4000014428B2002881F800B003D42B20487027
:103F5000891C04E02D224A700546891C6D42002010
:103F60002CAA0AE02B460A2593FBF5F505EB850400
:103F7000A3EB440302F8013B401C2DB2002DF1DC01
:103F8000012806DC4BF02002652A04BF302201F82C
:103F9000012B00282CAB08D1302001F8010B06E0E2
:103FA000401E1A5C303201F8012B0028F8DC059A1B
:103FB00008981044091A099149E031B228B28142A7
:103FC0001CDA059B089832B22146184400F09EFD89
:103FD000089936B271180891ABEB0600B8F1000FE2
:103FE0000B9003DC9DF84000020704D50598475468
:103FF0000999491C0991CDF8308028E0059B089863
:104000002AB22146184400F081FD0898761B5844D6
:10401000B8F1000F089003DC9DF840100A0703D5A3
:10402000411C089105990F5430B28045B8BF4646EF
:104030000598089B32B204EB0B01184400F066FDB2
:10404000089836B230180890A8EB06000B909DF83F
:10405000400000F01400102840F0C280079A089831
:104060000B99821809988A1882180C980F99801851
:10407000884280F2B580081A0A90B1E09DF84200AB
:10408000622808D068280ED06A2814D06C281FD067
:10409000712810D01CE0D9F8001051F8040BC9F8B1
:1040A0000010C0B21AE0D9F8001051F8040BC9F89A
:1040B000001080B212E0D9F80000C21D22F0070201
:1040C000C9F80020D2E900010832C9F8002006E052
:1040D000D9F8001051F8040BC9F800100021CDE9FF
:1040E00002019DF8400002075AD5DDE902010029CE
:1040F00008BF002854D04BF02002782A50D10799ED
:1041000012A830234354491C4A1C079200F801B0FE
:1041100046E09DF84200622808D068280ED06A2840
:1041200014D06C281FD0712810D01CE0D9F80010D2
:1041300051F8040BC9F8001040B21AE0D9F8001089
:1041400051F8040BC9F8001000B212E0D9F80000D1
:10415000C21D22F00702C9F80020D2E9000108328E
:10416000C9F8002006E0D9F8001051F8040BC9F88E
:104170000010C117CDE90201002902D507982D22B0
:104180000AE0BDF84000810702D507982B2203E022
:10419000C00705D50798202212A90A54401C079091
:1041A00012A8079901440591594602A800F04EF85B
:1041B00016E001200790D9F8001051F8040BC9F857
:1041C00000108DF848000BE001222521BBF1000F03
:1041D00007928DF8481003D0022007908DF849B05F
:1041E0000F9D07980A992D1A08986D1A0B992D1A88
:1041F00009986D1A0C992D1A9DF840006D1A410707
:104200003FF5D2AA2020002D8DF800007FF7CCAA20
:10421000309E2C46FFF7BCBA4FF0FF3031B0BDE8FE
:10422000F08F0000CBCCCC0C686A6C747A4C000028
:104230007072696E74665F733A20626164202573E0
:1042400020617267756D656E740000002DE9FE4C8B
:1042500006468B46376958466F2808BF082205D0A6
:10426000FFF77EF9782814BF0A221022D6E9000150
:104270003C2504468A46BBF1640F18BFBBF1690FA9
:1042800004D1002902D564426AEB4A0ABAF1000F50
:1042900008BF002C0CD1306B50B9082A3BD196F8DE
:1042A0003810080737D530213B2587F83B1032E01E
:1042B0008DF800B09346204651465A46002301F03F
:1042C00003FD3032D0B26D1E3A2801950DDA7A55D1
:1042D000204651465A46002301F0F6FC04465FEAA8
:1042E000010A08BF002C05D108E09DF80000121853
:1042F000513AECE7F16878198142DCD3BBF1080F41
:1043000009D196F83800010705D5785D302802D02C
:104310006D1E30207855C5F13C02306BB2617919C1
:104320008242F16007DA318F821A4FF6EF70014056
:104330003262318710E000280ED596F8380000F080
:104340001400102808D1736B7069316A1B1A5B1A4C
:104350009B1A002BC8BF336203B0BDE8F08C2DE977
:10436000D04306460F4614464FF00008DFF8409051
:1043700012E0E00707D542464B463046394601F089
:10438000AFFB06460F464046494642464B4601F0C3
:10439000A7FB641080468946002CEAD13046394696
:1043A000BDE8D083A08601000000F03F84D797418C
:1043B00000002440F8B505460E4617461C4600206E
:1043C0005CB117F8011BB068A847B06030B1F06A63
:1043D000401CF0620020641EF3D1F2BD4FF0FF30AC
:1043E000F2BD00007072696E74665F733A20256ECC
:1043F00020646973616C6C6F776564007072696EBC
:1044000074663A2062616420256E20617267756D62
:10441000656E7400000000006E616E004E414E003B
:10442000696E6600494E46003000000038B5040051
:1044300001D1012032BD00F053F818B900F04CF85A
:1044400001F05AFD34E090F83D10012901D001201F
:104450007047022180F83D100268DFF88C30D16887
:1044600041F00101D160016899421CBFDFF87C2056
:1044700091420ED0B1F1804F1CBFDFF87420914201
:1044800007D0DFF8703099421CBFDFF86C209142F2
:1044900006D1896801F00701062907D0026800E00B
:1044A0000A461168104641F0010101600020704782
:1044B00002206870211D206800F0B8F80121A9725F
:1044C0000120A870E97028716971A871E9712872DA
:1044D00069726870002032BD002129702046704743
:1044E00004F13C0568787047002C0140003401401D
:1044F0000004004000080040000C004070B5044675
:104500002068C5680669B20714D5A90712D56FF0EF
:104510000202026101212177806910F0030F204619
:1045200002D001F0EAFC03E001F0E8FC00F07BF8C7
:1045300000202077710715D5680713D520686FF024
:104540000401016102222277806910F4407F204635
:1045500002D001F0D2FC03E001F0D0FC00F063F8DF
:1045600000202077310715D5280713D520686FF074
:104570000801016104222277C06910F0030F204670
:1045800002D001F0BAFC03E001F0B8FC00F04BF8F7
:1045900000202077F00615D5E90613D520686FF0C6
:1045A0001002026108212177C06910F4407F204683
:1045B00002D001F0A2FC03E001F0A0FC00F033F80F
:1045C0000020207706F0010205F001010A4206D022
:1045D00021686FF001020A612046FDF70BFE3006EC
:1045E00008D52A0606D520686FF0800101612046B3
:1045F00001F085FC700608D56A0606D521686FF0C3
:1046000040000861204601F07BFCB0060AD5AA06EE
:1046100008D521686FF0200008612046BDE8704091
:1046200001F06FBC70BD204601F06CBCF0B50368B2
:104630001F4DDFF880C0204A204E214CA84218BFF1
:10464000A04208D0B0F1804F18BFB04203D09042D2
:1046500018BF60450DD123F070074B683B43A8425B
:1046600018BFA04207D0B0F1804F1CBFB0429042AB
:1046700001D0604503D123F44072CB6813434A69EB
:1046800023F0800313430360A8428B68C3620A6867
:10469000826212BFA042096901630122426101697D
:1046A000CA0703D50169490849000161F0BD00004E
:1046B000002C0140000C00400008004000040040B5
:1046C00000340140704770477047000038B5044619
:1046D0000848216881420BD1074D0848297800F02D
:1046E00017F829462046BDE838400122FDF7B5BE3F
:1046F00031BD000000380140FE100020A00800205D
:1047000001884088814201D0012070470020704715
:104710004288024411714188491C418089B2B1F537
:10472000806FA4BF00214180704701460A88881825
:10473000521C00790A8092B2B2F5806FA4BF0022A9
:104740000A8070470D4881B0026842F001020260A1
:10475000016801F001010091009A416841F0805127
:1047600041604068064900F0805000900098086859
:1047700020F0E060086001B0704700BF18100240F0
:104780000400014038B5040001D1012032BD606A47
:1047900028B900F050F805D00021E16102E00020C6
:1047A000206160610020A06204F15005687820B9A2
:1047B000002129702046FEF7F8F902206870206871
:1047C000016821F0400101606068A268E16800F4BE
:1047D000827002F404421043227C01F40061084319
:1047E000217D02F002021043A26901F00101084399
:1047F000217F02F40072104394F8202001F0380168
:104800000843A16A02F080021043226801F40051BB
:1048100008431060A1692068090C01F0040141609F
:104820002168C86920F40060C86100216960012026
:104830006870002032BD6068B0F5827F704700006C
:10484000F8B5044600270026002C7AD004F1240590
:10485000686828B90021A96028702046FEF7C4FACC
:10486000204600F001F96A68D1066BD4010069D1D5
:10487000696821F4885141F0020169602368DFF81A
:10488000CC11E2698B4204BFB2F5402F4FF40022F5
:10489000D4F804C0217B42EA0C02D4F808C042EAF2
:1048A0004102BCF5807F14BFBCF1010F4FF480774B
:1048B00094F814C0BCF1010F0FD131B9A169491EA0
:1048C00047EA413747F4006707E0696841F0200193
:1048D0006960A96841F00101A960596821F4694142
:1048E0000F435F60DFF868112768BB680B40134314
:1048F000BB60A168B1F5807F18BF012902D126698C
:10490000761E36052368D96A21F470010E43DE62F3
:104910002468DFF84011A3680B40934207D10022BE
:10492000AA600122696862F301016960F2BD6868EA
:1049300020F0020040F010006860A86840F001001C
:10494000A86003E0686840F0100068600120F2BDD4
:10495000F8B5002300930A4600F1240300211C78D7
:10496000012C01D10220F2BD01241C701F265768C2
:1049700014680568072F08D27F1E07EB8707D5F854
:1049800034C000F05CF86C6316E00D2F08D2FF1FF6
:1049900007EB8707D5F830C000F051F82C630BE027
:1049A0000D3F07EB870CEF6A06FA0CF627EA0606BE
:1049B00004FA0CF43443EC6207261768946805681F
:1049C0000A2F08D30A3F07EB4707D5F80CC000F0C1
:1049D00036F8EC6006E007EB4707D5F810C000F0AA
:1049E0002EF82C611468102C18BF112C23D10068EC
:1049F0001A4DA8421AD11A48046825021BD404682B
:104A000044F4000404601068102814D1124D154AB3
:104A10002C68B4FBF2F20A2042430092009800286E
:104A20001EBF0098401E0090F8D104E00121586894
:104A300040F020005860002018700846F2BDBE40CB
:104A40002CEA0606BC40344370470000003C01409D
:104A5000FDF7E1FFFE0E1FFF1000002000240140C3
:104A60000824014040420F0038B5044620688168A0
:104A7000CA071BD58168490849008160FDF716F90E
:104A8000054600F015F811D5FDF710F9401B032875
:104A9000F7D300F00DF8F4D5A16A41F01001A1623E
:104AA000E06A40F00100E062012032BD002032BD2A
:104AB00020688168C807704710B5094C01224FF47F
:104AC00000712046FDF792FA01224FF480712046D2
:104AD000FDF78CFABDE810400120FEF79CB80000FD
:104AE0000010014038B50546FDF7E0F815F1010F5B
:104AF000044602D0044908784519FDF7D7F8001B91
:104B0000A842FAD331BD00BF040000204AB1000022
:104B100011F8013B521E00F8013B1CBF11F8013B8C
:104B2000F8E770472DE9F84F84B00D4616460BB1F3
:104B300000221A608346D84601E008F1010898F87F
:104B4000000001F0E0F90028F7D198F800002D28C6
:104B500016BF2B2818F8014B2B24002E019503D4E7
:104B6000012E01D0252E04DB002D58D0C5F800B051
:104B700055E0002E0CDD102E04BF98F80000302800
:104B800002BF98F8010040F02000782811D10CE015
:104B900098F80000302818BF0A260AD198F80100BA
:104BA00040F02000782803D1102608F1020800E028
:104BB0000826CDF80C8001E008F1010898F8000003
:104BC0003028F9D0064D7D4416354FF0000905F127
:104BD0002800CDF80880CA468DF800000CE000BF20
:104BE000E415000007469DF800003F1ACA46FFB2D0
:104BF00006FB097908F1010898F8000001F08DF929
:104C00000146324605F1280000F09AFB0028E9D160
:104C10000399414505D1019808B1C0F800B00020C2
:104C200020E00299A85DA8EB0101091A002910D41F
:104C300006DCB9EB070703D3B7FBF6F0504508D005
:104C4000AFF30080049808B1012101604FF0FF39F3
:104C500003E02D2C08BFC9F10009019808B1C0F884
:104C60000080484605B0BDE8F08F04E000E0000099
:104C70000A220021F9E7002354E7000010F8012B75
:104C800011F8013B0AB19A42F8D0D01A70470000DF
:104C9000F8B504460023677922A1A079E67900934C
:104CA0004FEA070246EA002621A0FDF7EFFA380690
:104CB000C6F308060DF1020512D5F9070AD43046ED
:104CC00000F006FA684600F043FA300A8DF8020058
:104CD0006E701EE0684600F03BFABDF8000012E07E
:104CE00015220021A42001F023F966220221A4202C
:104CF00001F01EF9F8075CBF304601F09DF901F0A4
:104D0000B3F9ADF80000000A8DF80200BDF800000C
:104D10006870A178607802230DF10202FEF7E1FAD3
:104D2000F1BD00007076636F6D5F74756E65000095
:104D30002573203A20727766203D20253032580DA9
:104D40000A00000081B0002002E000BF0098401C73
:104D5000009000985028F8DB01B07047012200E075
:104D600000224FF48051DFF82C04FDF73FB90122F7
:104D70004FF40051F7E700224FF40051F3E702002F
:104D800018BF0122D2B24FF48041ECE780B54FF456
:104D90000041DFF80004FDF723F9012818BF0020C7
:104DA00002BD80B5010018BF01210846FFF7E7FFEB
:104DB000FFF7DDFFFFF7C6FFFFF7DDFF43E010B5AC
:104DC000FFF7D5FFFFF7BEFFFFF7E0FF0446FFF751
:104DD000D2FFFFF7B7FFE0B210BD38B504464D1E55
:104DE00006E024FA05F000F00100FFF7DAFF6D1E7F
:104DF00068B20028F5D531BD80B5FFF7BCFF00F0E3
:104E00004BF81EE080B5FFF7A9FFFFF79BFF00F00E
:104E100041F800F01BF802210320FFF7DEFF082114
:104E20000BE080B5FFF79AFFFFF78CFF00F032F838
:104E300000F00CF800F00AF8092140F2FF10FFF72B
:104E4000CCFFFFF78DFFBDE801407BE7022100208A
:104E5000C3E738B5FFF784FFFFF774FFFFF77EFF66
:104E6000FFF770FFFFF76EFF00F016F841F288358C
:104E70002846451E68B1FFF77AFFFFF763FFFFF78B
:104E800085FF0446FFF777FFFFF75CFF002CEFD0AC
:104E9000012032BD012084E7002070E7092120466F
:104EA0009BE700207DE72DE9F84304460E0091467C
:104EB00014BFB9F1000F002046D0FFF79DFF224636
:104EC0000FF2F42100F096F8FFF755FFFFF7E4FF2B
:104ED000FFF746FFFFF736FFFFF74DFFFFF7DCFF59
:104EE000FFF73EFFFFF72EFFFFF738FFFFF72AFF20
:104EF000FFF7D0FF02210220FFF76FFFFFF7D1FF7E
:104F0000FFF7CCFF002700251024FFF758FF641E91
:104F100040EA4505F9D12804000EF055F019457016
:104F20004046F15DFDF7B2F9F019BF1C00F00EF834
:104F3000B9F10109BFB2E6D195A0FDF7A7F9FFF7D6
:104F40000FFFFFF7FFFE0120BDE8F28341784046E6
:104F5000FDF79CB92DE9F04107460D00144618BF36
:104F6000002C3DD0FFF748FFFFF74CFF4FEA070248
:104F70009EA100F03FF80026A95DFFF7E8FFA81901
:104F8000FFF7E4FFFFF7F7FEFFF786FFFFF7E8FE06
:104F9000FFF7D8FEFFF7E2FEFFF7D4FEFFF77AFF38
:104FA00002210120FFF719FFFFF77BFF0921B8B2AB
:104FB000FFF713FFA85D0821FFF70FFFA8190821CD
:104FC0004078FFF70AFFFFF744FF48B1FFF7C8FE3C
:104FD000FFF7B8FE7F1CB61C641EB6B2CCD101E050
:104FE000002005E06AA0FDF751F9FFF71AFF012044
:104FF000BDE8F08174A00FF2EC18FDF747B900008E
:105000002DE9FC470546A879E9796C796E7A624FFB
:1050100041EA002895F8080078A14346224646EA6E
:1050200000265E484FEA560ACDF800A0FDF72EF99B
:10503000761C012C0AFB08F910D100F0C7FF52467C
:1050400005F10A011FFA89F0FFF784FF00F023F849
:1050500000F0C9FF386880F8008011E0CCB900F09A
:10506000B5FF00F018F800F0BEFF00F0C9FF0128FE
:1050700003D13A680020107002E038680121017005
:105080003A68A9786878B3B202B0BDE8F047FEF795
:1050900028B9BDE8F3873868411C52461FFA89F0E9
:1050A00001E7000038B50024002303E09AB25B1C3E
:1050B000825C14199DB28D42F8D3214654A0FDF7AD
:1050C000E5F8FF21B4FBF1F1C1EB0121601A32BD1B
:1050D0002DE9F8430446214650A0314DDFF8C49035
:1050E000FDF7D4F800F072FF00F060F840F22F16E0
:1050F000324629460020FFF7D6FE40F25D284146A1
:105100002846FFF7CFFF024695F85D124846FDF7A7
:10511000BDF805F163077A78397809F13800FDF7B1
:10512000B5F8200A38707C7041462846FFF7BAFF70
:105130000446214641A0FDF7A9F885F85D423246B4
:1051400029460020FFF706FFBDE8F14300F04BBF02
:1051500038B5044600F03AFF114D00F027F802225E
:1051600029463120FFF79FFEAA7869780E48FDF79F
:105170008DF800F038FF00F043FF6878A97841EA25
:1051800000212180BDE8344034A0FDF77FB8000045
:105190000D0A0000000C0140000000203C630008E4
:1051A000A40C00205C6100089461000840F25E21BC
:1051B0002846FEF755B900006539335F72656164B2
:1051C0005F736571000000002573203A20616464FC
:1051D00072203D2025582C206461746173203D208D
:1051E0000000000025303258200000006539335F90
:1051F00077726974655F736571000000746F76691A
:10520000735F656570726F6D5F7061636B6574006D
:1052100073756D203D2025640D0A00004545502022
:1052200056434F4D20736176652064617461203D63
:10523000203078253034580D0A00000045455020B4
:10524000646174617320636865636B73756D203D81
:10525000203078253032580D0A0000004545502096
:1052600056434F4D20726561642064617461203D36
:10527000203078253034580D0A00000000B500BFFA
:10528000130096469446103928BFA0E80C50FAD86F
:105290005FEA417C28BF0CC048BF40F8042BC90717
:1052A00028BF20F8022B48BF00F8012B00BD0000EA
:1052B000C9B202788A421AB11CBF10F8012FF9E76F
:1052C00018BF00207047000080B500B906A005494E
:1052D0000B681BB122220021984701E000F02EFF4D
:1052E000222002BDF8100020636F6E737472616932
:1052F0006E742068616E646C65723A20626164202D
:105300006D6573736167650000F10103810704D067
:1053100010F8011B820781B1FAD10268A2F10131B4
:10532000914311F0803104BF50F8042FF6E709BA19
:10533000B1FA81F100EBD100401CC01A70470000A7
:10534000C9B2830706D0521E22D310F8013B9942FE
:10535000F7D11FE0083A13D302F1040241EA012118
:1053600041EA014150F8043B121F21BF4B40A3F119
:10537000013C2CEA030C1CF0803FF3D0C9B2001FA3
:105380000832521E24BF10F8013B91EA030FF8D8EF
:1053900018BF0120401E704710B5144600F002F8F7
:1053A000226010BDC1F30A5343B14A0012F5001F39
:1053B00028D2A3F2FE32A1EB0251704750EA410C11
:1053C00020D001F0004C31EA0C01B1FA81F204BFA7
:1053D000B0FA80F3D2180B3AB2F120032CBF00FAD6
:1053E00003F1914041EA0C013EBFC2F1200C20FACA
:1053F0000CF319439040524240F2FD33D21A01EBB4
:10540000035170470022704741EA030C50EA4C0CEC
:1054100052EA0C0C4FF4001C09D307D01CEB410FCF
:105420009CBF1CEB430F8B4208BF824270471CEBB2
:10543000430FFBD8994208BF9042704741EA030CE2
:1054400050EA4C0C52EA0C0C4FF4001C09D307D064
:105450001CEB410F9CBF1CEB430F994208BF9042CD
:1054600070471CEB410FFBD88B4208BF824270474C
:10547000124254D440F2FF7C1CEA11530FD0634512
:1054800031D09B1863453CBF01EB0251704701F0DE
:10549000004141EA0C510020AFF30080704750EA10
:1054A000410320D001F0004C91EA0C011CD0B1FA6C
:1054B00081F30B3B9A420DD9D21A994051EA0C0163
:1054C000C3F1200C20FA0CFC61449840531C40F2BC
:1054D000FF7CD7E7914041EA0C01C2F1200C20FA91
:1054E0000CF3194390407047B0FA80F31533202B2A
:1054F000E0D3202AEED3203A203B9A4209D9D21A8F
:1055000000FA03F141EA0C010020531C40F2FF7C39
:10551000B8E700FA02F141EA0C010020704752425C
:1055200040F2FF7C1CEA11530DD06345DBD0B2EB97
:10553000030C3CBFA1EB025170470CF1010221EAC0
:10554000035141F4801150EA410CCCD001F0004CE1
:10555000352A27DC30B481EA0C01B2F1200309DAE4
:10556000C2F12003044601FA03F5D0402843D1409C
:105570009C400CE0C3F12002450020FA03F418BF60
:1055800044F0010421FA03F091400C43002174F12E
:10559000004550F1000051EB0C01244230BC7FF477
:1055A0007BAF70476146002076E70000C1F30A53E5
:1055B00040F21E42D31A0CDDCA0283F3070342EA0B
:1055C000505242F00042DA4002EBE17282EAE170AE
:1055D00070476FEAE17203F2E13008B182F00040F7
:1055E0007047000010F0004160B148BF4042B0FA7F
:1055F00080F29040D21CC2F5846241EA025202EB72
:10560000D021400570470000841A71EB030604D2D4
:105610006E40001BB141121973414FF4001C1CEB8A
:10562000410F34BF7CEB430683E00C0DA4EB135613
:10563000362E00F37C80012E45EAC32341DC43EA89
:10564000525312BFD20292025B08240545EAC121DF
:1056500041EA5051D2EBC020994125D407D1B0FA8C
:1056600080F610FA06F162D00020203608E0B1FA88
:1056700081F6B140C6F1200220FA02F21143B04097
:105680004FEAF474B4EB465434F001064FEA740464
:105690000AD8D6F50016760D04F00044F04061FA01
:1056A00006F25040F1404840C00A40EA415021F023
:1056B000004128BF5FEA500550F1000044EBD121C2
:1056C00035E0DB0A45EAC121C90AB6F120050EDD45
:1056D00042EA0242120CC5F1200603FA06F6EB403C
:1056E00042EA06056D42984161F100010DE062FA5F
:1056F00006F5F240554063FA06FC82EA0C02F340DC
:105700005A406D42904161EB030111F4801F05D1B5
:10571000641E620502D06D004041494121F48011B0
:10572000430875F1004350F1000041EB045170BC97
:1057300070471CEB410F15D223F0004352EA430699
:105740000BD04FEA4C0CBCEB410F04D80C0D661E7D
:10575000342EB7DDEBE7801A994150EA410608BFC5
:105760000021E4E708BF1CEB430F28BF6FF00001E6
:10577000DDE7000070B491EA030F4FF000457FF5BC
:1057800043AF6B40841A71EB030603D2001BB14197
:10579000121973414FF4001C1CEB410F34BF7CEB1A
:1057A000430442E00C0DA4EB1356352E4FDC45EAC2
:1057B000C323DB0A45EAC121C912B6F120050DDD7C
:1057C00063FA05F6EB4086EA0305124218BF45F07E
:1057D0000105C01851F100010CD213E062FA06F580
:1057E000F2405540F3415A40B340F3405A408018CC
:1057F000594107D349085FEA30005FEA350528BF01
:1058000045F0010501F58011420875F1004250F1A3
:10581000000041EB04514E0016F5001F70BC38BF6C
:1058200070470020090D090570471CEB410F10D28D
:1058300052EA43060BD0BCEB410F05D80C0DAB432D
:10584000661E342EB6DD02E0AB438018594170BCB1
:10585000704770BC70470000F0B540F2FF7581EAF8
:10586000030C0CF0004C15EA11541DBF15EA135738
:10587000AC42AF42E5E0BC41C1F31301C3F31303F3
:10588000801A994143F4801304D2641E00184941E0
:1058900080185941C90241EA5051B1FBF3F603FBAC
:1058A0001611A2FB0675D7EBC020A94102D2761EC5
:1058B00080185941C90241EA5051B1FBF3FE03FB84
:1058C0001E11A2FB0E75D7EBC020A94103D2AEF189
:1058D000010E80185941890241EA9051760546EA45
:1058E0008E2EB1FBF3F603FB1611A2FB0675D7EB68
:1058F0008020A94102D2761E80185941C90241EA8E
:1059000050514EEA060EB1FBF3F603FB1611A2FB53
:105910000675D7EBC020A94102D2761E80185941E6
:10592000C90241EA5051B1FBF3F703FB1711A2FB87
:105930000735D3EBC020A94167F100070CBF004237
:1059400047F0010766F3D5274FEA1E31B80814F572
:10595000806412DDBD0775F1004250EB0E5051EB33
:10596000045111F5801F5CBF41EA0C01F0BD4CF001
:105970007F6141F0E0410020F0BDBD076D0840EAC5
:105980000E5041F48011D4F10104B4F120060ADA7A
:10599000C4F120060200E04001FA06F3E14018439A
:1059A000B24015430EE0342C13DCC6F1200445EA66
:1059B00040056D0820FA06F2154321FA06F0A140D1
:1059C0000D43002175F1004250F1000051EB0C0134
:1059D000F0BD00205FEA0C01F0BDCFB992185B4129
:1059E000B3FA83F704BFB2FA82F6BF190B3FB7F1DF
:1059F00020062FBF02FA06F3BB40C7F1200622FAA9
:105A000006F638BF3343BA401CB1E419641E33E7CD
:105A10007F4231F00041B1FA81F404BFB0FA80F660
:105A2000A4190B3CB4F120062FBF00FA06F1A140E7
:105A3000C4F1200620FA06F638BF3143A0403C1BD3
:105A40001AE7AC421ABF05EA1357AF4212E050EA18
:105A500041061CBF52EA4306BFE750EA4107304601
:105A600061461CBF41EA0551F0BD52EA430C08BF34
:105A7000C143F0BD00204FF4001616EB410F98BF54
:105A800016EB430F08BF16EB410F24BFC14305E0DF
:105A900016EB430F0CBF61464CEA0551F0BD000008
:105AA000400D40F21E4C40EAC120BCEB115C40F0BE
:105AB000004003D48CF30701C84070476FEAE170DF
:105AC0007047000050B1B0FA80F18840C91CC1F5A0
:105AD0008461090501EBD0214005704701467047FC
