:020000040800F2
:10000000882E0020E994000811930008139300083B
:1000100015930008179300081993000800000000CA
:100020000000000000000000000000001B9300081A
:100030001D930008000000001F9300082193000892
:100040003195000835950008399500083D95000860
:100050004195000845950008499500084D95000810
:100060005195000855950008599500085D950008C0
:100070006195000865950008699500086D95000870
:100080007195000875950008799500087D95000820
:100090008195000885950008899500088D950008D0
:1000A00091950008239300089595000899950008FC
:1000B0009D950008A1950008A5950008A995000840
:1000C000AD95000829930008B1950008B595000882
:1000D000B99500082F930008BD950008C195000848
:1000E000C5950008C9950008CD950008D195000870
:1000F000D5950008D9950008DD950008E195000820
:10010000E5950008E9950008ED950008F1950008CF
:10011000F5950008F9950008FD950008019600087E
:1001200005960008099600080D960008119600082B
:1001300038B500F06BF900F01DF84900224641F097
:10014000010101F042FF040005D0224603A10FF295
:10015000881003F003F9204632BD00006D78745F0B
:10016000626F6F746C6F616465725F726561645F0A
:10017000693263004FF47A7100912B46DFF8F40A7C
:1001800090F83510DFF8000C704700002DE9FC41B5
:100190000D460646AF1C9046B8B203F0F3F80400D3
:1001A00008BFFF2021D000F033F926702A46360A16
:1001B00066704146A01C03F083F94FF47A710091F8
:1001C000BBB2DFF8B00A90F83410DFF8BC0B22465F
:1001D000490001F04CFE050003D02A4604A100F0BE
:1001E0000FF8204603F078F92846BDE8F6810000B4
:1001F00077726974655F6D656D5F693263000000D9
:1002000001A003F0ABB800002573206932632077AA
:1002100072697465204572726F72212125640D0A1E
:100220000000000070B50D46412D044616460CD363
:1002300032464021A0B2FFF7A9FF01000BD1403D9B
:1002400040364034A8B24128F2D23246A0B2BDE8CE
:10025000704040219AE770BD2DE9FC4106460C46EE
:10026000154600F0D5F86421DFF8088ADFF8187B1E
:1002700000918DF80460360A98F834108DF8056006
:10028000022301AA4900384601F0F1FD0EA618B17B
:1002900002463146FFF7B4FF4FF47A7098F83410F5
:1002A0000090490023462A4641F00101384601F0FA
:1002B0008CFE040005D022464FEA060106A003F09A
:1002C0004DF82046BDE8F681726561645F6D656D2D
:1002D0005F69326300000000257320693263207279
:1002E00065616464204572726F72212125640D0A74
:1002F00000000000B0E7F8B504460D46164600F0D1
:100300000DFA08B9FF20F2BDB0F8010028183246F6
:10031000012180B2FFF7EEFF070005D03378DFF848
:10032000740B2A4621462BE00020F2BDF4B50446AA
:100330000F4600F0F3F970B1C37801795B1C491CDA
:100340003E4659438E42DFF8505B06DB324621467B
:10035000284603F003F8FF20F2BDB0F801003F1873
:100360006A460121B8B2FFF75DFF070006D09DF88D
:1003700000303246214605F1380001E00020F2BD90
:1003800002F0ECFF3846F2BD41EA022181EA400169
:10039000C80144BF81F4000181F01B0121F07F40BE
:1003A00070470000F8B500F033F80027DFF8D8599F
:1003B000DFF89C6B0324F15D642301224900284689
:1003C00002F026F810B1641EF5D10AE0DFF8A408A7
:1003D000F15D80F83410490004A002F0BFFF002056
:1003E000F2BD7F1C0C2FE5D30120F2BD466F756E68
:1003F00064206932632061646472657373203D20F8
:100400003078253032580D0A0000000004460D46B1
:10041000002003F067B800001CB503216846FFF711
:1004200087FE040005D000BF10A002F097FF204611
:1004300016BD9DF8004004F0C000402804BF0FF234
:100440004C0002F08BFFA10616A007D59DF8011005
:1004500002F084FF9DF8021018A003E09DF8001040
:1004600001F01F0102F07AFF002016BD426F6F7489
:100470006C6F61646572207265616420737461746D
:100480007573206661696C65640D0A004150505FA8
:100490004352435F4641494C206F636375727265F6
:1004A000640D0A00426F6F746C6F6164657220495D
:1004B00044203D20253032780D0A0000426F6F74D1
:1004C0006C6F616465722056657273696F6E203D52
:1004D00020253032780D0A002DE9FC4EDFF89467B4
:1004E000B76800258A460024A946834616E0EAB28A
:1004F00006214A43B91800F038F89DF80000584525
:100500000BD19DF804100124514506D39DF803102A
:10051000BDF80190491C0AFB01996D1CB079E9B244
:10052000814201D2002CE2D01FFA89F0BDE8F68E9C
:100530002DE9FE4600F038F80BE000F012F89DF8C7
:100540000000504504D19DF803704FF001097F1C55
:100550006D1CA079E9B2814202D25FEA0900ECD0B9
:100560001FE0EAB206214A43B1186846062202F0AB
:10057000A7BF2DE9FE4600F017F80BE0FFF7F1FFEB
:100580009DF80000504504D19DF804704FF001091A
:100590007F1C6D1CA079E9B2814202D25FEA09009A
:1005A000ECD0F8B2BDE8FE86DFF8C846A6680025A4
:1005B000A9460027824670472DE9F041DFF8B4468E
:1005C00010A104F13605804695F8006014A0720071
:1005D00002F0C4FE0027383400E07F1CB8B2B0EB54
:1005E000460F0BDA22686978A088FFF783FE0100C6
:1005F00005D123681A784245EFD100E0FF20BDE81D
:10060000F08100006D78745F726561645F6D657381
:10061000736167655F7265706F7274696400000072
:100620002573203A206661696C5F636F756E742074
:100630003D2025640D0A0000F0B5DFF83836DE688D
:10064000012401E0641CE4B293F83650A5420BDBB0
:1006500016F81470874202BF06EB44056F78974284
:10066000F0D10C700020F0BDFF20F0BD70B5DFF8B8
:100670000446E368FF26067094F836508D4208D38E
:1006800013F81160067003EB4101487810700020E8
:1006900070BDFF2070BD2DE9FC41552104468DF849
:1006A0000110FF20FFF788FFDFF8C85500F07DFC40
:1006B000E88FDFF8947900F02AF8804601200026C0
:1006C000B870012002F044FF0A2002F0D1FF761C2E
:1006D00030B99DF80000FFF76FFF5FEA000808D00F
:1006E000B978012910D1B1B240F6B8308142E8DBC7
:1006F0000AE0AA6B9078D178127940EA012040EAAA
:1007000002402060002000E04046BDE8F681401C29
:100710000DF10102012180B284E5000070B50146AF
:10072000DFF850058668002300E05B1C8279934265
:100730000BDA06245C43344425788D42F5D100BFA2
:1007400005A002F00BFE204670BD00BF08A002F01D
:1007500005FE002070BD000056616C6964206F6268
:100760006A6563742074797065205425750A0000E9
:10077000496E76616C6964206F626A656374207487
:10078000797065205425750A000000002DE9FE4FA0
:1007900000208DF800000021DFF8D86406F1100079
:1007A00000F008FCF16A886810B90FF2B4103EE05E
:1007B000317CB078814209D00FF2BC1002F0CEFD3E
:1007C000B278317C0FF2D01002F0C8FD717CF07865
:1007D000DFF844AB814208D00FF2DC1002F0BEFD1E
:1007E000F278717C504602F0B9FD306A10B90FF210
:1007F000E4101CE00024346400220192029201A85B
:10080000FFF749FF40B902A8FFF745FF002802BFE4
:1008100002990198814204D0641CE1B20A29EBDB01
:1008200000E03064E4B20A2C04D10FF2C81002F0E8
:1008300095FD78E0316C0FF2DC1002F08FFD316A2B
:100840000FF2EC1002F08AFD306C316A884205D15B
:1008500020B10AF1240002F081FD7DE00FF2F010DA
:10086000DFF8B85A02F07AFD4FF0000904E039468B
:100870000FF2EC1002F072FDB26991456CD209F1F1
:100880000301914204D30AF1500002F067FD4AE0EF
:1008900000F0DCFB306E4FF480622946484403F0E0
:1008A00035F9AB786A782978994409F103001FFA81
:1008B00080F90AF1840002F051FDB2692F784A45AF
:1008C00006D23B4649460AF1C80002F047FD2AE03D
:1008D00069783846FFF700FE04463846FFF728FEE1
:1008E00080463846FFF745FE002C8346BFD0A878E7
:1008F000804506DA4FEA070161A002F02FFD85F876
:1009000002806878584503D329780AF58470B1E7E6
:10091000A978EA1C2046FFF785FC30B10FF2801160
:1009200064A002F01BFD012017E0A9784145A3DA7D
:100930002A78A8EB01010AF5967002F00FFDAF7856
:100940007F1CF8B2404597DA00196A46FFF7E2FECD
:100950000028F5D00B2000E00020BDE8FE8F00004D
:100960004E6F20636667206461746120696E206643
:10097000696C650D0A0000005761726E696E673A16
:100980002076657273696F6E206D69736D61746333
:1009900068210D0A0000000066772066696C6520FA
:1009A0007665725B25645D2C2044657620766572E1
:1009B0005B25645D0D0A00005761726E696E673ACF
:1009C000204275696C64206D69736D617463682180
:1009D0000D0A0000436F6E66696775726174696F16
:1009E0006E2066696C6520636F72727570746564E1
:1009F0000A000000436F6E66696775726174696F03
:100A00006E206372632072656164206661696C6543
:100A1000640D0A005265616420636F6E6669672029
:100A2000435243203D203078253036580D0A0000CF
:100A300054617267657420636F6E66696720435204
:100A400043203D203078253036580D0A0000000044
:100A5000436F6E666967207570646174650D0A0086
:100A600054256420697320496E76616C6964206F37
:100A7000626A65637420747970650D0A0000000075
:100A8000542564204F626A656374206C656E6774D8
:100A900068206578636565646564210D0A0000005F
:100AA00077726974655F636F6E666967757261748A
:100AB000696F6E005772697465206D656D2066619F
:100AC000696C65642025730A00000000F0B585B0EC
:100AD00044788578C1780079664E45EA012545EA73
:100AE000004596F8480084422CD0A8A260074CBF6D
:100AF0000FF29400104621074CBF0FF298011146E7
:100B0000E3064CBF0FF294071746A3064CBF0FF243
:100B1000940C944663064CBF0FF2900E9646230643
:100B20004CBF0FF29003134604B999A204900391AD
:100B3000CDF804C0CDF800E002972146DFF8800C24
:100B400002F00CFCDFF800753CB929461BA002F04E
:100B500005FC00223A70BA707A70200710D500BFE9
:100B60001DA002F0FBFB387860B9294620A002F0F6
:100B7000F5FB316A26A002F0F1FB0120387001E09C
:100B800086F8484005B0F0BD20434F4D53455252C2
:100B90000000000020434647455252002043414C8C
:100BA000000000002053494745525200204F464C58
:100BB00000000000205245534554000054362043A5
:100BC0006F6E66696720436865636B73756D3A2065
:100BD0003078253036580A00434647455252206F38
:100BE0006363757272656420212121200A00000070
:100BF00044657669636520636F6E6669672043525A
:100C000043203D20203078253036580A000000006F
:100C1000436F6E6669672066696C652043524320A6
:100C20003D20203078253036580A000080B5092054
:100C3000FFF774FD08B9FF2002BDB0F801001230C3
:100C40006A46042180B2FFF755FB010010D19DF8E0
:100C500000209DF80110DFF8440C02EB0122028015
:100C60009DF803109DF8022002EB01224280002033
:100C700002BD0000101700202DE9F04F0346DFF8F9
:100C80001C4C20888BB019785A7840F2FF3500B997
:100C90002580608800B9658018799D78060946EA44
:100CA000051BDD78268800F00F0040EA0510B6F538
:100CB000806FB8BF4FEA9B0B6488B4F5806FB8BFF4
:100CC00080085C799D79DE79D3074CBF55272E27A4
:100CD00093074CBF4FF0530C4FF02E0C53074CBFF3
:100CE0004FF0410E4FF02E0E13074CBF4FF0560839
:100CF0004FF02E08D3064CBF4FF04D094FF02E0990
:100D000093064CBF4FF0520A4FF02E0A53064CBFC9
:100D100050232E2312064CBF44222E220790CDF8DA
:100D200010C0CDF80CE00A9609950894CDF818B0DB
:100D30000597CDF80880CDF80490CDF800A0DFF835
:100D4000600B02F00BFB0BB0BDE8F08F38B5DFF89D
:100D5000544B04F15A052A4609216420FFF7CBFAC7
:100D6000010010D104F15B0214216420FFF7C3FAE3
:100D7000010008D16B782A780FF65431DFF8280B80
:100D800002F0ECFA002032BD7817002000000000CD
:100D9000204F4B002DE9FF47DFF8105B0278697F99
:100DA000521AD2B24FF00008012AC146C2466EDD87
:100DB000C4788378067903EB0423447906EB042E88
:100DC000911E42781406C9B25AD52C7E95F800C0FF
:100DD00006260AE0A70606D504F0DF0403E0E706CE
:100DE000F8D504F0EF04761CF6B2664517DAE7078B
:100DF00048BF04F0FE04F6D4A70748BF04F0FD0482
:100E0000F1D4670748BF04F0FB04ECD42707E6D50C
:100E1000771C6745B8BF3E4604F0F704E3E7C2F32A
:100E20000214621E052A24D8DFE802F0031D230302
:100E30000331AA7E0AB110F802806A7E0AB110F866
:100E40000290EA7E0AB110F802A0CDF800E0CDF8D9
:100E50000CA0CDF80890CDF804802246DFF8500AA7
:100E600002F07CFA13E06A7E002AEED010F80290BD
:100E7000EBE704B0BDE8F0470FF66C2002F06EBA65
:100E800004B0BDE8F0470FF6782002F067BABDE87D
:100E9000FF87000094930008789000082DE9F8433C
:100EA000DFF8104ADFF8FC59207884B001280FF6EB
:100EB000842901AE49D095F83710A88F01AAFFF711
:100EC00019FA78B99DF804100DF101026846FFF790
:100ED000CDFB80469DF800100FF64C2002F03EFA44
:100EE00000270AE00FF6282002F038FA2DE0F8B2C9
:100EF0007F1C315C484602F031FA95F83700F9B2B0
:100F00008142F4D34FA002F029FAB8F1000F17D1B3
:100F10009DF80000062808D009280AD064280CD0C3
:100F2000762804BF707860700AE001A8FFF7CEFD54
:100F300006E001A8FFF7A0FE02E001A8FFF72AFFE4
:100F40000A2002F095FB0028B5D005B0BDE8F0837B
:100F5000140200207CB555203B4C8DF80100012186
:100F6000A170FF20FFF728FB00F01FF8DFF834091D
:100F7000C08FFFF7CCFB00260546012002F0E8FAFF
:100F80000A2002F075FB761C08B9FFF787FFA278EC
:100F9000012AB1B203D140F6B8308142EDDB0FF641
:100FA0009C1002F0DBF9284676BD00226946062037
:100FB000FFF742BB70B50E46DFF8605300F046F80D
:100FC0004FF480622946002002F0A0FDDFF8D448EB
:100FD000002020826061A061E06120626062A06206
:100FE0002968CC48814207D00FF6641002F0B6F9A8
:100FF0000420E061A66223E00FF6701002F0AEF963
:10100000287D2074697D617468686061A868A0614A
:101010000028E968E1612A69DFF89C58226219BF5B
:1010200016202066284602F099F9E06920B1216E69
:10103000A0694118E16503E005F1300002F08EF986
:10104000002070BD0A0000007C1900204FF4806170
:10105000284602F055BE2DE9F24F0446A6B02246BE
:101060000FF624110FF6301002F078F92520FFF763
:1010700055FB050000F0C780B5F80100DFF83C988B
:10108000DFF82068ADF802004846E978491CC9B28B
:1010900004910A46BDF8021002F060F906F15A0BFD
:1010A000112C18BF102C05D19BF800109BF80100E3
:1010B000414307E0F72C1CBFF82CF52C03D1317904
:1010C00070794118029102990FF6EC00DFF84CA2FA
:1010D00002F044F9E878411EC9B201914FF00008CE
:1010E000029801EB40010198491E91FBF0F080B29B
:1010F00003900246019909F1300002F02FF902989D
:101100004700BFB239460FF6C40002F027F939464E
:10111000824802F0F5FD2EE03A4600F005F926E09F
:10112000049881B2BDF8020005AAFFF795F80028DF
:1011300069D19DF814100FF6B80002F00FF99DF870
:1011400015100FF6C40002F009F99DF81410A14221
:101150005BD19DF8151041455AD10198B842DBDAB0
:10116000024600F0E1F801997F1A8A44BFB208F103
:1011700001001FFA80F8039880454CDA822105A807
:1011800002F0BEFDBDF8020005AA0221FFF764F8D7
:10119000002838D19DF81400A04205D0B8F1000F06
:1011A00008BF8DF8004002D001218DF800109DF895
:1011B00000100FF62C0002F0D1F89DF80020052158
:1011C0000620FFF7B3F8F0B90025F08F401D6A46FE
:1011D000012180B2FFF740F8A8B99DF8000000286F
:1011E0009ED0012002F0B4F96D1CA8B240F2F511B6
:1011F000884204DA9DF800000028E6D190E709F162
:10120000580002F0ABF8FF2081E009F18800F8E710
:1012100009F1AC00F5E7DFF8048145460FF200194B
:10122000112C18BF102C1ED100260FF2F80A02E074
:1012300000F07FF8761C9BF80010F0B2884255D27F
:1012400000279BF80100F9B28142F1D229786A782F
:10125000AD1C41EA0221102C08BF09B2504602F031
:101260007DF87F1CEDE7F72C1CBFF82CF52C3DD149
:1012700000F05FF80FF2A8700FF2B47A02F06EF887
:10128000002710E02978687841EA00219BF80100E6
:10129000AD1CFAB2824205D2F72C08BF09B2504603
:1012A00002F05CF87F1C7079F9B28142EAD300F059
:1012B00040F80FF2847002F051F8002710E09BF81C
:1012C000000029786B78AD1CFAB2824241EA032112
:1012D00005D2F72C08BF09B2504602F03FF87F1C38
:1012E0003079F9B28142EAD300F023F89DF89840B2
:1012F000302205210620FFF719F8064634B1029A7C
:10130000434652000021012000F06AFA304627B01F
:10131000BDE8F08F1A2B3C4DF08D0008B00E002078
:101320000A000000256420000DF11601504602F06D
:10133000C7B8484602F012B82DE9F84F84B0DFF87C
:101340006455FFF72FF805F1340600B30FF208706B
:1013500002F004F80B24B8F1000F02D0404602F06E
:10136000BBF8706808B102F0B7F8E86808B102F09D
:10137000B3F822460FF2D0610FF6641001F0EEFFD1
:1013800076A001F0EBFF204605B0BDE8F08F307885
:10139000DFF82CA52438122805D2504601F0DEFFD4
:1013A000FFF73AF8D6E76A4601210620FEF7A2FFCA
:1013B00010B99DF8000010B90AF12400C8E706270B
:1013C0004743FF1D39460FF2AC6001F0C7FF3846B6
:1013D00001F0D8FF5FEA000805D10AF1480001F0EA
:1013E000BDFF0B24BDE7424607210020FEF782FF28
:1013F00028B10FF2986001F0B1FF0B24AEE707248B
:1014000001E0A41DA4B2BC420ADA08EB04020621E2
:101410002046FEF76FFF0028F3D00FF28C60EAE75A
:1014200001AA03213846FEF765FF10B10AF17000EA
:10143000E1E701AC9DF804006278A17840EA02205F
:1014400040EA014030610020834609E008F10102D2
:1014500012F80B20FEF798FF0BF102011FFA81FB37
:101460007A1E18F80B109345F0DB0022FEF78CFF74
:1014700020F07F4731693A460AF1A00001F06EFF83
:10148000306908B1B84202D00AF1D800B3E798F841
:101490000010297098F801206A7098F80200A8706E
:1014A00098F80320EA7098F80400287198F805204D
:1014B0006A7198F80600A8710FF2086001F04EFFFB
:1014C00069780FF2186001F049FFA9780FF22460E3
:1014D00001F00F02090901F041FFE9780FF22860DD
:1014E00001F03CFF29790FF2346001F037FF697990
:1014F0000FF2406001F032FFA9790FF2506001F065
:101500002DFF16A001F02AFFA97911B90AF1FC00FC
:1015100071E706220AF5907001F020FFA9790620F4
:1015200041430AF5B47001F019FFA8790621484338
:1015300001F028FFA86010B90AF5D6705BE700201B
:10154000B070F0778DF802900021072003A285F893
:1015500054108B460392814669E000BF0D0A0000DB
:101560001FFA89F008EB0001062201A801F0A8FF8C
:101570000627A8689DF8041007FB0BF709F1060978
:10158000C155A8686178A378421C01EB0321D153AF
:10159000C31CE178D955AA682079111DC855AA68DD
:1015A0006079511DC855A868C15D0FF2B85001F0AF
:1015B000D5FEA968481CC15B0FF2BC5001F0CEFEFD
:1015C000A868C11C0FF2C450C95D01F0C7FEA8682D
:1015D000011D0FF2D050C95D01F0C0FEA868411D89
:1015E0000FF2DC50C95D01F0B9FE039801F0B6FEC0
:1015F000A968481DC05D60B1B278531C8DF80230F7
:101600000B1DDB5D5B1C03FB0020B070B0788DF818
:101610000100C95D642906D19DF802009DF8011002
:1016200085F85400F1770BF101001FFA80FBA879CF
:10163000834595DBB1780FF2A050A24C01F08EFEED
:1016400000210620FEF748FF708100210520FEF7EB
:1016500043FF30810520FEF76BFF401EF070002134
:101660007520FEF739FF608000217620FEF734FFF9
:10167000A08071890FF2785001F070FEF278318904
:101680000AF5EA7001F06AFE61880FF27C5001F001
:1016900065FEA1880FF2885001F060FE287880284E
:1016A00005D1A878202802DAF078401CF070F07894
:1016B00001F068FE706010B90FF27C509BE6F17883
:1016C0000FF2905001F04AFEB0784000401C01F04B
:1016D00059FEE86040B90FF29C5001F03FFEE86807
:1016E00001F0FAFE0C204FE6002141700020E9686D
:1016F000087001210023062201E05B1C9BB2A8793F
:10170000834228DAA86802FB03FC441D14F80C008D
:101710000028F2D0002015E0EF687F1C07F81100C8
:10172000AF68D5F80CE017F80C700EF81170491C72
:1017300089B2AF6807F1050E1EF80C703F19B94267
:10174000EADB401CAF683F1D17F80C40C7B2BC4233
:10175000D3D30C46EDE7FFF719F818B10FF230506C
:1017600001F0FCFDFFF7F6FB38B10FF2DC210FF2C0
:10177000405001F0F3FD0B2006E600210920FEF7A2
:10178000ABFE50B1FFF752FA98B10AF5027001F0C2
:10179000E5FD0020F08230830BE000216420FEF79D
:1017A0009BFE30B1FFF7D2FA18B10FF2185001F0DA
:1017B000D5FD0AF50B7001F0D1FD0024CEE5000047
:1017C0000494000880B5FFF7B7FD40B9002111204F
:1017D000FFF741FCBDE80440002110203BE401BDBF
:1017E00038B51C4610B1012810D031BD364A1078EA
:1017F0002070002052786270A0700B22E27020717D
:101800000225657106232246022002E093B2224699
:10181000A22001B0BDE8304002F0B9BA38B50446A4
:101820000FF2D440A579294601F098FD27490B68AD
:10183000A17800220020FFF7D3FF022D03D1012160
:101840001120FFF708FCBDE832400FF2CC4001F058
:1018500085BD1CB504460521684602F051FAFFF724
:101860006BFD58B90F48017842788DF800108DF85B
:1018700001208178C0788DF8021006E0FF208DF8F5
:1018800000008DF801008DF802008DF8030004239C
:10189000A17860786A4602F07AFA13BD5A170020E0
:1018A0008C91000810170020D491000847170020E1
:1018B0000C92000881190020DC900008408F00087D
:1018C0009C8B0008641700206A170020000200208B
:1018D0006D78745F726561645F743130305F636F1F
:1018E0006E66696700000000556E65787065637408
:1018F000656420543130302074797065200A00000E
:101900005B25755D2072656C6561736520200A003A
:101910005435206D6573736167652072656164205D
:101920006661696C200A0000542564202020202074
:101930000000000030782530327820006261636B4F
:1019400075705F646C79203D202564200A000000DA
:101950004669726D776172652066696C652074797D
:101960007065206973202E656E630A004669726D8A
:10197000776172652066696C65207479706520698D
:1019800073202E66770A00006765745F5433375FF3
:1019900064617461000000001B5B33326D257320AD
:1019A0003A206D6F6465203D203078253032582014
:1019B0000D0A1B5B306D0000646174615F76616CC1
:1019C000756573203D202564200D0A006E6F6465E7
:1019D000636F756E74203D202564200D0A000000A1
:1019E0006462675F636D64203D202564200D0A00FA
:1019F0007433375F6275662E6D6F6465203D2025F8
:101A000064200D0A000000007433375F6275662E93
:101A100070616765203D202564200D0A00000000EC
:101A200053656C662D6361702059203A200A0000CE
:101A300025642C200000000053656C662D636170E6
:101A40002058203A200A00006D78745F647269762D
:101A500065725F696E697400493243206164647223
:101A600065737320636865636B206661696C656488
:101A70000A000000696E666F5F626C6F636B5F7374
:101A8000697A65203D2025640D0A00006465766949
:101A9000636520696E666F207265616420666169A6
:101AA0006C640D0A000000006F626A656374207444
:101AB00061626C652072656164206661696C640DA9
:101AC0000A00000046616C696C79204944203D2081
:101AD0003078253032580D0A0000000056617269D6
:101AE000616E74204944203D203078253032580DF5
:101AF0000A00000056657273696F6E203D202564F0
:101B00002E25640D0A0000004275696C64203D209A
:101B10003078253032580D0A000000004D61747293
:101B2000697820582053697A65203D2025640D0A84
:101B3000000000004D617472697820592053697A61
:101B400065203D2025640D0A000000004E756D20C3
:101B50006F66204F626A65637473203D2025640DB3
:101B60000A0000006F626A6563745F7479706520B3
:101B70003D2025640D0A00006932635F6164647270
:101B8000657373203D2025640D0A000073697A6532
:101B90005F6D696E75735F6F6E65203D2025640D06
:101BA0000A000000696E7374616E6365735F6D692E
:101BB0006E75735F6F6E65203D2025640D0A000011
:101BC0006E756D5F7265706F72745F696473203DCE
:101BD0002025640D0A0000006D61785F7265706FEA
:101BE00072745F6964203D2025640D0A00000000C6
:101BF0006D78742E54365F61646472657373203D32
:101C00002025580D0A0000006D78742E54313137AC
:101C10005F61646472657373203D2025580D0A006E
:101C20006D78742E543131385F61646472657373FA
:101C3000203D2025580D0A006D7367206D656D20CD
:101C4000616C6C6F636174696F6E206661696C654D
:101C5000640D0A006D78742E6D61785F6D65737325
:101C60006167655F6C656E677468203D2025640D53
:101C70000A000000726964206D656D20616C6C6FF4
:101C8000636174696F6E206661696C65640A000047
:101C9000436F6E66696775726169746F6E207772E3
:101CA0006974696E67206661696C65640A0000008A
:101CB0004261636B7570204661696C656420202504
:101CC000730A00004661696C656420746F20726558
:101CD0006164205431303020636F6E6669670A009A
:101CE0002573203A2066696E6973687E7E7E7E2841
:101CF0002564290D0A000000746F7563685F696EC2
:101D00007370656374696F6E20747970655B307889
:101D100025785D0D0A000000746F75636820746596
:101D2000737420656E640D0A00000000F8B50400AD
:101D300022D004F13C05697821B9002028702046A2
:101D400002F029F924216970DFF87C7500F054FB5A
:101D50002068016841F4004101602168086820F4AE
:101D60000040086002F03EFC6268BA42014605D2BB
:101D7000DFF85805814205D20120F2BDDFF8500599
:101D80008142F9D32368DFF84C255868B1FBF2F2A1
:101D9000800942EA8010586023681E6A6068B84271
:101DA00006D34FF4967042434FF47A70B2FBF0F2D0
:101DB000521CB60942EA86121A62491E2268D36989
:101DC0006668BE4206D2760000F044F8042913D2B9
:101DD000042111E0A06820B906EB460600F03AF8AD
:101DE00005E01920464300F035F841F4804108052C
:101DF0000CBF012141F40041DFF8DC0403400B4338
:101E0000D36123681A68E069216A22F0C0020243A4
:101E10000A431A602368DFF8C4049A682169024003
:101E2000E0680A4302439A602268D368A069616946
:101E30001B0A40EA03230B43D36020212068026879
:101E400042F0010202600020686069702063002196
:101E5000A970F2BDB1FBF6F1491CC1F30B0170474B
:101E6000006841690A0644BF0021016170472DE9FD
:101E7000F84304460F469046994602F005FC00F0F0
:101E8000E1F902D100F07EFA002840F08A80307833
:101E9000012800F086800122327000F054FB2120DE
:101EA00070701021B17000207060C4F82480A4F814
:101EB0002A9000F0EDF9E06A08281CBF012888424A
:101EC00005D0206B122804D100F07EFA01E000F06A
:101ED0004BFB00950022DDF8208043464FF00111B6
:101EE00000F055FA38B122681068C1054FD54FF49B
:101EF000007070604BE02069B0F5804F04D121681C
:101F000007F0FE070F6111E0F809216800F00600F4
:101F100040F0F00008612B464246DFF8C41300F0A1
:101F2000ACF9002833D12068FFB207612B46424646
:101F3000DFF8B01300F0A1F9002828D100F03EF836
:101F40000099208D002824D02A464146204601F0E1
:101F500026F9B8B9626A20681178016100F024F8A6
:101F600021684B695A0706D580B220B1626A1078A1
:101F7000086100F019F82A464146204601F03EF972
:101F80000028DED07068042801D100F06DF901202E
:101F900008E000F0DEF9202171700020B070307090
:101FA00000E00220BDE8F283616A481C6062618D36
:101FB000481E6085218D481E20857047009020684E
:101FC000416900918269009270472DE9F84F0446FB
:101FD0000020009088461746994602F055FB00F015
:101FE00031F902D100F0CEF9002840F0228130789A
:101FF000012800F01E810122327000F04FF91022FA
:1020000000F055F97170B270002070606762A4F83A
:102010002A90608D2085DFF8D002E062E36A2168B3
:102020000A6842F480620A60082B18BF012B04D0B2
:1020300083421CBF206B112801D100F0C5F9009527
:1020400000220A9F3B464FF0011100F0A0F94FF427
:10205000007938B122681168C80548BFC6F80490F5
:102060000120E7E02069DFF87CB2B0F5804F07D1AE
:1020700048F001005FFA80F82068C0F810802FE077
:102080004FEAD810226800F0060A4AF0F001116108
:102090002B463A46DFF8481200F0EFF80028DFD16F
:1020A00020685FFA88F8C0F8108000F0E3F8002894
:1020B000D6D100F09AF9009A23681968184641F4BD
:1020C0008071016000953B4600224FF0011100F045
:1020D0005EF90028BED120684AF0F10AC0F810A0CD
:1020E00000F0C8F80028BBD1208D10B900F037F9F6
:1020F00028E0012802D100F051F90BE00228206805
:1021000001680BD141F40061016072B600F0B8F8CB
:1021100000F0F2F81046016062B613E041F480610D
:10212000016000F0ADF800990CE000F026F90028FD
:1021300096D100F093F8511C6162208D411E2185DB
:1021400000F0E3F8208D00286DD0042857D2012834
:10215000EBD00228DFF8401200953B4614D1002254
:1021600000F015F90028E3D172B600F07DF800F018
:1021700075F8208D511C6162411E218500F0C5F863
:1021800062B600F0DAFDD8E7002200F000F900287E
:1021900029D100F093F872B600F05AF8208D4A1C4D
:1021A000411E626221851922608D411EDFF81402F2
:1021B00061854FF47A710368B3FBF2F200F096F890
:1021C00000F008F920B1216848694107F8D50BE013
:1021D0002063202171700022B270706840F02000EE
:1021E000706062B632703BE722681168104600F0FA
:1021F00097F8616A208D4A1C411E6262BDE700F0BB
:10220000BCF80028EFD100F093F89BD580B20328EA
:1022100001D100F07EF800F01BF84A1C218D6262AB
:1022200000F00AF88EE720217170B0700021317043
:1022300000E00220BDE8F28F481E2085618D481E17
:102240006085704704F13C06054670782028704789
:1022500022681169606A0170616A704720680169CB
:10226000606A0170626A70472068016841F4007119
:10227000016070472B463A465946204600F03ABF67
:1022800000200090206841690091826900927047A7
:10229000608DDFF854102085E16270472068016886
:1022A000CA0703D4016841F0010101607047216849
:1022B000086820F4006008602221704721680868DF
:1022C00020F4806008607047A186010080841E00B1
:1022D00000093D0040420F000030FFFF007CFFFF7F
:1022E00008000100020001000000FFFFB2FBF1F155
:1022F0002320414300917047009B2268116821F41C
:1023000080617047616A4A1C6262608D411E61850E
:10231000704722681168104621F48061016070479F
:1023200041F40071016022681169606A01707047B0
:1023300020680169606A0170616A208D4A1C401E34
:1023400062622085638D5A1E628521684A69510741
:1023500070472168086840F400700860704700907A
:1023600021684869009089690091009B2268116882
:10237000104641F40071016070472A4639462046F4
:1023800000F05EBF009519230122DFF8D811204626
:1023900000F078BE00000000040001002068016821
:1023A00021F48061016072B60020009020684169CC
:1023B000009182690092009B2268116841F40071CB
:1023C00070470000100200202068016841F480710D
:1023D000016070470098401E009000987047206888
:1023E000016821F4806101607047009021684869AC
:1023F0000090896900917047216808684008400092
:10240000086070470020009021684869009070477C
:102410002DE9F84F04468B46924600F091F804F1FE
:102420003C05064668780027202808D1DFF834915B
:102430000096192301224946FFF7A9FF00287AD107
:102440002878012877D001222A7000F07CF8242017
:10245000687000216960DFF81C01E062FFF7B4FFDB
:102460000096434600224FF00111FFF790FF38B964
:1024700020680BF0FE01016102F006F9064612E049
:1024800020680268D10544BF4FF4007068600320E3
:1024900052E002F0F9F8801B804502D3B8F1000F3A
:1024A00001D1A02068702168486949696A784008AC
:1024B000890AA02A00F0010001F0010101D00843BF
:1024C000E7D02020687021684869810714D4236808
:1024D00018681A4640F4007010606FF4806120683C
:1024E00041610096192301224946FFF750FF00BBC6
:1024F0007F1C5745B2D319E020680168024641F4B9
:1025000000711160002000901923FFF758FD01228F
:10251000009900964946FFF73AFF010003D12020B9
:10252000687000222A70080006D002E0202169703D
:102530002870012000E00220BDE8F28F8946154690
:10254000984602F0A1B820680168CA0703D4016860
:1025500041F0010101602068016821F4006101601F
:1025600070470000020010002168086840F4807085
:10257000086070470000FFFF2DE9FC41044604F1AC
:102580003C052268DFF8286A5168E06A95F802C0C5
:102590006F780023BCF1100F18BFBCF1400F40F062
:1025A00072829369D2F814E05FEACE7805D4B0F570
:1025B0002A0F18BFB0F12A4F39D05FEACE7047D545
:1025C000880545D5E16AB1F52A0F08BF012004D07E
:1025D000E16AB1F12A4F01D10820E062A8784028D1
:1025E00009D168690028A8681ABF40F00100C0B28C
:1025F00000F0FE002AE02069B0F5804F18D168781D
:102600002128A8680EBF00F0FE0040F00100C0B213
:102610001061606B00281CBF806A002805D1A06B88
:1026200000281CBF806A002801D000F0ACFB35E315
:10263000686920B900F03BFB40F0F00006E06869F3
:10264000012804D100F033FB40F0F100106125E3D4
:102650005FEA0E7015D5880513D5A968C9B2116156
:10266000606B00281CBF806A002805D1A06B002881
:102670001CBF806A0028EAD02068416841F40061EC
:1026800035E15FEA8E7000D5880540F1AE80AF7805
:10269000E16A236B6878222840F0A48068690028EA
:1026A00008BF402F00F09E806869002804BF2069A1
:1026B000B0F5404F0FD1002100915369009391690B
:1026C0000091009B22681068114640F480700860F9
:1026D0006869401C84E0608D10B900F004FB2BE0B9
:1026E000608D01283AD1B14213D11168104621F40E
:1026F0008061016021684A68100505D50B461A689B
:1027000022F480620A6068E0002000904A6900922A
:102710000FE0082918BF202903D0122B0FD101295F
:1027200012D010460146026822F480620A60FFF768
:1027300069FE89690091009B00F0EEFA4FE00429E0
:102740001CBF0229102903D0106820F4806002E029
:10275000106840F48060114608603EE0608D0228F9
:1027600027D104291CBF022910290CD01346186850
:1027700040F4006000F0D7FA236818681A4620F485
:102780008060106005E01346186840F4806000F037
:10279000CAFA20684268130521D5B14218BF012941
:1027A00004D008291CBF1029202918D100F091FA63
:1027B00015E01346186840F4806010602068436894
:1027C0001A050AD5B14218BF012904D008291CBF37
:1027D0001029202901D100F07CFA00F0E0FA002055
:1027E00068615BE200F07FFA58E25B070EF00400DC
:1027F00061D553681B05F7D45FEA0E632CD54B05F2
:102800002AD5002828D16F78A978E36A208D00287E
:1028100008BF212F13D1082B1CBF202BB34204D09B
:1028200000F050FA0022AA7031E000F08EFA34D1A4
:102830000020A8702046BDE8F64101F02BBF212FF3
:1028400003D0402908BF222FCED1608D002852D05E
:10285000A87840282BD00BE00028C5D08805C3D528
:10286000212F21D1E16A68782128BDD1608D28B15E
:10287000616A08781061616A481CA6E008291CBFDB
:102880002029B14206D000F01DFA0020A8702021B6
:10289000697004E000F059FACAD00020A870204600
:1028A000BDE8F64101F0F7BEBCF1400F20D1204653
:1028B000BDE8F6417CE25668330519D45FEA4E66FE
:1028C00077D54B0575D5002873D1687822280FD1AC
:1028D000E66A608D04280CD300F0E3F9FFF714FDDD
:1028E000608D032804D12068416821F48061416033
:1028F000D4E1E16A022959D0012818BF002855D136
:102900000020DFF87C77009019213B68B3FBF1F1E0
:102910004FF47A70B1FBF0F000EB8000009021469C
:10292000FFF758FD20B10C6823689805F8D41AE029
:102930006B6843F020036B60506820F4E0605060E7
:102940000B681A69486A02704A6A531C4B6220225B
:102950004C8D601E48856A700020A8700846BDE84E
:10296000F64101F099BE0C46FFF7D3FC20684168A0
:1029700021F4E061416000F0E0F92022618D481E01
:1029800060856A70A978402908D10020A8700021CC
:1029900021632046BDE8F64101F07FBE0020A8700B
:1029A000082E18BF202E63D0122062E000F085F9B7
:1029B00074E10028FCD08805FAD5E06A618D04290D
:1029C00008D100F07AF900F0D6F96062618D481EF6
:1029D000608563E1618D03290BD1516821F4806129
:1029E0005160042818BF022801D0FFF7F8FC2268C4
:1029F0004FE1618D022942D1012818BF10280DD066
:102A0000042818BF022804D013461A6842F4007242
:102A100008E013461A6842F4806203E013461A681D
:102A200022F4806219460A6023681A69616A0A7092
:102A3000636A5A1C6262638D5A1E628521680A6944
:102A4000616A0A70626A531C6362628D511E6185FD
:102A500021684A6822F440724A6020216970AA788D
:102A6000402A92D00021A970082818BF20289BD1A5
:102A7000002020632046BDE8F64101F00FBE116939
:102A800000F02CF907E1686800B99369D2F814C026
:102A90005FEA8C7020D588051ED5686800B19369FF
:102AA0006878002100F02800282811D100F005F9ED
:102AB000580758BF0121180654BFE268A2690020D8
:102AC000287002B02046BDE8F04192B201F0E7BDA7
:102AD00000F009F92B70E1E05FEACC6300D58805CE
:102AE00040F17F806F78516821F4E0615160FFF719
:102AF00089FC22681168104641F001010160009ACA
:102B0000FFF76DFC21684A6810052ED50FF2A54825
:102B1000222F18BF2A2F13D0626B10684368638579
:102B200000F0EFF8606B01F067FE01281DD0606BCC
:102B3000C0F83480606B01F0D7FDB0B1606B12E07B
:102B4000A06B03685A68628500F0DBF8A06B01F0A7
:102B500053FE012809D0A06BC0F83480A06B01F0AF
:102B6000C3FD10B1A06B416B8847608DB8B1206880
:102B700041694A0704D50169606A0170FFF7C2FB29
:102B800020684269510604D50269606A0270FFF745
:102B9000B9FB608D18B1686840F00400686068682F
:102BA00018B12046BDE8F6415FE12A2F06D1002189
:102BB000216328206870204601F021FE68782828CB
:102BC00007D1E66200F0E5F82046BDE8F64101F0E5
:102BD00017BE206B222818BF222F5FD100F0D9F832
:102BE0004DE00CF00400212F18BF292F2DD15FEAF2
:102BF0000C661CD54B051AD5C8B96978608D0028BC
:102C00004CD0606A03781361606A421C626200F013
:102C100072F808BF292941D100F0A7F821212163CA
:102C2000282068702046BDE8F64101F0EABD002882
:102C300034D0890532D5608D00282FD0606A0178A4
:102C40001161606A411C616226E05FEA4C661BD537
:102C50004B0519D5C0B96978608DF8B11069626A01
:102C60001070606A431C636200F045F808BF2A29AF
:102C700014D100F07AF822212163282068702046C0
:102C8000BDE8F64101F0BBBD40B1890506D5608DB8
:102C900020B100F006F86262FFF737FBBDE8F38170
:102CA00000001069616A0870606A421C7047A86879
:102CB0000004C00D00F006007047506820F48060EA
:102CC00050607047506820F4E0605060112121632B
:102CD0007047416841F4805141607047606A0170FB
:102CE000616A4A1C70470023009351690091926900
:102CF000009200997047608D421E6285608D0028A9
:102D00007047608D18B1686840F0040068604868DA
:102D100020F400604860704722681068114640F453
:102D200000700860704710600023009320684269BB
:102D3000009283690093009A704720680169606A75
:102D40000170616A4A1C62627047506820F4E0605A
:102D5000506000222068016841F400710160226324
:102D600020206870A978402970472168486820F4BD
:102D700080604860704721680869616A0870626A0B
:102D8000501C704748602168486840F40060486003
:102D900070470020206320216970A87070470020D0
:102DA000009021684869009089690091009A7047F5
:102DB00010B500F13D0200F148041378A16881B913
:102DC000006862682168012A04D1C9B20161A06863
:102DD000801C04E00904090E0161A068401CA06089
:102DE00010BDA168012904D122680068D2B2026135
:102DF0000AE0A168022933D1222B09D102681168A7
:102E0000104641F480710160A168491CA16010BDA9
:102E1000418D61B1212B0AD1436A01681A780A6198
:102E2000426A511C4162428D511E418510BD418D47
:102E3000002908BF212B17D10368596821F4E061EC
:102E4000596000240368196841F400711960046333
:102E50002023137000215170BDE8104001F01ABC0E
:102E6000BDE81040FEF7FCBF10BD38B5044604F1C4
:102E70003D0528786978102914BF4029222804D1FB
:102E800021680A6822F400620A6000F028012829FB
:102E900004D100222263282028700BE021684A68B0
:102EA000110505D4602803D0202028700021697006
:102EB00000202063206841680A052BD5416821F471
:102EC00000614160626B0FF2ED0092F82110012960
:102ED0000BD05063606B01F007FC00282DD000F090
:102EE00059F820202870606B11E0A26B5063A06B32
:102EF00001F0FAFB08B3206841694A0602D501696E
:102F000000F038F8FFF778FA20212970A06B416BA8
:102F1000884712E02A78602A0AD1202129700022ED
:102F2000226400F02DF800F03BF801F06BFC04E0A7
:102F300000F026F8204601F0AFFB206C10F00F0FD8
:102F400004D02168486820F4E06048602878226C4A
:102F500051070ED528280CD11548E06200212163C5
:102F60002020287000226A702046BDE8324001F01F
:102F700047BC31BD606A0170626A511C6162704772
:102F800041694A0605D50169606A0170616A4A1C97
:102F90006262704720680168490849000160704713
:102FA000216808684008400008602046704700001B
:102FB0000000FFFF7CB5002100911925416A3048CF
:102FC00001F13D024FF47A7413780668B6FBF5F50B
:102FD000B5FBF4F4232044430094009838B10098E2
:102FE000401E00900C6820688505F6D403E0086C4C
:102FF00040F020000864486B08B100248462886BAC
:1030000008B1002484620C68206820F4806020608D
:1030100000244C85486B00B14463886B00B1446365
:1030200008680468640864000460107860280AD1A5
:10303000202313700024547000220A640846BDE85F
:10304000764001F0DFBB03F02803282B0ED108687F
:10305000036843F0010303600868046844F4806473
:103060000460002008632824147003E020201070FE
:10307000002353700846BDE8764001F00DBB000008
:10308000100200202DE9F8430E46089F05469146A0
:103090009846340C2968E0B201280CBF4969896957
:1030A00000F078F80CBF01200020484520D118F12D
:1030B000010FEFD001F0E8FAC01B804502D3B8F150
:1030C000000FE7D12968E0B201280CBF496989697E
:1030D00000F060F80CBF012000204845DAD100F074
:1030E000DBF842F02002426001700120BDE8F2836B
:1030F0000020FBE72DE9F0410E46054614469846B0
:10310000370CF8B2012821D129684869304080B2D3
:10311000B1B288421FD02868416948051DD5296889
:103120000B680A4643F4007313606FF480612868EB
:103130004161002205F13C002A6320214170827028
:10314000416841F00401416002701BE02868816918
:1031500000F020F8DFD1002015E014F1010FD0D0ED
:1031600001F092FAA0EB0800844201D3002CC8D1F0
:10317000F8B22968012808D1496900F00BF8C3D0DA
:1031800000F02FF80120BDE8F081896900F002F815
:10319000DCD0F5E7314089B2B0B28142704770B5FA
:1031A00005460C46164628684169080617D4284685
:1031B00000F07CF818B914F1010FF4D001E00120FF
:1031C00070BD01F061FA801B844201D3002CEAD16A
:1031D000286841690806E6D400F003F8EFE700200C
:1031E00070BD002105F13C002963202242708170EE
:1031F000426842F0200242600170704770B5054697
:103200000C46164628684169480717D4284600F03E
:103210004DF818B914F1010FF4D001E0012070BD90
:1032200001F032FA801B844201D3002CEAD12868D5
:1032300041694807E6D4FFF7D4FFEFE7002070BDEF
:1032400070B505460C46164628684269510621D4D9
:103250004269D10608D56FF01002426100F01CF8F7
:1032600042600170012070BD01F00EFA801B8442A3
:1032700001D3002CE8D1286841694806E4D4002134
:1032800005F13C002963202242708170426842F0BF
:103290002002E5E7002070BD00202863202205F110
:1032A0003C000021427081704268704710B501688F
:1032B0004A6954050DD56FF480634B6100210163A9
:1032C0003C30202343708170436843F00403436023
:1032D000017012F4806018BF0120C0B210BDF0B4BC
:1032E0000246106895681318506803EB5004C00735
:1032F00048BF4D44A3422DD013F8016B16F00300D4
:1033000004BF13F8010BC01C31090F2907D113F8B2
:10331000011B0F3103E013F8017B05F8017B401E10
:10332000F9D10029E6D013F8010BC6F38107032F6A
:1033300008BF13F8017B00EB072040422844002619
:10334000B71E8F421EBF10F8017B05F8017B761C6B
:10335000F6D1CFE7F0BC02F10C0070470EB41EB5F9
:10336000024605A801900024009401AB0121044805
:1033700078440C3001F04BFA03B010BC5DF810FB40
:103380003D61000010B50446AFF30080204600F018
:1033900005F80446AFF30080204610BDF8B500F1F3
:1033A0000F04E408E400A0422BD2082C04D2082425
:1033B00002E0083000F047F8DFF800211568290026
:1033C00005D1002507E00368A3420DD2011D08685E
:1033D0000028F8D12D68111D00E0191D0B68AB42C3
:1033E0000BD01868A042F8D359B10B681868083898
:1033F000A04208D2586808600FE002F06BF900287C
:10340000D7D10020F2BD181908601E1D5F68375122
:103410001D6808682D1B05601C60086800281DBF1A
:1034200041680029001D0020106003F10800F2BD72
:1034300010B5040006D0AFF30080204600F003F87A
:10344000AFF3008010BD002800D1704770B4A0F128
:1034500008021468072C2ED914F0070F2BD1DFF8BF
:103460005C30596809B18A4203D251605A6015E054
:103470000146486808B19042FAD30E688819824222
:1034800019D3904203D1A4190C600A4606E048689B
:1034900010B11444A0420ED350604A60506850B13D
:1034A00014681619864206D100251D6001680C19A2
:1034B00014604068506070BC7047000068190020BC
:1034C0004AB1000011F8013B521E00F8013B1CBF3D
:1034D00011F8013BF8E77047FFF7AABF0121002070
:1034E00000F04AB80E4B1A78904200D17047E0B510
:1034F0001870012303FA00F000F00F008DF80400AB
:1035000001AA64200090E0210648FEF7B0FC02000A
:1035100005D000BF0FF2100109A0FFF71FFF07BD84
:10352000A002002078170020544341393534364139
:103530005057525F4368616E6E656C5F53656C00F7
:103540002573204572726F72212125640D0A0000D7
:1035500038B5054601F098F815F1010F044602D080
:1035600004490878451901F08FF8001BA842FAD3E6
:1035700031BD00BF0402002038B50B28DFF8A033AE
:10358000DFF8A043DFF8A05370D8DFE800F0060DA5
:10359000161F283039424B545B6411B101220221BD
:1035A00023E00022022120E019B101224FF4007132
:1035B0001BE000224FF4007117E019B101224FF413
:1035C000806112E000224FF480610EE019B1012207
:1035D0004FF4006109E000224FF4006105E009B1F9
:1035E000012200E000224FF4805118463AE019B160
:1035F00001224FF4806123E000224FF480611FE03C
:1036000019B101224FF400711AE000224FF4007149
:1036100016E019B101224FF4807111E000224FF43D
:1036200080710DE019B101224FF4004108E0002241
:103630004FF4004104E009B1012200E0002208211A
:1036400020460FE0002907BF00224FF4006101224D
:103650004FF4006105E0002914BF012200224FF45D
:1036600080612846BDE8384002F02AB931BD00002B
:1036700010B50A28DFF8B432DFF8AC42DFF8A42234
:1036800026D8DFE800F006080A0D101316181A1CD9
:103690001E0020210BE0012100E00221184613E06A
:1036A0004FF480510FE04FF400510CE08021204690
:1036B0000AE0802107E0102105E0022103E001215A
:1036C00001E04FF480411046BDE8104002F0F2B82E
:1036D00010BD80B50FF2BC220FF2AC21DFF8500212
:1036E000FFF73CFEDFF84C120FF2B4200968FFF739
:1036F00035FE00F08DF9BDE80140FFF7EFBE80B563
:10370000012811D10021FFF737FF00F0AEF800F0DB
:10371000A9F800F0A4F800F09FF81420FFF718FFB4
:1037200000F097F864208FE0002100F093F80A2061
:10373000FFF70EFF002100F090F8002100F090F854
:103740000A20FFF705FF002100F08DF8002100F0AE
:103750008DF8BDE80440012101200DE780B504206B
:10376000FFF786FF78B96420FFF7F2FE0420FFF729
:103770007FFF40B90FF24020FFF7F0FDBDE80240A7
:10378000092002F0CDB801BD10B500F026F8DFF831
:10379000A841012804BF207800280AD10520FFF79E
:1037A000D7FE00F01AF8012803D1FFF7A8FF012087
:1037B000207000F012F8002804BF2078012809D1F9
:1037C0000520FFF7C5FE00F008F818B9FFF797FFCE
:1037D00000202070BDE81040C0E7062048E75748A9
:1037E000C16AB1F5FA7F00D2704738B5002254495A
:1037F0004C4CC262087800B3524D2878C30758BFBA
:1038000001224FF48061204602F05AF82978880797
:1038100054BF012200224FF40071204602F050F8FC
:10382000287810F00C0F0CBF012200222046BDE8C2
:1038300038404FF4807102F043B82046BDE8344070
:103840004FF4806102F040B8FFF782FEBDE801400E
:1038500044E001210B208FE6012108208CE60121A4
:10386000092089E60121032086E60121022083E662
:10387000000000002DE9F04352A5334995E8C0014E
:103880008FB0E946044689E8C00103A83022FFF75B
:1038900017FE0DF1090002F023F9064600208DF80D
:1038A000060001A802F01CF9074600208DF803006D
:1038B000804603A850F82810684602F019F928B18C
:1038C00008F10108B8F10C0FF3DB01E008F1010584
:1038D00026706570A7700FB0BDE8F08370B5022246
:1038E0000221442000F0CCFB08220F21442000F0EC
:1038F000C7FB0221442000F0E5FB064603214420DB
:1039000000F0E0FB0446114D324602212846FFF745
:1039100025FD22462846BDE870400321FFF71EBD65
:10392000001801400014014000100140000C01404B
:10393000B09200081002002084190020FC1800201A
:10394000801900207F190020E092000828940008C8
:1039500038B504466079A579E17945EA0025207AF1
:1039600040EA0120024604F10901684300F08CF8A6
:1039700000F001F831BD8DF80050A1786078012386
:103980006A4600F004BA00004F63742020312032F0
:103990003032350030393A33333A303800000000E5
:1039A00053797374656D436F7265436C6F636B20FD
:1039B0003D2025640D0A000074657374206B6579E1
:1039C000200D0A004F637420203120323032350040
:1039D00080B500F017F802F0EEF801001CBF0FF2FE
:1039E000A020FFF7BBFC012002BD80B500F00AF863
:1039F00002F07DF901001CBF0FF2A020FFF7AEFC22
:103A0000012002BD8AB201464FF4FA739148704713
:103A100010B5914C01224FF40071204601F050FF87
:103A200001224FF48071204601F04AFFBDE81040AA
:103A3000012002F008BC80B5062100F020F800F05B
:103A40008CF800F090F815E080B5052200218DF883
:103A5000012000F014F800F080F801210DF10100C0
:103A6000FFF7B6FF01216846FFF7BFFF9DF8001082
:103A7000C807F2D400F071F800F072F801BD8DF8BB
:103A80000010002002F0DFBBF8B50446B4F5801F3B
:103A90000D46174639D23819401EB0F5801F31D374
:103AA000F1BDFFF7C8FFC4F30800C0F50070BEB257
:103AB000BBB28642C8BF06464FEA04027DA16748F2
:103AC000FFF74CFC02208DF80000220C210A8DF833
:103AD00001208DF802108DF80340002002F0B3FBA6
:103AE00000F03BF8042100F03FF831462846FFF78C
:103AF0006FFF00F032F800F033F8FFF7A5FF34193C
:103B00003544BF1BB8B20028CBD1F1BD38B50C4647
:103B10001546B0F5801F3EBF2918491EB1F5801F1C
:103B20001AD20321030C020A8DF803008DF800104D
:103B30008DF801308DF80220002002F084FB00F0A7
:103B40000CF8042100F010F829462046FFF74DFF3D
:103B500000F003F800F004F831BD0A20FFF7F8BCCC
:103B6000012002F070BB0121684631E72DE9F047E2
:103B70003C4C4FF40071204602F072FB00F07BF8E1
:103B800053A6374D0FF240193046FFF7E7FB00F020
:103B90006DF800270FF2B8084FF0000A0AEB071083
:103BA0000AF1010A295C4846FFF7D8FBBAF10F0F6A
:103BB000F4D94046FFF7D2FB7F1C202FECD3FF2027
:103BC00000216154491CB1F5807FFAD34FF4807114
:103BD0006054491C401EB1F5007FF9D300F04BF84A
:103BE000C820FFF7B5FC3046FFF7B8FB00F03EF801
:103BF0000026002707EB06107F1C295C4846FFF7CC
:103C0000ADFB0F2FF6D94046FFF7A8FB761C202E00
:103C1000EFD3002732A6EA5DE15D91421CBF30463A
:103C2000FFF79CFB7F1C0F2FF5D300200023E25CE5
:103C3000E95C8A4218BF401C5B1CB3F5007FF6D3D9
:103C400020B10949087840F004000870BDE8F08709
:103C50000D0A0000CC17002000100140E09300087E
:103C600010150020000000207F1900204FF4007282
:103C7000294600204AE74FF400722146002003E75E
:103C800073706931205472616E736D69742065724E
:103C90007220282558290D0A000000007370693130
:103CA0002052656365697665206572722028255803
:103CB000290D0A004D39355078785F57726974655F
:103CC000446174610000000025303258200000007B
:103CD0004D39355078782052656164203A0D0A00DC
:103CE0006757724275665B253032585D20213D2052
:103CF0006752644275665B253032585D200D0A00BC
:103D0000002202F0B1BA2E0030B502460020012494
:103D100002E0535D1818641CA5B28B1E9D42F8DBAF
:103D2000C0B230BD30B5002201248B1E02E0455DDB
:103D3000AA18641CA5B29D42F9DB0844032100F8CF
:103D4000022D417030BD38B505460C46FFF7DCFF4B
:103D5000291911F8021C814201D1012032BD002035
:103D600032BD70B514463D4E1D4602223270707051
:103D7000B1701B0AF37035712A462146701DFFF79A
:103D80009FFBED1DA9B23046BDE87040CAE7F8B50B
:103D90001C46FFF7E6FF0027314D304EB8B2311810
:103DA0004FF6FF730122284602F0B4FA7F1CBAB224
:103DB000E11D8A42F2DBF1BD01F580604279817933
:103DC00002704170C279017A41EA02214180704754
:103DD00038B5244C204602F0B5FD00283DD02046E1
:103DE00002F0C5FD1D4CB4F8041804F204456854F3
:103DF000B4F80418491C88B2B0F5806FA8BF002140
:103E00002878A4F80418022824D1B4F80418052945
:103E100023DBEA782879CB1F40EA022083421CD1B9
:103E20002846FFF790FF012807D121460020FFF721
:103E3000C3FF284600F038F80CE0B4F80418284610
:103E4000FFF762FF8DF8000001236A460A21602017
:103E5000FFF79DFF0020A4F8040831BDA402002054
:103E60006C180020AC0A00201CB500BF36A10A68FF
:103E700001AB04461A606846FFF7FCFC9DF80000A1
:103E80009DF801108DF80400042301A801AA4170D7
:103E90009DF80210817001208DF80700A1786078EC
:103EA000FFF775FF13BD000018B599B004466421F3
:103EB0006846FFF725FFA27894F8011023A0FFF7CA
:103EC0004DFA607802283CD1A078032815D0092843
:103ED00017D00A281DD0D0280BD0E2281DD0E32807
:103EE00026D0F32811D0FF2804BF2046FFF7BCFFDF
:103EF00027E02046FDF7ADFC23E02046FDF78EFCD1
:103F00001FE0204602F040FD1BE0204602F006FFC5
:103F100017E02046FFF71CFD13E060798DF80000E4
:103F20000323A2798DF80120E1798DF8021003E0D6
:103F300001208DF800000123A17860786A46FFF720
:103F400026FF1AB010BD0000180711011B5B3332A9
:103F50006D4D435B307825785D53435B3078257831
:103F60005D0D0A1B5B306D0080B568486849694A81
:103F7000416082600021C16000224FF480410261F3
:103F800041618261C26102624262001DFDF7CEFEA4
:103F900000B135E001BD30B585B001AD0021002292
:103FA0000023002485E81E0001685948814225D17C
:103FB000594C216841F0080121601221206800F06D
:103FC000080000904FF44060009A01900291032293
:103FD000049201A9514801F093FB606840F480000D
:103FE00060600022606800F480000090002100986A
:103FF000212002F0E8FF212003F004F805B030BDD5
:10400000BDE8014003F0CAB80000000070B54448A4
:104010004AA43E4DFFF7A2F90220FFF763FA0126FA
:1040200071006423012289B2281DFEF7F1F928B935
:10403000702E03D071002046FFF790F9761C802E79
:10404000EEDBBDE870400520FFF782BA10B52F4CBB
:10405000002121700220FFF745FA64230122A421E8
:10406000201DFEF7D5F918B900F004F801202070E2
:1040700010BD00005FF0A40130A0FFF76FB9000091
:104080007CB51546044601AA002010800E46032088
:10409000FFF728FA642100918DF804608DF805502F
:1040A000022300F009F830B14FEA00020FF2BC0120
:1040B0002AA0FFF753F973BD01AA21461948FDF75D
:1040C000D6BE0000F2B5074682B00320FFF70AFA19
:1040D0006420009001230D4E00F026F8020000BF7E
:1040E0000FF2780425A501D000F023F86420009099
:1040F000012301AA47F00101301DFDF766FF10B151
:10410000024600F016F89DF80400FEBD741700206A
:1041100000580040A086010018100240000C014029
:104120006C9300087817002002AA3946301DFDF76D
:104130009EBE29462046FFF711B9000044697370FE
:104140006C617920646574656374206164647220B5
:104150003D2030782558200D0A00000025732045A9
:1041600072726F72212125640D0A00004C45445F74
:104170006932635F77726974650000004C45445F83
:104180006932635F72656164000000002DE9F843E5
:10419000040016D02078DFF8A874C10713D578681A
:1041A00000F00C00042807D0786800F00C00082804
:1041B00040D17968C8033DD53A68910303D560685A
:1041C000002800F05B812078DFF88464810719D52E
:1041D000786810F00C0F07D0786800F00C00082801
:1041E0005FD17868C1035CD43868810703D5206942
:1041F000012840F043813968606921F0F80141EA03
:10420000C00139602178080778D5A069DFF8441427
:10421000002800F09E8001220A6000F035FA054671
:10422000796A88075BD400F02FFA401B0228F7D97F
:10423000032026E16068B0F5803F03D1386840F480
:10424000803013E058B1B0F5A02F08D1386840F4A1
:10425000802038603A6842F480323A6007E039687A
:1042600021F480313960386820F48020386060683B
:1042700058B100F009FA054639688803A3D400F064
:1042800003FA401B6528F7D3D2E700F0FDF9054695
:104290003968880397D500F0F7F9401B6528F7D3F4
:1042A000C6E7206968B10121316000F0EDF90546EB
:1042B000386881079FD400F0E7F9401B0228F7D93E
:1042C000B6E70022326000F0DFF90546396888075A
:1042D00098D500F0D9F9401B0228F7D9A8E7DFF8F4
:1042E00064231168C9084FF47A70B1FBF0F00090B4
:1042F00000BF0098411E00280091F9D120784107A5
:104300006ED5F9690025C80009D4F96941F08051DA
:10431000F9610125F86900F0805000900098DFF8FD
:104320003883D8F80000C10520D4D8F8000040F444
:104330008070C8F8000000F0A7F98146D8F8001096
:10434000C80513D400F0A0F9A0EB09006528F5D347
:104350006EE7086000F098F90546796A8807CDD5C0
:1043600000F092F9401B0228F7D961E7E0680128C4
:1043700008D008B9386A09E00528386A06D140F043
:1043800004003862386A40F0010005E0400840004F
:104390003862386A20F00400386241F28938E068F7
:1043A00060B100F071F98146396A880713D400F0D2
:1043B0006BF9A0EB09004045F6D339E700F064F94A
:1043C0008146396A880706D500F05EF9A0EB09003E
:1043D0004045F6D32CE71DB1F86920F08050F86114
:1043E000E06900284CD0796801F00C01082938D028
:1043F00002282AD100F047F805463968880105D51A
:1044000000F042F9401B0228F7D911E7206AB0F505
:10441000803F05D17968A06821F4003101437960BB
:104420007A68206A616A22F4741202430A437A604D
:10443000012000F029F804463868810120D400F0FA
:1044400023F9001B0228F7D9F2E600F01CF8044615
:104450003868810114D500F017F9001B0228F7D93C
:10446000E6E601280AD07868226A00F48031914299
:1044700002BF00F47010616A884201D0012000E0A0
:104480000020BDE8F2830020306600F0FDB82DE981
:10449000F041040088465FD0704E306800F007009D
:1044A000404509D23168C90848EAC1013160306825
:1044B00000F0070040454FD12168614D880712D5B3
:1044C000490703D5686840F4E06068602078010718
:1044D00003D5686840F4605068606968A06821F09E
:1044E000F001014369602178C80726D5606801287A
:1044F00002D129688A0303E0022803D129688A01CE
:1045000003D429E02B68990726D56A68920840EA07
:104510008200686000F0B8F807466868616800F0DB
:104520000C00B0EB810F08D000F0AEF8C01B41F2D8
:1045300089318842F1D3032032E0316801F007016C
:1045400088450BD23068C00848EAC0003060316846
:1045500001F00701414501D0012021E02178480701
:1045600005D56968E06821F4E0610143696021785C
:104570000A0706D56868216920F4605040EAC10046
:10458000686000F00FF86A683549C2F303128B5C6B
:104590002C49D84008602D48006802F001FE002038
:1045A000BDE8F0812F4930480A6802F00C03042B63
:1045B00000D1704710B5082B12D100BF2DA4C2F353
:1045C0008343D203E35C08D5096858432DA3C1F3A4
:1045D0004041595CB0FBF1F010BD2448584310BD78
:1045E000194810BD17481F4B00681A682049C2F3CC
:1045F000022206E013481B4B00681A681C49C2F3EC
:10460000C222895CC840704710B50F220260154A6B
:10461000136803F003034360146804F0F00484603B
:10462000136803F4E063C3601268D20802F4E06226
:1046300002610A4A106800F00700086010BD00001F
:10464000001002401002002000127A000C0200202C
:1046500000004242800442420070004000200240BC
:10466000D8940008041002400024F40000093D0022
:10467000F894000802030405060708090A0B0C0D4C
:104680000E0F10100102430001484068704700BF40
:1046900004020020704770477047704770477047AA
:1046A00090F82130022B00F1380206D0042111606D
:1046B000002280F820200120704701680B6823F059
:1046C0000E030B600368196849084900196001234B
:1046D000916852688B4053600021012380F821309B
:1046E00080F8201000207047F8B590F821200024B1
:1046F000022A00F1340103D00420486001245FE065
:104700000268136823F00E0313604FF480350368CA
:104710001A68520852001A604FF480560268DFF897
:10472000A8309A424FF4807719D9DFF898309A422E
:1047300008BF012510D0DFF894309A4208BF102539
:104740000AD0DFF88C309A4208BF3D4604D0DFF82B
:104750008470BA4208BF3546DFF87C2027E0DFF8D6
:104760007CC062451CD0DFF878E072451AD0DFF8D3
:1047700074C0624518D0DFF87070BA420EBF35467B
:10478000DFF86860B24210D0DFF86460B24208BF60
:104790004FF4801509D09A4207D14FF0807504E09C
:1047A000012502E0102500E03D46DFF848201560B5
:1047B000012380F8213080F82040096801B1884742
:1047C0002046F2BD08040240800002401C04024062
:1047D0003004024044040240040402400800024045
:1047E0001C000240300002404400024058000240D9
:1047F0006C0002400400024090F8210070477047AE
:10480000704770477047000040F0200070472DE966
:10481000F14FB0B0924604910DF142013A9A2B91BA
:1048200099464A7000200AE01AF8011B0498309A51
:1048300090470028049000F043860D98401C0D908E
:104840009AF8000050B12528EED1002200210792ED
:10485000089109920A910B920C9104E00D9800F0D6
:1048600031BE41F001011AF8010F2028F9D02328A8
:104870000CD02B2804D02D2805D0302809D00BE0EF
:1048800041F00201EFE741F00401ECE741F00801DB
:10489000E9E741F01001E6E72A280FD1D9F8002016
:1048A00052F8040BC9F8002000280F9003D54042AD
:1048B0000F9041F004010AF1010A14E00F92DFF8B1
:1048C0000C0C0AE00F9C844205DA04EB840302EB33
:1048D0004302303A0F920AF1010A9AF80020A2F13D
:1048E00030030A2BEED39AF800202E2A03D04FF083
:1048F000FF300E9029E01AF8010F2A2809D1D9F8C3
:10490000002052F8040BC9F800200E900AF1010AA9
:104910001BE02D280CBF0AF1010A002000220E9294
:10492000DFF8A85B0BE040B90E9BAB4205DA03EB66
:10493000830402EB4402303A0E920AF1010A9AF81B
:104940000020A2F130030A2BEDD3ADF840100FF692
:1049500080309AF8001002F06BFC08B11AF8010BD5
:104960008DF842009DF84200682805D19AF80010A1
:1049700068290CD1622006E06C2804BF9AF8001068
:104980006C2904D171208DF842000AF1010A12AAA3
:1049900006921AF801BBBBF125002CD01C3800F0A0
:1049A0009781001F022840F29381133800F0BA84E7
:1049B000093800F08D81801E00F04F85401E00F008
:1049C000FC84401E022840F28381001F00F0F58421
:1049D000401F00F0F280401E00F0A484401E00F052
:1049E000DA80C01E0ED0801E00F09C84C01E00F035
:1049F000998400F03DBD0122252107928DF84810D1
:104A000000F042BDD9F8000050F8044BC9F800008E
:104A1000002C059440F0AB802B994878002800F0DA
:104A2000A1804FF0FF340FF6B02002F00DFC241AE5
:104A300040F0468500F028BD01236A4602A93046B1
:104A400000F00CFE002840F03B85641EF4D1309647
:104A5000079C12AE74B1309F16F8011B0498B8473A
:104A60000028049000F02C850D98401C641E0D90C9
:104A7000F2D130970A9C3021002C8DF800100CDD0B
:104A8000309E01236A4602A9304600F0E7FD002867
:104A900040F01685641EF4D13096059E089C74B1D2
:104AA000309F16F8011B0498B8470028049000F0C6
:104AB00007850D98401C641E0D90F2D130970B9C19
:104AC0003021002C8DF800100CDD309E01236A4649
:104AD00002A9304600F0C2FD002840F0F184641EB7
:104AE000F4D1309605980899099C461874B1309F06
:104AF00016F8011B0498B8470028049000F0E084E1
:104B00000D98401C641E0D90F2D130970C9C302102
:104B1000002C8DF800100CDD309E01236A4602A99E
:104B2000304600F09BFD002840F0CA84641EF4D19A
:104B300030969DF8400041077FF582AE2020002D81
:104B40008DF800007FF77CAE309C01236A4602A9F5
:104B5000204600F083FD002840F0B2846D1EF4D1A1
:104B600030946DE60FF65430059000F08DBC0E9D2C
:104B7000002D04D5204602F087FB044608E02A46B3
:104B80000021204602F09CFB002814BF041B2C4689
:104B9000089400F079BCD9F8001051F8040BC9F85A
:104BA000001020F00002002121F0FF33CDE90223A4
:104BB00012AC0594782100F04CBC2B99487820B1B8
:104BC0004FF0FF340FF6C4202FE79DF84200622813
:104BD00060D0682817D06A283FD06C2806D071288A
:104BE00047D074282CD07A281DD062E0D9F8001064
:104BF00051F8040BC9F80010002866D14FF0FF34BB
:104C00000FF6A02011E7D9F8001051F8040BC9F8ED
:104C1000001020B94FF0FF340FF6882005E70D99FA
:104C2000018000F031BCD9F8001051F8040BC9F82C
:104C30000010002849D14FF0FF340FF66820F4E649
:104C4000D9F8001051F8040BC9F8001000283CD125
:104C50004FF0FF340FF64C20E7E6D9F8001051F87A
:104C6000040BC9F8001080B94FF0FF340FF6342060
:104C7000DBE6D9F8001051F8040BC9F8001020B990
:104C80004FF0FF340FF61C20CFE60D9AD317C0E982
:104C90000023F9E3D9F8001051F8040BC9F800100B
:104CA00020B94FF0FF340FF6FC10BEE60D990170ED
:104CB000EAE3D9F8001051F8040BC9F8001020B944
:104CC0004FF0FF340FF6DC10AFE60D990160DBE327
:104CD0009DF842004C2807BFD9F80010CA1DD9F82A
:104CE0000000C21D22F00702C9F80020D2E900012D
:104CF0000832C9F80020CDE90201C80F02D0079898
:104D00002D210AE0BDF84010880702D507982B2115
:104D100003E0C80705D50798202112AA1154401CAA
:104D2000079012A807994BF0200300EB010CDDE976
:104D30000201CDE92C01612BCDF814C021AC0BD0C0
:104D40000E98002848BF062105D404BF4BF0200070
:104D5000672801D101210E91DDE902677B0043EA5A
:104D6000D6735A15DB174FF0FF30834208BF8242DB
:104D700010D13F0347EA16573603002F08BF002E15
:104D800008D0ABF1610503211A2D089118D30FF655
:104D9000341110E0DDE902014A00521512F1010F51
:104DA00011D108030FD1ABF1610503211A2D089130
:104DB0001FD30FF6181103226046FEF781FB63E351
:104DC0000FF6FC01F7E7DDE902016A4602F0A4FAFA
:104DD000CDE902014BF02000612811D10598302265
:104DE0000270811C0591BBF1610F0CBF7821582125
:104DF00002E00FF6D401DEE741700798801C0790AF
:104E0000DDE9020120F0000231F0004308BF002A72
:104E100002D10026002542E14BF02008B8F1610FD5
:104E200040F093800E98002847BF21210191401C3B
:104E30000190019EDDE92C01761C00220023DDE9B2
:104E4000024502F0A1FA38BF85F0004500988DF8C0
:104E50008420001F002E00900DF1850732DD2046D2
:104E600029460022002302F0A9FA2BD21C2202F0CC
:104E7000BFFA04460D4602F059FBF61F002E80468D
:104E800009DD02F06FFB02460B462046294602F080
:104E900031FC04460D46F81D0721B8F1000F0CDD6A
:104EA000491E5EBF08F00F0200F8012D4FEA2818D6
:104EB000F3D502E0002200F8012D491EFAD5C71DE6
:104EC000002ECCDC0DF185003F1A01980DF1850410
:104ED0003E468742C8BF0646002E2FD4BE4206DAA1
:104EE0000DF18500815D0829A8BF0F2000DA0020A0
:104EF000324621A98D1800E0761E15F80139521EA0
:104F00008342F9D00F2804D10DF18501885C401C43
:104F10008854002A04D50098001D21AC761C00900E
:104F2000701E0BD421180B783033DAB23A2AA4BFA2
:104F30005B443A3B401E01F80139F4D50E99002933
:104F400040F1AC80701E0E90A8E00099DFF8FC26BE
:104F500047F29750414391FBF2F20092DDE92C4574
:104F6000C2F10702002A25F0004504DD204629464B
:104F700000F049FB0BE052420020DFF8D41600F0AD
:104F800042FB02460B462046294602F025FC044619
:104F90000D46B8F1660F06BF009E0A3606260E982B
:104FA0003618142EC8BF142630208DF884000DF159
:104FB0008507002E34DD2046294602F031FD0146EA
:104FC0000A4607F1080C04200A27B2FBF7FE0EEB95
:104FD0008E03A2EB430230320CF8012C0A22BEFBF6
:104FE000F2F202EB8203AEEB43033033401E0CF8C7
:104FF000023DE9D1083E002E0CF10807D9DD084634
:1050000002F020FD02460B462046294602F072FBC4
:105010000022DFF8403602F023FD04460D46CAE7C1
:105020000DF185003F1A0DF1850404E00098401E43
:105030007F1E0090641C20783028F7D0B8F1660FEE
:1050400002D1009E761C04E0B8F1650F0CBF01266A
:1050500000260E983618B742B8BF7E1E002E1DD40B
:10506000BE4204DAA05D3428C8BF392000DC3020FD
:105070003246611E8D1800E0761E15F80179521E29
:105080008742F9D0392802D1A05C401CA054002AE4
:1050900004D50098401C0C46761C0090009D02F040
:1050A000CDFD406A0778DDF8388030B2002802DC98
:1050B00001260FF21C644BF02000662808BF6D1C0F
:1050C00016D0672845D128B210F1040F47DB4045C0
:1050D00045DA9DF840106D1C080703D430B24045F6
:1050E000D8BF804628B2B8EB000848BF4FF0000890
:1050F0000FFA85FBBBF1000F00F3B3800898411C49
:105100000891302205990A54B8F1000F03DC9DF88C
:105110004010080704D50898411C089105990F54C0
:1051200018EB0B0FB8BFC8F100052DB2684245441B
:1051300032B20B909542B8BF2E46059B089836B206
:105140000996324621461844FEF7BAF9AD1B0C9574
:10515000D1E0BBF1610F17D14FF0700B19E030B205
:10516000404504DA9DF840100A0758BF8046B8F160
:10517000010848BF4FF00008BBF1670F14BF4FF0A4
:10518000450B4FF0650B04E0BBF1410F08BF4FF03A
:10519000500B0898411C0891B8F1000F059914F8BC
:1051A000012B0A5403DC9DF8401008071AD5089813
:1051B000411C0891B8F1000F05990F5412DD761EBD
:1051C00030B28045B8BF46460598089B32B22146AA
:1051D0001844FEF775F9089836B230180890A8EB15
:1051E00006000B9005980899014428B2002881F820
:1051F00000B003D42B204870891C04E02D224A7093
:105200000546891C6D4200202CAA0AE02B460A257F
:1052100093FBF5F505EB8504A3EB440302F8013B92
:10522000401C2DB2002DF1DC012806DC4BF02002E1
:10523000652A04BF302201F8012B00282CAB08D1CD
:10524000302001F8010B06E0401E1A5C303201F8F4
:10525000012B0028F8DC059A08981044091A0991D6
:1052600049E031B228B281421CDA059B089832B27B
:1052700021461844FEF724F9089936B271180891AE
:10528000ABEB0600B8F1000F0B9003DC9DF840007B
:10529000020704D5059847540999491C0991CDF88E
:1052A000308028E0059B08982AB221461844FEF772
:1052B00007F90898761B5844B8F1000F089003DCF2
:1052C0009DF840100A0703D5411C089105990F5419
:1052D00030B28045B8BF46460598089B32B204EB11
:1052E0000B011844FEF7ECF8089836B23018089015
:1052F000A8EB06000B909DF8400000F01400102869
:1053000040F0C280079A08980B99821809988A1869
:1053100082180C980F998018884280F2B580081A7C
:105320000A90B1E09DF84200622808D068280ED0AB
:105330006A2814D06C281FD0712810D01CE0D9F82E
:10534000001051F8040BC9F80010C0B21AE0D9F8E7
:10535000001051F8040BC9F8001080B212E0D9F81F
:105360000000C21D22F00702C9F80020D2E90001A6
:105370000832C9F8002006E0D9F8001051F8040BF3
:10538000C9F800100021CDE902019DF84000020794
:105390005AD5DDE90201002908BF002854D04BF09E
:1053A0002002782A50D1079912A830234354491C6F
:1053B0004A1C079200F801B046E09DF842006228BE
:1053C00008D068280ED06A2814D06C281FD0712805
:1053D00010D01CE0D9F8001051F8040BC9F80010E7
:1053E00040B21AE0D9F8001051F8040BC9F80010C7
:1053F00000B212E0D9F80000C21D22F00702C9F87D
:105400000020D2E900010832C9F8002006E0D9F8EE
:10541000001051F8040BC9F80010C117CDE90201C2
:10542000002902D507982D220AE0BDF84000810727
:1054300002D507982B2203E0C00705D50798202244
:1054400012A90A54401C079012A80799014405911B
:10545000594602A800F04EF816E001200790D9F84E
:10546000001051F8040BC9F800108DF848000BE04B
:1054700001222521BBF1000F07928DF8481003D0BF
:10548000022007908DF849B00F9D07980A992D1AB0
:1054900008986D1A0B992D1A09986D1A0C992D1AE6
:1054A0009DF840006D1A41073FF5D2AA2020002D3B
:1054B0008DF800007FF7CCAA309E2C46FFF7BCBACF
:1054C0004FF0FF3031B0BDE8F08F0000CBCCCC0CFA
:1054D000686A6C747A4C00007072696E74665F73EF
:1054E0003A2062616420257320617267756D656E74
:1054F000740000002DE9FE4C06468B46376958467D
:105500006F2808BF082205D0FFF77EF9782814BF5E
:105510000A221022D6E900013C2504468A46BBF146
:10552000640F18BFBBF1690F04D1002902D5644292
:105530006AEB4A0ABAF1000F08BF002C0CD1306B9D
:1055400050B9082A3BD196F83810080737D53021D2
:105550003B2587F83B1032E08DF800B0934620469B
:1055600051465A46002302F06FFB3032D0B26D1E16
:105570003A2801950DDA7A55204651465A460023BD
:1055800002F062FB04465FEA010A08BF002C05D165
:1055900008E09DF800001218513AECE7F16878191C
:1055A0008142DCD3BBF1080F09D196F8380001071E
:1055B00005D5785D302802D06D1E30207855C5F1B4
:1055C0003C02306BB26179198242F16007DA318FA7
:1055D000821A4FF6EF7001403262318710E00028E6
:1055E0000ED596F8380000F01400102808D1736B1F
:1055F0007069316A1B1A5B1A9B1A002BC8BF336291
:1056000003B0BDE8F08C2DE9D04306460F461446A2
:105610004FF00008DFF8409012E0E00707D542465F
:105620004B463046394602F01BFA06460F464046C6
:10563000494642464B4602F013FA641080468946BA
:10564000002CEAD130463946BDE8D083A08601005F
:105650000000F03F84D7974100002440F8B505468C
:105660000E4617461C4600205CB117F8011BB068B7
:10567000A847B06030B1F06A401CF0620020641EA0
:10568000F3D1F2BD4FF0FF30F2BD00007072696ED1
:1056900074665F733A20256E20646973616C6C6F69
:1056A000776564007072696E74663A206261642086
:1056B000256E20617267756D656E740000000000D4
:1056C0006E616E004E414E00696E6600494E4600A6
:1056D000300000000749086808B1002070470648FC
:1056E000C008C00008600549C908C900091A01605E
:1056F000704700BF781900208F2E002088430020BB
:105700002DE9F84700270024734BDFF8D081744D52
:105710004FF00F09024610E0D3F800E000EA0E0057
:10572000186009E0C3F804C04E68F603F4D51868A1
:105730004EEA000EC3F800E07F1C0E6836FA07F050
:1057400000F0B680012000FA07FC0CEA060EE645E0
:10575000F2D14E683EB3012E1AD0022E1DD0032E78
:105760002ED0112E16D0122E1AD05E4886421CBFA3
:105770005D48864217D05D4886421CBF5C48864221
:1057800011D05C4886421CBF5B4886420BD018E0B3
:10579000CC6816E0CC68241D13E0CC68083410E017
:1057A000CC680C340DE0886808B9042409E00128AD
:1057B00019BF0824C2F814C00824C2F810C000E0C1
:1057C0000024BEF5807F03D210464FEA870C04E028
:1057D000A7F10806101D4FEA860CD0F800A009FAC0
:1057E0000CF62AEA060604FA0CFC4CEA060CC0F891
:1057F00000C04868C0009FD52E6846F001062E60A4
:10580000BE00286800F00100009006F00C0C009823
:10581000B80858F820A009FA0CF62AEA060A374E0A
:10582000B24208BF002618D0354EB24208BF01264A
:1058300013D0344EB24208BF02260ED0324EB242CE
:1058400008BF032609D0314EB24208BF042604D057
:105850002F4EB2420CBF0526062606FA0CF646EA83
:105860000A0C48F820C06FEA0E004E68F60204D514
:105870009E684EEA06069E6005E0D3F808C000EA7E
:105880000C0CC3F808C04E68D3F80CC0B6024CBF6D
:105890004EEA0C0C00EA0C0CC3F80CC04E68D3F8AE
:1058A00004C0B6034CBF4EEA0C0C00EA0C0C39E7FE
:1058B000BDE8F1878068084018BF0120C0B270477A
:1058C00002B9090401617047C36801EA0302994300
:1058D00041EA0241016170470004014008000140B3
:1058E00018100240000011100000121000002110DA
:1058F00000002210000031100000321000080140AA
:10590000000C01400010014000140140001801404B
:10591000001C0140BDE80140FEF728B9000000006E
:10592000092800D9704780B5DFE800F005090D347B
:10593000111224282C30BDE80140FEF767BBBDE8FA
:105940000140FEF783BBBDE8014002F04FBBE1E739
:1059500001210420FDF710FE00210120FDF70CFEBF
:1059600001210220FDF708FEBDE8044001210320CB
:10597000FDF702BEBDE8014001F0BEB9BDE801403F
:1059800002F0E2BABDE8014002F0F8BABDE8014019
:10599000FBF718BF01BD00002DE9F84F84B00D469C
:1059A00016460BB100221A608346D84601E008F182
:1059B000010898F8000002F09FFB0028F7D198F842
:1059C00000002D2816BF2B2818F8014B2B24002E81
:1059D000019503D4012E01D0252E04DB002D58D0D3
:1059E000C5F800B055E0002E0CDD102E04BF98F86D
:1059F0000000302802BF98F8010040F0200078280D
:105A000011D10CE098F80000302818BF0A260AD1FE
:105A100098F8010040F02000782803D1102608F102
:105A2000020800E00826CDF80C8001E008F101082A
:105A300098F800003028F9D0064D7D4416354FF017
:105A4000000905F12800CDF80880CA468DF800004D
:105A50000CE000BFE836000007469DF800003F1A42
:105A6000CA46FFB206FB097908F1010898F8000060
:105A700002F04CFB0146324605F1280001F020FC03
:105A80000028E9D10399414505D1019808B1C0F832
:105A900000B0002020E00299A85DA8EB0101091ADE
:105AA000002910D406DCB9EB070703D3B7FBF6F0E7
:105AB000504508D0AFF30080049808B1012101607F
:105AC0004FF0FF3903E02D2C08BFC9F10009019800
:105AD00008B1C0F80080484605B0BDE8F08F04E08A
