:020000040800F2
:1000000088190020B5910008D17D0008D37D000833
:10001000D57D0008D77D0008D97D000800000000CC
:10002000000000000000000000000000DB7D000870
:10003000DD7D000800000000DF7D0008E17D000894
:10004000FD9100080192000805920008099200083D
:100050000D920008119200081592000819920008EC
:100060001D9200082192000825920008299200089C
:100070002D9200083192000835920008399200084C
:100080003D920008419200084592000849920008FC
:100090004D920008519200085592000859920008AC
:1000A0005D920008E37D00086192000865920008F7
:1000B000699200086D92000871920008759200081C
:1000C00079920008E97D00087D920008819200087D
:1000D00085920008EF7D0008899200088D92000843
:1000E000F57D000891920008959200089992000809
:1000F0009D920008A1920008A5920008A99200080C
:10010000AD920008B1920008B5920008B9920008BB
:10011000BD920008C1920008C5920008C99200086B
:10012000CD920008D1920008D5920008D99200081B
:1001300038B500F06BF900F01DF84900224641F097
:10014000010101F038FF040005D0224603A10FF29F
:10015000641003F0F9F8204632BD00006D78745F3A
:10016000626F6F746C6F616465725F726561645F0A
:10017000693263004FF47A7100912B46DFF8F40A7C
:1001800090F83510DFF8000C704700002DE9FC41B5
:100190000D460646AF1C9046B8B203F0E9F80400DD
:1001A00008BFFF2021D000F033F926702A46360A16
:1001B00066704146A01C03F079F94FF47A71009102
:1001C000BBB2DFF8B00A90F83410DFF8BC0B22465F
:1001D000490001F042FE050003D02A4604A100F0C8
:1001E00077F8204603F06EF92846BDE8F681000056
:1001F00077726974655F6D656D5F693263000000D9
:1002000070B50D46412D044616460CD332464021AA
:10021000A0B2FFF7BBFF01000BD1403D4036403498
:10022000A8B24128F2D23246A0B2BDE870404021C7
:10023000ACE770BD2DE9FC4106460C46154600F0C2
:10024000E7F86421DFF82C8ADFF83C7B00918DF819
:100250000460360A98F834108DF80560022301AA6C
:100260004900384601F0F9FD0EA618B102463146A4
:1002700000F02EF84FF47A7098F83410009049008E
:1002800023462A4641F00101384601F094FE04005D
:1002900005D022464FEA060106A003F055F8204695
:1002A000BDE8F681726561645F6D656D5F6932639B
:1002B0000000000025732069326320726561646468
:1002C000204572726F72212125640D0A0000000022
:1002D00001A003F039B8000025732069326320774C
:1002E00072697465204572726F72212125640D0A4E
:1002F000000000009EE7F8B504460D46164600F0E3
:100300000DFA08B9FF20F2BDB0F8010028183246F6
:10031000012180B2FFF7EEFF070005D03378DFF848
:100320008C0B2A4621462BE00020F2BDF4B5044692
:100330000F4600F0F3F970B1C37801795B1C491CDA
:100340003E4659438E42DFF8685B06DB3246214663
:10035000284602F0F9FFFF20F2BDB0F801003F1877
:100360006A460121B8B2FFF74BFF070006D09DF89F
:1003700000303246214605F1380001E00020F2BD90
:1003800002F0E2FF3846F2BD41EA022181EA400173
:10039000C80144BF81F4000181F01B0121F07F40BE
:1003A00070470000F8B500F033F80027DFF8D8599F
:1003B000DFF8B46B0324F15D642301224900284671
:1003C00002F01CF810B1641EF5D10AE0DFF8A408B1
:1003D000F15D80F83410490004A002F0B5FF002060
:1003E000F2BD7F1C0C2FE5D30120F2BD466F756E68
:1003F00064206932632061646472657373203D20F8
:100400003078253032580D0A0000000004460D46B1
:10041000002003F05DB800001CB503216846FFF71B
:1004200087FE040005D000BF10A002F08DFF20461B
:1004300016BD9DF8004004F0C000402804BF0FF234
:100440004C0002F081FFA10616A007D59DF801100F
:1004500002F07AFF9DF8021018A003E09DF800104A
:1004600001F01F0102F070FF002016BD426F6F7493
:100470006C6F61646572207265616420737461746D
:100480007573206661696C65640D0A004150505FA8
:100490004352435F4641494C206F636375727265F6
:1004A000640D0A00426F6F746C6F6164657220495D
:1004B00044203D20253032780D0A0000426F6F74D1
:1004C0006C6F616465722056657273696F6E203D52
:1004D00020253032780D0A002DE9FC4EDFF89467B4
:1004E000B76800258A460024A946834616E0EAB28A
:1004F00006214A43B91800F038F89DF80000584525
:100500000BD19DF804100124514506D39DF803102A
:10051000BDF80190491C0AFB01996D1CB079E9B244
:10052000814201D2002CE2D01FFA89F0BDE8F68E9C
:100530002DE9FE4600F038F80BE000F012F89DF8C7
:100540000000504504D19DF803704FF001097F1C55
:100550006D1CA079E9B2814202D25FEA0900ECD0B9
:100560001FE0EAB206214A43B1186846062202F0AB
:100570009DBF2DE9FE4600F017F80BE0FFF7F1FFF5
:100580009DF80000504504D19DF804704FF001091A
:100590007F1C6D1CA079E9B2814202D25FEA09009A
:1005A000ECD0F8B2BDE8FE86DFF8C846A6680025A4
:1005B000A9460027824670472DE9F041DFF8B4468E
:1005C00010A104F13605804695F8006014A0720071
:1005D00002F0BAFE0027383400E07F1CB8B2B0EB5E
:1005E000460F0BDA22686978A088FFF783FE0100C6
:1005F00005D123681A784245EFD100E0FF20BDE81D
:10060000F08100006D78745F726561645F6D657381
:10061000736167655F7265706F7274696400000072
:100620002573203A206661696C5F636F756E742074
:100630003D2025640D0A0000F0B5DFF83836DE688D
:10064000012401E0641CE4B293F83650A5420BDBB0
:1006500016F81470874202BF06EB44056F78974284
:10066000F0D10C700020F0BDFF20F0BD70B5DFF8B8
:100670000446E368FF26067094F836508D4208D38E
:1006800013F81160067003EB4101487810700020E8
:1006900070BDFF2070BD2DE9FC41552104468DF849
:1006A0000110FF20FFF788FFDFF8C85500F089FC34
:1006B000E88FDFF8AC7900F02AF8804601200026A8
:1006C000B870012002F03AFF0A2002F0C7FF761C42
:1006D00030B99DF80000FFF76FFF5FEA000808D00F
:1006E000B978012910D1B1B240F6B8308142E8DBC7
:1006F0000AE0AA6B9078D178127940EA012040EAAA
:1007000002402060002000E04046BDE8F681401C29
:100710000DF10102012180B272E5000070B50146C1
:10072000DFF850058668002300E05B1C8279934265
:100730000BDA06245C43344425788D42F5D100BFA2
:1007400005A002F001FE204670BD00BF08A002F027
:10075000FBFD002070BD000056616C6964206F6273
:100760006A6563742074797065205425750A0000E9
:10077000496E76616C6964206F626A656374207487
:10078000797065205425750A000000002DE9FE4FA0
:1007900000208DF800000021DFF8D86406F1100079
:1007A00000F014FCF16A886810B90FF2B4103EE052
:1007B000317CB078814209D00FF2BC1002F0C4FD48
:1007C000B278317C0FF2D01002F0BEFD717CF0786F
:1007D000DFF85CAB814208D00FF2DC1002F0B4FD10
:1007E000F278717C504602F0AFFD306A10B90FF21A
:1007F000E4101CE00024346400220192029201A85B
:10080000FFF749FF40B902A8FFF745FF002802BFE4
:1008100002990198814204D0641CE1B20A29EBDB01
:1008200000E03064E4B20A2C04D10FF2C81002F0E8
:100830008BFD78E0316C0FF2DC1002F085FD316A3F
:100840000FF2EC1002F080FD306C316A884205D165
:1008500020B10AF1240002F077FD7DE00FF2F010E4
:10086000DFF8D05A02F070FD4FF0000904E039467D
:100870000FF2EC1002F068FDB26991456CD209F1FB
:100880000301914204D30AF1500002F05DFD4AE0F9
:1008900000F0E8FB306E4FF480622946484403F0D4
:1008A00031F9AB786A782978994409F103001FFA85
:1008B00080F90AF1840002F047FDB2692F784A45B9
:1008C00006D23B4649460AF1C80002F03DFD2AE047
:1008D00069783846FFF700FE04463846FFF728FEE1
:1008E00080463846FFF745FE002C8346BFD0A878E7
:1008F000804506DA4FEA070161A002F025FD85F880
:1009000002806878584503D329780AF58470B1E7E6
:10091000A978EA1C2046FFF773FC30B10FF2801172
:1009200064A002F011FD012017E0A9784145A3DA87
:100930002A78A8EB01010AF5967002F005FDAF7860
:100940007F1CF8B2404597DA00196A46FFF7E2FECD
:100950000028F5D00B2000E00020BDE8FE8F00004D
:100960004E6F20636667206461746120696E206643
:10097000696C650D0A0000005761726E696E673A16
:100980002076657273696F6E206D69736D61746333
:1009900068210D0A0000000066772066696C6520FA
:1009A0007665725B25645D2C2044657620766572E1
:1009B0005B25645D0D0A00005761726E696E673ACF
:1009C000204275696C64206D69736D617463682180
:1009D0000D0A0000436F6E66696775726174696F16
:1009E0006E2066696C6520636F72727570746564E1
:1009F0000A000000436F6E66696775726174696F03
:100A00006E206372632072656164206661696C6543
:100A1000640D0A005265616420636F6E6669672029
:100A2000435243203D203078253036580D0A0000CF
:100A300054617267657420636F6E66696720435204
:100A400043203D203078253036580D0A0000000044
:100A5000436F6E666967207570646174650D0A0086
:100A600054256420697320496E76616C6964206F37
:100A7000626A65637420747970650D0A0000000075
:100A8000542564204F626A656374206C656E6774D8
:100A900068206578636565646564210D0A0000005F
:100AA00077726974655F636F6E666967757261748A
:100AB000696F6E005772697465206D656D2066619F
:100AC000696C65642025730A00000000F0B585B0EC
:100AD00044788578C1780079664E45EA012545EA73
:100AE000004596F8480084422CD0AEA260074CBF67
:100AF0000FF29400104621074CBF0FF298011146E7
:100B0000E3064CBF0FF294071746A3064CBF0FF243
:100B1000940C944663064CBF0FF2900E9646230643
:100B20004CBF0FF29003134604B99FA204900391A7
:100B3000CDF804C0CDF800E002972146DFF8980C0C
:100B400002F002FCDFF818753CB929461BA002F040
:100B5000FBFB00223A70BA707A70200710D500BFF4
:100B60001DA002F0F1FB387860B9294620A002F000
:100B7000EBFB316A26A002F0E7FB0120387001E0B0
:100B800086F8484005B0F0BD20434F4D53455252C2
:100B90000000000020434647455252002043414C8C
:100BA000000000002053494745525200204F464C58
:100BB00000000000205245534554000054362043A5
:100BC0006F6E66696720436865636B73756D3A2065
:100BD0003078253036580A00434647455252206F38
:100BE0006363757272656420212121200A00000070
:100BF00044657669636520636F6E6669672043525A
:100C000043203D20203078253036580A000000006F
:100C1000436F6E6669672066696C652043524320A6
:100C20003D20203078253036580A000080B5092054
:100C3000FFF774FD08B9FF2002BDB0F801001230C3
:100C40006A46042180B2FFF755FB010010D19DF8E0
:100C500000209DF80110DFF8440C02EB0122028015
:100C60009DF803109DF8022002EB01224280002033
:100C700002BD0000101300202DE9F04F0346DFF8FD
:100C80001C4C20888BB019785A7840F2FF3500B997
:100C90002580608800B9658018799D78060946EA44
:100CA000051BDD78268800F00F0040EA0510B6F538
:100CB000806FB8BF4FEA9B0B6488B4F5806FB8BFF4
:100CC00080085C799D79DE79D3074CBF55272E27A4
:100CD00093074CBF4FF0530C4FF02E0C53074CBFF3
:100CE0004FF0410E4FF02E0E13074CBF4FF0560839
:100CF0004FF02E08D3064CBF4FF04D094FF02E0990
:100D000093064CBF4FF0520A4FF02E0A53064CBFC9
:100D100050232E2312064CBF44222E220790CDF8DA
:100D200010C0CDF80CE00A9609950894CDF818B0DB
:100D30000597CDF80880CDF80490CDF800A0DFF835
:100D4000600B02F001FB0BB0BDE8F08F38B5DFF8A7
:100D5000544B04F15A052A4609216420FFF7CBFAC7
:100D600001000FD104F15B0214216420FFF7C3FAE4
:100D7000010007D16B782A7804A1DFF82C0B02F070
:100D8000E3FA002032BD0000781300206D78745F14
:100D9000726561645F743130305F636F6E6669677E
:100DA0000000000000000000204F4B002DE9FF472D
:100DB000DFF8F85A0278697F521AD2B24FF0000871
:100DC000012AC146C2466EDDC4788378067903EBFA
:100DD0000423447906EB042E911E42781406C9B20E
:100DE0005AD52C7E95F800C006260AE0A70606D53F
:100DF00004F0DF0403E0E706F8D504F0EF04761C06
:100E0000F6B2664517DAE70748BF04F0FE04F6D4E9
:100E1000A70748BF04F0FD04F1D4670748BF04F0FA
:100E2000FB04ECD42707E6D5771C6745B8BF3E46E0
:100E300004F0F704E3E7C2F30214621E052A24D883
:100E4000DFE802F0031D23030331AA7E0AB110F884
:100E500002806A7E0AB110F80290EA7E0AB110F8A8
:100E600002A0CDF800E0CDF80CA0CDF80890CDF8A8
:100E700004802246DFF8380A02F066FA13E06A7E40
:100E8000002AEED010F80290EBE704B0BDE8F0477E
:100E90000FF6402002F058BA04B0BDE8F0470FF654
:100EA0004C2002F051BABDE8FF87000060900008B6
:100EB0009C8D00082DE9F843DFF8F849DFF8E45984
:100EC000207884B001280FF6582901AE49D095F852
:100ED0003710A88F01AAFFF70DFA78B99DF8041012
:100EE0000DF101026846FFF7C1FB80469DF8001036
:100EF0000FF6202002F028FA00270AE00FF6FC1077
:100F000002F022FA2DE0F8B27F1C315C484602F074
:100F10001BFA95F83700F9B28142F4D34FA002F0E2
:100F200013FAB8F1000F17D19DF80000062808D079
:100F300009280AD064280CD0762804BF7078607025
:100F40000AE001A8FFF7C2FD06E001A8FFF794FE42
:100F500002E001A8FFF72AFF0A2002F07FFB002829
:100F6000B5D005B0BDE8F083140000207CB5552055
:100F70003B4C8DF801000121A170FF20FFF71CFB05
:100F800000F01FF8DFF81C09C08FFFF7C0FB002638
:100F90000546012002F0D2FA0A2002F05FFB761C1F
:100FA00008B9FFF787FFA278012AB1B203D140F652
:100FB000B8308142EDDB0FF6701002F0C5F928461B
:100FC00076BD002269460620FFF736BB70B50E4697
:100FD000DFF8605300F046F84FF4806229460020A5
:100FE00002F090FDDFF8BC48002020826061A06123
:100FF000E06120626062A0622968CC48814207D02B
:101000000FF6381002F0A0F90420E061A66223E098
:101010000FF6441002F098F9287D2074697D617400
:1010200068686061A868A0610028E968E1612A69D0
:10103000DFF88458226219BF16202066284602F085
:1010400083F9E06920B1216EA0694118E16503E0F0
:1010500005F1300002F078F9002070BD0A000000B0
:101060007C1500204FF48061284602F0A5BD2DE9D3
:10107000F24F0446A6B022460FF6F8010FF6041010
:1010800002F062F92520FFF749FB050000F0C78058
:10109000B5F80100DFF82498DFF80868ADF8020021
:1010A0004846E978491CC9B204910A46BDF80210C5
:1010B00002F04AF906F15A0B112C18BF102C05D179
:1010C0009BF800109BF80100414307E0F72C1CBF80
:1010D000F82CF52C03D131797079411802910299DD
:1010E0000FF6C000DFF84CA202F02EF9E878411E9E
:1010F000C9B201914FF00008029801EB400101983C
:10110000491E91FBF0F080B203900246019909F16B
:10111000300002F019F902984700BFB239460FF6C5
:10112000980002F011F93946824802F045FD2EE0A0
:101130003A4600F005F926E0049881B2BDF80200B5
:1011400005AAFFF777F8002869D19DF814100FF66B
:101150008C0002F0F9F89DF815100FF6980002F0D7
:10116000F3F89DF81410A1425BD19DF8151041458C
:101170005AD10198B842DBDA024600F0E1F8019951
:101180007F1A8A44BFB208F101001FFA80F8039861
:1011900080454CDA822105A802F00EFDBDF8020060
:1011A00005AA0221FFF746F8002838D19DF814005F
:1011B000A04205D0B8F1000F08BF8DF8004002D062
:1011C00001218DF800109DF800100FF6000002F0CC
:1011D000BBF89DF8002005210620FFF7A7F8F0B91D
:1011E0000025F08F401D6A46012180B2FFF722F8EA
:1011F000A8B99DF8000000289ED0012002F09EF9B9
:101200006D1CA8B240F2F511884204DA9DF8000086
:101210000028E6D190E709F1580002F095F8FF2088
:1012200081E009F18800F8E709F1AC00F5E7DFF8A3
:10123000048145460FF20019112C18BF102C1ED145
:1012400000260FF2F80A02E000F07FF8761C9BF807
:101250000010F0B2884255D200279BF80100F9B285
:101260008142F1D229786A78AD1C41EA0221102C22
:1012700008BF09B2504602F067F87F1CEDE7F72C73
:101280001CBFF82CF52C3DD100F05FF80FF27C70FC
:101290000FF2887A02F058F8002710E02978687871
:1012A00041EA00219BF80100AD1CFAB2824205D24E
:1012B000F72C08BF09B2504602F046F87F1C70793F
:1012C000F9B28142EAD300F040F80FF2587002F010
:1012D0003BF8002710E09BF8000029786B78AD1CE4
:1012E000FAB2824241EA032105D2F72C08BF09B2C3
:1012F000504602F029F87F1C3079F9B28142EAD3D6
:1013000000F023F89DF89840302205210620FFF7D1
:101310000DF8064634B1029A4346520000210120DE
:1013200000F05CFA304627B0BDE8F08F1A2B3C4D38
:10133000148B0008B00C00200A0000002564200077
:101340000DF11601504602F0B1B8484601F0FCBF5D
:101350002DE9F84F84B0DFF84C55FFF723F805F17D
:10136000340600B30FF2DC6001F0EEFF0B24B8F19D
:10137000000F02D0404602F0A5F8706808B102F0F4
:10138000A1F8E86808B102F09DF822460FF2A461C6
:101390000FF6381001F0D8FF76A001F0D5FF2046F7
:1013A00005B0BDE8F08F3078DFF814A52438122896
:1013B00005D2504601F0C8FFFFF72EF8D6E76A467F
:1013C00001210620FEF796FF10B99DF8000010B924
:1013D0000AF12400C8E706274743FF1D39460FF2EC
:1013E000806001F0B1FF384601F0C2FF5FEA0008FB
:1013F00005D10AF1480001F0A7FF0B24BDE74246E2
:1014000007210020FEF776FF28B10FF26C6001F093
:101410009BFF0B24AEE7072401E0A41DA4B2BC424D
:101420000ADA08EB040206212046FEF763FF0028D3
:10143000F3D00FF26060EAE701AA03213846FEF715
:1014400059FF10B10AF17000E1E701AC9DF804000A
:101450006278A17840EA022040EA01403061002031
:10146000834609E008F1010212F80B20FEF78CFF19
:101470000BF102011FFA81FB7A1E18F80B1093453D
:10148000F0DB0022FEF780FF20F07F4731693A460B
:101490000AF1A00001F058FF306908B1B84202D04B
:1014A0000AF1D800B3E798F80010297098F80120E5
:1014B0006A7098F80200A87098F80320EA7098F80B
:1014C0000400287198F805206A7198F80600A87140
:1014D0000FF2DC5001F038FF69780FF2EC5001F0A8
:1014E00033FFA9780FF2F85001F00F02090901F05B
:1014F0002BFFE9780FF2FC5001F026FF29790FF25B
:10150000086001F021FF69790FF2146001F01CFFFF
:10151000A9790FF2246001F017FF16A001F014FF63
:10152000A97911B90AF1FC0071E706220AF5907059
:1015300001F00AFFA979062041430AF5B47001F0D1
:1015400003FFA8790621484301F012FFA86010B9F3
:101550000AF5D6705BE70020B070F0778DF8029046
:101560000021072003A285F854108B460392814680
:1015700069E000BF0D0A00001FFA89F008EB0001C6
:10158000062201A801F092FF0627A8689DF8041022
:1015900007FB0BF709F10609C155A8686178A37824
:1015A000421C01EB0321D153C31CE178D955AA6831
:1015B0002079111DC855AA686079511DC855A868C1
:1015C000C15D0FF28C5001F0BFFEA968481CC15BE1
:1015D0000FF2905001F0B8FEA868C11C0FF29850AD
:1015E000C95D01F0B1FEA868011D0FF2A450C95DEC
:1015F00001F0AAFEA868411D0FF2B050C95D01F0CC
:10160000A3FE039801F0A0FEA968481DC05D60B16B
:10161000B278531C8DF802300B1DDB5D5B1C03FBA5
:101620000020B070B0788DF80100C95D642906D142
:101630009DF802009DF8011085F85400F1770BF138
:1016400001001FFA80FBA879834595DBB1780FF282
:1016500074509C4C01F078FE00210620FEF73CFF00
:10166000708100210520FEF737FF30810520FEF74D
:101670005FFF401EF07000217520FEF72DFF608097
:1016800000217620FEF728FFA08071890FF24C50D0
:1016900001F05AFEF27831890AF5EA7001F054FE41
:1016A00061880FF2505001F04FFEA1880FF25C509C
:1016B00001F04AFE2878802805D1A878202802DA8F
:1016C000F078401CF070F07801F052FE706010B9B4
:1016D0000FF250509BE6F1780FF2645001F034FEA7
:1016E000B0784000401C01F043FEE86040B90FF2C2
:1016F000705001F029FEE86801F0E4FE0C204FE68E
:10170000002141700020E9680870012100230622B1
:1017100001E05B1C9BB2A879834228DAA86802FB2F
:1017200003FC441D14F80C000028F2D0002015E042
:10173000EF687F1C07F81100AF68D5F80CE017F8C8
:101740000C700EF81170491C89B2AF6807F1050ED4
:101750001EF80C703F19B942EADB401CAF683F1D10
:1017600017F80C40C7B2BC42D3D30C46EDE7FFF7E5
:101770000DF818B10FF2045001F0E6FDFFF7F6FB8B
:1017800038B10FF2B0210FF2145001F0DDFD0B2043
:1017900006E600210920FEF79FFE50B1FFF746FA4A
:1017A00098B10AF5027001F0CFFD0020F08230837D
:1017B0000BE000216420FEF78FFE30B1FFF7C6FA80
:1017C00018B10FF2EC4001F0BFFD0AF50B7001F00B
:1017D000BBFD0024CEE50000D090000838B51C46C3
:1017E00010B1012810D031BD374A10782070002088
:1017F00052786270A0700B22E27020710225657130
:1018000006232246022002E093B22246A22001B023
:10181000BDE8304002F017BA38B504460FF2C440B4
:10182000A579294601F090FD28490B68A17800228E
:101830000020FFF7D3FF022D03D101211120FFF774
:1018400016FCBDE832400FF2BC4001F07DBD1CB576
:1018500004460521684602F0AFF9FFF779FD58B953
:101860001048017842788DF800108DF801208178B9
:10187000C0788DF8021006E0FF208DF800008DF88A
:1018800001008DF802008DF803000423A178607830
:101890006A4602F0D8F913BD000000005A13002078
:1018A000B08E000810130020F88E000847130020A7
:1018B000308F000881150020008E0008648C00081D
:1018C000C0880008641300206A1300200000002074
:1018D000FFF7F0BA556E65787065637465642054DF
:1018E0003130302074797065200A00005B25755D09
:1018F0002072656C6561736520200A005435206D87
:101900006573736167652072656164206661696CE7
:10191000200A000054256420202020200000000020
:1019200030782530327820006261636B75705F64B7
:101930006C79203D202564200A0000004669726D04
:10194000776172652066696C6520747970652069BD
:1019500073202E656E630A004669726D7761726549
:101960002066696C652074797065206973202E6625
:10197000770A00006765745F5433375F6461746190
:10198000000000001B5B33326D2573203A206D6F21
:101990006465203D20307825303258200D0A1B5BCD
:1019A000306D0000646174615F76616C75657320F1
:1019B0003D202564200D0A006E6F6465636F756EAF
:1019C00074203D202564200D0A0000006462675FDA
:1019D000636D64203D202564200D0A007433375F59
:1019E0006275662E6D6F6465203D202564200D0AAA
:1019F000000000007433375F6275662E70616765A2
:101A0000203D202564200D0A0000000053656C660F
:101A10002D6361702059203A200A000025642C2093
:101A20000000000053656C662D6361702058203AF9
:101A3000200A00006D78745F6472697665725F6970
:101A40006E69740049324320616464726573732067
:101A5000636865636B206661696C65640A000000F9
:101A6000696E666F5F626C6F636B5F73697A652026
:101A70003D2025640D0A0000646576696365206970
:101A80006E666F2072656164206661696C640D0A20
:101A9000000000006F626A656374207461626C65A7
:101AA0002072656164206661696C640D0A00000043
:101AB00046616C696C79204944203D20307825309E
:101AC00032580D0A0000000056617269616E742080
:101AD0004944203D203078253032580D0A0000005E
:101AE00056657273696F6E203D2025642E25640D46
:101AF0000A0000004275696C64203D203078253072
:101B000032580D0A000000004D6174726978205847
:101B10002053697A65203D2025640D0A00000000ED
:101B20004D617472697820592053697A65203D208F
:101B300025640D0A000000004E756D206F66204F71
:101B4000626A65637473203D2025640D0A000000FD
:101B50006F626A6563745F74797065203D202564E7
:101B60000D0A00006932635F6164647265737320FB
:101B70003D2025640D0A000073697A655F6D696E0A
:101B800075735F6F6E65203D2025640D0A000000AF
:101B9000696E7374616E6365735F6D696E75735F93
:101BA0006F6E65203D2025640D0A00006E756D5F27
:101BB0007265706F72745F696473203D2025640DD7
:101BC0000A0000006D61785F7265706F72745F6902
:101BD00064203D2025640D0A000000006D78742EFD
:101BE00054365F61646472657373203D2025580D1F
:101BF0000A0000006D78742E543131375F616464DF
:101C000072657373203D2025580D0A006D78742E7F
:101C1000543131385F61646472657373203D2025EF
:101C2000580D0A006D7367206D656D20616C6C6FD7
:101C3000636174696F6E206661696C65640D0A008A
:101C40006D78742E6D61785F6D6573736167655F24
:101C50006C656E677468203D2025640D0A000000E5
:101C6000726964206D656D20616C6C6F636174696D
:101C70006F6E206661696C65640A0000436F6E6672
:101C8000696775726169746F6E2077726974696EC5
:101C900067206661696C65640A0000004261636BDD
:101CA0007570204661696C6564202025730A000008
:101CB0004661696C656420746F20726561642054AC
:101CC00031303020636F6E6669670A002573203AF1
:101CD0002066696E6973687E7E7E7E282564290D84
:101CE0000A000000746F7563685F696E73706563E6
:101CF00074696F6E20747970655B307825785D0D3E
:101D00000A000000746F7563682074657374206541
:101D10006E640D0A00000000F8B5040022D004F142
:101D20003C05697821B900202870204602F097F818
:101D300024216970DFF87C7500F054FB206801688D
:101D400041F4004101602168086820F40040086007
:101D500002F060FB6268BA42014605D2DFF858051E
:101D6000814205D20120F2BDDFF850058142F9D34E
:101D70002368DFF84C255868B1FBF2F2800942EA8B
:101D80008010586023681E6A6068B84206D34FF41A
:101D9000967042434FF47A70B2FBF0F2521CB609CF
:101DA00042EA86121A62491E2268D3696668BE42F8
:101DB00006D2760000F044F8042913D2042111E081
:101DC000A06820B906EB460600F03AF805E01920B5
:101DD000464300F035F841F4804108050CBF01216D
:101DE00041F40041DFF8DC0403400B43D361236876
:101DF0001A68E069216A22F0C00202430A431A60AD
:101E00002368DFF8C4049A6821690240E0680A4345
:101E100002439A602268D368A06961691B0A40EA9C
:101E200003230B43D36020212068026842F00102A3
:101E3000026000206860697020630021A970F2BD13
:101E4000B1FBF6F1491CC1F30B0170470068416911
:101E50000A0644BF0021016170472DE9F84304469A
:101E60000F469046994602F027FB00F0E1F902D1B7
:101E700000F07EFA002840F08A803078012800F0D7
:101E800086800122327000F054FB212070701021F6
:101E9000B17000207060C4F82480A4F82A9000F08B
:101EA000EDF9E06A08281CBF0128884205D0206BA4
:101EB000122804D100F07EFA01E000F04BFB0095FF
:101EC0000022DDF8208043464FF0011100F055FA62
:101ED00038B122681068C1054FD54FF400707060AA
:101EE0004BE02069B0F5804F04D1216807F0FE0770
:101EF0000F6111E0F809216800F0060040F0F000E1
:101F000008612B464246DFF8C41300F0ACF9002804
:101F100033D12068FFB207612B464246DFF8B01389
:101F200000F0A1F9002828D100F03EF80099208D9A
:101F3000002824D02A464146204601F026F9B8B9A7
:101F4000626A20681178016100F024F821684B6909
:101F50005A0706D580B220B1626A1078086100F095
:101F600019F82A464146204601F03EF90028DED005
:101F70007068042801D100F06DF9012008E000F03C
:101F8000DEF9202171700020B070307000E0022076
:101F9000BDE8F283616A481C6062618D481E6085FD
:101FA000218D481E2085704700902068416900916E
:101FB0008269009270472DE9F84F04460020009096
:101FC00088461746994602F077FA00F031F902D1B7
:101FD00000F0CEF9002840F022813078012800F08E
:101FE0001E810122327000F04FF9102200F055F9E5
:101FF0007170B270002070606762A4F82A90608DE2
:102000002085DFF8D002E062E36A21680A6842F4C2
:1020100080620A60082B18BF012B04D083421CBFCA
:10202000206B112801D100F0C5F9009500220A9F0C
:102030003B464FF0011100F0A0F94FF4007938B1A0
:1020400022681168C80548BFC6F804900120E7E07F
:102050002069DFF87CB2B0F5804F07D148F001006D
:102060005FFA80F82068C0F810802FE04FEAD8109F
:10207000226800F0060A4AF0F00111612B463A4648
:10208000DFF8481200F0EFF80028DFD120685FFA8F
:1020900088F8C0F8108000F0E3F80028D6D100F0EE
:1020A0009AF9009A23681968184641F48071016012
:1020B00000953B4600224FF0011100F05EF9002828
:1020C000BED120684AF0F10AC0F810A000F0C8F8AC
:1020D0000028BBD1208D10B900F037F928E0012885
:1020E00002D100F051F90BE00228206801680BD101
:1020F00041F40061016072B600F0B8F800F0F2F847
:102100001046016062B613E041F48061016000F0A6
:10211000ADF800990CE000F026F9002896D100F007
:1021200093F8511C6162208D411E218500F0E3F877
:10213000208D00286DD0042857D20128EBD002282A
:10214000DFF8401200953B4614D1002200F015F94B
:102150000028E3D172B600F07DF800F075F8208D0C
:10216000511C6162411E218500F0C5F862B600F085
:10217000DAFDD8E7002200F000F9002829D100F0AC
:1021800093F872B600F05AF8208D4A1C411E626224
:1021900021851922608D411EDFF8140261854FF4FC
:1021A0007A710368B3FBF2F200F096F800F008F9D8
:1021B00020B1216848694107F8D50BE02063202150
:1021C00071700022B270706840F02000706062B6DA
:1021D00032703BE722681168104600F097F8616A98
:1021E000208D4A1C411E6262BDE700F0BCF8002849
:1021F000EFD100F093F89BD580B2032801D100F015
:102200007EF800F01BF84A1C218D626200F00AF88B
:102210008EE720217170B0700021317000E0022043
:10222000BDE8F28F481E2085618D481E608570478D
:1022300004F13C0605467078202870472268116931
:10224000606A0170616A704720680169606A0170A4
:10225000626A70472068016841F40071016070474C
:102260002B463A465946204600F03ABF00200090DF
:10227000206841690091826900927047608DDFF8A3
:1022800054102085E162704720680168CA0703D4B2
:10229000016841F00101016070472168086820F47D
:1022A00000600860222170472168086820F480607F
:1022B00008607047A186010080841E0000093D006F
:1022C00040420F000030FFFF007CFFFF08000100CC
:1022D000020001000000FFFFB2FBF1F123204143A7
:1022E00000917047009B2268116821F4806170475B
:1022F000616A4A1C6262608D411E61857047226876
:102300001168104621F480610160704741F400714A
:10231000016022681169606A017070472068016974
:10232000606A0170616A208D4A1C401E62622085CD
:10233000638D5A1E628521684A695107704721687A
:10234000086840F400700860704700902168486990
:10235000009089690091009B22681168104641F441
:102360000071016070472A463946204600F05EBF82
:10237000009519230122DFF8D811204600F078BE1D
:1023800000000000040001002068016821F4806161
:10239000016072B600200090206841690091826956
:1023A0000092009B2268116841F4007170470000A0
:1023B000100000202068016841F4807101607047BE
:1023C0000098401E0090009870472068016821F432
:1023D00080610160704700902168486900908969B8
:1023E0000091704721680868400840000860704705
:1023F0000020009021684869009070472DE9F84F4F
:1024000004468B46924600F091F804F13C050646DE
:1024100068780027202808D1DFF834910096192326
:1024200001224946FFF7A9FF00287AD12878012820
:1024300077D001222A7000F07CF8242068700021F7
:102440006960DFF81C01E062FFF7B4FF00964346C5
:1024500000224FF00111FFF790FF38B920680BF010
:10246000FE01016102F028F8064612E020680268C9
:10247000D10544BF4FF400706860032052E002F0C1
:102480001BF8801B804502D3B8F1000F01D1A020BA
:1024900068702168486949696A784008890AA02AF1
:1024A00000F0010001F0010101D00843E7D0202035
:1024B000687021684869810714D4236818681A462F
:1024C00040F4007010606FF48061206841610096F4
:1024D000192301224946FFF750FF00BB7F1C5745D7
:1024E000B2D319E020680168024641F4007111601E
:1024F000002000901923FFF758FD01220099009653
:102500004946FFF73AFF010003D1202068700022FE
:102510002A70080006D002E020216970287001208E
:1025200000E00220BDE8F28F89461546984601F08A
:10253000C3BF20680168CA0703D4016841F00101E4
:1025400001602068016821F40061016070470000AB
:10255000020010002168086840F48070086070472D
:102560000000FFFF2DE9FC41044604F13C05226810
:10257000DFF8286A5168E06A95F802C06F78002396
:10258000BCF1100F18BFBCF1400F40F0728293698C
:10259000D2F814E05FEACE7805D4B0F52A0F18BF60
:1025A000B0F12A4F39D05FEACE7047D5880545D5BE
:1025B000E16AB1F52A0F08BF012004D0E16AB1F148
:1025C0002A4F01D10820E062A878402809D1686923
:1025D0000028A8681ABF40F00100C0B200F0FE0059
:1025E0002AE02069B0F5804F18D168782128A868C2
:1025F0000EBF00F0FE0040F00100C0B21061606B41
:1026000000281CBF806A002805D1A06B00281CBFD1
:10261000806A002801D000F0ACFB35E3686920B97E
:1026200000F03BFB40F0F00006E06869012804D1AF
:1026300000F033FB40F0F100106125E35FEA0E701B
:1026400015D5880513D5A968C9B21161606B00283A
:102650001CBF806A002805D1A06B00281CBF806ABF
:102660000028EAD02068416841F4006135E15FEA62
:102670008E7000D5880540F1AE80AF78E16A236B9B
:102680006878222840F0A4806869002808BF402F9D
:1026900000F09E806869002804BF2069B0F5404FB3
:1026A0000FD1002100915369009391690091009B23
:1026B00022681068114640F4807008606869401C08
:1026C00084E0608D10B900F004FB2BE0608D0128E0
:1026D0003AD1B14213D11168104621F480610160F2
:1026E00021684A68100505D50B461A6822F48062F5
:1026F0000A6068E0002000904A6900920FE0082913
:1027000018BF202903D0122B0FD1012912D0104657
:102710000146026822F480620A60FFF769FE896957
:102720000091009B00F0EEFA4FE004291CBF022943
:10273000102903D0106820F4806002E0106840F493
:102740008060114608603EE0608D022827D1042990
:102750001CBF022910290CD01346186840F40060F1
:1027600000F0D7FA236818681A4620F480601060D9
:1027700005E01346186840F4806000F0CAFA20684B
:102780004268130521D5B14218BF012904D0082998
:102790001CBF1029202918D100F091FA15E013462A
:1027A000186840F480601060206843681A050AD5F4
:1027B000B14218BF012904D008291CBF10292029C3
:1027C00001D100F07CFA00F0E0FA002068615BE2E1
:1027D00000F07FFA58E25B070EF0040061D5536801
:1027E0001B05F7D45FEA0E632CD54B052AD50028CC
:1027F00028D16F78A978E36A208D002808BF212F9F
:1028000013D1082B1CBF202BB34204D000F050FA88
:102810000022AA7031E000F08EFA34D10020A870B6
:102820002046BDE8F64101F04DBE212F03D04029DE
:1028300008BF222FCED1608D002852D0A878402822
:102840002BD00BE00028C5D08805C3D5212F21D17E
:10285000E16A68782128BDD1608D28B1616A087865
:102860001061616A481CA6E008291CBF2029B142FA
:1028700006D000F01DFA0020A8702021697004E045
:1028800000F059FACAD00020A8702046BDE8F641F1
:1028900001F019BEBCF1400F20D12046BDE8F64141
:1028A0007CE25668330519D45FEA4E6677D54B054E
:1028B00075D5002873D1687822280FD1E66A608D1B
:1028C00004280CD300F0E3F9FFF714FD608D032812
:1028D00004D12068416821F480614160D4E1E16A5B
:1028E000022959D0012818BF002855D10020DFF84F
:1028F0007C77009019213B68B3FBF1F14FF47A70BB
:10290000B1FBF0F000EB800000902146FFF758FD8E
:1029100020B10C6823689805F8D41AE06B6843F07E
:1029200020036B60506820F4E06050600B681A6907
:10293000486A02704A6A531C4B6220224C8D601E0A
:1029400048856A700020A8700846BDE8F64101F08D
:10295000BBBD0C46FFF7D3FC2068416821F4E06161
:10296000416000F0E0F92022618D481E60856A70A8
:10297000A978402908D10020A870002121632046B1
:10298000BDE8F64101F0A1BD0020A870082E18BFD7
:10299000202E63D0122062E000F085F974E1002857
:1029A000FCD08805FAD5E06A618D042908D100F0D1
:1029B0007AF900F0D6F96062618D481E608563E1A6
:1029C000618D03290BD1516821F480615160042885
:1029D00018BF022801D0FFF7F8FC22684FE1618D93
:1029E000022942D1012818BF10280DD0042818BF91
:1029F000022804D013461A6842F4007208E0134615
:102A00001A6842F4806203E013461A6822F4806276
:102A100019460A6023681A69616A0A70636A5A1C57
:102A20006262638D5A1E628521680A69616A0A7052
:102A3000626A531C6362628D511E618521684A6817
:102A400022F440724A6020216970AA78402A92D00C
:102A50000021A970082818BF20289BD100202063DE
:102A60002046BDE8F64101F031BD116900F02CF9B6
:102A700007E1686800B99369D2F814C05FEA8C7006
:102A800020D588051ED5686800B193696878002153
:102A900000F02800282811D100F005F9580758BF88
:102AA0000121180654BFE268A2690020287002B014
:102AB0002046BDE8F04192B201F009BD00F009F9ED
:102AC0002B70E1E05FEACC6300D5880540F17F80A0
:102AD0006F78516821F4E0615160FFF789FC22684A
:102AE0001168104641F001010160009AFFF76DFC8A
:102AF00021684A6810052ED50FF2A548222F18BF6D
:102B00002A2F13D0626B10684368638500F0EFF8DA
:102B1000606B01F089FD01281DD0606BC0F8348026
:102B2000606B01F0F9FCB0B1606B12E0A06B036860
:102B30005A68628500F0DBF8A06B01F075FD012892
:102B400009D0A06BC0F83480A06B01F0E5FC10B197
:102B5000A06B416B8847608DB8B1206841694A0716
:102B600004D50169606A0170FFF7C2FB2068426901
:102B7000510604D50269606A0270FFF7B9FB608DE7
:102B800018B1686840F004006860686818B12046B1
:102B9000BDE8F6415FE12A2F06D1002121632820FC
:102BA0006870204601F043FD6878282807D1E66266
:102BB00000F0E5F82046BDE8F64101F039BD206B94
:102BC000222818BF222F5FD100F0D9F84DE00CF079
:102BD0000400212F18BF292F2DD15FEA0C661CD5C8
:102BE0004B051AD5C8B96978608D00284CD0606A49
:102BF00003781361606A421C626200F072F808BFD9
:102C0000292941D100F0A7F82121216328206870EB
:102C10002046BDE8F64101F00CBD002834D08905FE
:102C200032D5608D00282FD0606A01781161606A0A
:102C3000411C616226E05FEA4C661BD54B0519D545
:102C4000C0B96978608DF8B11069626A1070606A05
:102C5000431C636200F045F808BF2A2914D100F034
:102C60007AF822212163282068702046BDE8F641C9
:102C700001F0DDBC40B1890506D5608D20B100F0C2
:102C800006F86262FFF737FBBDE8F38100001069C8
:102C9000616A0870606A421C7047A8680004C00D31
:102CA00000F006007047506820F480605060704764
:102CB000506820F4E0605060112121637047416842
:102CC00041F4805141607047606A0170616A4A1C3A
:102CD0007047002300935169009192690092009916
:102CE0007047608D421E6285608D00287047608D40
:102CF00018B1686840F004006860486820F400601B
:102D00004860704722681068114640F400700860FF
:102D10007047106000230093206842690092836925
:102D20000093009A704720680169606A0170616AC7
:102D30004A1C62627047506820F4E06050600022D4
:102D40002068016841F400710160226320206870EE
:102D5000A978402970472168486820F4806048605D
:102D6000704721680869616A0870626A501C704780
:102D700048602168486840F400604860704700205F
:102D8000206320216970A87070470020009021689E
:102D90004869009089690091009A704710B500F168
:102DA0003D0200F148041378A16881B900686268A7
:102DB0002168012A04D1C9B20161A068801C04E025
:102DC0000904090E0161A068401CA06010BDA16843
:102DD000012904D122680068D2B202610AE0A16828
:102DE000022933D1222B09D102681168104641F41F
:102DF00080710160A168491CA16010BD418D61B165
:102E0000212B0AD1436A01681A780A61426A511C6F
:102E10004162428D511E418510BD418D002908BF80
:102E2000212B17D10368596821F4E061596000240F
:102E30000368196841F4007119600463202313705A
:102E400000215170BDE8104001F03CBBBDE81040CE
:102E5000FEF7FCBF10BD38B5044604F13D052878E7
:102E60006978102914BF4029222804D121680A68F2
:102E700022F400620A6000F02801282904D100220F
:102E80002263282028700BE021684A68110505D4C8
:102E9000602803D020202870002169700020206362
:102EA000206841680A052BD5416821F40061416022
:102EB000626B0FF2ED0092F8211001290BD05063E4
:102EC000606B01F029FB00282DD000F059F820207C
:102ED0002870606B11E0A26B5063A06B01F01CFBCB
:102EE00008B3206841694A0602D5016900F038F844
:102EF000FFF778FA20212970A06B416B884712E018
:102F00002A78602A0AD1202129700022226400F048
:102F10002DF800F03BF801F08DFB04E000F026F8FE
:102F2000204601F0D1FA206C10F00F0F04D0216878
:102F3000486820F4E06048602878226C51070ED57C
:102F400028280CD11548E062002121632020287038
:102F500000226A702046BDE8324001F069BB31BDF5
:102F6000606A0170626A511C6162704741694A0679
:102F700005D50169606A0170616A4A1C6262704726
:102F800020680168490849000160704721680868A5
:102F90004008400008602046704700000000FFFF26
:102FA0007CB5002100911925416A304801F13D02AC
:102FB0004FF47A7413780668B6FBF5F5B5FBF4F4B4
:102FC000232044430094009838B10098401E00909C
:102FD0000C6820688505F6D403E0086C40F02000FA
:102FE0000864486B08B100248462886B08B100242F
:102FF00084620C68206820F48060206000244C8586
:10300000486B00B14463886B00B14463086804688E
:10301000640864000460107860280AD120231370CB
:103020000024547000220A640846BDE8764001F08E
:1030300001BB03F02803282B0ED10868036843F076
:10304000010303600868046844F48064046000209D
:1030500008632824147003E02020107000235370AC
:103060000846BDE8764001F02FBA000010000020AD
:103070002DE9F8430E46089F054691469846340CC4
:103080002968E0B201280CBF4969896900F078F825
:103090000CBF01200020484520D118F1010FEFD0CE
:1030A00001F00AFAC01B804502D3B8F1000FE7D146
:1030B0002968E0B201280CBF4969896900F060F80D
:1030C0000CBF012000204845DAD100F0DBF842F0C7
:1030D0002002426001700120BDE8F2830020FBE77E
:1030E0002DE9F0410E46054614469846370CF8B2D5
:1030F000012821D129684869304080B2B1B28842A4
:103100001FD02868416948051DD529680B680A4603
:1031100043F4007313606FF48061286841610022FA
:1031200005F13C002A63202141708270416841F022
:103130000401416002701BE02868816900F020F8FA
:10314000DFD1002015E014F1010FD0D001F0B4F967
:10315000A0EB0800844201D3002CC8D1F8B2296842
:10316000012808D1496900F00BF8C3D000F02FF80E
:103170000120BDE8F081896900F002F8DCD0F5E7B4
:10318000314089B2B0B28142704770B505460C46F5
:10319000164628684169080617D4284600F07CF8CE
:1031A00018B914F1010FF4D001E0012070BD01F055
:1031B00083F9801B844201D3002CEAD1286841693D
:1031C0000806E6D400F003F8EFE7002070BD002108
:1031D00005F13C002963202242708170426842F070
:1031E000200242600170704770B505460C461646D5
:1031F00028684169480717D4284600F04DF818B9E7
:1032000014F1010FF4D001E0012070BD01F054F978
:10321000801B844201D3002CEAD128684169480709
:10322000E6D4FFF7D4FFEFE7002070BD70B5054688
:103230000C46164628684269510621D44269D106D7
:1032400008D56FF01002426100F01CF84260017076
:10325000012070BD01F030F9801B844201D3002CA5
:10326000E8D1286841694806E4D4002105F13C0012
:103270002963202242708170426842F02002E5E713
:10328000002070BD00202863202205F13C000021B1
:10329000427081704268704710B501684A695405F0
:1032A0000DD56FF480634B61002101633C30202316
:1032B00043708170436843F004034360017012F46B
:1032C000806018BF0120C0B210BDF0B40246106883
:1032D00095681318506803EB5004C00748BF4D446D
:1032E000A3422DD013F8016B16F0030004BF13F8AE
:1032F000010BC01C31090F2907D113F8011B0F3135
:1033000003E013F8017B05F8017B401EF9D1002989
:10331000E6D013F8010BC6F38107032F08BF13F89B
:10332000017B00EB0720404228440026B71E8F4255
:103330001EBF10F8017B05F8017B761CF6D1CFE7A4
:10334000F0BC02F10C0070470EB41EB5024605A891
:1033500001900024009401AB0121044878440C3012
:1033600001F06DF903B010BC5DF810FB1D5E0000AC
:1033700010B50446AFF30080204600F005F804467F
:10338000AFF30080204610BDF8B500F10F04E4084B
:10339000E400A0422BD2082C04D2082402E008301A
:1033A00000F047F8DFF800211568290005D1002555
:1033B00007E00368A3420DD2011D08680028F8D178
:1033C0002D68111D00E0191D0B68AB420BD0186869
:1033D000A042F8D359B10B6818680838A04208D247
:1033E000586808600FE002F08DF80028D7D100205F
:1033F000F2BD181908601E1D5F6837511D68086806
:103400002D1B05601C60086800281DBF416800294D
:10341000001D0020106003F10800F2BD10B504008B
:1034200006D0AFF30080204600F003F8AFF3008031
:1034300010BD002800D1704770B4A0F108021468D4
:10344000072C2ED914F0070F2BD1DFF85C30596808
:1034500009B18A4203D251605A6015E001464868BA
:1034600008B19042FAD30E688819824219D390426B
:1034700003D1A4190C600A4606E0486810B1144450
:10348000A0420ED350604A60506850B114681619BB
:10349000864206D100251D6001680C191460406841
:1034A000506070BC70470000681500204AB10000F1
:1034B00011F8013B521E00F8013B1CBF11F8013B03
:1034C000F8E77047FFF7AABF0121002000F04AB8D3
:1034D0000E4B1A78904200D17047E0B51870012366
:1034E00003FA00F000F00F008DF8040001AA642038
:1034F0000090E0210648FEF7B0FC020005D000BFB6
:103500000FF2100109A0FFF71FFF07BDA000002068
:103510007813002054434139353436415057525FB7
:103520004368616E6E656C5F53656C002573204562
:1035300072726F72212125640D0A000038B50546AC
:1035400000F0BAFF15F1010F044602D004490878D3
:10355000451900F0B1FF001BA842FAD331BD00BFEE
:103560000400002038B50B28DFF89433DFF89443CB
:10357000DFF8945370D8DFE800F0060D161F2830EE
:1035800039424B545B6411B10122022123E0002235
:10359000022120E019B101224FF400711BE000224A
:1035A0004FF4007117E019B101224FF4806112E06D
:1035B00000224FF480610EE019B101224FF4006146
:1035C00009E000224FF4006105E009B1012200E0AA
:1035D00000224FF4805118463AE019B101224FF40D
:1035E000806123E000224FF480611FE019B10122C5
:1035F0004FF400711AE000224FF4007116E019B187
:1036000001224FF4807111E000224FF480710DE02F
:1036100019B101224FF4004108E000224FF40041AB
:1036200004E009B1012200E00022082120460FE059
:10363000002907BF00224FF4006101224FF400610E
:1036400005E0002914BF012200224FF480612846C2
:10365000BDE8384002F04CB831BD000010B50A2872
:10366000DFF8A832DFF8A042DFF8982226D8DFE89A
:1036700000F006080A0D101316181A1C1E0020214F
:103680000BE0012100E00221184613E04FF48051C5
:103690000FE04FF400510CE0802120460AE0802129
:1036A00007E0102105E0022103E0012101E04FF4D1
:1036B00080411046BDE8104002F014B810BD80B53E
:1036C0000FF2B4220FF2A421DFF84402FFF73CFE10
:1036D0000FF2B020FFF738FEDFF8380201680FF272
:1036E000C420FFF731FE00F08FF9BDE80140FFF77D
:1036F000EBBE80B5012811D10021FFF733FF00F0A8
:10370000A4F800F09FF800F09AF800F095F8142063
:10371000FFF714FF00F08DF8642085E0002100F031
:1037200089F80A20FFF70AFF002100F086F800213F
:1037300000F086F80A20FFF701FF002100F083F86F
:10374000002100F083F8BDE804400121012009E7D1
:1037500010B500F032F8DFF8C441012804BF20782A
:1037600000280AD10520FFF7E9FE00F026F801281D
:1037700003D1FFF7BEFF0120207000F01EF80028E3
:1037800004BF2078012809D10520FFF7D7FE00F0FB
:1037900014F818B9FFF7ADFF002020700A20FFF7DA
:1037A0005DFF48B95C49087830B1FEF791F8BDE893
:1037B00010400520FFF7C2BE10BD06204EE7584856
:1037C000C16AB1F5FA7F00D2704738B50022554979
:1037D0004C4CC262087800B3534D2878C30758BFD9
:1037E00001224FF48061204601F082FF297888078A
:1037F00054BF012200224FF40071204601F078FFEF
:10380000287810F00C0F0CBF012200222046BDE8E2
:1038100038404FF4807101F06BBF2046BDE8344062
:103820004FF4806101F068BFFFF788FEBDE80140FA
:1038300043E001210B2095E60121082092E60121B9
:1038400009208FE6012103208CE60121022089E670
:103850002DE9F0430FF26415344995E8C0018FB0AB
:10386000E946044689E8C00103A83022FFF71EFE9E
:103870000DF1090002F016F8064600208DF806004A
:1038800001A802F00FF8074600208DF803008046DB
:1038900003A850F82810684602F00CF828B108F187
:1038A0000108B8F10C0FF3DB01E008F10105267007
:1038B0006570A7700FB0BDE8F08370B502220221D9
:1038C000442000F007FB08220F21442000F002FBF7
:1038D0000221442000F020FB06460321442000F092
:1038E0001BFB0446124D324602212846FFF72CFDF1
:1038F00022462846BDE870400321FFF725BD0000A1
:10390000001801400014014000100140000C01406B
:10391000D48F000810000020861500208715002095
:10392000FC140020801500207F1500200490000862
:10393000F490000838B504466079A579E17945EA44
:103940000025207A40EA0120024604F1090168437B
:1039500000F096F800F001F831BD8DF80050A17824
:10396000607801236A4600F06EB900004F6374204E
:10397000203220323032350031363A33343A313168
:10398000000000001B5B33326D50524F4A454354D8
:10399000203A20544F564953203438520D0A1B5BAD
:1039A000306D000053797374656D436F7265436CBD
:1039B0006F636B203D2025640D0A00004F63742067
:1039C000203220323032350080B500F017F801F097
:1039D000D4FF01001CBF0FF29810FFF7B5FC0120C7
:1039E00002BD80B500F00AF802F063F801001CBFC8
:1039F0000FF29810FFF7A8FC012002BD8AB2014621
:103A00004FF4FA735748704710B5574C01224FF4E2
:103A10000071204601F06CFE01224FF480712046B7
:103A200001F066FEBDE81040012002F0EEBA80B55C
:103A3000062100F020F800F08CF800F090F815E076
:103A400080B5052200218DF8012000F014F800F067
:103A500080F801210DF10100FFF7B6FF0121684652
:103A6000FFF7BFFF9DF80010C807F2D400F071F80F
:103A700000F072F801BD8DF80010002002F0C5BA08
:103A8000F8B50446B4F5801F0D46174639D23819EB
:103A9000401EB0F5801F31D3F1BDFFF7C8FFC4F35E
:103AA0000800C0F50070BEB2BBB28642C8BF064671
:103AB0004FEA04023BA12D48FFF746FC02208DF897
:103AC0000000220C210A8DF801208DF802108DF8DB
:103AD0000340002002F099FA00F03BF8042100F0C6
:103AE0003FF831462846FFF76FFF00F032F800F04C
:103AF00033F8FFF7A5FF34193544BF1BB8B20028CF
:103B0000CBD1F1BD38B50C461546B0F5801F3EBF90
:103B10002918491EB1F5801F1AD20321030C020A8D
:103B20008DF803008DF800108DF801308DF802201B
:103B3000002002F06AFA00F00CF8042100F010F8FE
:103B400029462046FFF74DFF00F003F800F004F887
:103B500031BD0A20FFF7F2BC012002F056BA012164
:103B6000684631E7CC13002000100140AC900008FB
:103B700073706931205472616E736D69742065725F
:103B80007220282558290D0A000000007370693141
:103B90002052656365697665206572722028255814
:103BA000290D0A004D39355078785F577269746570
:103BB0004461746100000000002202F033BA2E005C
:103BC00030B502460020012402E0535D1818641C41
:103BD000A5B28B1E9D42F8DBC0B230BD30B50022CD
:103BE00001248B1E02E0455DAA18641CA5B29D420B
:103BF000F9DB0844032100F8022D417030BD38B5CF
:103C000005460C46FFF7DCFF291911F8021C81421A
:103C100001D1012032BD002032BD70B514463D4EA9
:103C20001D46022232707070B1701B0AF37035713C
:103C30002A462146701DFFF739FCED1DA9B230461A
:103C4000BDE87040CAE7F8B51C46FFF7E6FF00275D
:103C5000314D304EB8B231184FF6FF73012228466D
:103C600002F036FA7F1CBAB2E11D8A42F2DBF1BDE6
:103C700001F580604279817902704170C279017AE0
:103C800041EA02214180704738B5244C204602F0B9
:103C900037FD00283DD0204602F047FD1D4CB4F80A
:103CA000041804F204456854B4F80418491C88B296
:103CB000B0F5806FA8BF00212878A4F80418022866
:103CC00024D1B4F80418052923DBEA782879CB1F1E
:103CD00040EA022083421CD12846FFF790FF0128CA
:103CE00007D121460020FFF7C3FF284600F038F82F
:103CF0000CE0B4F804182846FFF762FF8DF80000C6
:103D000001236A460A216020FFF79DFF0020A4F8E6
:103D1000040831BDA40000206C140020AC08002071
:103D20001CB500BF39A10A6801AB04461A60684699
:103D3000FFF78EFD9DF800009DF801108DF804003E
:103D4000042301A801AA41709DF80210817001208E
:103D50008DF80700A1786078FFF775FF13BD0000AC
:103D600018B599B0044664216846FFF725FFA2788C
:103D700094F8011026A0FFF7E7FA6078022842D1F4
:103D8000A078032817D009281DD00A2823D0CA28D4
:103D900015D0D0280BD0E22821D0E3282AD0F32850
:103DA00015D0FF2804BF2046FFF7BAFF2BE02046BE
:103DB000FDF74DFD27E02046FDF72EFD23E02046D0
:103DC00002F07CFD1FE0204602F026FE1BE02046AC
:103DD00002F0CEFF17E02046FFF7ACFD13E060795C
:103DE0008DF800000323A2798DF80120E1798DF888
:103DF000021003E001208DF800000123A178607813
:103E00006A46FFF720FF1AB010BD00001807110125
:103E10001B5B33326D4D435B3078253032585D5338
:103E2000435B3078253032585D0D0A1B5B306D00E6
:103E300080B54B484B494C4A416082600021C160CB
:103E400000224FF48041026141618261C2610262DD
:103E50004262001DFDF760FF00B135E001BD30B5E5
:103E600085B001AD002100220023002485E81E005A
:103E700001683C48814225D13C4C216841F0080151
:103E800021601221206800F0080000904FF440608B
:103E9000009A019002910322049201A9344801F092
:103EA00047FB606840F4800060600022606800F4B6
:103EB0008000009000210098212003F030F821209C
:103EC00003F04CF805B030BDBDE8014003F012B975
:103ED000000000007CB51546044601AA00201080B1
:103EE0000E460320FFF7F4FA642100918DF8046078
:103EF0008DF80550022300F009F830B14FEA0002B6
:103F00000FF2980121A0FFF71FFA73BD01AA214605
:103F10001848FDF7A2BF0000F2B5074682B00320A3
:103F2000FFF7D6FA6420009001230D4E00F024F82C
:103F3000020000BF0FF254041CA501D000F021F8CC
:103F400064200090012301AA47F00101301DFEF713
:103F500032F810B1024600F014F89DF80400FEBDDE
:103F60007413002000580040A08601001810024081
:103F7000000C01407813002002AA3946301DFDF7DD
:103F80006CBF29462046FFF7DFB9000025732045A6
:103F900072726F72212125640D0A00004C45445F46
:103FA0006932635F77726974650000004C45445F55
:103FB0006932635F72656164000000002DE9F843B7
:103FC000040016D02078DFF8A874C10713D57868EC
:103FD00000F00C00042807D0786800F00C000828D6
:103FE00040D17968C8033DD53A68910303D560682C
:103FF000002800F05B812078DFF88464810719D500
:10400000786810F00C0F07D0786800F00C000828D2
:104010005FD17868C1035CD43868810703D5206913
:10402000012840F043813968606921F0F80141EAD4
:10403000C00139602178080778D5A069DFF84414F9
:10404000002800F09E8001220A6000F035FA054643
:10405000796A88075BD400F02FFA401B0228F7D951
:10406000032026E16068B0F5803F03D1386840F452
:10407000803013E058B1B0F5A02F08D1386840F473
:10408000802038603A6842F480323A6007E039684C
:1040900021F480313960386820F48020386060680D
:1040A00058B100F009FA054639688803A3D400F036
:1040B00003FA401B6528F7D3D2E700F0FDF9054667
:1040C0003968880397D500F0F7F9401B6528F7D3C6
:1040D000C6E7206968B10121316000F0EDF90546BD
:1040E000386881079FD400F0E7F9401B0228F7D910
:1040F000B6E70022326000F0DFF90546396888072C
:1041000098D500F0D9F9401B0228F7D9A8E7DFF8C5
:1041100064231168C9084FF47A70B1FBF0F0009085
:1041200000BF0098411E00280091F9D12078410776
:104130006ED5F9690025C80009D4F96941F08051AC
:10414000F9610125F86900F0805000900098DFF8CF
:104150003883D8F80000C10520D4D8F8000040F416
:104160008070C8F8000000F0A7F98146D8F8001068
:10417000C80513D400F0A0F9A0EB09006528F5D319
:104180006EE7086000F098F90546796A8807CDD592
:1041900000F092F9401B0228F7D961E7E068012896
:1041A00008D008B9386A09E00528386A06D140F015
:1041B00004003862386A40F0010005E04008400021
:1041C0003862386A20F00400386241F28938E068C9
:1041D00060B100F071F98146396A880713D400F0A4
:1041E0006BF9A0EB09004045F6D339E700F064F91C
:1041F0008146396A880706D500F05EF9A0EB090010
:104200004045F6D32CE71DB1F86920F08050F861E5
:10421000E06900284CD0796801F00C01082938D0F9
:1042200002282AD100F047F805463968880105D5EB
:1042300000F042F9401B0228F7D911E7206AB0F5D7
:10424000803F05D17968A06821F40031014379608D
:104250007A68206A616A22F4741202430A437A601F
:10426000012000F029F804463868810120D400F0CC
:1042700023F9001B0228F7D9F2E600F01CF80446E7
:104280003868810114D500F017F9001B0228F7D90E
:10429000E6E601280AD07868226A00F4803191426B
:1042A00002BF00F47010616A884201D0012000E072
:1042B0000020BDE8F2830020306600F0FDB82DE953
:1042C000F041040088465FD0704E306800F007006F
:1042D000404509D23168C90848EAC10131603068F7
:1042E00000F0070040454FD12168614D880712D585
:1042F000490703D5686840F4E060686020780107EA
:1043000003D5686840F4605068606968A06821F06F
:10431000F001014369602178C80726D5606801284B
:1043200002D129688A0303E0022803D129688A019F
:1043300003D429E02B68990726D56A68920840EAD9
:104340008200686000F0B8F807466868616800F0AD
:104350000C00B0EB810F08D000F0AEF8C01B41F2AA
:1043600089318842F1D3032032E0316801F007013E
:1043700088450BD23068C00848EAC0003060316818
:1043800001F00701414501D0012021E021784807D3
:1043900005D56968E06821F4E0610143696021782E
:1043A0000A0706D56868216920F4605040EAC10018
:1043B000686000F00FF86A683549C2F303128B5C3D
:1043C0002C49D84008602D48006802F095FE002076
:1043D000BDE8F0812F4930480A6802F00C03042B35
:1043E00000D1704710B5082B12D100BF2DA4C2F325
:1043F0008343D203E35C08D5096858432DA3C1F376
:104400004041595CB0FBF1F010BD2448584310BD49
:10441000194810BD17481F4B00681A682049C2F39D
:10442000022206E013481B4B00681A681C49C2F3BD
:10443000C222895CC840704710B50F220260154A3D
:10444000136803F003034360146804F0F00484600D
:10445000136803F4E063C3601268D20802F4E062F8
:1044600002610A4A106800F00700086010BD0000F1
:10447000001002401000002000127A000C00002002
:10448000000042428004424200700040002002408E
:10449000A4910008041002400024F40000093D002B
:1044A000C491000802030405060708090A0B0C0D55
:1044B0000E0F10100102430001484068704700BF12
:1044C000040000207047704770477047704770477E
:1044D00090F82130022B00F1380206D0042111603F
:1044E000002280F820200120704701680B6823F02B
:1044F0000E030B600368196849084900196001231D
:10450000916852688B4053600021012380F821306C
:1045100080F8201000207047F8B590F82120002482
:10452000022A00F1340103D00420486001245FE036
:104530000268136823F00E0313604FF4803503689C
:104540001A68520852001A604FF480560268DFF869
:10455000A8309A424FF4807719D9DFF898309A4200
:1045600008BF012510D0DFF894309A4208BF10250B
:104570000AD0DFF88C309A4208BF3D4604D0DFF8FD
:104580008470BA4208BF3546DFF87C2027E0DFF8A8
:104590007CC062451CD0DFF878E072451AD0DFF8A5
:1045A00074C0624518D0DFF87070BA420EBF35464D
:1045B000DFF86860B24210D0DFF86460B24208BF32
:1045C0004FF4801509D09A4207D14FF0807504E06E
:1045D000012502E0102500E03D46DFF84820156087
:1045E000012380F8213080F82040096801B1884714
:1045F0002046F2BD08040240800002401C04024034
:104600003004024044040240040402400800024016
:104610001C000240300002404400024058000240AA
:104620006C0002400400024090F82100704770477F
:10463000704770477047000040F0200070472DE938
:10464000F14FB0B0924604910DF142013A9A2B918C
:1046500099464A7000200AE01AF8011B0498309A23
:1046600090470028049000F043860D98401C0D9060
:104670009AF8000050B12528EED1002200210792BF
:10468000089109920A910B920C9104E00D9800F0A8
:1046900031BE41F001011AF8010F2028F9D023287A
:1046A0000CD02B2804D02D2805D0302809D00BE0C1
:1046B00041F00201EFE741F00401ECE741F00801AD
:1046C000E9E741F01001E6E72A280FD1D9F80020E8
:1046D00052F8040BC9F8002000280F9003D540427F
:1046E0000F9041F004010AF1010A14E00F92DFF883
:1046F0000C0C0AE00F9C844205DA04EB840302EB05
:104700004302303A0F920AF1010A9AF80020A2F10E
:1047100030030A2BEED39AF800202E2A03D04FF054
:10472000FF300E9029E01AF8010F2A2809D1D9F894
:10473000002052F8040BC9F800200E900AF1010A7B
:104740001BE02D280CBF0AF1010A002000220E9266
:10475000DFF8A85B0BE040B90E9BAB4205DA03EB38
:10476000830402EB4402303A0E920AF1010A9AF8ED
:104770000020A2F130030A2BEDD3ADF840100FF664
:1047800080309AF8001002F0FFFC08B11AF8010B13
:104790008DF842009DF84200682805D19AF8001073
:1047A00068290CD1622006E06C2804BF9AF800103A
:1047B0006C2904D171208DF842000AF1010A12AA75
:1047C00006921AF801BBBBF125002CD01C3800F072
:1047D0009781001F022840F29381133800F0BA84B9
:1047E000093800F08D81801E00F04F85401E00F0DA
:1047F000FC84401E022840F28381001F00F0F584F3
:10480000401F00F0F280401E00F0A484401E00F023
:10481000DA80C01E0ED0801E00F09C84C01E00F006
:10482000998400F03DBD0122252107928DF84810A2
:1048300000F042BDD9F8000050F8044BC9F8000060
:10484000002C059440F0AB802B994878002800F0AC
:10485000A1804FF0FF340FF6B02002F0A1FC241A23
:1048600040F0468500F028BD01236A4602A9304683
:1048700000F00CFE002840F03B85641EF4D1309619
:10488000079C12AE74B1309F16F8011B0498B8470C
:104890000028049000F02C850D98401C641E0D909B
:1048A000F2D130970A9C3021002C8DF800100CDDDD
:1048B000309E01236A4602A9304600F0E7FD002839
:1048C00040F01685641EF4D13096059E089C74B1A4
:1048D000309F16F8011B0498B8470028049000F098
:1048E00007850D98401C641E0D90F2D130970B9CEB
:1048F0003021002C8DF800100CDD309E01236A461B
:1049000002A9304600F0C2FD002840F0F184641E88
:10491000F4D1309605980899099C461874B1309FD7
:1049200016F8011B0498B8470028049000F0E084B2
:104930000D98401C641E0D90F2D130970C9C3021D4
:10494000002C8DF800100CDD309E01236A4602A970
:10495000304600F09BFD002840F0CA84641EF4D16C
:1049600030969DF8400041077FF582AE2020002D53
:104970008DF800007FF77CAE309C01236A4602A9C7
:10498000204600F083FD002840F0B2846D1EF4D173
:1049900030946DE60FF65430059000F08DBC0E9DFE
:1049A000002D04D5204602F01BFC044608E02A46F0
:1049B0000021204602F030FC002814BF041B2C46C6
:1049C000089400F079BCD9F8001051F8040BC9F82C
:1049D000001020F00002002121F0FF33CDE9022376
:1049E00012AC0594782100F04CBC2B99487820B18A
:1049F0004FF0FF340FF6C4202FE79DF842006228E5
:104A000060D0682817D06A283FD06C2806D071285B
:104A100047D074282CD07A281DD062E0D9F8001035
:104A200051F8040BC9F80010002866D14FF0FF348C
:104A30000FF6A02011E7D9F8001051F8040BC9F8BF
:104A4000001020B94FF0FF340FF6882005E70D99CC
:104A5000018000F031BCD9F8001051F8040BC9F8FE
:104A60000010002849D14FF0FF340FF66820F4E61B
:104A7000D9F8001051F8040BC9F8001000283CD1F7
:104A80004FF0FF340FF64C20E7E6D9F8001051F84C
:104A9000040BC9F8001080B94FF0FF340FF6342032
:104AA000DBE6D9F8001051F8040BC9F8001020B962
:104AB0004FF0FF340FF61C20CFE60D9AD317C0E954
:104AC0000023F9E3D9F8001051F8040BC9F80010DD
:104AD00020B94FF0FF340FF6FC10BEE60D990170BF
:104AE000EAE3D9F8001051F8040BC9F8001020B916
:104AF0004FF0FF340FF6DC10AFE60D990160DBE3F9
:104B00009DF842004C2807BFD9F80010CA1DD9F8FB
:104B10000000C21D22F00702C9F80020D2E90001FE
:104B20000832C9F80020CDE90201C80F02D0079869
:104B30002D210AE0BDF84010880702D507982B21E7
:104B400003E0C80705D50798202112AA1154401C7C
:104B5000079012A807994BF0200300EB010CDDE948
:104B60000201CDE92C01612BCDF814C021AC0BD092
:104B70000E98002848BF062105D404BF4BF0200042
:104B8000672801D101210E91DDE902677B0043EA2C
:104B9000D6735A15DB174FF0FF30834208BF8242AD
:104BA00010D13F0347EA16573603002F08BF002EE7
:104BB00008D0ABF1610503211A2D089118D30FF627
:104BC000341110E0DDE902014A00521512F1010F23
:104BD00011D108030FD1ABF1610503211A2D089102
:104BE0001FD30FF6181103226046FEF75FFC63E344
:104BF0000FF6FC01F7E7DDE902016A4602F038FB37
:104C0000CDE902014BF02000612811D10598302236
:104C10000270811C0591BBF1610F0CBF78215821F6
:104C200002E00FF6D401DEE741700798801C079080
:104C3000DDE9020120F0000231F0004308BF002A44
:104C400002D10026002542E14BF02008B8F1610FA7
:104C500040F093800E98002847BF21210191401C0D
:104C60000190019EDDE92C01761C00220023DDE984
:104C7000024502F035FB38BF85F0004500988DF8FD
:104C80008420001F002E00900DF1850732DD2046A4
:104C900029460022002302F03DFB2BD21C2202F009
:104CA00053FB04460D4602F0EDFBF61F002E804636
:104CB00009DD02F003FC02460B462046294602F0BD
:104CC000C5FC04460D46F81D0721B8F1000F0CDDA8
:104CD000491E5EBF08F00F0200F8012D4FEA2818A8
:104CE000F3D502E0002200F8012D491EFAD5C71DB8
:104CF000002ECCDC0DF185003F1A01980DF18504E2
:104D00003E468742C8BF0646002E2FD4BE4206DA72
:104D10000DF18500815D0829A8BF0F2000DA002071
:104D2000324621A98D1800E0761E15F80139521E71
:104D30008342F9D00F2804D10DF18501885C401C15
:104D40008854002A04D50098001D21AC761C0090E0
:104D5000701E0BD421180B783033DAB23A2AA4BF74
:104D60005B443A3B401E01F80139F4D50E99002905
:104D700040F1AC80701E0E90A8E00099DFF8FC2690
:104D800047F29750414391FBF2F20092DDE92C4546
:104D9000C2F10702002A25F0004504DD204629461D
:104DA00000F049FB0BE052420020DFF8D41600F07F
:104DB00042FB02460B462046294602F0B9FC044657
:104DC0000D46B8F1660F06BF009E0A3606260E98FD
:104DD0003618142EC8BF142630208DF884000DF12B
:104DE0008507002E34DD2046294602F0C5FD014628
:104DF0000A4607F1080C04200A27B2FBF7FE0EEB67
:104E00008E03A2EB430230320CF8012C0A22BEFBC7
:104E1000F2F202EB8203AEEB43033033401E0CF898
:104E2000023DE9D1083E002E0CF10807D9DD084605
:104E300002F0B4FD02460B462046294602F006FC6D
:104E40000022DFF8403602F0B7FD04460D46CAE7FF
:104E50000DF185003F1A0DF1850404E00098401E15
:104E60007F1E0090641C20783028F7D0B8F1660FC0
:104E700002D1009E761C04E0B8F1650F0CBF01263C
:104E800000260E983618B742B8BF7E1E002E1DD4DD
:104E9000BE4204DAA05D3428C8BF392000DC3020CF
:104EA0003246611E8D1800E0761E15F80179521EFB
:104EB0008742F9D0392802D1A05C401CA054002AB6
:104EC00004D50098401C0C46761C0090009D02F012
:104ED00061FE406A0778DDF8388030B2002802DCD5
:104EE00001260FF21C644BF02000662808BF6D1CE1
:104EF00016D0672845D128B210F1040F47DB404592
:104F000045DA9DF840106D1C080703D430B24045C7
:104F1000D8BF804628B2B8EB000848BF4FF0000861
:104F20000FFA85FBBBF1000F00F3B3800898411C1A
:104F30000891302205990A54B8F1000F03DC9DF85E
:104F40004010080704D50898411C089105990F5492
:104F500018EB0B0FB8BFC8F100052DB268424544ED
:104F600032B20B909542B8BF2E46059B089836B2D8
:104F70000996324621461844FEF798FAAD1B0C9567
:104F8000D1E0BBF1610F17D14FF0700B19E030B2D7
:104F9000404504DA9DF840100A0758BF8046B8F132
:104FA000010848BF4FF00008BBF1670F14BF4FF076
:104FB000450B4FF0650B04E0BBF1410F08BF4FF00C
:104FC000500B0898411C0891B8F1000F059914F88E
:104FD000012B0A5403DC9DF8401008071AD50898E5
:104FE000411C0891B8F1000F05990F5412DD761E8F
:104FF00030B28045B8BF46460598089B32B221467C
:105000001844FEF753FA089836B230180890A8EB07
:1050100006000B9005980899014428B2002881F8F1
:1050200000B003D42B204870891C04E02D224A7064
:105030000546891C6D4200202CAA0AE02B460A2551
:1050400093FBF5F505EB8504A3EB440302F8013B64
:10505000401C2DB2002DF1DC012806DC4BF02002B3
:10506000652A04BF302201F8012B00282CAB08D19F
:10507000302001F8010B06E0401E1A5C303201F8C6
:10508000012B0028F8DC059A08981044091A0991A8
:1050900049E031B228B281421CDA059B089832B24D
:1050A00021461844FEF702FA089936B271180891A1
:1050B000ABEB0600B8F1000F0B9003DC9DF840004D
:1050C000020704D5059847540999491C0991CDF860
:1050D000308028E0059B08982AB221461844FEF744
:1050E000E5F90898761B5844B8F1000F089003DCE6
:1050F0009DF840100A0703D5411C089105990F54EB
:1051000030B28045B8BF46460598089B32B204EBE2
:105110000B011844FEF7CAF9089836B23018089007
:10512000A8EB06000B909DF8400000F0140010283A
:1051300040F0C280079A08980B99821809988A183B
:1051400082180C980F998018884280F2B580081A4E
:105150000A90B1E09DF84200622808D068280ED07D
:105160006A2814D06C281FD0712810D01CE0D9F800
:10517000001051F8040BC9F80010C0B21AE0D9F8B9
:10518000001051F8040BC9F8001080B212E0D9F8F1
:105190000000C21D22F00702C9F80020D2E9000178
:1051A0000832C9F8002006E0D9F8001051F8040BC5
:1051B000C9F800100021CDE902019DF84000020766
:1051C0005AD5DDE90201002908BF002854D04BF070
:1051D0002002782A50D1079912A830234354491C41
:1051E0004A1C079200F801B046E09DF84200622890
:1051F00008D068280ED06A2814D06C281FD07128D7
:1052000010D01CE0D9F8001051F8040BC9F80010B8
:1052100040B21AE0D9F8001051F8040BC9F8001098
:1052200000B212E0D9F80000C21D22F00702C9F84E
:105230000020D2E900010832C9F8002006E0D9F8C0
:10524000001051F8040BC9F80010C117CDE9020194
:10525000002902D507982D220AE0BDF840008107F9
:1052600002D507982B2203E0C00705D50798202216
:1052700012A90A54401C079012A8079901440591ED
:10528000594602A800F04EF816E001200790D9F820
:10529000001051F8040BC9F800108DF848000BE01D
:1052A00001222521BBF1000F07928DF8481003D091
:1052B000022007908DF849B00F9D07980A992D1A82
:1052C00008986D1A0B992D1A09986D1A0C992D1AB8
:1052D0009DF840006D1A41073FF5D2AA2020002D0D
:1052E0008DF800007FF7CCAA309E2C46FFF7BCBAA1
:1052F0004FF0FF3031B0BDE8F08F0000CBCCCC0CCC
:10530000686A6C747A4C00007072696E74665F73C0
:105310003A2062616420257320617267756D656E45
:10532000740000002DE9FE4C06468B46376958464E
:105330006F2808BF082205D0FFF77EF9782814BF30
:105340000A221022D6E900013C2504468A46BBF118
:10535000640F18BFBBF1690F04D1002902D5644264
:105360006AEB4A0ABAF1000F08BF002C0CD1306B6F
:1053700050B9082A3BD196F83810080737D53021A4
:105380003B2587F83B1032E08DF800B0934620466D
:1053900051465A46002302F003FC3032D0B26D1E53
:1053A0003A2801950DDA7A55204651465A4600238F
:1053B00002F0F6FB04465FEA010A08BF002C05D1A3
:1053C00008E09DF800001218513AECE7F1687819EE
:1053D0008142DCD3BBF1080F09D196F838000107F0
:1053E00005D5785D302802D06D1E30207855C5F186
:1053F0003C02306BB26179198242F16007DA318F79
:10540000821A4FF6EF7001403262318710E00028B7
:105410000ED596F8380000F01400102808D1736BF0
:105420007069316A1B1A5B1A9B1A002BC8BF336262
:1054300003B0BDE8F08C2DE9D04306460F46144674
:105440004FF00008DFF8409012E0E00707D5424631
:105450004B463046394602F0AFFA06460F46404604
:10546000494642464B4602F0A7FA641080468946F8
:10547000002CEAD130463946BDE8D083A086010031
:105480000000F03F84D7974100002440F8B505465E
:105490000E4617461C4600205CB117F8011BB06889
:1054A000A847B06030B1F06A401CF0620020641E72
:1054B000F3D1F2BD4FF0FF30F2BD00007072696EA3
:1054C00074665F733A20256E20646973616C6C6F3B
:1054D000776564007072696E74663A206261642058
:1054E000256E20617267756D656E740000000000A6
:1054F0006E616E004E414E00696E6600494E460078
:10550000300000000749086808B1002070470648CD
:10551000C008C00008600549C908C900091A01602F
:10552000704700BF781500208F190020881D0020CB
:105530002DE9F84700270024784BDFF8E481794D06
:105540004FF00F09024610E0D3F800E000EA0E0029
:10555000186009E0C3F804C04E68F603F4D5186873
:105560004EEA000EC3F800E07F1C0E6836FA07F022
:1055700000F0B680012000FA07FC0CEA060EE645B2
:10558000F2D14E683EB3012E1AD0022E1DD0032E4A
:105590002ED0112E16D0122E1AD0634886421CBF70
:1055A0006248864217D0624886421CBF61488642E4
:1055B00011D0614886421CBF604886420BD018E07B
:1055C000CC6816E0CC68241D13E0CC68083410E0E9
:1055D000CC680C340DE0886808B9042409E001287F
:1055E00019BF0824C2F814C00824C2F810C000E093
:1055F0000024BEF5807F03D210464FEA870C04E0FA
:10560000A7F10806101D4FEA860CD0F800A009FA91
:105610000CF62AEA060604FA0CFC4CEA060CC0F862
:1056200000C04868C0009FD52E6846F001062E6075
:10563000BE00286800F00100009006F00C0C0098F5
:10564000B80858F820A009FA0CF62AEA060A3C4ED7
:10565000B24208BF002618D03A4EB24208BF012617
:1056600013D0394EB24208BF02260ED0374EB24296
:1056700008BF032609D0364EB24208BF042604D024
:10568000344EB2420CBF0526062606FA0CF646EA50
:105690000A0C48F820C06FEA0E004E68F60204D5E6
:1056A0009E684EEA06069E6005E0D3F808C000EA50
:1056B0000C0CC3F808C04E68D3F80CC0B6024CBF3F
:1056C0004EEA0C0C00EA0C0CC3F80CC04E68D3F880
:1056D00004C0B6034CBF4EEA0C0C00EA0C0C39E7D0
:1056E000BDE8F1878068084018BF0120C0B270474C
:1056F00002B9090401617047C36801EA03029943D2
:1057000041EA02410161704713490A6803461A429F
:105710001CBF0B6002F072BB704700000004014028
:105720000800014018100240000011100000121083
:105730000000211000002210000031100000321083
:1057400000080140000C014000100140001401401D
:1057500000180140001C0140140401402DE9F84FDD
:1057600084B00D4616460BB100221A608346D84617
:1057700001E008F1010898F8000002F051FB002850
:10578000F7D198F800002D2816BF2B2818F8014BE8
:105790002B24002E019503D4012E01D0252E04DBED
:1057A000002D58D0C5F800B055E0002E0CDD102EAD
:1057B00004BF98F80000302802BF98F8010040F0BC
:1057C0002000782811D10CE098F80000302818BF8C
:1057D0000A260AD198F8010040F02000782803D169
:1057E000102608F1020800E00826CDF80C8001E040
:1057F00008F1010898F800003028F9D0064D7D44E2
:1058000016354FF0000905F12800CDF80880CA468A
:105810008DF800000CE000BF4836000007469DF8F8
:1058200000003F1ACA46FFB206FB097908F10108D9
:1058300098F8000002F0FEFA0146324605F1280011
:1058400001F0EAFC0028E9D10399414505D101980E
:1058500008B1C0F800B0002020E00299A85DA8EBD4
:105860000101091A002910D406DCB9EB070703D39C
:10587000B7FBF6F0504508D0AFF30080049808B1AC
:10588000012101604FF0FF3903E02D2C08BFC9F161
:105890000009019808B1C0F80080484605B0BDE88D
:1058A000F08F04E000E000000A220021F9E7002365
:1058B00054E7000010F8012B11F8013B0AB19A429D
:1058C000F8D0D01A7047000038B5040001D101208B
:1058D00032BD606A28B900F097FA05D00021E16175
:1058E00002E00020206160610020A06204F1500508
:1058F000687820B900212970204600F050FB022072
:1059000068702068016821F0400101606068A26849
:10591000E16800F4827002F404421043227C01F436
:1059200000610843217D02F002021043A26901F0E8
:1059300001010843217F02F40072104394F82020F3
:1059400001F038010843A16A02F080021043226886
:1059500001F4005108431060A1692068090C01F0AE
:10596000040141602168C86920F40060C861002119
:10597000696001206870002032BD2DE9FC410646B7
:105980000C4615469846FEF797FD06F150077978C4
:10599000012907D1002C14BF002D012003D0397834
:1059A000012901D102207DE001233B704FF0030C5F
:1059B00087F801C0002179603463B586F586B1634C
:1059C000B187F18771643164B368B3F5004F09D1D1
:1059D00031680B6823F040030B603368196841F4A9
:1059E0008041196031680B685C0600F0D5F94446C7
:1059F000F168B1F5006F716821D1002918BF012D40
:105A000000F0ECF906E0326B1188C160306B821C4B
:105A100000F04AF8F08E002830D030688268910794
:105A2000F1D4FEF749FD00F0E0F805D314F1010FC1
:105A3000F0D000F0B7F935E0002CEBD1F9E7002900
:105A400018BF012D00F0BDF906E0326B117801732B
:105A5000306B421C00F028F8F08E78B13068816815
:105A60008A07F2D4FEF728FD00F0BFF803D314F143
:105A7000010FF1D0DDE7002CEED1DAE742462146F6
:105A8000304600F04EFA08B120207860B06838B98E
:105A9000002100913068C1680091826800920099ED
:105AA00000F086F9BDE8F6813263F18E481EF0867B
:105AB00070472DE9F843074607F15006894670788C
:105AC000012815461C461DD17868B0F5827F04BFB9
:105AD000B86800280AD14FF0040C86F801C0009481
